{"abi":[{"type":"constructor","inputs":[{"name":"_asset","type":"address","internalType":"contract IERC20"},{"name":"_name","type":"string","internalType":"string"},{"name":"_symbol","type":"string","internalType":"string"},{"name":"_lendingPool","type":"address","internalType":"address"},{"name":"_treasury","type":"address","internalType":"address"}],"stateMutability":"nonpayable"},{"type":"function","name":"LENDING_POOL","inputs":[],"outputs":[{"name":"","type":"address","internalType":"contract IAaveV2LendingPool"}],"stateMutability":"view"},{"type":"function","name":"aToken","inputs":[],"outputs":[{"name":"","type":"address","internalType":"address"}],"stateMutability":"view"},{"type":"function","name":"allowance","inputs":[{"name":"owner","type":"address","internalType":"address"},{"name":"spender","type":"address","internalType":"address"}],"outputs":[{"name":"","type":"uint256","internalType":"uint256"}],"stateMutability":"view"},{"type":"function","name":"approve","inputs":[{"name":"spender","type":"address","internalType":"address"},{"name":"value","type":"uint256","internalType":"uint256"}],"outputs":[{"name":"","type":"bool","internalType":"bool"}],"stateMutability":"nonpayable"},{"type":"function","name":"asset","inputs":[],"outputs":[{"name":"","type":"address","internalType":"address"}],"stateMutability":"view"},{"type":"function","name":"balanceOf","inputs":[{"name":"account","type":"address","internalType":"address"}],"outputs":[{"name":"","type":"uint256","internalType":"uint256"}],"stateMutability":"view"},{"type":"function","name":"convertToAssets","inputs":[{"name":"shares","type":"uint256","internalType":"uint256"}],"outputs":[{"name":"","type":"uint256","internalType":"uint256"}],"stateMutability":"view"},{"type":"function","name":"convertToShares","inputs":[{"name":"assets","type":"uint256","internalType":"uint256"}],"outputs":[{"name":"","type":"uint256","internalType":"uint256"}],"stateMutability":"view"},{"type":"function","name":"decimals","inputs":[],"outputs":[{"name":"","type":"uint8","internalType":"uint8"}],"stateMutability":"view"},{"type":"function","name":"deposit","inputs":[{"name":"assets","type":"uint256","internalType":"uint256"},{"name":"receiver","type":"address","internalType":"address"}],"outputs":[{"name":"shares","type":"uint256","internalType":"uint256"}],"stateMutability":"nonpayable"},{"type":"function","name":"emergencyWithdrawFromMoola","inputs":[],"outputs":[],"stateMutability":"nonpayable"},{"type":"function","name":"getCurrentAPY","inputs":[],"outputs":[{"name":"","type":"uint256","internalType":"uint256"}],"stateMutability":"view"},{"type":"function","name":"getVaultStats","inputs":[],"outputs":[{"name":"totalAsset","type":"uint256","internalType":"uint256"},{"name":"totalShares","type":"uint256","internalType":"uint256"},{"name":"apy","type":"uint256","internalType":"uint256"},{"name":"reserve","type":"uint256","internalType":"uint256"}],"stateMutability":"view"},{"type":"function","name":"harvest","inputs":[],"outputs":[],"stateMutability":"nonpayable"},{"type":"function","name":"initializeAToken","inputs":[],"outputs":[],"stateMutability":"nonpayable"},{"type":"function","name":"maxDeposit","inputs":[{"name":"","type":"address","internalType":"address"}],"outputs":[{"name":"","type":"uint256","internalType":"uint256"}],"stateMutability":"view"},{"type":"function","name":"maxMint","inputs":[{"name":"","type":"address","internalType":"address"}],"outputs":[{"name":"","type":"uint256","internalType":"uint256"}],"stateMutability":"view"},{"type":"function","name":"maxRedeem","inputs":[{"name":"owner","type":"address","internalType":"address"}],"outputs":[{"name":"","type":"uint256","internalType":"uint256"}],"stateMutability":"view"},{"type":"function","name":"maxWithdraw","inputs":[{"name":"owner","type":"address","internalType":"address"}],"outputs":[{"name":"","type":"uint256","internalType":"uint256"}],"stateMutability":"view"},{"type":"function","name":"mint","inputs":[{"name":"shares","type":"uint256","internalType":"uint256"},{"name":"receiver","type":"address","internalType":"address"}],"outputs":[{"name":"","type":"uint256","internalType":"uint256"}],"stateMutability":"nonpayable"},{"type":"function","name":"name","inputs":[],"outputs":[{"name":"","type":"string","internalType":"string"}],"stateMutability":"view"},{"type":"function","name":"owner","inputs":[],"outputs":[{"name":"","type":"address","internalType":"address"}],"stateMutability":"view"},{"type":"function","name":"pause","inputs":[],"outputs":[],"stateMutability":"nonpayable"},{"type":"function","name":"paused","inputs":[],"outputs":[{"name":"","type":"bool","internalType":"bool"}],"stateMutability":"view"},{"type":"function","name":"performanceFee","inputs":[],"outputs":[{"name":"","type":"uint256","internalType":"uint256"}],"stateMutability":"view"},{"type":"function","name":"previewDeposit","inputs":[{"name":"assets","type":"uint256","internalType":"uint256"}],"outputs":[{"name":"","type":"uint256","internalType":"uint256"}],"stateMutability":"view"},{"type":"function","name":"previewMint","inputs":[{"name":"shares","type":"uint256","internalType":"uint256"}],"outputs":[{"name":"","type":"uint256","internalType":"uint256"}],"stateMutability":"view"},{"type":"function","name":"previewRedeem","inputs":[{"name":"shares","type":"uint256","internalType":"uint256"}],"outputs":[{"name":"","type":"uint256","internalType":"uint256"}],"stateMutability":"view"},{"type":"function","name":"previewWithdraw","inputs":[{"name":"assets","type":"uint256","internalType":"uint256"}],"outputs":[{"name":"","type":"uint256","internalType":"uint256"}],"stateMutability":"view"},{"type":"function","name":"redeem","inputs":[{"name":"shares","type":"uint256","internalType":"uint256"},{"name":"receiver","type":"address","internalType":"address"},{"name":"owner","type":"address","internalType":"address"}],"outputs":[{"name":"","type":"uint256","internalType":"uint256"}],"stateMutability":"nonpayable"},{"type":"function","name":"renounceOwnership","inputs":[],"outputs":[],"stateMutability":"nonpayable"},{"type":"function","name":"reserveRatio","inputs":[],"outputs":[{"name":"","type":"uint256","internalType":"uint256"}],"stateMutability":"view"},{"type":"function","name":"setPerformanceFee","inputs":[{"name":"_performanceFee","type":"uint256","internalType":"uint256"}],"outputs":[],"stateMutability":"nonpayable"},{"type":"function","name":"setReserveRatio","inputs":[{"name":"_reserveRatio","type":"uint256","internalType":"uint256"}],"outputs":[],"stateMutability":"nonpayable"},{"type":"function","name":"setTreasury","inputs":[{"name":"_treasury","type":"address","internalType":"address"}],"outputs":[],"stateMutability":"nonpayable"},{"type":"function","name":"symbol","inputs":[],"outputs":[{"name":"","type":"string","internalType":"string"}],"stateMutability":"view"},{"type":"function","name":"totalAssets","inputs":[],"outputs":[{"name":"","type":"uint256","internalType":"uint256"}],"stateMutability":"view"},{"type":"function","name":"totalSupply","inputs":[],"outputs":[{"name":"","type":"uint256","internalType":"uint256"}],"stateMutability":"view"},{"type":"function","name":"transfer","inputs":[{"name":"to","type":"address","internalType":"address"},{"name":"value","type":"uint256","internalType":"uint256"}],"outputs":[{"name":"","type":"bool","internalType":"bool"}],"stateMutability":"nonpayable"},{"type":"function","name":"transferFrom","inputs":[{"name":"from","type":"address","internalType":"address"},{"name":"to","type":"address","internalType":"address"},{"name":"value","type":"uint256","internalType":"uint256"}],"outputs":[{"name":"","type":"bool","internalType":"bool"}],"stateMutability":"nonpayable"},{"type":"function","name":"transferOwnership","inputs":[{"name":"newOwner","type":"address","internalType":"address"}],"outputs":[],"stateMutability":"nonpayable"},{"type":"function","name":"treasury","inputs":[],"outputs":[{"name":"","type":"address","internalType":"address"}],"stateMutability":"view"},{"type":"function","name":"unpause","inputs":[],"outputs":[],"stateMutability":"nonpayable"},{"type":"function","name":"withdraw","inputs":[{"name":"assets","type":"uint256","internalType":"uint256"},{"name":"receiver","type":"address","internalType":"address"},{"name":"owner","type":"address","internalType":"address"}],"outputs":[{"name":"shares","type":"uint256","internalType":"uint256"}],"stateMutability":"nonpayable"},{"type":"event","name":"Approval","inputs":[{"name":"owner","type":"address","indexed":true,"internalType":"address"},{"name":"spender","type":"address","indexed":true,"internalType":"address"},{"name":"value","type":"uint256","indexed":false,"internalType":"uint256"}],"anonymous":false},{"type":"event","name":"Deposit","inputs":[{"name":"sender","type":"address","indexed":true,"internalType":"address"},{"name":"owner","type":"address","indexed":true,"internalType":"address"},{"name":"assets","type":"uint256","indexed":false,"internalType":"uint256"},{"name":"shares","type":"uint256","indexed":false,"internalType":"uint256"}],"anonymous":false},{"type":"event","name":"OwnershipTransferred","inputs":[{"name":"previousOwner","type":"address","indexed":true,"internalType":"address"},{"name":"newOwner","type":"address","indexed":true,"internalType":"address"}],"anonymous":false},{"type":"event","name":"Paused","inputs":[{"name":"account","type":"address","indexed":false,"internalType":"address"}],"anonymous":false},{"type":"event","name":"PerformanceFeeUpdated","inputs":[{"name":"newFee","type":"uint256","indexed":false,"internalType":"uint256"}],"anonymous":false},{"type":"event","name":"ReserveRatioUpdated","inputs":[{"name":"newRatio","type":"uint256","indexed":false,"internalType":"uint256"}],"anonymous":false},{"type":"event","name":"Supplied","inputs":[{"name":"user","type":"address","indexed":true,"internalType":"address"},{"name":"amount","type":"uint256","indexed":false,"internalType":"uint256"}],"anonymous":false},{"type":"event","name":"Transfer","inputs":[{"name":"from","type":"address","indexed":true,"internalType":"address"},{"name":"to","type":"address","indexed":true,"internalType":"address"},{"name":"value","type":"uint256","indexed":false,"internalType":"uint256"}],"anonymous":false},{"type":"event","name":"Unpaused","inputs":[{"name":"account","type":"address","indexed":false,"internalType":"address"}],"anonymous":false},{"type":"event","name":"Withdraw","inputs":[{"name":"sender","type":"address","indexed":true,"internalType":"address"},{"name":"receiver","type":"address","indexed":true,"internalType":"address"},{"name":"owner","type":"address","indexed":true,"internalType":"address"},{"name":"assets","type":"uint256","indexed":false,"internalType":"uint256"},{"name":"shares","type":"uint256","indexed":false,"internalType":"uint256"}],"anonymous":false},{"type":"event","name":"Withdrawn","inputs":[{"name":"user","type":"address","indexed":true,"internalType":"address"},{"name":"amount","type":"uint256","indexed":false,"internalType":"uint256"}],"anonymous":false},{"type":"event","name":"YieldHarvested","inputs":[{"name":"amount","type":"uint256","indexed":false,"internalType":"uint256"},{"name":"fee","type":"uint256","indexed":false,"internalType":"uint256"}],"anonymous":false},{"type":"error","name":"ERC20InsufficientAllowance","inputs":[{"name":"spender","type":"address","internalType":"address"},{"name":"allowance","type":"uint256","internalType":"uint256"},{"name":"needed","type":"uint256","internalType":"uint256"}]},{"type":"error","name":"ERC20InsufficientBalance","inputs":[{"name":"sender","type":"address","internalType":"address"},{"name":"balance","type":"uint256","internalType":"uint256"},{"name":"needed","type":"uint256","internalType":"uint256"}]},{"type":"error","name":"ERC20InvalidApprover","inputs":[{"name":"approver","type":"address","internalType":"address"}]},{"type":"error","name":"ERC20InvalidReceiver","inputs":[{"name":"receiver","type":"address","internalType":"address"}]},{"type":"error","name":"ERC20InvalidSender","inputs":[{"name":"sender","type":"address","internalType":"address"}]},{"type":"error","name":"ERC20InvalidSpender","inputs":[{"name":"spender","type":"address","internalType":"address"}]},{"type":"error","name":"ERC4626ExceededMaxDeposit","inputs":[{"name":"receiver","type":"address","internalType":"address"},{"name":"assets","type":"uint256","internalType":"uint256"},{"name":"max","type":"uint256","internalType":"uint256"}]},{"type":"error","name":"ERC4626ExceededMaxMint","inputs":[{"name":"receiver","type":"address","internalType":"address"},{"name":"shares","type":"uint256","internalType":"uint256"},{"name":"max","type":"uint256","internalType":"uint256"}]},{"type":"error","name":"ERC4626ExceededMaxRedeem","inputs":[{"name":"owner","type":"address","internalType":"address"},{"name":"shares","type":"uint256","internalType":"uint256"},{"name":"max","type":"uint256","internalType":"uint256"}]},{"type":"error","name":"ERC4626ExceededMaxWithdraw","inputs":[{"name":"owner","type":"address","internalType":"address"},{"name":"assets","type":"uint256","internalType":"uint256"},{"name":"max","type":"uint256","internalType":"uint256"}]},{"type":"error","name":"EnforcedPause","inputs":[]},{"type":"error","name":"ExpectedPause","inputs":[]},{"type":"error","name":"InsufficientBalance","inputs":[]},{"type":"error","name":"InvalidAddress","inputs":[]},{"type":"error","name":"InvalidAmount","inputs":[]},{"type":"error","name":"MoolaOperationFailed","inputs":[]},{"type":"error","name":"OwnableInvalidOwner","inputs":[{"name":"owner","type":"address","internalType":"address"}]},{"type":"error","name":"OwnableUnauthorizedAccount","inputs":[{"name":"account","type":"address","internalType":"address"}]},{"type":"error","name":"ReentrancyGuardReentrantCall","inputs":[]},{"type":"error","name":"SafeERC20FailedOperation","inputs":[{"name":"token","type":"address","internalType":"address"}]}],"bytecode":{"object":"0x60e080604052346104c1576124e8803803809161001c82856104c5565b833981019060a0818303126104c1578051916001600160a01b03831683036104c15760208201516001600160401b0381116104c1578161005d918401610503565b604083015190916001600160401b0382116104c15761007d918401610503565b92610096608061008f60608601610549565b9401610549565b825190926001600160401b0382116103c45760035490600182811c921680156104b7575b60208310146103a65781601f849311610449575b50602090601f83116001146103e3575f926103d8575b50508160011b915f199060031b1c1916176003555b83516001600160401b0381116103c457600454600181811c911680156103ba575b60208210146103a657601f8111610343575b50602094601f82116001146102e0579481929394955f926102d5575b50508160011b915f199060031b1c1916176004555b6101668161055d565b90156102cd575b60a05260805233156102ba5760058054336001600160a01b0319821681179092556040519391906001600160a01b03167f8be0079c531659141344cd1fd0a4f28419497f9722a3daafe3b4186f6b6457e05f80a360016006556001600160a01b0316801580156102a9575b61029a5760c052600880546001600160a01b0319166001600160a01b03929092169190911790556103e86009819055600a55611ee7908161060182396080518181816104be01528181610640015281816107e601528181610cbe01528181610f2c01528181611012015281816110850152818161159801528181611a2001528181611b7c0152611cda015260a05181611169015260c05181818161043f015281816106790152818161081901528181610c89015281816110b80152611a630152f35b63e6c4247b60e01b5f5260045ffd5b506001600160a01b038216156101d8565b631e4fbdf760e01b5f525f60045260245ffd5b50601261016d565b015190505f80610148565b601f1982169560045f52805f20915f5b88811061032b57508360019596979810610313575b505050811b0160045561015d565b01515f1960f88460031b161c191690555f8080610305565b919260206001819286850151815501940192016102f0565b60045f527f8a35acfbc15ff81a39ae7d344fd709f28e8600b4aa8c65c6b64bfe7fe36bd19b601f830160051c8101916020841061039c575b601f0160051c01905b818110610391575061012c565b5f8155600101610384565b909150819061037b565b634e487b7160e01b5f52602260045260245ffd5b90607f169061011a565b634e487b7160e01b5f52604160045260245ffd5b015190505f806100e4565b60035f9081528281209350601f198516905b8181106104315750908460019594939210610419575b505050811b016003556100f9565b01515f1960f88460031b161c191690555f808061040b565b929360206001819287860151815501950193016103f5565b60035f529091507fc2575a0e9e593c00f959f8c92f12db2869c3395a3b0502d05e2516446f71f85b601f840160051c810191602085106104ad575b90601f859493920160051c01905b81811061049f57506100ce565b5f8155849350600101610492565b9091508190610484565b91607f16916100ba565b5f80fd5b601f909101601f19168101906001600160401b038211908210176103c457604052565b6001600160401b0381116103c457601f01601f191660200190565b81601f820112156104c15780519061051a826104e8565b9261052860405194856104c5565b828452602083830101116104c157815f9260208093018386015e8301015290565b51906001600160a01b03821682036104c157565b5f8091604051602081019063313ce56760e01b8252600481526105816024826104c5565b51916001600160a01b03165afa3d156105f8573d9061059f826104e8565b916105ad60405193846104c5565b82523d5f602084013e5b806105ec575b6105c9575b505f905f90565b6020818051810103126104c1576020015160ff81116105c2579060ff6001921690565b506020815110156105bd565b6060906105b756fe60806040526004361015610011575f80fd5b5f5f3560e01c806301e1d114146113dc57806306fdde03146112e857806307a2d13a14610e51578063095ea7b3146112405780630a28a477146112225780630c7d5cd81461120557806318160ddd146111e857806323b872dd146111b0578063313ce56714611155578063364177881461104157806338d52e0f14610ffd5780633f4ba83a14610f97578063402d267d146103b65780634641257d14610e565780634cdad50614610e515780635c975abb14610e2f57806361d027b314610e075780636e553f6514610bbe57806370897b2314610b6657806370a082311461033c578063715018a614610b095780637a479d1714610ae55780638456cb5914610a8a5780638778878214610a6c5780638b4f3b2c14610a055780638da5cb5b146109dc57806394bf804d146109a857806395d89b411461089f578063962ca496146107be578063a0c1f15e14610791578063a59aa5a61461060d578063a9059cbb146105db578063b3d7f6b9146105bc578063b460af941461046e578063b4dcfc7714610429578063ba087652146103bb578063c63d75b6146103b6578063c6e6f592146102e4578063ce96cb771461037d578063d905777e1461033c578063dd62ed3e146102e9578063ef8b30f7146102e4578063f0f44260146102895763f2fde38b146101fe575f80fd5b346102865760203660031901126102865761021761143e565b61021f6119e2565b6001600160a01b0316801561027257600580546001600160a01b0319811683179091556001600160a01b03167f8be0079c531659141344cd1fd0a4f28419497f9722a3daafe3b4186f6b6457e08380a380f35b631e4fbdf760e01b82526004829052602482fd5b80fd5b5034610286576020366003190112610286576102a361143e565b6102ab6119e2565b6001600160a01b031680156102d5576bffffffffffffffffffffffff60a01b600854161760085580f35b63e6c4247b60e01b8252600482fd5b6114c9565b503461028657604036600319011261028657604061030561143e565b9161030e611454565b9260018060a01b031681526001602052209060018060a01b03165f52602052602060405f2054604051908152f35b503461028657602036600319011261028657602061037561035b61143e565b6001600160a01b03165f9081526020819052604090205490565b604051908152f35b503461028657602036600319011261028657602090610375906040906001600160a01b036103a961143e565b16815280845220546117fa565b61146a565b5034610286576103ca3661148f565b926103e58460018060a01b03165f525f60205260405f205490565b8084116104065760208561037586866103fd826117fa565b93849133611c35565b915091606493632e52afbb60e21b845260018060a01b0316600452602452604452fd5b50346102865780600319360112610286576040517f00000000000000000000000000000000000000000000000000000000000000006001600160a01b03168152602090f35b50346102865761047d3661148f565b61048993929193611afb565b610491611b1b565b81156105ad576104a082611827565b6040516370a0823160e01b81523060048201529093906020816024817f00000000000000000000000000000000000000000000000000000000000000006001600160a01b03165afa9182156105a15791610568575b5060209461053285857f7084f5476618d8e60b11ef0d7d3f06914655adb8793e28ff7f018d4c76d505d59585828b9710610550575b508433611c35565b6040519384526001600160a01b031692a26001600655604051908152f35b61055d6105629184611722565b611a09565b5f61052a565b9190506020823d602011610599575b81610584602093836114e7565b8101031261059557905160206104f5565b5f80fd5b3d9150610577565b604051903d90823e3d90fd5b63162908e360e11b8352600483fd5b50346102865760203660031901126102865760206103756004356117cc565b5034610286576040366003190112610286576106026105f861143e565b6024359033611925565b602060405160018152f35b5034610286578060031936011261028657610626611539565b6002546040516335ea6a7560e01b81526001600160a01b037f00000000000000000000000000000000000000000000000000000000000000008116600483018190529294929061018090839060249082907f0000000000000000000000000000000000000000000000000000000000000000165afa918215610786578392610743575b506020602491604051928380926370a0823160e01b82523060048301525afa9283156105a15792610706575b506001600160801b0369152d02c7e14af6800000916080956040519586526020860152160460408301526060820152f35b9391506020843d60201161073b575b81610722602093836114e7565b8101031261059557925190926001600160801b036106d5565b3d9150610715565b602491925061076b6020916101803d811161077f575b61076381836114e7565b810190611674565b5050505050505050925050509291506106a9565b503d610759565b6040513d85823e3d90fd5b503461028657806003193601126102865760075460405160089190911c6001600160a01b03168152602090f35b50346102865780600319360112610286576040516335ea6a7560e01b81526001600160a01b037f00000000000000000000000000000000000000000000000000000000000000008116600483015261018090829060249082907f0000000000000000000000000000000000000000000000000000000000000000165afa9081156108945760209291610869575b5069152d02c7e14af68000006001600160801b036040519216048152f35b61088291506101803d811161077f5761076381836114e7565b5050505050505050925050505f61084b565b6040513d84823e3d90fd5b50346102865780600319360112610286576040519080600454908160011c9160018116801561099e575b60208410811461098a578386529081156109635750600114610906575b610902846108f6818603826114e7565b604051918291826113f6565b0390f35b600481527f8a35acfbc15ff81a39ae7d344fd709f28e8600b4aa8c65c6b64bfe7fe36bd19b939250905b808210610949575090915081016020016108f6826108e6565b919260018160209254838588010152019101909291610930565b60ff191660208087019190915292151560051b850190920192506108f691508390506108e6565b634e487b7160e01b83526022600452602483fd5b92607f16926108c9565b50346102865760403660031901126102865760206004356103756109ca611454565b916109d4816117cc565b809333611b36565b50346102865780600319360112610286576005546040516001600160a01b039091168152602090f35b503461028657602036600319011261028657600435610a226119e2565b6127108111610a5d576020817f5fc97baab2060bb73299f20ec1d188d8ad3e090e1d7e029e716c34674d87b23492600955604051908152a180f35b63162908e360e11b8252600482fd5b50346102865780600319360112610286576020600a54604051908152f35b5034610286578060031936011261028657610aa36119e2565b610aab611b1b565b600160ff1960075416176007557f62e78cea01bee320cd4e420270b5ea74000d11b0c9f74754ebdbfc544b05a2586020604051338152a180f35b5034610286578060031936011261028657610afe6119e2565b610b06611742565b80f35b5034610286578060031936011261028657610b226119e2565b600580546001600160a01b0319811690915581906001600160a01b03167f8be0079c531659141344cd1fd0a4f28419497f9722a3daafe3b4186f6b6457e08280a380f35b503461028657602036600319011261028657600435610b836119e2565b6127108111610a5d576020817f9b49d0cd76012d9c67241c2f68f836efbaf50ea29901a250040671402d5263f592600a55604051908152a180f35b3461059557604036600319011261059557600435610bda611454565b90610be3611afb565b610beb611b1b565b8015610df857610bfa81611855565b90610c0782828533611b36565b610c20612710610c196009548461172f565b0482611722565b80610c6c575b506040519081526020926001600160a01b0316907f6473c9f7da8f23a3d810f05b3e8fb3945f0ad17deadcc09e302cdf5d58e48fe7908490a26001600655604051908152f35b60405163095ea7b360e01b60208083019182526001600160a01b037f000000000000000000000000000000000000000000000000000000000000000081166024850181905260448086018790528552947f00000000000000000000000000000000000000000000000000000000000000009091169390929091905f90610cf36064856114e7565b83519082875af15f513d82610ddc575b505015610d98575b50823b156105955760845f9283604051958694859363e8eda9df60e01b8552600485015260248401523060448401528160648401525af18015610d8d576020947f6473c9f7da8f23a3d810f05b3e8fb3945f0ad17deadcc09e302cdf5d58e48fe7928692610d7d575b50945050610c26565b5f610d87916114e7565b5f610d74565b6040513d5f823e3d90fd5b610dd690610dd060405163095ea7b360e01b60208201528660248201525f604482015260448152610dca6064826114e7565b85611dba565b83611dba565b86610d0b565b909150610df05750823b15155b8880610d03565b600114610de9565b63162908e360e11b5f5260045ffd5b34610595575f366003190112610595576008546040516001600160a01b039091168152602090f35b34610595575f36600319011261059557602060ff600754166040519015158152f35b611420565b34610595575f36600319011261059557610e6e6119e2565b60075460081c6001600160a01b03168015610f88576020602491604051928380926370a0823160e01b82523060048301525afa908115610d8d575f91610f56575b50600254808211610ebc57005b610ee96040917f3fb12fb590bb295327f3bfc48158ada0b1147f8f823e0c7a09b98b301d18677493611722565b612710610ef8600a548361172f565b0480610f0c575b82519182526020820152a1005b610f1581611a09565b600854610f519082906001600160a01b03908116907f000000000000000000000000000000000000000000000000000000000000000016611aba565b610eff565b90506020813d602011610f80575b81610f71602093836114e7565b81010312610595575181610eaf565b3d9150610f64565b63289e56cf60e21b5f5260045ffd5b34610595575f36600319011261059557610faf6119e2565b60075460ff811615610fee5760ff19166007557f5db9ee0a495bf2e6ff9c91a7834c1ba4fdd244a5e8aa4e537bd38aeae4b073aa6020604051338152a1005b638dfc202b60e01b5f5260045ffd5b34610595575f366003190112610595576040517f00000000000000000000000000000000000000000000000000000000000000006001600160a01b03168152602090f35b34610595575f366003190112610595576110596119e2565b600754600881901c6001600160a01b0316611146576040516335ea6a7560e01b81526001600160a01b037f00000000000000000000000000000000000000000000000000000000000000008116600483015261018090829060249082907f0000000000000000000000000000000000000000000000000000000000000000165afa908115610d8d575f9161111b575b506001600160a01b03811615610f8857610100600160a81b031990911660089190911b610100600160a81b031617600755005b61113491506101803d811161077f5761076381836114e7565b505050509650505050505050826110e8565b63e6c4247b60e01b5f5260045ffd5b34610595575f3660031901126105955760ff7f00000000000000000000000000000000000000000000000000000000000000001660ff811161119c57602090604051908152f35b634e487b7160e01b5f52601160045260245ffd5b34610595576060366003190112610595576106026111cc61143e565b6111d4611454565b604435916111e3833383611882565b611925565b34610595575f366003190112610595576020600254604051908152f35b34610595575f366003190112610595576020600954604051908152f35b34610595576020366003190112610595576020610375600435611827565b346105955760403660031901126105955761125961143e565b6024359033156112d5576001600160a01b03169081156112c257335f52600160205260405f20825f526020528060405f20556040519081527f8c5be1e5ebec7d5bd14f71427d1e84f3dd0314c0f7b2291e5b200ac8c7c3b92560203392a3602060405160018152f35b634a1406b160e11b5f525f60045260245ffd5b63e602df0560e01b5f525f60045260245ffd5b34610595575f366003190112610595576040515f6003548060011c906001811680156113d2575b6020831081146113be5782855290811561139a575060011461133c575b610902836108f6818503826114e7565b91905060035f527fc2575a0e9e593c00f959f8c92f12db2869c3395a3b0502d05e2516446f71f85b915f905b808210611380575090915081016020016108f661132c565b919260018160209254838588010152019101909291611368565b60ff191660208086019190915291151560051b840190910191506108f6905061132c565b634e487b7160e01b5f52602260045260245ffd5b91607f169161130f565b34610595575f366003190112610595576020610375611539565b602060409281835280519182918282860152018484015e5f828201840152601f01601f1916010190565b346105955760203660031901126105955760206103756004356117fa565b600435906001600160a01b038216820361059557565b602435906001600160a01b038216820361059557565b346105955760203660031901126105955761148361143e565b5060206040515f198152f35b606090600319011261059557600435906024356001600160a01b038116810361059557906044356001600160a01b03811681036105955790565b34610595576020366003190112610595576020610375600435611855565b90601f8019910116810190811067ffffffffffffffff82111761150957604052565b634e487b7160e01b5f52604160045260245ffd5b90816020910312610595575190565b9190820180921161119c57565b60075460081c6001600160a01b03168015611645576020602491604051928380926370a0823160e01b82523060048301525afa908115610d8d575f91611613575b505b6040516370a0823160e01b8152306004820152906020826024817f00000000000000000000000000000000000000000000000000000000000000006001600160a01b03165afa908115610d8d575f916115dd575b6115da925061152c565b90565b90506020823d60201161160b575b816115f8602093836114e7565b81010312610595576115da9151906115d0565b3d91506115eb565b90506020813d60201161163d575b8161162e602093836114e7565b8101031261059557515f61157a565b3d9150611621565b505f61157c565b51906001600160801b038216820361059557565b51906001600160a01b038216820361059557565b919082610180910312610595578151916116906020820161164c565b9161169d6040830161164c565b916116aa6060820161164c565b916116b76080830161164c565b916116c460a0820161164c565b9160c082015164ffffffffff8116810361059557916116e560e08201611660565b916116f36101008301611660565b916117016101208201611660565b916101606117126101408401611660565b92015160ff811681036105955790565b9190820391821161119c57565b8181029291811591840414171561119c57565b60075460081c6001600160a01b031680156117c9576020602491604051928380926370a0823160e01b82523060048301525afa908115610d8d575f91611797575b508061178c5750565b61179590611a09565b565b90506020813d6020116117c1575b816117b2602093836114e7565b8101031261059557515f611783565b3d91506117a5565b50565b6117d4611539565b906001820180921161119c576002546001810180911161119c576115da92600192611d48565b611802611539565b906001820180921161119c576002546001810180911161119c576115da925f92611d48565b600254906001820180921161119c5761183e611539565b6001810180911161119c576115da92600192611d48565b600254906001820180921161119c5761186c611539565b6001810180911161119c576115da925f92611d48565b6001600160a01b039081165f818152600160209081526040808320948616835293905291909120549291905f1984106118bc575b50505050565b8284106119025780156112d5576001600160a01b038216156112c2575f52600160205260405f209060018060a01b03165f5260205260405f20910390555f8080806118b6565b508290637dc7a0d960e11b5f5260018060a01b031660045260245260445260645ffd5b6001600160a01b03169081156119cf576001600160a01b03169182156119bc57815f525f60205260405f20548181106119a357817fddf252ad1be2c89b69c2b068fc378daa952ba7f163c4a11628f55a4df523b3ef92602092855f525f84520360405f2055845f525f825260405f20818154019055604051908152a3565b8263391434e360e21b5f5260045260245260445260645ffd5b63ec442f0560e01b5f525f60045260245ffd5b634b637e8f60e11b5f525f60045260245ffd5b6005546001600160a01b031633036119f657565b63118cdaa760e01b5f523360045260245ffd5b604051631a4ca37b60e21b81526001600160a01b037f000000000000000000000000000000000000000000000000000000000000000081166004830152602482019290925230604482015290602090829060649082905f907f0000000000000000000000000000000000000000000000000000000000000000165af18015610d8d57611a925750565b6117c99060203d602011611ab3575b611aab81836114e7565b81019061151d565b503d611aa1565b60405163a9059cbb60e01b60208201526001600160a01b0392909216602483015260448083019390935291815261179591611af66064836114e7565b611dba565b600260065414611b0c576002600655565b633ee5aeb560e01b5f5260045ffd5b60ff60075416611b2757565b63d93c066560e01b5f5260045ffd5b6040516323b872dd60e01b60208201526001600160a01b039091166024820181905230604483015260648083018590528252929190611ba990611b7a6084826114e7565b7f00000000000000000000000000000000000000000000000000000000000000006001600160a01b0316611dba565b6001600160a01b03169283156119bc577fdcbc1c05240f31ff3ad067ef1ee35ce4997762752e3a095284754544f4c709d79181611bea60409360025461152c565b600255855f525f602052825f20818154019055855f7fddf252ad1be2c89b69c2b068fc378daa952ba7f163c4a11628f55a4df523b3ef60208651858152a382519182526020820152a3565b6001600160a01b03808416959082169390918290878603611d37575b50505084156119cf57845f525f60205260405f2054818110611d1e5791816040927ffbde797d201c681b91056529119e0b02407c7bb96a4a2c75c01fc9667232c8db94885f525f60205203835f205580600254036002555f877fddf252ad1be2c89b69c2b068fc378daa952ba7f163c4a11628f55a4df523b3ef60208651858152a3611d0786837f00000000000000000000000000000000000000000000000000000000000000006001600160a01b0316611aba565b825195865260208601526001600160a01b031693a4565b8563391434e360e21b5f5260045260245260445260645ffd5b611d4092611882565b5f8181611c51565b9291611d55818386611e12565b926004811015611da6576001809116149182611d7b575b50506115da925015159061152c565b9080925015611d92576115da930915155f80611d6c565b634e487b7160e01b5f52601260045260245ffd5b634e487b7160e01b5f52602160045260245ffd5b905f602091828151910182855af115610d8d575f513d611e0957506001600160a01b0381163b155b611de95750565b635274afe760e01b5f9081526001600160a01b0391909116600452602490fd5b60011415611de2565b90915f198383099280830292838086109503948086039514611ea35784831115611e8b5790829109815f0382168092046002816003021880820260020302808202600203028082026002030280820260020302808202600203028091026002030293600183805f03040190848311900302920304170290565b82634e487b715f52156003026011186020526024601cfd5b505091508115611d9257049056fea2646970667358221220abdee925e459a6c2efc05cce18008af4cc6ee538a844b26728acd3ad7f270eeb64736f6c634300081c0033","linkReferences":{}},"methodIdentifiers":{"LENDING_POOL()":"b4dcfc77","aToken()":"a0c1f15e","allowance(address,address)":"dd62ed3e","approve(address,uint256)":"095ea7b3","asset()":"38d52e0f","balanceOf(address)":"70a08231","convertToAssets(uint256)":"07a2d13a","convertToShares(uint256)":"c6e6f592","decimals()":"313ce567","deposit(uint256,address)":"6e553f65","emergencyWithdrawFromMoola()":"7a479d17","getCurrentAPY()":"962ca496","getVaultStats()":"a59aa5a6","harvest()":"4641257d","initializeAToken()":"36417788","maxDeposit(address)":"402d267d","maxMint(address)":"c63d75b6","maxRedeem(address)":"d905777e","maxWithdraw(address)":"ce96cb77","mint(uint256,address)":"94bf804d","name()":"06fdde03","owner()":"8da5cb5b","pause()":"8456cb59","paused()":"5c975abb","performanceFee()":"87788782","previewDeposit(uint256)":"ef8b30f7","previewMint(uint256)":"b3d7f6b9","previewRedeem(uint256)":"4cdad506","previewWithdraw(uint256)":"0a28a477","redeem(uint256,address,address)":"ba087652","renounceOwnership()":"715018a6","reserveRatio()":"0c7d5cd8","setPerformanceFee(uint256)":"70897b23","setReserveRatio(uint256)":"8b4f3b2c","setTreasury(address)":"f0f44260","symbol()":"95d89b41","totalAssets()":"01e1d114","totalSupply()":"18160ddd","transfer(address,uint256)":"a9059cbb","transferFrom(address,address,uint256)":"23b872dd","transferOwnership(address)":"f2fde38b","treasury()":"61d027b3","unpause()":"3f4ba83a","withdraw(uint256,address,address)":"b460af94"},"id":0}