{"abi":[{"type":"constructor","inputs":[{"name":"_asset","type":"address","internalType":"contract IERC20"},{"name":"_name","type":"string","internalType":"string"},{"name":"_symbol","type":"string","internalType":"string"},{"name":"_treasury","type":"address","internalType":"address"},{"name":"_selfProtocol","type":"address","internalType":"address"}],"stateMutability":"nonpayable"},{"type":"function","name":"aToken","inputs":[],"outputs":[{"name":"","type":"address","internalType":"contract IAToken"}],"stateMutability":"view"},{"type":"function","name":"aavePool","inputs":[],"outputs":[{"name":"","type":"address","internalType":"contract IPool"}],"stateMutability":"view"},{"type":"function","name":"allowance","inputs":[{"name":"owner","type":"address","internalType":"address"},{"name":"spender","type":"address","internalType":"address"}],"outputs":[{"name":"","type":"uint256","internalType":"uint256"}],"stateMutability":"view"},{"type":"function","name":"approve","inputs":[{"name":"spender","type":"address","internalType":"address"},{"name":"value","type":"uint256","internalType":"uint256"}],"outputs":[{"name":"","type":"bool","internalType":"bool"}],"stateMutability":"nonpayable"},{"type":"function","name":"asset","inputs":[],"outputs":[{"name":"","type":"address","internalType":"address"}],"stateMutability":"view"},{"type":"function","name":"balanceOf","inputs":[{"name":"account","type":"address","internalType":"address"}],"outputs":[{"name":"","type":"uint256","internalType":"uint256"}],"stateMutability":"view"},{"type":"function","name":"changeStrategy","inputs":[{"name":"newStrategy","type":"uint8","internalType":"enum AttestifyAaveV3Production.StrategyType"}],"outputs":[],"stateMutability":"nonpayable"},{"type":"function","name":"claimUserRewards","inputs":[{"name":"user","type":"address","internalType":"address"}],"outputs":[{"name":"rewardTokens","type":"address[]","internalType":"address[]"},{"name":"amounts","type":"uint256[]","internalType":"uint256[]"}],"stateMutability":"nonpayable"},{"type":"function","name":"convertToAssets","inputs":[{"name":"shares","type":"uint256","internalType":"uint256"}],"outputs":[{"name":"","type":"uint256","internalType":"uint256"}],"stateMutability":"view"},{"type":"function","name":"convertToShares","inputs":[{"name":"assets","type":"uint256","internalType":"uint256"}],"outputs":[{"name":"","type":"uint256","internalType":"uint256"}],"stateMutability":"view"},{"type":"function","name":"dataProvider","inputs":[],"outputs":[{"name":"","type":"address","internalType":"contract IAaveProtocolDataProvider"}],"stateMutability":"view"},{"type":"function","name":"decimals","inputs":[],"outputs":[{"name":"","type":"uint8","internalType":"uint8"}],"stateMutability":"view"},{"type":"function","name":"deposit","inputs":[{"name":"assets","type":"uint256","internalType":"uint256"},{"name":"receiver","type":"address","internalType":"address"}],"outputs":[{"name":"shares","type":"uint256","internalType":"uint256"}],"stateMutability":"nonpayable"},{"type":"function","name":"emergencyWithdrawFromAave","inputs":[],"outputs":[],"stateMutability":"nonpayable"},{"type":"function","name":"getCurrentAPY","inputs":[],"outputs":[{"name":"","type":"uint256","internalType":"uint256"}],"stateMutability":"view"},{"type":"function","name":"getLiquidityIndex","inputs":[],"outputs":[{"name":"","type":"uint256","internalType":"uint256"}],"stateMutability":"view"},{"type":"function","name":"getScaledBalance","inputs":[],"outputs":[{"name":"","type":"uint256","internalType":"uint256"}],"stateMutability":"view"},{"type":"function","name":"getStrategy","inputs":[{"name":"strategyType","type":"uint8","internalType":"enum AttestifyAaveV3Production.StrategyType"}],"outputs":[{"name":"","type":"tuple","internalType":"struct AttestifyAaveV3Production.Strategy","components":[{"name":"name","type":"string","internalType":"string"},{"name":"aaveAllocation","type":"uint8","internalType":"uint8"},{"name":"reserveAllocation","type":"uint8","internalType":"uint8"},{"name":"targetAPY","type":"uint16","internalType":"uint16"},{"name":"riskLevel","type":"uint8","internalType":"uint8"},{"name":"isActive","type":"bool","internalType":"bool"}]}],"stateMutability":"view"},{"type":"function","name":"getUnclaimedRewards","inputs":[{"name":"user","type":"address","internalType":"address"}],"outputs":[{"name":"rewardTokens","type":"address[]","internalType":"address[]"},{"name":"amounts","type":"uint256[]","internalType":"uint256[]"}],"stateMutability":"view"},{"type":"function","name":"getUserEarnings","inputs":[{"name":"user","type":"address","internalType":"address"}],"outputs":[{"name":"","type":"uint256","internalType":"uint256"}],"stateMutability":"view"},{"type":"function","name":"getUserProfile","inputs":[{"name":"user","type":"address","internalType":"address"}],"outputs":[{"name":"profile","type":"tuple","internalType":"struct AttestifyAaveV3Production.UserProfile","components":[{"name":"isVerified","type":"bool","internalType":"bool"},{"name":"verifiedAt","type":"uint256","internalType":"uint256"},{"name":"totalDeposited","type":"uint256","internalType":"uint256"},{"name":"totalWithdrawn","type":"uint256","internalType":"uint256"},{"name":"lastActionTime","type":"uint256","internalType":"uint256"},{"name":"userIdentifier","type":"uint256","internalType":"uint256"},{"name":"verificationHash","type":"bytes32","internalType":"bytes32"}]},{"name":"strategy","type":"uint8","internalType":"enum AttestifyAaveV3Production.StrategyType"},{"name":"shares","type":"uint256","internalType":"uint256"},{"name":"assets","type":"uint256","internalType":"uint256"}],"stateMutability":"view"},{"type":"function","name":"harvest","inputs":[],"outputs":[{"name":"rewardAmount","type":"uint256","internalType":"uint256"},{"name":"feeAmount","type":"uint256","internalType":"uint256"}],"stateMutability":"nonpayable"},{"type":"function","name":"harvestInterval","inputs":[],"outputs":[{"name":"","type":"uint256","internalType":"uint256"}],"stateMutability":"view"},{"type":"function","name":"isUserVerified","inputs":[{"name":"user","type":"address","internalType":"address"}],"outputs":[{"name":"","type":"bool","internalType":"bool"}],"stateMutability":"view"},{"type":"function","name":"lastHarvest","inputs":[],"outputs":[{"name":"","type":"uint256","internalType":"uint256"}],"stateMutability":"view"},{"type":"function","name":"maxDeposit","inputs":[{"name":"","type":"address","internalType":"address"}],"outputs":[{"name":"","type":"uint256","internalType":"uint256"}],"stateMutability":"view"},{"type":"function","name":"maxMint","inputs":[{"name":"","type":"address","internalType":"address"}],"outputs":[{"name":"","type":"uint256","internalType":"uint256"}],"stateMutability":"view"},{"type":"function","name":"maxRedeem","inputs":[{"name":"owner","type":"address","internalType":"address"}],"outputs":[{"name":"","type":"uint256","internalType":"uint256"}],"stateMutability":"view"},{"type":"function","name":"maxWithdraw","inputs":[{"name":"owner","type":"address","internalType":"address"}],"outputs":[{"name":"","type":"uint256","internalType":"uint256"}],"stateMutability":"view"},{"type":"function","name":"mint","inputs":[{"name":"shares","type":"uint256","internalType":"uint256"},{"name":"receiver","type":"address","internalType":"address"}],"outputs":[{"name":"assets","type":"uint256","internalType":"uint256"}],"stateMutability":"nonpayable"},{"type":"function","name":"name","inputs":[],"outputs":[{"name":"","type":"string","internalType":"string"}],"stateMutability":"view"},{"type":"function","name":"owner","inputs":[],"outputs":[{"name":"","type":"address","internalType":"address"}],"stateMutability":"view"},{"type":"function","name":"pause","inputs":[],"outputs":[],"stateMutability":"nonpayable"},{"type":"function","name":"paused","inputs":[],"outputs":[{"name":"","type":"bool","internalType":"bool"}],"stateMutability":"view"},{"type":"function","name":"performanceFee","inputs":[],"outputs":[{"name":"","type":"uint256","internalType":"uint256"}],"stateMutability":"view"},{"type":"function","name":"previewDeposit","inputs":[{"name":"assets","type":"uint256","internalType":"uint256"}],"outputs":[{"name":"","type":"uint256","internalType":"uint256"}],"stateMutability":"view"},{"type":"function","name":"previewMint","inputs":[{"name":"shares","type":"uint256","internalType":"uint256"}],"outputs":[{"name":"","type":"uint256","internalType":"uint256"}],"stateMutability":"view"},{"type":"function","name":"previewRedeem","inputs":[{"name":"shares","type":"uint256","internalType":"uint256"}],"outputs":[{"name":"","type":"uint256","internalType":"uint256"}],"stateMutability":"view"},{"type":"function","name":"previewWithdraw","inputs":[{"name":"assets","type":"uint256","internalType":"uint256"}],"outputs":[{"name":"","type":"uint256","internalType":"uint256"}],"stateMutability":"view"},{"type":"function","name":"rebalance","inputs":[],"outputs":[],"stateMutability":"nonpayable"},{"type":"function","name":"redeem","inputs":[{"name":"shares","type":"uint256","internalType":"uint256"},{"name":"receiver","type":"address","internalType":"address"},{"name":"owner","type":"address","internalType":"address"}],"outputs":[{"name":"assets","type":"uint256","internalType":"uint256"}],"stateMutability":"nonpayable"},{"type":"function","name":"renounceOwnership","inputs":[],"outputs":[],"stateMutability":"nonpayable"},{"type":"function","name":"reserveRatio","inputs":[],"outputs":[{"name":"","type":"uint256","internalType":"uint256"}],"stateMutability":"view"},{"type":"function","name":"rewardsController","inputs":[],"outputs":[{"name":"","type":"address","internalType":"contract IRewardsController"}],"stateMutability":"view"},{"type":"function","name":"selfProtocol","inputs":[],"outputs":[{"name":"","type":"address","internalType":"contract ISelfProtocol"}],"stateMutability":"view"},{"type":"function","name":"setPerformanceFee","inputs":[{"name":"_performanceFee","type":"uint256","internalType":"uint256"}],"outputs":[],"stateMutability":"nonpayable"},{"type":"function","name":"setReserveRatio","inputs":[{"name":"_reserveRatio","type":"uint256","internalType":"uint256"}],"outputs":[],"stateMutability":"nonpayable"},{"type":"function","name":"setSelfProtocol","inputs":[{"name":"_selfProtocol","type":"address","internalType":"address"}],"outputs":[],"stateMutability":"nonpayable"},{"type":"function","name":"setTreasury","inputs":[{"name":"_treasury","type":"address","internalType":"address"}],"outputs":[],"stateMutability":"nonpayable"},{"type":"function","name":"setVerificationRequired","inputs":[{"name":"required","type":"bool","internalType":"bool"}],"outputs":[],"stateMutability":"nonpayable"},{"type":"function","name":"strategies","inputs":[{"name":"","type":"uint8","internalType":"enum AttestifyAaveV3Production.StrategyType"}],"outputs":[{"name":"name","type":"string","internalType":"string"},{"name":"aaveAllocation","type":"uint8","internalType":"uint8"},{"name":"reserveAllocation","type":"uint8","internalType":"uint8"},{"name":"targetAPY","type":"uint16","internalType":"uint16"},{"name":"riskLevel","type":"uint8","internalType":"uint8"},{"name":"isActive","type":"bool","internalType":"bool"}],"stateMutability":"view"},{"type":"function","name":"symbol","inputs":[],"outputs":[{"name":"","type":"string","internalType":"string"}],"stateMutability":"view"},{"type":"function","name":"totalAssets","inputs":[],"outputs":[{"name":"","type":"uint256","internalType":"uint256"}],"stateMutability":"view"},{"type":"function","name":"totalSupply","inputs":[],"outputs":[{"name":"","type":"uint256","internalType":"uint256"}],"stateMutability":"view"},{"type":"function","name":"transfer","inputs":[{"name":"to","type":"address","internalType":"address"},{"name":"value","type":"uint256","internalType":"uint256"}],"outputs":[{"name":"","type":"bool","internalType":"bool"}],"stateMutability":"nonpayable"},{"type":"function","name":"transferFrom","inputs":[{"name":"from","type":"address","internalType":"address"},{"name":"to","type":"address","internalType":"address"},{"name":"value","type":"uint256","internalType":"uint256"}],"outputs":[{"name":"","type":"bool","internalType":"bool"}],"stateMutability":"nonpayable"},{"type":"function","name":"transferOwnership","inputs":[{"name":"newOwner","type":"address","internalType":"address"}],"outputs":[],"stateMutability":"nonpayable"},{"type":"function","name":"treasury","inputs":[],"outputs":[{"name":"","type":"address","internalType":"address"}],"stateMutability":"view"},{"type":"function","name":"unpause","inputs":[],"outputs":[],"stateMutability":"nonpayable"},{"type":"function","name":"userStrategy","inputs":[{"name":"","type":"address","internalType":"address"}],"outputs":[{"name":"","type":"uint8","internalType":"enum AttestifyAaveV3Production.StrategyType"}],"stateMutability":"view"},{"type":"function","name":"users","inputs":[{"name":"","type":"address","internalType":"address"}],"outputs":[{"name":"isVerified","type":"bool","internalType":"bool"},{"name":"verifiedAt","type":"uint256","internalType":"uint256"},{"name":"totalDeposited","type":"uint256","internalType":"uint256"},{"name":"totalWithdrawn","type":"uint256","internalType":"uint256"},{"name":"lastActionTime","type":"uint256","internalType":"uint256"},{"name":"userIdentifier","type":"uint256","internalType":"uint256"},{"name":"verificationHash","type":"bytes32","internalType":"bytes32"}],"stateMutability":"view"},{"type":"function","name":"verificationRequired","inputs":[],"outputs":[{"name":"","type":"bool","internalType":"bool"}],"stateMutability":"view"},{"type":"function","name":"verifySelfProof","inputs":[{"name":"proof","type":"bytes","internalType":"bytes"},{"name":"publicSignals","type":"bytes","internalType":"bytes"}],"outputs":[],"stateMutability":"nonpayable"},{"type":"function","name":"withdraw","inputs":[{"name":"assets","type":"uint256","internalType":"uint256"},{"name":"receiver","type":"address","internalType":"address"},{"name":"owner","type":"address","internalType":"address"}],"outputs":[{"name":"shares","type":"uint256","internalType":"uint256"}],"stateMutability":"nonpayable"},{"type":"event","name":"Approval","inputs":[{"name":"owner","type":"address","indexed":true,"internalType":"address"},{"name":"spender","type":"address","indexed":true,"internalType":"address"},{"name":"value","type":"uint256","indexed":false,"internalType":"uint256"}],"anonymous":false},{"type":"event","name":"Deposit","inputs":[{"name":"sender","type":"address","indexed":true,"internalType":"address"},{"name":"owner","type":"address","indexed":true,"internalType":"address"},{"name":"assets","type":"uint256","indexed":false,"internalType":"uint256"},{"name":"shares","type":"uint256","indexed":false,"internalType":"uint256"}],"anonymous":false},{"type":"event","name":"OwnershipTransferred","inputs":[{"name":"previousOwner","type":"address","indexed":true,"internalType":"address"},{"name":"newOwner","type":"address","indexed":true,"internalType":"address"}],"anonymous":false},{"type":"event","name":"Paused","inputs":[{"name":"account","type":"address","indexed":false,"internalType":"address"}],"anonymous":false},{"type":"event","name":"Rebalanced","inputs":[{"name":"aaveAmount","type":"uint256","indexed":false,"internalType":"uint256"},{"name":"reserveAmount","type":"uint256","indexed":false,"internalType":"uint256"},{"name":"timestamp","type":"uint256","indexed":false,"internalType":"uint256"}],"anonymous":false},{"type":"event","name":"RewardsClaimed","inputs":[{"name":"user","type":"address","indexed":true,"internalType":"address"},{"name":"rewardTokens","type":"address[]","indexed":false,"internalType":"address[]"},{"name":"amounts","type":"uint256[]","indexed":false,"internalType":"uint256[]"}],"anonymous":false},{"type":"event","name":"RewardsHarvested","inputs":[{"name":"amount","type":"uint256","indexed":false,"internalType":"uint256"},{"name":"feeAmount","type":"uint256","indexed":false,"internalType":"uint256"},{"name":"timestamp","type":"uint256","indexed":false,"internalType":"uint256"}],"anonymous":false},{"type":"event","name":"StrategyChanged","inputs":[{"name":"user","type":"address","indexed":true,"internalType":"address"},{"name":"oldStrategy","type":"uint8","indexed":false,"internalType":"enum AttestifyAaveV3Production.StrategyType"},{"name":"newStrategy","type":"uint8","indexed":false,"internalType":"enum AttestifyAaveV3Production.StrategyType"}],"anonymous":false},{"type":"event","name":"Transfer","inputs":[{"name":"from","type":"address","indexed":true,"internalType":"address"},{"name":"to","type":"address","indexed":true,"internalType":"address"},{"name":"value","type":"uint256","indexed":false,"internalType":"uint256"}],"anonymous":false},{"type":"event","name":"Unpaused","inputs":[{"name":"account","type":"address","indexed":false,"internalType":"address"}],"anonymous":false},{"type":"event","name":"UserVerified","inputs":[{"name":"user","type":"address","indexed":true,"internalType":"address"},{"name":"userIdentifier","type":"uint256","indexed":false,"internalType":"uint256"},{"name":"verificationHash","type":"bytes32","indexed":false,"internalType":"bytes32"},{"name":"timestamp","type":"uint256","indexed":false,"internalType":"uint256"}],"anonymous":false},{"type":"event","name":"VerificationRequirementUpdated","inputs":[{"name":"required","type":"bool","indexed":false,"internalType":"bool"}],"anonymous":false},{"type":"event","name":"Withdraw","inputs":[{"name":"sender","type":"address","indexed":true,"internalType":"address"},{"name":"receiver","type":"address","indexed":true,"internalType":"address"},{"name":"owner","type":"address","indexed":true,"internalType":"address"},{"name":"assets","type":"uint256","indexed":false,"internalType":"uint256"},{"name":"shares","type":"uint256","indexed":false,"internalType":"uint256"}],"anonymous":false},{"type":"error","name":"AlreadyVerified","inputs":[]},{"type":"error","name":"ERC20InsufficientAllowance","inputs":[{"name":"spender","type":"address","internalType":"address"},{"name":"allowance","type":"uint256","internalType":"uint256"},{"name":"needed","type":"uint256","internalType":"uint256"}]},{"type":"error","name":"ERC20InsufficientBalance","inputs":[{"name":"sender","type":"address","internalType":"address"},{"name":"balance","type":"uint256","internalType":"uint256"},{"name":"needed","type":"uint256","internalType":"uint256"}]},{"type":"error","name":"ERC20InvalidApprover","inputs":[{"name":"approver","type":"address","internalType":"address"}]},{"type":"error","name":"ERC20InvalidReceiver","inputs":[{"name":"receiver","type":"address","internalType":"address"}]},{"type":"error","name":"ERC20InvalidSender","inputs":[{"name":"sender","type":"address","internalType":"address"}]},{"type":"error","name":"ERC20InvalidSpender","inputs":[{"name":"spender","type":"address","internalType":"address"}]},{"type":"error","name":"ERC4626ExceededMaxDeposit","inputs":[{"name":"receiver","type":"address","internalType":"address"},{"name":"assets","type":"uint256","internalType":"uint256"},{"name":"max","type":"uint256","internalType":"uint256"}]},{"type":"error","name":"ERC4626ExceededMaxMint","inputs":[{"name":"receiver","type":"address","internalType":"address"},{"name":"shares","type":"uint256","internalType":"uint256"},{"name":"max","type":"uint256","internalType":"uint256"}]},{"type":"error","name":"ERC4626ExceededMaxRedeem","inputs":[{"name":"owner","type":"address","internalType":"address"},{"name":"shares","type":"uint256","internalType":"uint256"},{"name":"max","type":"uint256","internalType":"uint256"}]},{"type":"error","name":"ERC4626ExceededMaxWithdraw","inputs":[{"name":"owner","type":"address","internalType":"address"},{"name":"assets","type":"uint256","internalType":"uint256"},{"name":"max","type":"uint256","internalType":"uint256"}]},{"type":"error","name":"EnforcedPause","inputs":[]},{"type":"error","name":"ExpectedPause","inputs":[]},{"type":"error","name":"HarvestTooSoon","inputs":[]},{"type":"error","name":"InsufficientBalance","inputs":[]},{"type":"error","name":"InvalidAmount","inputs":[]},{"type":"error","name":"InvalidStrategy","inputs":[]},{"type":"error","name":"NotVerified","inputs":[]},{"type":"error","name":"OwnableInvalidOwner","inputs":[{"name":"owner","type":"address","internalType":"address"}]},{"type":"error","name":"OwnableUnauthorizedAccount","inputs":[{"name":"account","type":"address","internalType":"address"}]},{"type":"error","name":"ReentrancyGuardReentrantCall","inputs":[]},{"type":"error","name":"SafeERC20FailedOperation","inputs":[{"name":"token","type":"address","internalType":"address"}]},{"type":"error","name":"VerificationFailed","inputs":[]},{"type":"error","name":"ZeroAddress","inputs":[]}],"bytecode":{"object":"0x6101408060405234610d5b57614452803803809161001d8285610d7a565b8339810160a082820312610d5b5781516001600160a01b03811692909190838303610d5b5760208101516001600160401b038111610d5b5782610061918301610db8565b604082015190926001600160401b038211610d5b57610081918301610db8565b610099608061009260608501610dfe565b9301610dfe565b835190936001600160401b0382116108ad5760035490600182811c92168015610d51575b602083101461088f5781601f849311610ce3575b50602090601f8311600114610c7d575f92610c72575b50508160011b915f199060031b1c1916176003555b8051906001600160401b0382116108ad5760045490600182811c92168015610c68575b602083101461088f5781601f849311610bfa575b50602090601f8311600114610b94575f92610b89575b50508160011b915f199060031b1c1916176004555b61016783610fac565b9015610b81575b60a052826080523315610b6e5760058054336001600160a01b0319821681179092556040519291906001600160a01b03167f8be0079c531659141344cd1fd0a4f28419497f9722a3daafe3b4186f6b6457e05f80a360016006556001600160a01b0316908115610b5f5773765de816845861e75a25fca122bb6898b8b1282a85148015610b42575b8015610b25575b8015610b08575b8015610aeb575b8015610ace575b15610a7d5750733e59a31363e2ad014dcbc521c4a0d5757d9f340260c0526001600160a01b0361024185610e12565b1660e052734725a0fdbeb14a77964bc1c221ee3a798226310361010052732e0f8d3b1631296cc7c56538d6eb6032601e15ed61012052600880546001600160a01b0319169190911790556103e86009819055600a5562015180600c5542600b556001600160a01b038116610a45575b50604051916102be83610d5f565b60409283516102cd8582610d7a565b600c81526b436f6e73657276617469766560a01b60208201528152602081019060648252848101905f82526060810161015e815260808201906001825260a0830192600184525f80526010602052885f20905180519060018060401b0382116108ad578254600181811c91168015610a3b575b602082101461088f57601f81116109f6575b50602090601f831160011461098e57918060ff94926001945f92610983575b50505f19600383901b1c191690831b1781555b019551169065ff000000000064ff0000000063ffff000061ff008954985160081b16935160101b16945160201b169451151560281b169465ff0000000000199264ff00000000199163ffffffff191617161716171717905582516103e781610d5f565b83516103f38582610d7a565b600881526710985b185b98d95960c21b602082015281526020810190605a825284810190600a825260608101610190815260808201906003825260a08301926001845260015f526010602052885f20905180519060018060401b0382116108ad578254600181811c91168015610979575b602082101461088f57601f8111610934575b50602090601f83116001146108cc57918060ff94926001945f926108c1575b50505f19600383901b1c191690831b1781555b019551169065ff000000000064ff0000000063ffff000061ff008954985160081b16935160101b16945160201b169451151560281b169465ff0000000000199264ff00000000199163ffffffff1916171617161717179055825161050b81610d5f565b83516105178582610d7a565b600681526508ee4deeee8d60d31b602082015281526020810190605082528481019060148252606081016101f4815260808201906005825260a08301926001845260025f526010602052885f20905180519060018060401b0382116108ad578254600181811c911680156108a3575b602082101461088f57601f811161084a575b50602090601f83116001146107e257918060ff94926001945f926107d7575b50505f19600383901b1c191690831b1781555b019551169065ff000000000064ff0000000063ffff000061ff008954985160081b16935160101b16945160201b169451151560281b169465ff0000000000199264ff00000000199163ffffffff191617161716171717905560018060a01b0360c051169183519160205f81850163095ea7b360e01b8152866024870152811960448701526044865261065d606487610d7a565b85519082865af1903d5f5190836107b8575b50505015610774575b835161339f90816110b38239608051818181610d770152818161126001528181611d2f01528181611e8001528181611fac0152818161282501528181612da801528181612ee8015281816130fe015261325c015260a05181611d72015260c051818181610a8a01528181610daa015281816112b60152818161147d01528181611eb201528181611fed01528181612e150152612f7c015260e051818181610a4501528181610b01015281816113fe0152818161188e01528181611a9e01528181611de401528181611f5601526127d0015261010051818181610b5201528181611822015281816118de0152611af0015261012051816108f50152f35b6107ab6107b09385519063095ea7b360e01b602083015260248201525f6044820152604481526107a5606482610d7a565b8261104f565b61104f565b5f8080610678565b919250906107cd57503b15155b5f808061066f565b60019150146107c5565b015190505f806105b7565b90601f19831691845f52815f20925f5b818110610832575092600194919285938360ff98961061081a575b505050811b0181556105ca565b01515f1960f88460031b161c191690555f808061080d565b929360206001819287860151815501950193016107f2565b835f5260205f20601f840160051c81019160208510610885575b601f0160051c01905b81811061087a5750610598565b5f815560010161086d565b9091508190610864565b634e487b7160e01b5f52602260045260245ffd5b90607f1690610586565b634e487b7160e01b5f52604160045260245ffd5b015190505f80610495565b90601f19831691845f52815f20925f5b81811061091c575092600194919285938360ff989610610904575b505050811b0181556104a8565b01515f1960f88460031b161c191690555f80806108f7565b929360206001819287860151815501950193016108dc565b835f5260205f20601f840160051c8101916020851061096f575b601f0160051c01905b8181106109645750610476565b5f8155600101610957565b909150819061094e565b90607f1690610464565b015190505f80610371565b90601f19831691845f52815f20925f5b8181106109de575092600194919285938360ff9896106109c6575b505050811b018155610384565b01515f1960f88460031b161c191690555f80806109b9565b9293602060018192878601518155019501930161099e565b835f5260205f20601f840160051c81019160208510610a31575b601f0160051c01905b818110610a265750610352565b5f8155600101610a19565b9091508190610a10565b90607f1690610340565b60078054610100600160a81b03191660089290921b610100600160a81b0316919091179055600d805460ff191660011790555f6102b0565b62461bcd60e51b815260206004820152602660248201527f4173736574206e6f7420737570706f727465642062792041617665205633206f6044820152656e2043656c6f60d01b6064820152608490fd5b5073d221812de1bd094f35587ee8e174b07b6167d9af8514610212565b5073471ece3750da237f93b8e339c536989b8978a438851461020b565b5073d8763cba276a3738e6de85b4b3bf5fded6d6ca738514610204565b507348065fbbe25f71c9282ddf5e1cd6d6a887483d5e85146101fd565b5073ceba9300f2b948710d2653dd7b07f33a8b32118c85146101f6565b63d92e233d60e01b5f5260045ffd5b631e4fbdf760e01b5f525f60045260245ffd5b50601261016e565b015190505f80610149565b60045f9081528281209350601f198516905b818110610be25750908460019594939210610bca575b505050811b0160045561015e565b01515f1960f88460031b161c191690555f8080610bbc565b92936020600181928786015181550195019301610ba6565b60045f529091507f8a35acfbc15ff81a39ae7d344fd709f28e8600b4aa8c65c6b64bfe7fe36bd19b601f840160051c81019160208510610c5e575b90601f859493920160051c01905b818110610c505750610133565b5f8155849350600101610c43565b9091508190610c35565b91607f169161011f565b015190505f806100e7565b60035f9081528281209350601f198516905b818110610ccb5750908460019594939210610cb3575b505050811b016003556100fc565b01515f1960f88460031b161c191690555f8080610ca5565b92936020600181928786015181550195019301610c8f565b60035f529091507fc2575a0e9e593c00f959f8c92f12db2869c3395a3b0502d05e2516446f71f85b601f840160051c81019160208510610d47575b90601f859493920160051c01905b818110610d3957506100d1565b5f8155849350600101610d2c565b9091508190610d1e565b91607f16916100bd565b5f80fd5b60c081019081106001600160401b038211176108ad57604052565b601f909101601f19168101906001600160401b038211908210176108ad57604052565b6001600160401b0381116108ad57601f01601f191660200190565b81601f82011215610d5b57805190610dcf82610d9d565b92610ddd6040519485610d7a565b82845260208383010111610d5b57815f9260208093018386015e8301015290565b51906001600160a01b0382168203610d5b57565b6001600160a01b031673765de816845861e75a25fca122bb6898b8b1282a8114610f935773ceba9300f2b948710d2653dd7b07f33a8b32118c8114610f7a577348065fbbe25f71c9282ddf5e1cd6d6a887483d5e8114610f615773d8763cba276a3738e6de85b4b3bf5fded6d6ca738114610f485773471ece3750da237f93b8e339c536989b8978a4388114610f2f5773d221812de1bd094f35587ee8e174b07b6167d9af14610f175760405162461bcd60e51b815260206004820152602d60248201527f41617665563343656c6f4164647265737365733a20556e6b6e6f776e20756e6460448201526c195c9b1e5a5b99c8185cdcd95d609a1b6064820152608490fd5b73f385280f36e009c157697d25e0b802efabfd789c90565b5073c3e77dc389537db1eec7c33b95cf3beeca71a20990565b507334c02571094e08e935b8cf8dc10f1ad6795f1f8190565b5073dee98402a302e4d707fb9bf2bac66faeec31e8df90565b5073ff8309b9e99bfd2d4021bc71a362abd93dbd478590565b5073bba98352628b0b0c4b40583f593ffcb630935a4590565b5f8091604051602081019063313ce56760e01b825260048152610fd0602482610d7a565b51916001600160a01b03165afa3d15611047573d90610fee82610d9d565b91610ffc6040519384610d7a565b82523d5f602084013e5b8061103b575b611018575b505f905f90565b602081805181010312610d5b576020015160ff8111611011579060ff6001921690565b5060208151101561100c565b606090611006565b905f602091828151910182855af1156110a7575f513d61109e57506001600160a01b0381163b155b61107e5750565b635274afe760e01b5f9081526001600160a01b0391909116600452602490fd5b60011415611077565b6040513d5f823e3d90fdfe60806040526004361015610011575f80fd5b5f5f3560e01c806301e1d1141461245657806306fdde031461236257806307a2d13a14611a46578063095ea7b3146122ba5780630a28a4771461229c5780630c7d5cd81461227f5780630ffe355c146121ad57806314dc0ce01461219057806318160ddd146121735780631cfed8851461207757806320f7b66d14611f2357806323b872dd14611eeb578063261de8e414611e59578063267a0da214611db9578063313ce56714611d5e57806338d52e0f14611d1a5780633f4ba83a14611cb4578063402d267d146106fb578063457cf68c14611c725780634641257d14611a4b5780634cdad50614611a465780635c975abb14611a2457806361297ef514611a0257806361d027b3146119da578063667316e91461195257806369a69e29146118515780636bb65f531461180d5780636e553f65146117495780636fa6fb5f14611701578063705ed273146116d557806370897b231461167757806370a0823114611659578063715018a6146115fe5780637b4d55231461159c5780637d7c2a1c146112165780638456cb59146111bb578063877887821461119d5780638b4f3b2c146111345780638da5cb5b1461110b57806394bf804d1461103a57806395d89b4114610f2d578063962ca49614610d4f578063987ee15614610c1b5780639bab9bc514610ab9578063a03e4bc314610a74578063a0c1f15e14610a2f578063a87430ba146109af578063a9059cbb1461097d578063ace417e014610924578063b334ed86146108df578063b3d7f6b9146108c0578063b460af94146107e9578063ba08765214610700578063c63d75b6146106fb578063c6e6f5921461040a578063ce96cb77146106d7578063d161802b1461049b578063d905777e14610462578063dd62ed3e1461040f578063ef8b30f71461040a578063f0f44260146103af578063f1a392da14610391578063f2fde38b146103085763f42b8809146102da575f80fd5b346103055760203660031901126103055760206102fd6102f86124b2565b612a78565b604051908152f35b80fd5b5034610305576020366003190112610305576103226124b2565b61032a612b91565b6001600160a01b0316801561037d57600580546001600160a01b0319811683179091556001600160a01b03167f8be0079c531659141344cd1fd0a4f28419497f9722a3daafe3b4186f6b6457e08380a380f35b631e4fbdf760e01b82526004829052602482fd5b50346103055780600319360112610305576020600b54604051908152f35b5034610305576020366003190112610305576103c96124b2565b6103d1612b91565b6001600160a01b031680156103fb576bffffffffffffffffffffffff60a01b600854161760085580f35b63d92e233d60e01b8252600482fd5b612725565b503461030557604036600319011261030557604061042b6124b2565b916104346124c8565b9260018060a01b031681526001602052209060018060a01b03165f52602052602060405f2054604051908152f35b50346103055760203660031901126103055760206102fd6104816124b2565b6001600160a01b03165f9081526020819052604090205490565b50346103055760403660031901126103055760043567ffffffffffffffff81116106d3576104cd903690600401612743565b60243567ffffffffffffffff81116106ad576104ed903690600401612743565b338352600e60205260ff6040842054166106c45760075460081c6001600160a01b03168061060d575b5050338252600e60205260408220600160ff19825416179055338252600e602052426001604084200155338252600e60205233600560408420015560405161058c6054826020808201953360601b87524260348401528051918291018484015e810186838201520301601f198101835282612587565b519020338252600e6020526006604083200155338152600f6020526040812060ff198154169055338152600e6020526005604082200154338252600e602052600660408320015460405191825260208201524260408201527f1a3280be2b5519c0c3c0b87db636139f74444a10447f3b0ff76c86dba8b144ad60603392a280f35b61064c916020916040518080958194635c73957b60e11b83526040600484015261063a604484018a612470565b83810360031901602485015290612470565b03915afa9081156106b957839161067a575b501561066b575f80610516565b63439cc0cd60e01b8252600482fd5b90506020813d6020116106b1575b8161069560209383612587565b810103126106ad575180151581036106ad575f61065e565b8280fd5b3d9150610688565b6040513d85823e3d90fd5b630231faf760e31b8352600483fd5b5080fd5b50346103055760203660031901126103055760206102fd6106f66124b2565b612a5d565b6124de565b50346103055761070f366126eb565b9161071b939193612d18565b610723612d78565b80156107da5761073a61073582612b09565b612ed3565b6001600160a01b038316808352602083905260408320549094908083116107be5750816107769161076d60209794612b09565b958691336131b7565b80331461078d575b50506001600655604051908152f35b808252600e8452600360408320016107a68482546127a8565b90558152600e83526004604042922001555f8061077e565b632e52afbb60e21b845260048690526024839052604452606483fd5b63162908e360e11b8252600482fd5b5034610305576107f8366126eb565b91610804939193612d18565b61080c612d78565b80156107da5761081b81612ed3565b61082483612a5d565b80821161089a5750826108466020958361083d81612b36565b968792336131b7565b6001600160a01b031690338214610868575b5050506001600655604051908152f35b818352600e8552610881600360408520019182546127a8565b90558152600e83526004604042922001555f8080610858565b633fa733bb60e21b83526001600160a01b03909316600452602452604491909152606490fd5b50346103055760203660031901126103055760206102fd600435612adb565b50346103055780600319360112610305576040517f00000000000000000000000000000000000000000000000000000000000000006001600160a01b03168152602090f35b5034610305576020366003190112610305576020906109416124b2565b9060ff600d54161591821561095d575b50506040519015158152f35b6001600160a01b03168152600e8352604090205460ff1690505f80610951565b5034610305576040366003190112610305576109a461099a6124b2565b6024359033612c5b565b602060405160018152f35b50346103055760203660031901126103055760e0906040906001600160a01b036109d76124b2565b168152600e6020522060ff815416906001810154906002810154600382015460048301549160066005850154940154946040519615158752602087015260408601526060850152608084015260a083015260c0820152f35b50346103055780600319360112610305576040517f00000000000000000000000000000000000000000000000000000000000000006001600160a01b03168152602090f35b50346103055780600319360112610305576040517f00000000000000000000000000000000000000000000000000000000000000006001600160a01b03168152602090f35b503461030557602036600319011261030557610b4d90610ad76124b2565b610adf612d18565b60409082818351610af08582612587565b60018152601f1985013660208301377f00000000000000000000000000000000000000000000000000000000000000006001600160a01b0316610b32826128ea565b52845163bb492bf560e01b8152968792839260048401612a01565b0381837f00000000000000000000000000000000000000000000000000000000000000006001600160a01b03165af1938415610c0f57838095610be2575b50508151610bde92916001600160a01b0316907fc53cb8bc1a7200a84d0b66a538905a245c4915aace7f1ce5dc4a0ba107ebc15c9080610bcc88888361269d565b0390a26001600655519283928361269d565b0390f35b610c05929550610bde9394503d8091833e610bfd8183612587565b81019061290b565b939092915f610b8b565b505051903d90823e3d90fd5b50346103055760203660031901126103055761014090610c396124b2565b8160c0604051610c488161256b565b8281528260208201528260408201528260608201528260808201528260a0820152015260018060a01b031690818152600e60205260408120610d4160405193610c908561256b565b60ff835416151585526001830154936020860194855260028401549360408701948552600381015460608801908152600482015490608089019182526040600660058501549460a08c0195865201549460c08b01958652868152600f60205260ff828220541696815280602052205496610d0988612b09565b986040519a5115158b525160208b01525160408a01525160608901525160808801525160a08701525160c086015260e0850190612503565b610100830152610120820152f35b50346103055780600319360112610305576040516335ea6a7560e01b81526001600160a01b037f0000000000000000000000000000000000000000000000000000000000000000811660048301526101e090829060249082907f0000000000000000000000000000000000000000000000000000000000000000165afa8015610f22578290610e27575b6001600160801b03915016906127108202918083046127101490151715610e13576020826b033b2e3c9fd0803ce800000060405191048152f35b634e487b7160e01b81526011600452602490fd5b506101e0813d8211610f1a575b81610e426101e09383612587565b810103126106d357610e5660208201612a49565b50610e6360408201612a49565b610e6f60608301612a49565b50610e7c60808301612a49565b50610e8960a08301612a49565b5060c082015164ffffffffff8116036106ad5760e082015161ffff8116036106ad57610f146101c083610ec76101006001600160801b0396016128f7565b50610ed561012082016128f7565b50610ee361014082016128f7565b50610ef161016082016128f7565b50610eff6101808201612a49565b50610f0d6101a08201612a49565b5001612a49565b50610dd9565b3d9150610e34565b6040513d84823e3d90fd5b50346103055780600319360112610305576040519080600454908160011c91600181168015611030575b60208410811461101c57838652908115610ff55750600114610f98575b610bde84610f8481860382612587565b604051918291602083526020830190612470565b600481527f8a35acfbc15ff81a39ae7d344fd709f28e8600b4aa8c65c6b64bfe7fe36bd19b939250905b808210610fdb57509091508101602001610f8482610f74565b919260018160209254838588010152019101909291610fc2565b60ff191660208087019190915292151560051b85019092019250610f849150839050610f74565b634e487b7160e01b83526022600452602483fd5b92607f1692610f57565b5034610305576040366003190112610305576004356110576124c8565b90611060612d18565b611068612d78565b60ff600d5416806110f4575b6110e55780156110d657916110968361108e602095612adb565b8094336130b8565b338152600e8352600260408220016110af8382546127a8565b9055338152600e83526004604042922001556110c9612d93565b6001600655604051908152f35b63162908e360e11b8352600483fd5b63a95362b560e01b8352600483fd5b50338352600e60205260ff60408420541615611074565b50346103055780600319360112610305576005546040516001600160a01b039091168152602090f35b503461030557602036600319011261030557600435611151612b91565b612710811161116057600a5580f35b60405162461bcd60e51b8152602060048201526015602482015274496e76616c6964207265736572766520726174696f60581b6044820152606490fd5b50346103055780600319360112610305576020600954604051908152f35b50346103055780600319360112610305576111d4612b91565b6111dc612d78565b600160ff1960075416176007557f62e78cea01bee320cd4e420270b5ea74000d11b0c9f74754ebdbfc544b05a2586020604051338152a180f35b50346113c0575f3660031901126113c05761122f612d18565b61271061124661123d6127b5565b600a5490612a29565b6040516370a0823160e01b815230600482015291900491907f00000000000000000000000000000000000000000000000000000000000000006001600160a01b031690602081602481855afa9081156113b5575f9161156a575b50838111156113c457836112b391612a3c565b907f00000000000000000000000000000000000000000000000000000000000000006001600160a01b0316803b156113c05760405163617ba03760e01b81526001600160a01b03929092166004830152602482018390523060448301525f60648301819052908290608490829084905af180156113b557611381575b507f83387a3342ff1ebc5e437dc9ae0f98274afda12a11cf547eebec05a3e0b8f8a791926113756040519283924291846040919493926060820195825260208201520152565b0390a15b600160065580f35b7f83387a3342ff1ebc5e437dc9ae0f98274afda12a11cf547eebec05a3e0b8f8a792505f6113ae91612587565b5f9161132f565b6040513d5f823e3d90fd5b5f80fd5b838194929394106113d8575b505050611379565b6113e29082612a3c565b6040516370a0823160e01b8152306004820152926020846024817f00000000000000000000000000000000000000000000000000000000000000006001600160a01b03165afa9384156113b5575f94611536575b5083821115611446575b506113d0565b604051631a4ca37b60e21b81526001600160a01b03909116600482015260248101829052306044820152602081806064810103815f7f00000000000000000000000000000000000000000000000000000000000000006001600160a01b03165af180156113b557611502575b506114de907f83387a3342ff1ebc5e437dc9ae0f98274afda12a11cf547eebec05a3e0b8f8a793612a3c565b6040805191825260208201929092524291810191909152606090a15f808080611440565b906020823d60201161152e575b8161151c60209383612587565b810103126113c05790506114de6114b2565b3d915061150f565b9093506020813d602011611562575b8161155260209383612587565b810103126113c05751925f611436565b3d9150611545565b90506020813d602011611594575b8161158560209383612587565b810103126113c057515f6112a0565b3d9150611578565b346113c05760203660031901126113c0576004358015158091036113c05760207f9f42ac7abbb22320dbd485a80be571c9bbd146ce5441ef992e2b43013793ee0e916115e6612b91565b60ff19600d541660ff821617600d55604051908152a1005b346113c0575f3660031901126113c057611616612b91565b600580546001600160a01b031981169091555f906001600160a01b03167f8be0079c531659141344cd1fd0a4f28419497f9722a3daafe3b4186f6b6457e08280a3005b346113c05760203660031901126113c05760206102fd6104816124b2565b346113c05760203660031901126113c057600435611693612b91565b6107d081116116a157600955005b60405162461bcd60e51b815260206004820152600c60248201526b08ccaca40e8dede40d0d2ced60a31b6044820152606490fd5b346113c0575f3660031901126113c05760075460405160089190911c6001600160a01b03168152602090f35b346113c05760203660031901126113c05761171a6124b2565b611722612b91565b60078054610100600160a81b03191660089290921b610100600160a81b0316919091179055005b346113c05760403660031901126113c0576004356117656124c8565b9061176e612d18565b611776612d78565b60ff600d5416806117f6575b6117e75780156117d857806117a560209361179c83612b64565b938491336130b8565b335f52600e83526117be600260405f20019182546127a8565b9055335f52600e825242600460405f2001556110c9612d93565b63162908e360e11b5f5260045ffd5b63a95362b560e01b5f5260045ffd5b50335f52600e60205260ff60405f20541615611782565b346113c0575f3660031901126113c0576040517f00000000000000000000000000000000000000000000000000000000000000006001600160a01b03168152602090f35b346113c05760203660031901126113c05761186a6124b2565b6118da5f604092835161187d8582612587565b60018152601f1985013660208301377f00000000000000000000000000000000000000000000000000000000000000006001600160a01b03166118bf826128ea565b528451634c0369c360e01b8152938492839260048401612a01565b03817f00000000000000000000000000000000000000000000000000000000000000006001600160a01b03165afa918215611949575f915f93611927575b50610bde90519283928361269d565b611941919350610bde92503d805f833e610bfd8183612587565b929091611918565b513d5f823e3d90fd5b346113c05760203660031901126113c05760043560038110156113c05761197b61199f91612524565b6001611986826125a9565b91015460ff60405193849360c0855260c0850190612470565b918181166020850152818160081c16604085015261ffff8160101c166060850152818160201c16608085015260281c16151560a08301520390f35b346113c0575f3660031901126113c0576008546040516001600160a01b039091168152602090f35b346113c0575f3660031901126113c057602060ff600d54166040519015158152f35b346113c0575f3660031901126113c057602060ff600754166040519015158152f35b612494565b346113c0575f3660031901126113c057611a63612d18565b5f5f611a74600b54600c54906127a8565b4210611c6357611aeb9060405f8151611a8d8382612587565b60018152601f1983013660208301377f00000000000000000000000000000000000000000000000000000000000000006001600160a01b0316611acf826128ea565b5282518095819263bb492bf560e01b8352309060048401612a01565b0381837f00000000000000000000000000000000000000000000000000000000000000006001600160a01b03165af1918215611c59575f935f93611c37575b505f945b8351861015611b72578351861015611b5e57611b5660019160208860051b87010151906127a8565b950194611b2e565b634e487b7160e01b5f52603260045260245ffd5b908482611bd4575b5042600b557f14bc48d99642f79b21501de7b5df46cbc75f742fd64ea188e914521b00ebc35c835180611bc0428587846040919493926060820195825260208201520152565b0390a1600160065582519182526020820152f35b9050612710611be560095484612a29565b04908180151580611c2d575b611bfc575b50611b7a565b611c26916001600160a01b0390611c12906128ea565b516008546001600160a01b03169116612d38565b8381611bf6565b5081511515611bf1565b909250611c4f9193503d805f833e610bfd8183612587565b9290929185611b2a565b50513d5f823e3d90fd5b630cb562bd60e41b5f5260045ffd5b346113c05760203660031901126113c0576001600160a01b03611c936124b2565b165f52600f602052602060ff60405f205416611cb26040518092612503565bf35b346113c0575f3660031901126113c057611ccc612b91565b60075460ff811615611d0b5760ff19166007557f5db9ee0a495bf2e6ff9c91a7834c1ba4fdd244a5e8aa4e537bd38aeae4b073aa6020604051338152a1005b638dfc202b60e01b5f5260045ffd5b346113c0575f3660031901126113c0576040517f00000000000000000000000000000000000000000000000000000000000000006001600160a01b03168152602090f35b346113c0575f3660031901126113c05760ff7f00000000000000000000000000000000000000000000000000000000000000001660ff8111611da557602090604051908152f35b634e487b7160e01b5f52601160045260245ffd5b346113c0575f3660031901126113c057604051630ed1279f60e11b81523060048201526020816024817f00000000000000000000000000000000000000000000000000000000000000006001600160a01b03165afa80156113b5575f90611e26575b602090604051908152f35b506020813d602011611e51575b81611e4060209383612587565b810103126113c05760209051611e1b565b3d9150611e33565b346113c0575f3660031901126113c05760405163d15e005360e01b81526001600160a01b037f000000000000000000000000000000000000000000000000000000000000000081166004830152602090829060249082907f0000000000000000000000000000000000000000000000000000000000000000165afa80156113b5575f90611e2657602090604051908152f35b346113c05760603660031901126113c0576109a4611f076124b2565b611f0f6124c8565b60443591611f1e833383612bb8565b612c5b565b346113c0575f3660031901126113c057611f3b612b91565b6040516370a0823160e01b81523060048201526020816024817f00000000000000000000000000000000000000000000000000000000000000006001600160a01b03165afa9081156113b5575f91612045575b50611f9557005b604051631a4ca37b60e21b81526001600160a01b037f0000000000000000000000000000000000000000000000000000000000000000811660048301525f196024830152306044830152602090829060649082905f907f0000000000000000000000000000000000000000000000000000000000000000165af180156113b55761201b57005b61203c9060203d60201161203e575b6120348183612587565b810190612799565b005b503d61202a565b90506020813d60201161206f575b8161206060209383612587565b810103126113c0575181611f8e565b3d9150612053565b346113c05760203660031901126113c05760043560038110156113c0576120cd61214a915f60a06040516120aa8161253b565b606081528260208201528260408201528260608201528260808201520152612524565b6001604051916120dc8361253b565b6120e5816125a9565b83520154602082019060ff8116825260ff60408401818360081c16815261ffff60608601818560101c168152836080880193818760201c1685528160a08a019760281c1615158752816040519a8b9a60208c525160c060208d015260e08c0190612470565b98511660408a01525116606088015251166080860152511660a084015251151560c08301520390f35b346113c0575f3660031901126113c0576020600254604051908152f35b346113c0575f3660031901126113c0576020600c54604051908152f35b346113c05760203660031901126113c05760043560038110156113c05760ff600d541680612268575b6117e75760ff60016121e783612524565b015460281c161561225957335f908152600f602052604090819020805460ff84811660ff1983161790925591519261223192909161222791859116612503565b6020830190612503565b7f7b849fd02893af4f5628708e216ebbf2d0f6929320cf7370d5cc08852202cf5a60403392a2005b632711b74d60e11b5f5260045ffd5b50335f52600e60205260ff60405f205416156121d6565b346113c0575f3660031901126113c0576020600a54604051908152f35b346113c05760203660031901126113c05760206102fd600435612b36565b346113c05760403660031901126113c0576122d36124b2565b60243590331561234f576001600160a01b031690811561233c57335f52600160205260405f20825f526020528060405f20556040519081527f8c5be1e5ebec7d5bd14f71427d1e84f3dd0314c0f7b2291e5b200ac8c7c3b92560203392a3602060405160018152f35b634a1406b160e11b5f525f60045260245ffd5b63e602df0560e01b5f525f60045260245ffd5b346113c0575f3660031901126113c0576040515f6003548060011c9060018116801561244c575b6020831081146124385782855290811561241457506001146123b6575b610bde83610f8481850382612587565b60035f9081527fc2575a0e9e593c00f959f8c92f12db2869c3395a3b0502d05e2516446f71f85b939250905b8082106123fa57509091508101602001610f846123a6565b9192600181602092548385880101520191019092916123e2565b60ff191660208086019190915291151560051b84019091019150610f8490506123a6565b634e487b7160e01b5f52602260045260245ffd5b91607f1691612389565b346113c0575f3660031901126113c05760206102fd6127b5565b805180835260209291819084018484015e5f828201840152601f01601f1916010190565b346113c05760203660031901126113c05760206102fd600435612b09565b600435906001600160a01b03821682036113c057565b602435906001600160a01b03821682036113c057565b346113c05760203660031901126113c0576124f76124b2565b5060206040515f198152f35b9060038210156125105752565b634e487b7160e01b5f52602160045260245ffd5b6003811015612510575f52601060205260405f2090565b60c0810190811067ffffffffffffffff82111761255757604052565b634e487b7160e01b5f52604160045260245ffd5b60e0810190811067ffffffffffffffff82111761255757604052565b90601f8019910116810190811067ffffffffffffffff82111761255757604052565b90604051915f8154908160011c9260018316928315612657575b60208510841461243857848752869390811561263557506001146125f1575b506125ef92500383612587565b565b90505f9291925260205f20905f915b8183106126195750509060206125ef928201015f6125e2565b6020919350806001915483858901015201910190918492612600565b9050602092506125ef94915060ff191682840152151560051b8201015f6125e2565b93607f16936125c3565b90602080835192838152019201905f5b81811061267e5750505090565b82516001600160a01b0316845260209384019390920191600101612671565b906126b090604083526040830190612661565b906020818303910152602080835192838152019201905f5b8181106126d55750505090565b82518452602093840193909201916001016126c8565b60609060031901126113c057600435906024356001600160a01b03811681036113c057906044356001600160a01b03811681036113c05790565b346113c05760203660031901126113c05760206102fd600435612b64565b81601f820112156113c05780359067ffffffffffffffff82116125575760405192612778601f8401601f191660200185612587565b828452602083830101116113c057815f926020809301838601378301015290565b908160209103126113c0575190565b91908201809211611da557565b6040516370a0823160e01b81523060048201526020816024817f00000000000000000000000000000000000000000000000000000000000000006001600160a01b03165afa9081156113b5575f916128a0575b506040516370a0823160e01b8152306004820152906020826024817f00000000000000000000000000000000000000000000000000000000000000006001600160a01b03165afa9081156113b5575f9161286a575b61286792506127a8565b90565b90506020823d602011612898575b8161288560209383612587565b810103126113c05761286791519061285d565b3d9150612878565b90506020813d6020116128ca575b816128bb60209383612587565b810103126113c057515f612808565b3d91506128ae565b67ffffffffffffffff81116125575760051b60200190565b805115611b5e5760200190565b51906001600160a01b03821682036113c057565b91906040838203126113c057825167ffffffffffffffff81116113c057830181601f820112156113c057805190612941826128d2565b9161294f6040519384612587565b80835260208084019160051b830101918483116113c057602001905b8282106129e9575050509260208101519067ffffffffffffffff82116113c057019080601f830112156113c05781516129a3816128d2565b926129b16040519485612587565b81845260208085019260051b8201019283116113c057602001905b8282106129d95750505090565b81518152602091820191016129cc565b602080916129f6846128f7565b81520191019061296b565b90612a19602091949394604084526040840190612661565b6001600160a01b03909416910152565b81810292918115918404141715611da557565b91908203918211611da557565b51906001600160801b03821682036113c057565b60018060a01b03165f525f60205261286760405f2054612b09565b6001600160a01b03165f81815260208190526040902054612a9890612b09565b5f918252600e602052604090912060028101546003909101549181612abd84836127a8565b11612ac9575050505f90565b61286792612ad6916127a8565b612a3c565b612ae36127b5565b9060018201809211611da55760025460018101809111611da55761286792600192613002565b612b116127b5565b9060018201809211611da55760025460018101809111611da557612867925f92613002565b6002549060018201809211611da557612b4d6127b5565b60018101809111611da55761286792600192613002565b6002549060018201809211611da557612b7b6127b5565b60018101809111611da557612867925f92613002565b6005546001600160a01b03163303612ba557565b63118cdaa760e01b5f523360045260245ffd5b6001600160a01b039081165f818152600160209081526040808320948616835293905291909120549291905f198410612bf2575b50505050565b828410612c3857801561234f576001600160a01b0382161561233c575f52600160205260405f209060018060a01b03165f5260205260405f20910390555f808080612bec565b508290637dc7a0d960e11b5f5260018060a01b031660045260245260445260645ffd5b6001600160a01b0316908115612d05576001600160a01b0316918215612cf257815f525f60205260405f2054818110612cd957817fddf252ad1be2c89b69c2b068fc378daa952ba7f163c4a11628f55a4df523b3ef92602092855f525f84520360405f2055845f525f825260405f20818154019055604051908152a3565b8263391434e360e21b5f5260045260245260445260645ffd5b63ec442f0560e01b5f525f60045260245ffd5b634b637e8f60e11b5f525f60045260245ffd5b600260065414612d29576002600655565b633ee5aeb560e01b5f5260045ffd5b60405163a9059cbb60e01b60208201526001600160a01b0390921660248301526044808301939093529181526125ef91612d73606483612587565b613060565b60ff60075416612d8457565b63d93c066560e01b5f5260045ffd5b6040516370a0823160e01b81523060048201527f00000000000000000000000000000000000000000000000000000000000000006001600160a01b031690602081602481855afa9081156113b5575f91612ea1575b508015612e9d57612710612dfd61123d6127b5565b04808211612e0a57505050565b612e1391612a3c565b7f00000000000000000000000000000000000000000000000000000000000000006001600160a01b031691823b156113c05760405163617ba03760e01b81526001600160a01b0391909116600482015260248101919091523060448201525f6064820181905290918290608490829084905af180156113b557612e935750565b5f6125ef91612587565b5050565b90506020813d602011612ecb575b81612ebc60209383612587565b810103126113c057515f612de8565b3d9150612eaf565b6040516370a0823160e01b81523060048201527f00000000000000000000000000000000000000000000000000000000000000006001600160a01b0316602082602481845afa9182156113b5575f92612fce575b50828210612f3457505050565b612f43602092612f7794612a3c565b604051631a4ca37b60e21b81526001600160a01b039092166004830152602482015230604482015291829081906064820190565b03815f7f00000000000000000000000000000000000000000000000000000000000000006001600160a01b03165af180156113b557612fb35750565b612fcb9060203d60201161203e576120348183612587565b50565b9091506020813d602011612ffa575b81612fea60209383612587565b810103126113c05751905f612f27565b3d9150612fdd565b929161300f8183866132ca565b926004811015612510576001809116149182613035575b505061286792501515906127a8565b908092501561304c57612867930915155f80613026565b634e487b7160e01b5f52601260045260245ffd5b905f602091828151910182855af1156113b5575f513d6130af57506001600160a01b0381163b155b61308f5750565b635274afe760e01b5f9081526001600160a01b0391909116600452602490fd5b60011415613088565b6040516323b872dd60e01b60208201526001600160a01b03909116602482018190523060448301526064808301859052825292919061312b906130fc608482612587565b7f00000000000000000000000000000000000000000000000000000000000000006001600160a01b0316613060565b6001600160a01b0316928315612cf2577fdcbc1c05240f31ff3ad067ef1ee35ce4997762752e3a095284754544f4c709d7918161316c6040936002546127a8565b600255855f525f602052825f20818154019055855f7fddf252ad1be2c89b69c2b068fc378daa952ba7f163c4a11628f55a4df523b3ef60208651858152a382519182526020820152a3565b6001600160a01b038084169590821693909182908786036132b9575b5050508415612d0557845f525f60205260405f20548181106132a05791816040927ffbde797d201c681b91056529119e0b02407c7bb96a4a2c75c01fc9667232c8db94885f525f60205203835f205580600254036002555f877fddf252ad1be2c89b69c2b068fc378daa952ba7f163c4a11628f55a4df523b3ef60208651858152a361328986837f00000000000000000000000000000000000000000000000000000000000000006001600160a01b0316612d38565b825195865260208601526001600160a01b031693a4565b8563391434e360e21b5f5260045260245260445260645ffd5b6132c292612bb8565b5f81816131d3565b90915f19838309928083029283808610950394808603951461335b57848311156133435790829109815f0382168092046002816003021880820260020302808202600203028082026002030280820260020302808202600203028091026002030293600183805f03040190848311900302920304170290565b82634e487b715f52156003026011186020526024601cfd5b50509150811561304c57049056fea2646970667358221220970a2ff1f838f98dcd60042fe2c89b8101d0977e12d43124f414afc3e0728bbc64736f6c634300081c0033","linkReferences":{}},"methodIdentifiers":{"aToken()":"a0c1f15e","aavePool()":"a03e4bc3","allowance(address,address)":"dd62ed3e","approve(address,uint256)":"095ea7b3","asset()":"38d52e0f","balanceOf(address)":"70a08231","changeStrategy(uint8)":"0ffe355c","claimUserRewards(address)":"9bab9bc5","convertToAssets(uint256)":"07a2d13a","convertToShares(uint256)":"c6e6f592","dataProvider()":"b334ed86","decimals()":"313ce567","deposit(uint256,address)":"6e553f65","emergencyWithdrawFromAave()":"20f7b66d","getCurrentAPY()":"962ca496","getLiquidityIndex()":"261de8e4","getScaledBalance()":"267a0da2","getStrategy(uint8)":"1cfed885","getUnclaimedRewards(address)":"69a69e29","getUserEarnings(address)":"f42b8809","getUserProfile(address)":"987ee156","harvest()":"4641257d","harvestInterval()":"14dc0ce0","isUserVerified(address)":"ace417e0","lastHarvest()":"f1a392da","maxDeposit(address)":"402d267d","maxMint(address)":"c63d75b6","maxRedeem(address)":"d905777e","maxWithdraw(address)":"ce96cb77","mint(uint256,address)":"94bf804d","name()":"06fdde03","owner()":"8da5cb5b","pause()":"8456cb59","paused()":"5c975abb","performanceFee()":"87788782","previewDeposit(uint256)":"ef8b30f7","previewMint(uint256)":"b3d7f6b9","previewRedeem(uint256)":"4cdad506","previewWithdraw(uint256)":"0a28a477","rebalance()":"7d7c2a1c","redeem(uint256,address,address)":"ba087652","renounceOwnership()":"715018a6","reserveRatio()":"0c7d5cd8","rewardsController()":"6bb65f53","selfProtocol()":"705ed273","setPerformanceFee(uint256)":"70897b23","setReserveRatio(uint256)":"8b4f3b2c","setSelfProtocol(address)":"6fa6fb5f","setTreasury(address)":"f0f44260","setVerificationRequired(bool)":"7b4d5523","strategies(uint8)":"667316e9","symbol()":"95d89b41","totalAssets()":"01e1d114","totalSupply()":"18160ddd","transfer(address,uint256)":"a9059cbb","transferFrom(address,address,uint256)":"23b872dd","transferOwnership(address)":"f2fde38b","treasury()":"61d027b3","unpause()":"3f4ba83a","userStrategy(address)":"457cf68c","users(address)":"a87430ba","verificationRequired()":"61297ef5","verifySelfProof(bytes,bytes)":"d161802b","withdraw(uint256,address,address)":"b460af94"},"id":2}