{"abi":[{"type":"constructor","inputs":[{"name":"_asset","type":"address","internalType":"contract IERC20"},{"name":"_name","type":"string","internalType":"string"},{"name":"_symbol","type":"string","internalType":"string"},{"name":"_aavePool","type":"address","internalType":"address"},{"name":"_treasury","type":"address","internalType":"address"},{"name":"_selfProtocol","type":"address","internalType":"address"}],"stateMutability":"nonpayable"},{"type":"function","name":"AAVE_POOL","inputs":[],"outputs":[{"name":"","type":"address","internalType":"contract IPool"}],"stateMutability":"view"},{"type":"function","name":"A_TOKEN","inputs":[],"outputs":[{"name":"","type":"address","internalType":"contract IAToken"}],"stateMutability":"view"},{"type":"function","name":"aiAgent","inputs":[],"outputs":[{"name":"","type":"address","internalType":"address"}],"stateMutability":"view"},{"type":"function","name":"aiRebalance","inputs":[],"outputs":[],"stateMutability":"nonpayable"},{"type":"function","name":"allowance","inputs":[{"name":"owner","type":"address","internalType":"address"},{"name":"spender","type":"address","internalType":"address"}],"outputs":[{"name":"","type":"uint256","internalType":"uint256"}],"stateMutability":"view"},{"type":"function","name":"approve","inputs":[{"name":"spender","type":"address","internalType":"address"},{"name":"value","type":"uint256","internalType":"uint256"}],"outputs":[{"name":"","type":"bool","internalType":"bool"}],"stateMutability":"nonpayable"},{"type":"function","name":"asset","inputs":[],"outputs":[{"name":"","type":"address","internalType":"address"}],"stateMutability":"view"},{"type":"function","name":"balanceOf","inputs":[{"name":"account","type":"address","internalType":"address"}],"outputs":[{"name":"","type":"uint256","internalType":"uint256"}],"stateMutability":"view"},{"type":"function","name":"batchHarvest","inputs":[],"outputs":[{"name":"","type":"uint256","internalType":"uint256"},{"name":"","type":"uint256","internalType":"uint256"}],"stateMutability":"nonpayable"},{"type":"function","name":"changeStrategy","inputs":[{"name":"newStrategy","type":"uint8","internalType":"enum AttestifyAaveVault.StrategyType"}],"outputs":[],"stateMutability":"nonpayable"},{"type":"function","name":"claimRewards","inputs":[{"name":"assets","type":"address[]","internalType":"address[]"},{"name":"reward","type":"address","internalType":"address"}],"outputs":[{"name":"rewardAmount","type":"uint256","internalType":"uint256"}],"stateMutability":"nonpayable"},{"type":"function","name":"convertToAssets","inputs":[{"name":"shares","type":"uint256","internalType":"uint256"}],"outputs":[{"name":"","type":"uint256","internalType":"uint256"}],"stateMutability":"view"},{"type":"function","name":"convertToShares","inputs":[{"name":"assets","type":"uint256","internalType":"uint256"}],"outputs":[{"name":"","type":"uint256","internalType":"uint256"}],"stateMutability":"view"},{"type":"function","name":"decimals","inputs":[],"outputs":[{"name":"","type":"uint8","internalType":"uint8"}],"stateMutability":"view"},{"type":"function","name":"deposit","inputs":[{"name":"assets","type":"uint256","internalType":"uint256"},{"name":"receiver","type":"address","internalType":"address"}],"outputs":[{"name":"shares","type":"uint256","internalType":"uint256"}],"stateMutability":"nonpayable"},{"type":"function","name":"emergencyWithdraw","inputs":[{"name":"token","type":"address","internalType":"address"},{"name":"amount","type":"uint256","internalType":"uint256"},{"name":"to","type":"address","internalType":"address"}],"outputs":[],"stateMutability":"nonpayable"},{"type":"function","name":"emergencyWithdrawFromAave","inputs":[],"outputs":[],"stateMutability":"nonpayable"},{"type":"function","name":"getCurrentAPY","inputs":[],"outputs":[{"name":"","type":"uint256","internalType":"uint256"}],"stateMutability":"view"},{"type":"function","name":"getStrategy","inputs":[{"name":"strategyType","type":"uint8","internalType":"enum AttestifyAaveVault.StrategyType"}],"outputs":[{"name":"","type":"tuple","internalType":"struct AttestifyAaveVault.Strategy","components":[{"name":"name","type":"string","internalType":"string"},{"name":"aaveAllocation","type":"uint8","internalType":"uint8"},{"name":"reserveAllocation","type":"uint8","internalType":"uint8"},{"name":"targetAPY","type":"uint16","internalType":"uint16"},{"name":"riskLevel","type":"uint8","internalType":"uint8"},{"name":"isActive","type":"bool","internalType":"bool"}]}],"stateMutability":"view"},{"type":"function","name":"getUserEarnings","inputs":[{"name":"user","type":"address","internalType":"address"}],"outputs":[{"name":"","type":"uint256","internalType":"uint256"}],"stateMutability":"view"},{"type":"function","name":"getUserPosition","inputs":[{"name":"user","type":"address","internalType":"address"}],"outputs":[{"name":"userShares","type":"uint256","internalType":"uint256"},{"name":"userAssets","type":"uint256","internalType":"uint256"},{"name":"shareOfPool","type":"uint256","internalType":"uint256"}],"stateMutability":"view"},{"type":"function","name":"getUserProfile","inputs":[{"name":"user","type":"address","internalType":"address"}],"outputs":[{"name":"profile","type":"tuple","internalType":"struct AttestifyAaveVault.UserProfile","components":[{"name":"isVerified","type":"bool","internalType":"bool"},{"name":"verifiedAt","type":"uint256","internalType":"uint256"},{"name":"totalDeposited","type":"uint256","internalType":"uint256"},{"name":"totalWithdrawn","type":"uint256","internalType":"uint256"},{"name":"lastActionTime","type":"uint256","internalType":"uint256"},{"name":"userIdentifier","type":"uint256","internalType":"uint256"},{"name":"verificationHash","type":"bytes32","internalType":"bytes32"}]},{"name":"strategy","type":"uint8","internalType":"enum AttestifyAaveVault.StrategyType"},{"name":"shares","type":"uint256","internalType":"uint256"},{"name":"assets","type":"uint256","internalType":"uint256"}],"stateMutability":"view"},{"type":"function","name":"getVaultStats","inputs":[],"outputs":[{"name":"_totalAssets","type":"uint256","internalType":"uint256"},{"name":"_totalShares","type":"uint256","internalType":"uint256"},{"name":"reserveBalance","type":"uint256","internalType":"uint256"},{"name":"aaveBalance","type":"uint256","internalType":"uint256"},{"name":"_totalDeposited","type":"uint256","internalType":"uint256"},{"name":"_totalWithdrawn","type":"uint256","internalType":"uint256"},{"name":"_totalYield","type":"uint256","internalType":"uint256"},{"name":"_totalFees","type":"uint256","internalType":"uint256"}],"stateMutability":"view"},{"type":"function","name":"harvest","inputs":[],"outputs":[{"name":"yieldAmount","type":"uint256","internalType":"uint256"},{"name":"feeAmount","type":"uint256","internalType":"uint256"}],"stateMutability":"nonpayable"},{"type":"function","name":"harvestInterval","inputs":[],"outputs":[{"name":"","type":"uint256","internalType":"uint256"}],"stateMutability":"view"},{"type":"function","name":"isUserVerified","inputs":[{"name":"user","type":"address","internalType":"address"}],"outputs":[{"name":"","type":"bool","internalType":"bool"}],"stateMutability":"view"},{"type":"function","name":"lastHarvest","inputs":[],"outputs":[{"name":"","type":"uint256","internalType":"uint256"}],"stateMutability":"view"},{"type":"function","name":"maxDeposit","inputs":[{"name":"","type":"address","internalType":"address"}],"outputs":[{"name":"","type":"uint256","internalType":"uint256"}],"stateMutability":"view"},{"type":"function","name":"maxDeposit","inputs":[],"outputs":[{"name":"","type":"uint256","internalType":"uint256"}],"stateMutability":"view"},{"type":"function","name":"maxMint","inputs":[{"name":"","type":"address","internalType":"address"}],"outputs":[{"name":"","type":"uint256","internalType":"uint256"}],"stateMutability":"view"},{"type":"function","name":"maxRedeem","inputs":[{"name":"owner","type":"address","internalType":"address"}],"outputs":[{"name":"","type":"uint256","internalType":"uint256"}],"stateMutability":"view"},{"type":"function","name":"maxSlippage","inputs":[],"outputs":[{"name":"","type":"uint256","internalType":"uint256"}],"stateMutability":"view"},{"type":"function","name":"maxTvl","inputs":[],"outputs":[{"name":"","type":"uint256","internalType":"uint256"}],"stateMutability":"view"},{"type":"function","name":"maxWithdraw","inputs":[{"name":"owner","type":"address","internalType":"address"}],"outputs":[{"name":"","type":"uint256","internalType":"uint256"}],"stateMutability":"view"},{"type":"function","name":"minDeposit","inputs":[],"outputs":[{"name":"","type":"uint256","internalType":"uint256"}],"stateMutability":"view"},{"type":"function","name":"mint","inputs":[{"name":"shares","type":"uint256","internalType":"uint256"},{"name":"receiver","type":"address","internalType":"address"}],"outputs":[{"name":"assets","type":"uint256","internalType":"uint256"}],"stateMutability":"nonpayable"},{"type":"function","name":"name","inputs":[],"outputs":[{"name":"","type":"string","internalType":"string"}],"stateMutability":"view"},{"type":"function","name":"owner","inputs":[],"outputs":[{"name":"","type":"address","internalType":"address"}],"stateMutability":"view"},{"type":"function","name":"pause","inputs":[],"outputs":[],"stateMutability":"nonpayable"},{"type":"function","name":"paused","inputs":[],"outputs":[{"name":"","type":"bool","internalType":"bool"}],"stateMutability":"view"},{"type":"function","name":"performanceFee","inputs":[],"outputs":[{"name":"","type":"uint256","internalType":"uint256"}],"stateMutability":"view"},{"type":"function","name":"previewDeposit","inputs":[{"name":"assets","type":"uint256","internalType":"uint256"}],"outputs":[{"name":"","type":"uint256","internalType":"uint256"}],"stateMutability":"view"},{"type":"function","name":"previewMint","inputs":[{"name":"shares","type":"uint256","internalType":"uint256"}],"outputs":[{"name":"","type":"uint256","internalType":"uint256"}],"stateMutability":"view"},{"type":"function","name":"previewRedeem","inputs":[{"name":"shares","type":"uint256","internalType":"uint256"}],"outputs":[{"name":"","type":"uint256","internalType":"uint256"}],"stateMutability":"view"},{"type":"function","name":"previewWithdraw","inputs":[{"name":"assets","type":"uint256","internalType":"uint256"}],"outputs":[{"name":"","type":"uint256","internalType":"uint256"}],"stateMutability":"view"},{"type":"function","name":"rebalance","inputs":[],"outputs":[],"stateMutability":"nonpayable"},{"type":"function","name":"redeem","inputs":[{"name":"shares","type":"uint256","internalType":"uint256"},{"name":"receiver","type":"address","internalType":"address"},{"name":"owner","type":"address","internalType":"address"}],"outputs":[{"name":"assets","type":"uint256","internalType":"uint256"}],"stateMutability":"nonpayable"},{"type":"function","name":"renounceOwnership","inputs":[],"outputs":[],"stateMutability":"nonpayable"},{"type":"function","name":"reserveRatio","inputs":[],"outputs":[{"name":"","type":"uint256","internalType":"uint256"}],"stateMutability":"view"},{"type":"function","name":"rewardsController","inputs":[],"outputs":[{"name":"","type":"address","internalType":"contract IRewardsController"}],"stateMutability":"view"},{"type":"function","name":"selfProtocol","inputs":[],"outputs":[{"name":"","type":"address","internalType":"contract ISelfProtocol"}],"stateMutability":"view"},{"type":"function","name":"setAIAgent","inputs":[{"name":"_aiAgent","type":"address","internalType":"address"}],"outputs":[],"stateMutability":"nonpayable"},{"type":"function","name":"setHarvestInterval","inputs":[{"name":"newInterval","type":"uint256","internalType":"uint256"}],"outputs":[],"stateMutability":"nonpayable"},{"type":"function","name":"setLimits","inputs":[{"name":"_minDeposit","type":"uint256","internalType":"uint256"},{"name":"_maxDeposit","type":"uint256","internalType":"uint256"},{"name":"_maxTvl","type":"uint256","internalType":"uint256"}],"outputs":[],"stateMutability":"nonpayable"},{"type":"function","name":"setMaxSlippage","inputs":[{"name":"newSlippage","type":"uint256","internalType":"uint256"}],"outputs":[],"stateMutability":"nonpayable"},{"type":"function","name":"setPerformanceFee","inputs":[{"name":"newFee","type":"uint256","internalType":"uint256"}],"outputs":[],"stateMutability":"nonpayable"},{"type":"function","name":"setReserveRatio","inputs":[{"name":"newRatio","type":"uint256","internalType":"uint256"}],"outputs":[],"stateMutability":"nonpayable"},{"type":"function","name":"setRewardsController","inputs":[{"name":"_rewardsController","type":"address","internalType":"address"}],"outputs":[],"stateMutability":"nonpayable"},{"type":"function","name":"setSelfProtocol","inputs":[{"name":"_selfProtocol","type":"address","internalType":"address"}],"outputs":[],"stateMutability":"nonpayable"},{"type":"function","name":"setTreasury","inputs":[{"name":"newTreasury","type":"address","internalType":"address"}],"outputs":[],"stateMutability":"nonpayable"},{"type":"function","name":"setVerificationRequired","inputs":[{"name":"required","type":"bool","internalType":"bool"}],"outputs":[],"stateMutability":"nonpayable"},{"type":"function","name":"strategies","inputs":[{"name":"","type":"uint8","internalType":"enum AttestifyAaveVault.StrategyType"}],"outputs":[{"name":"name","type":"string","internalType":"string"},{"name":"aaveAllocation","type":"uint8","internalType":"uint8"},{"name":"reserveAllocation","type":"uint8","internalType":"uint8"},{"name":"targetAPY","type":"uint16","internalType":"uint16"},{"name":"riskLevel","type":"uint8","internalType":"uint8"},{"name":"isActive","type":"bool","internalType":"bool"}],"stateMutability":"view"},{"type":"function","name":"symbol","inputs":[],"outputs":[{"name":"","type":"string","internalType":"string"}],"stateMutability":"view"},{"type":"function","name":"totalAssets","inputs":[],"outputs":[{"name":"","type":"uint256","internalType":"uint256"}],"stateMutability":"view"},{"type":"function","name":"totalDeposited","inputs":[],"outputs":[{"name":"","type":"uint256","internalType":"uint256"}],"stateMutability":"view"},{"type":"function","name":"totalFeesCollected","inputs":[],"outputs":[{"name":"","type":"uint256","internalType":"uint256"}],"stateMutability":"view"},{"type":"function","name":"totalSupply","inputs":[],"outputs":[{"name":"","type":"uint256","internalType":"uint256"}],"stateMutability":"view"},{"type":"function","name":"totalWithdrawn","inputs":[],"outputs":[{"name":"","type":"uint256","internalType":"uint256"}],"stateMutability":"view"},{"type":"function","name":"totalYieldHarvested","inputs":[],"outputs":[{"name":"","type":"uint256","internalType":"uint256"}],"stateMutability":"view"},{"type":"function","name":"transfer","inputs":[{"name":"to","type":"address","internalType":"address"},{"name":"value","type":"uint256","internalType":"uint256"}],"outputs":[{"name":"","type":"bool","internalType":"bool"}],"stateMutability":"nonpayable"},{"type":"function","name":"transferFrom","inputs":[{"name":"from","type":"address","internalType":"address"},{"name":"to","type":"address","internalType":"address"},{"name":"value","type":"uint256","internalType":"uint256"}],"outputs":[{"name":"","type":"bool","internalType":"bool"}],"stateMutability":"nonpayable"},{"type":"function","name":"transferOwnership","inputs":[{"name":"newOwner","type":"address","internalType":"address"}],"outputs":[],"stateMutability":"nonpayable"},{"type":"function","name":"treasury","inputs":[],"outputs":[{"name":"","type":"address","internalType":"address"}],"stateMutability":"view"},{"type":"function","name":"unpause","inputs":[],"outputs":[],"stateMutability":"nonpayable"},{"type":"function","name":"updateStrategy","inputs":[{"name":"strategyType","type":"uint8","internalType":"enum AttestifyAaveVault.StrategyType"},{"name":"aaveAlloc","type":"uint8","internalType":"uint8"},{"name":"reserveAlloc","type":"uint8","internalType":"uint8"},{"name":"targetAPY","type":"uint16","internalType":"uint16"},{"name":"riskLevel","type":"uint8","internalType":"uint8"},{"name":"isActive","type":"bool","internalType":"bool"}],"outputs":[],"stateMutability":"nonpayable"},{"type":"function","name":"userStrategy","inputs":[{"name":"","type":"address","internalType":"address"}],"outputs":[{"name":"","type":"uint8","internalType":"enum AttestifyAaveVault.StrategyType"}],"stateMutability":"view"},{"type":"function","name":"users","inputs":[{"name":"","type":"address","internalType":"address"}],"outputs":[{"name":"isVerified","type":"bool","internalType":"bool"},{"name":"verifiedAt","type":"uint256","internalType":"uint256"},{"name":"totalDeposited","type":"uint256","internalType":"uint256"},{"name":"totalWithdrawn","type":"uint256","internalType":"uint256"},{"name":"lastActionTime","type":"uint256","internalType":"uint256"},{"name":"userIdentifier","type":"uint256","internalType":"uint256"},{"name":"verificationHash","type":"bytes32","internalType":"bytes32"}],"stateMutability":"view"},{"type":"function","name":"verificationRequired","inputs":[],"outputs":[{"name":"","type":"bool","internalType":"bool"}],"stateMutability":"view"},{"type":"function","name":"verifySelfProof","inputs":[{"name":"proof","type":"bytes","internalType":"bytes"},{"name":"publicSignals","type":"bytes","internalType":"bytes"}],"outputs":[],"stateMutability":"nonpayable"},{"type":"function","name":"withdraw","inputs":[{"name":"assets","type":"uint256","internalType":"uint256"},{"name":"receiver","type":"address","internalType":"address"},{"name":"owner","type":"address","internalType":"address"}],"outputs":[{"name":"shares","type":"uint256","internalType":"uint256"}],"stateMutability":"nonpayable"},{"type":"event","name":"AIAgentUpdated","inputs":[{"name":"oldAgent","type":"address","indexed":true,"internalType":"address"},{"name":"newAgent","type":"address","indexed":true,"internalType":"address"}],"anonymous":false},{"type":"event","name":"Approval","inputs":[{"name":"owner","type":"address","indexed":true,"internalType":"address"},{"name":"spender","type":"address","indexed":true,"internalType":"address"},{"name":"value","type":"uint256","indexed":false,"internalType":"uint256"}],"anonymous":false},{"type":"event","name":"Deposit","inputs":[{"name":"sender","type":"address","indexed":true,"internalType":"address"},{"name":"owner","type":"address","indexed":true,"internalType":"address"},{"name":"assets","type":"uint256","indexed":false,"internalType":"uint256"},{"name":"shares","type":"uint256","indexed":false,"internalType":"uint256"}],"anonymous":false},{"type":"event","name":"DepositedToAave","inputs":[{"name":"amount","type":"uint256","indexed":false,"internalType":"uint256"},{"name":"timestamp","type":"uint256","indexed":false,"internalType":"uint256"}],"anonymous":false},{"type":"event","name":"EmergencyWithdrawal","inputs":[{"name":"token","type":"address","indexed":true,"internalType":"address"},{"name":"amount","type":"uint256","indexed":false,"internalType":"uint256"},{"name":"to","type":"address","indexed":true,"internalType":"address"}],"anonymous":false},{"type":"event","name":"LimitsUpdated","inputs":[{"name":"minDeposit","type":"uint256","indexed":false,"internalType":"uint256"},{"name":"maxDeposit","type":"uint256","indexed":false,"internalType":"uint256"},{"name":"maxTvl","type":"uint256","indexed":false,"internalType":"uint256"}],"anonymous":false},{"type":"event","name":"OwnershipTransferred","inputs":[{"name":"previousOwner","type":"address","indexed":true,"internalType":"address"},{"name":"newOwner","type":"address","indexed":true,"internalType":"address"}],"anonymous":false},{"type":"event","name":"Paused","inputs":[{"name":"account","type":"address","indexed":false,"internalType":"address"}],"anonymous":false},{"type":"event","name":"PerformanceFeeUpdated","inputs":[{"name":"oldFee","type":"uint256","indexed":false,"internalType":"uint256"},{"name":"newFee","type":"uint256","indexed":false,"internalType":"uint256"}],"anonymous":false},{"type":"event","name":"Rebalanced","inputs":[{"name":"aaveBalance","type":"uint256","indexed":false,"internalType":"uint256"},{"name":"reserveBalance","type":"uint256","indexed":false,"internalType":"uint256"},{"name":"timestamp","type":"uint256","indexed":false,"internalType":"uint256"}],"anonymous":false},{"type":"event","name":"ReserveRatioUpdated","inputs":[{"name":"oldRatio","type":"uint256","indexed":false,"internalType":"uint256"},{"name":"newRatio","type":"uint256","indexed":false,"internalType":"uint256"}],"anonymous":false},{"type":"event","name":"RewardsHarvested","inputs":[{"name":"reward","type":"address","indexed":true,"internalType":"address"},{"name":"amount","type":"uint256","indexed":false,"internalType":"uint256"},{"name":"timestamp","type":"uint256","indexed":false,"internalType":"uint256"}],"anonymous":false},{"type":"event","name":"StrategyChanged","inputs":[{"name":"user","type":"address","indexed":true,"internalType":"address"},{"name":"oldStrategy","type":"uint8","indexed":false,"internalType":"enum AttestifyAaveVault.StrategyType"},{"name":"newStrategy","type":"uint8","indexed":false,"internalType":"enum AttestifyAaveVault.StrategyType"}],"anonymous":false},{"type":"event","name":"Transfer","inputs":[{"name":"from","type":"address","indexed":true,"internalType":"address"},{"name":"to","type":"address","indexed":true,"internalType":"address"},{"name":"value","type":"uint256","indexed":false,"internalType":"uint256"}],"anonymous":false},{"type":"event","name":"TreasuryUpdated","inputs":[{"name":"oldTreasury","type":"address","indexed":true,"internalType":"address"},{"name":"newTreasury","type":"address","indexed":true,"internalType":"address"}],"anonymous":false},{"type":"event","name":"Unpaused","inputs":[{"name":"account","type":"address","indexed":false,"internalType":"address"}],"anonymous":false},{"type":"event","name":"UserVerified","inputs":[{"name":"user","type":"address","indexed":true,"internalType":"address"},{"name":"userIdentifier","type":"uint256","indexed":false,"internalType":"uint256"},{"name":"verificationHash","type":"bytes32","indexed":false,"internalType":"bytes32"},{"name":"timestamp","type":"uint256","indexed":false,"internalType":"uint256"}],"anonymous":false},{"type":"event","name":"VerificationRequirementUpdated","inputs":[{"name":"required","type":"bool","indexed":false,"internalType":"bool"}],"anonymous":false},{"type":"event","name":"Withdraw","inputs":[{"name":"sender","type":"address","indexed":true,"internalType":"address"},{"name":"receiver","type":"address","indexed":true,"internalType":"address"},{"name":"owner","type":"address","indexed":true,"internalType":"address"},{"name":"assets","type":"uint256","indexed":false,"internalType":"uint256"},{"name":"shares","type":"uint256","indexed":false,"internalType":"uint256"}],"anonymous":false},{"type":"event","name":"WithdrawnFromAave","inputs":[{"name":"amount","type":"uint256","indexed":false,"internalType":"uint256"},{"name":"timestamp","type":"uint256","indexed":false,"internalType":"uint256"}],"anonymous":false},{"type":"event","name":"YieldHarvested","inputs":[{"name":"amount","type":"uint256","indexed":false,"internalType":"uint256"},{"name":"fee","type":"uint256","indexed":false,"internalType":"uint256"},{"name":"timestamp","type":"uint256","indexed":false,"internalType":"uint256"}],"anonymous":false},{"type":"error","name":"AaveOperationFailed","inputs":[]},{"type":"error","name":"AlreadyVerified","inputs":[]},{"type":"error","name":"BelowMinDeposit","inputs":[]},{"type":"error","name":"ERC20InsufficientAllowance","inputs":[{"name":"spender","type":"address","internalType":"address"},{"name":"allowance","type":"uint256","internalType":"uint256"},{"name":"needed","type":"uint256","internalType":"uint256"}]},{"type":"error","name":"ERC20InsufficientBalance","inputs":[{"name":"sender","type":"address","internalType":"address"},{"name":"balance","type":"uint256","internalType":"uint256"},{"name":"needed","type":"uint256","internalType":"uint256"}]},{"type":"error","name":"ERC20InvalidApprover","inputs":[{"name":"approver","type":"address","internalType":"address"}]},{"type":"error","name":"ERC20InvalidReceiver","inputs":[{"name":"receiver","type":"address","internalType":"address"}]},{"type":"error","name":"ERC20InvalidSender","inputs":[{"name":"sender","type":"address","internalType":"address"}]},{"type":"error","name":"ERC20InvalidSpender","inputs":[{"name":"spender","type":"address","internalType":"address"}]},{"type":"error","name":"ERC4626ExceededMaxDeposit","inputs":[{"name":"receiver","type":"address","internalType":"address"},{"name":"assets","type":"uint256","internalType":"uint256"},{"name":"max","type":"uint256","internalType":"uint256"}]},{"type":"error","name":"ERC4626ExceededMaxMint","inputs":[{"name":"receiver","type":"address","internalType":"address"},{"name":"shares","type":"uint256","internalType":"uint256"},{"name":"max","type":"uint256","internalType":"uint256"}]},{"type":"error","name":"ERC4626ExceededMaxRedeem","inputs":[{"name":"owner","type":"address","internalType":"address"},{"name":"shares","type":"uint256","internalType":"uint256"},{"name":"max","type":"uint256","internalType":"uint256"}]},{"type":"error","name":"ERC4626ExceededMaxWithdraw","inputs":[{"name":"owner","type":"address","internalType":"address"},{"name":"assets","type":"uint256","internalType":"uint256"},{"name":"max","type":"uint256","internalType":"uint256"}]},{"type":"error","name":"EnforcedPause","inputs":[]},{"type":"error","name":"ExceedsMaxDeposit","inputs":[]},{"type":"error","name":"ExceedsMaxTVL","inputs":[]},{"type":"error","name":"ExpectedPause","inputs":[]},{"type":"error","name":"HarvestTooSoon","inputs":[]},{"type":"error","name":"InsufficientLiquidity","inputs":[]},{"type":"error","name":"InvalidFee","inputs":[]},{"type":"error","name":"InvalidRatio","inputs":[]},{"type":"error","name":"InvalidStrategy","inputs":[]},{"type":"error","name":"NotVerified","inputs":[]},{"type":"error","name":"OwnableInvalidOwner","inputs":[{"name":"owner","type":"address","internalType":"address"}]},{"type":"error","name":"OwnableUnauthorizedAccount","inputs":[{"name":"account","type":"address","internalType":"address"}]},{"type":"error","name":"ReentrancyGuardReentrantCall","inputs":[]},{"type":"error","name":"SafeERC20FailedOperation","inputs":[{"name":"token","type":"address","internalType":"address"}]},{"type":"error","name":"SlippageExceeded","inputs":[]},{"type":"error","name":"VerificationFailed","inputs":[]},{"type":"error","name":"ZeroAddress","inputs":[]},{"type":"error","name":"ZeroAmount","inputs":[]}],"bytecode":{"object":"0x6101008060405234610b1557614aa5803803809161001d8285610d54565b833981019060c081830312610b155780516001600160a01b03811690818103610b155760208301516001600160401b038111610b15578461005f918501610d92565b604084015190946001600160401b038211610b155761007f918501610d92565b61008b60608501610dd8565b906100a460a061009d60808801610dd8565b9601610dd8565b865190966001600160401b0382116107f05760035490600182811c92168015610d2f575b60208310146107d25781601f849311610cc1575b50602090601f8311600114610c5b575f92610c50575b50508160011b915f199060031b1c1916176003555b8051906001600160401b0382116107f05760045490600182811c92168015610c46575b60208310146107d25781601f849311610bd8575b50602090601f8311600114610b72575f92610b67575b50508160011b915f199060031b1c1916176004555b61017282610e00565b9015610b5f575b60a052816080523315610b4c5760058054336001600160a01b0319821681179092556040519291906001600160a01b03167f8be0079c531659141344cd1fd0a4f28419497f9722a3daafe3b4186f6b6457e05f80a360016006556001600160a01b03169384158015610b3b575b610b2c5760c0859052600d80546001600160a01b0319166001600160a01b03929092169190911790556335ea6a7560e01b8152600481018390526101e081602481875afa908115610b21575f91610a28575b506001600160a01b03168015610a195760e0526103e86008556064600c556103e8600e5562015180601055670de0b6b3a764000060095569021e19e0c9bab2400000600a5569d3c21bcecceda1000000600b5542600f556040519160205f81850163095ea7b360e01b815286602487015281196044870152604486526102bf606487610d54565b85519082865af1903d5f5190836109fa575b505050156109b5575b5050506001600160a01b031680610988575b506040516102f981610d39565b60409081516103088382610d54565b600c81526b436f6e73657276617469766560a01b60208201528152602081019060648252828101905f82526060810161015e815260808201906001825260a0830192600184525f80526018602052865f20905180519060018060401b0382116107f0578254600181811c9116801561097e575b60208210146107d257601f8111610939575b50602090601f83116001146108d157918060ff94926001945f926108c6575b50505f19600383901b1c191690831b1781555b019551169065ff000000000064ff0000000063ffff000061ff008954985160081b16935160101b16945160201b169451151560281b169465ff0000000000199264ff00000000199163ffffffff1916171617161717179055805161042281610d39565b815161042e8382610d54565b600881526710985b185b98d95960c21b602082015281526020810190605a825282810190600a825260608101610190815260808201906003825260a08301926001845260015f526018602052865f20905180519060018060401b0382116107f0578254600181811c911680156108bc575b60208210146107d257601f8111610877575b50602090601f831160011461080f57918060ff94926001945f92610804575b50505f19600383901b1c191690831b1781555b019551169065ff000000000064ff0000000063ffff000061ff008954985160081b16935160101b16945160201b169451151560281b169465ff0000000000199264ff00000000199163ffffffff1916171617161717179055805161054681610d39565b81516105528382610d54565b600681526508ee4deeee8d60d31b602082015281526020810190605082528281019060148252606081016101f4815260808201906005825260a08301926001845260025f526018602052865f20905180519060018060401b0382116107f0578254600181811c911680156107e6575b60208210146107d257601f811161078d575b50602090601f831160011461072557918060ff94926001945f9261071a575b50505f19600383901b1c191690831b1781555b019551169065ff000000000064ff0000000063ffff000061ff008954985160081b16935160101b16945160201b169451151560281b169465ff0000000000199264ff00000000199163ffffffff191617161716171717905551613ba99081610efc82396080518181816108cf01528181610c5f01528181610f6001528181611267015281816118a8015281816124cb0152818161279401528181613093015281816133ef0152818161374f015281816139090152613a67015260a051816127d7015260c05181818161129d01528181612c8f015281816134330152613711015260e051818181610fb5015281816110be01528181611919015281816119780152818161289d015281816130e801526133990152f35b015190505f806105f2565b90601f19831691845f52815f20925f5b818110610775575092600194919285938360ff98961061075d575b505050811b018155610605565b01515f1960f88460031b161c191690555f8080610750565b92936020600181928786015181550195019301610735565b835f5260205f20601f840160051c810191602085106107c8575b601f0160051c01905b8181106107bd57506105d3565b5f81556001016107b0565b90915081906107a7565b634e487b7160e01b5f52602260045260245ffd5b90607f16906105c1565b634e487b7160e01b5f52604160045260245ffd5b015190505f806104d0565b90601f19831691845f52815f20925f5b81811061085f575092600194919285938360ff989610610847575b505050811b0181556104e3565b01515f1960f88460031b161c191690555f808061083a565b9293602060018192878601518155019501930161081f565b835f5260205f20601f840160051c810191602085106108b2575b601f0160051c01905b8181106108a757506104b1565b5f815560010161089a565b9091508190610891565b90607f169061049f565b015190505f806103ac565b90601f19831691845f52815f20925f5b818110610921575092600194919285938360ff989610610909575b505050811b0181556103bf565b01515f1960f88460031b161c191690555f80806108fc565b929360206001819287860151815501950193016108e1565b835f5260205f20601f840160051c81019160208510610974575b601f0160051c01905b818110610969575061038d565b5f815560010161095c565b9091508190610953565b90607f169061037b565b601580546001600160a01b0319169190911790556019805460ff60a01b1916600160a01b1790555f6102ec565b6109ed6109f2936040519063095ea7b360e01b602083015260248201525f6044820152604481526109e7606482610d54565b82610ea3565b610ea3565b5f80806102da565b91925090610a0f57503b15155b5f80806102d1565b6001915014610a07565b63522cc4ff60e11b5f5260045ffd5b90506101e0813d8211610b19575b81610a446101e09383610d54565b81010312610b1557610a5860208201610dec565b50610a6560408201610dec565b50610a7260608201610dec565b50610a7f60808201610dec565b50610a8c60a08201610dec565b5060c081015164ffffffffff811603610b155760e081015161ffff811603610b1557610b0e6101c0610ac16101008401610dd8565b92610acf6101208201610dd8565b50610add6101408201610dd8565b50610aeb6101608201610dd8565b50610af96101808201610dec565b50610b076101a08201610dec565b5001610dec565b505f610238565b5f80fd5b3d9150610a36565b6040513d5f823e3d90fd5b63d92e233d60e01b5f5260045ffd5b506001600160a01b038116156101e6565b631e4fbdf760e01b5f525f60045260245ffd5b506012610179565b015190505f80610154565b60045f9081528281209350601f198516905b818110610bc05750908460019594939210610ba8575b505050811b01600455610169565b01515f1960f88460031b161c191690555f8080610b9a565b92936020600181928786015181550195019301610b84565b60045f529091507f8a35acfbc15ff81a39ae7d344fd709f28e8600b4aa8c65c6b64bfe7fe36bd19b601f840160051c81019160208510610c3c575b90601f859493920160051c01905b818110610c2e575061013e565b5f8155849350600101610c21565b9091508190610c13565b91607f169161012a565b015190505f806100f2565b60035f9081528281209350601f198516905b818110610ca95750908460019594939210610c91575b505050811b01600355610107565b01515f1960f88460031b161c191690555f8080610c83565b92936020600181928786015181550195019301610c6d565b60035f529091507fc2575a0e9e593c00f959f8c92f12db2869c3395a3b0502d05e2516446f71f85b601f840160051c81019160208510610d25575b90601f859493920160051c01905b818110610d1757506100dc565b5f8155849350600101610d0a565b9091508190610cfc565b91607f16916100c8565b60c081019081106001600160401b038211176107f057604052565b601f909101601f19168101906001600160401b038211908210176107f057604052565b6001600160401b0381116107f057601f01601f191660200190565b81601f82011215610b1557805190610da982610d77565b92610db76040519485610d54565b82845260208383010111610b1557815f9260208093018386015e8301015290565b51906001600160a01b0382168203610b1557565b51906001600160801b0382168203610b1557565b5f8091604051602081019063313ce56760e01b825260048152610e24602482610d54565b51916001600160a01b03165afa3d15610e9b573d90610e4282610d77565b91610e506040519384610d54565b82523d5f602084013e5b80610e8f575b610e6c575b505f905f90565b602081805181010312610b15576020015160ff8111610e65579060ff6001921690565b50602081511015610e60565b606090610e5a565b905f602091828151910182855af115610b21575f513d610ef257506001600160a01b0381163b155b610ed25750565b635274afe760e01b5f9081526001600160a01b0391909116600452602490fd5b60011415610ecb56fe60806040526004361015610011575f80fd5b5f5f3560e01c806301e1d11414612db257806306fdde0314612cbe57806307a2d13a1461239357806308a0167514612c7a578063095ea7b314612bd25780630a28a47714612bb45780630c7d5cd814612b975780630ffe355c14612ac257806314dc0ce014612aa557806318160ddd14612a88578063189ae5f214612a145780631cfed8851461291857806320f7b66d1461285f57806322a6619e1461284257806323b872dd1461280a578063313ce567146127c357806338d52e0f1461277f57806338d7aae11461275e5780633ae1040d146126ac5780633f4ba83a14612646578063402d267d1461080457806341b3d1851461262957806343f68a49146125f0578063457cf68c146125ae5780634641257d146123b55780634b319713146123985780634cdad50614612393578063551512de146122d25780635b7c2dad146122485780635c975abb146122265780636083e59a1461220957806360c6d8ae146121ec57806361297ef5146121c757806361d027b31461219f578063667316e9146121175780636bb65f53146120eb5780636e553f6514611f475780636ebe941b14611ed45780636fa6fb5f14611e91578063705ed27314611e6957806370897b2314611dfc57806370a0823114611dde578063715018a614611d8357806377d5d85714611bd55780637b4d552314611b695780637d7c2a1c1461186457806383498fc5146117dd5780638456cb591461178257806387788782146117645780638b4f3b2c146116f55780638c04166f146116d75780638da5cb5b146116ae57806394bf804d146114f757806395d89b41146113e6578063962ca4961461123f578063987ee1561461110b5780639a1815be146110ed5780639ef0159f146110a8578063a59aa5a614610f29578063a6d5b73214610f00578063a87430ba14610e80578063a9059cbb14610e4e578063ace417e014610df2578063b3d7f6b914610dd3578063b460af9414610be3578063b74fd24814610a67578063ba08765214610853578063bee36bb314610809578063c63d75b614610804578063c6e6f59214610501578063ce96cb77146107cb578063d161802b14610592578063d905777e14610559578063dd62ed3e14610506578063ef8b30f714610501578063f0f442601461047d578063f1a392da1461045f578063f2fde38b146103d6578063f42b8809146103aa5763ff50abdc1461038a575f80fd5b346103a757806003193601126103a7576020601154604051908152f35b80fd5b50346103a75760203660031901126103a75760206103ce6103c9612e0e565b613238565b604051908152f35b50346103a75760203660031901126103a7576103f0612e0e565b6103f8613351565b6001600160a01b0316801561044b57600580546001600160a01b0319811683179091556001600160a01b03167f8be0079c531659141344cd1fd0a4f28419497f9722a3daafe3b4186f6b6457e08380a380f35b631e4fbdf760e01b82526004829052602482fd5b50346103a757806003193601126103a7576020600f54604051908152f35b50346103a75760203660031901126103a757610497612e0e565b61049f613351565b6001600160a01b031680156104f257600d80546001600160a01b0319811683179091556001600160a01b03167f4ab5be82436d353e61ca18726e984e561f5c1cc7c6d38b29d2553c790434705a8380a380f35b63d92e233d60e01b8252600482fd5b612ff7565b50346103a75760403660031901126103a7576040610522612e0e565b9161052b612e24565b9260018060a01b031681526001602052209060018060a01b03165f52602052602060405f2054604051908152f35b50346103a75760203660031901126103a75760206103ce610578612e0e565b6001600160a01b03165f9081526020819052604090205490565b50346103a75760403660031901126103a75760043567ffffffffffffffff81116107c7576105c4903690600401613015565b60243567ffffffffffffffff81116107a1576105e4903690600401613015565b338352601660205260ff6040842054166107b8576015546001600160a01b031680610701575b5050338252601660205260408220600160ff19825416179055338252601660205242600160408420015533825260166020523360056040842001556040516106806054826020808201953360601b87524260348401528051918291018484015e810186838201520301601f198101835282612ee3565b5190203382526016602052600660408320015533815260176020526040812060ff198154169055338152601660205260056040822001543382526016602052600660408320015460405191825260208201524260408201527f1a3280be2b5519c0c3c0b87db636139f74444a10447f3b0ff76c86dba8b144ad60603392a280f35b610740916020916040518080958194635c73957b60e11b83526040600484015261072e604484018a612dcc565b83810360031901602485015290612dcc565b03915afa9081156107ad57839161076e575b501561075f575f8061060a565b63439cc0cd60e01b8252600482fd5b90506020813d6020116107a5575b8161078960209383612ee3565b810103126107a1575180151581036107a1575f610752565b8280fd5b3d915061077c565b6040513d85823e3d90fd5b630231faf760e31b8352600483fd5b5080fd5b50346103a75760203660031901126103a7576020906103ce906040906001600160a01b036107f7612e0e565b168152808452205461329b565b612e3a565b50346103a75760203660031901126103a757610823612e0e565b61082b613351565b60078054610100600160a81b03191660089290921b610100600160a81b031691909117905580f35b50346103a75761086236612fbd565b909161086c613684565b8015610a58576001600160a01b03831615610a495761088a8161329b565b928315610a3a57600c54612710036127108111610a26576108ae61271091866131df565b6040516370a0823160e01b81523060048201529190049290916020836024817f00000000000000000000000000000000000000000000000000000000000000006001600160a01b03165afa8015610a1b578691869189906109dd575b61091e95508381106109c5575b50336139c2565b82106109b657916020926109348360125461306b565b6012557f57501c8e2164a8e257532432c793d9ee7bb35236acd0592a0b029a7f80a2eb5e604080518581524287820152a160016006556001600160a01b0316338114610985575b5050604051908152f35b808252601684526003604083200161099e84825461306b565b90558152601683526004604042922001555f8061097b565b638199f5f360e01b8352600483fd5b6109d26109d791856131d2565b613378565b5f610917565b509150506020833d602011610a13575b816109fa60209383612ee3565b81010312610a0f5784869161091e945161090a565b5f80fd5b3d91506109ed565b6040513d89823e3d90fd5b634e487b7160e01b86526011600452602486fd5b631f2a200560e01b8552600485fd5b63d92e233d60e01b8452600484fd5b631f2a200560e01b8452600484fd5b50346103a75760c03660031901126103a75760043560038110156107c75760243560ff81168091036107a1576044359160ff831691828403610bdf5760643561ffff81168103610bdb576084359260ff8416808503610bd75760a43595861515809703610bd357610ad6613351565b840160ff8111610bbf5760ff6064911603610b8557600a10610b4b5764ff00000000926001610b0963ffff000093612e80565b019661ff0065ff000000000089549860281b169765ff0000000000199387199163ffffffff191617169160081b1617169160101b16179160201b161717905580f35b60405162461bcd60e51b8152602060048201526012602482015271125b9d985b1a59081c9a5cdac81b195d995b60721b6044820152606490fd5b60405162461bcd60e51b815260206004820152601260248201527124b73b30b634b21030b63637b1b0ba34b7b760711b6044820152606490fd5b634e487b7160e01b89526011600452602489fd5b8880fd5b8780fd5b8580fd5b8480fd5b50346103a757610bf236612fbd565b929091610bfd613684565b8015610dc4576001600160a01b038316156104f257610c1b816132f6565b928315610db557600c54612710018061271011610da157610c3f61271091866131df565b6040516370a0823160e01b815230600482015291900491906020816024817f00000000000000000000000000000000000000000000000000000000000000006001600160a01b03165afa908115610d965787879286928891610d59575b50938483610cb096106109c55750336139c2565b8311610d4a57602093610cc58260125461306b565b6012557f57501c8e2164a8e257532432c793d9ee7bb35236acd0592a0b029a7f80a2eb5e604080518481524288820152a160016006556001600160a01b031690338214610d18575b505050604051908152f35b81835260168552610d316003604085200191825461306b565b90558152601683526004604042922001555f8080610d0d565b638199f5f360e01b8252600482fd5b93505050506020813d602011610d8e575b81610d7760209383612ee3565b81010312610a0f5751859084908890610cb0610c9c565b3d9150610d6a565b6040513d87823e3d90fd5b634e487b7160e01b84526011600452602484fd5b631f2a200560e01b8352600483fd5b631f2a200560e01b8252600482fd5b50346103a75760203660031901126103a75760206103ce6004356132c8565b50346103a75760203660031901126103a757602090610e0f612e0e565b9060ff60195460a01c1615918215610e2e575b50506040519015158152f35b6001600160a01b0316815260168352604090205460ff1690505f80610e22565b50346103a75760403660031901126103a757610e75610e6b612e0e565b60243590336135c7565b602060405160018152f35b50346103a75760203660031901126103a75760e0906040906001600160a01b03610ea8612e0e565b16815260166020522060ff815416906001810154906002810154600382015460048301549160066005850154940154946040519615158752602087015260408601526060850152608084015260a083015260c0820152f35b50346103a757806003193601126103a7576019546040516001600160a01b039091168152602090f35b50346103a757806003193601126103a757610f42613078565b6002546040516370a0823160e01b81523060048201526020816024817f00000000000000000000000000000000000000000000000000000000000000006001600160a01b03165afa90811561109d57849161106b575b506040516370a0823160e01b8152306004820152936020856024817f00000000000000000000000000000000000000000000000000000000000000006001600160a01b03165afa90811561105f579061102b575b6101009450601154601254916013549360145495604051978852602088015260408701526060860152608085015260a084015260c083015260e0820152f35b506020843d602011611057575b8161104560209383612ee3565b81010312610a0f576101009351610fec565b3d9150611038565b604051903d90823e3d90fd5b90506020813d602011611095575b8161108660209383612ee3565b81010312610a0f57515f610f98565b3d9150611079565b6040513d86823e3d90fd5b50346103a757806003193601126103a7576040517f00000000000000000000000000000000000000000000000000000000000000006001600160a01b03168152602090f35b50346103a757806003193601126103a7576020600b54604051908152f35b50346103a75760203660031901126103a75761014090611129612e0e565b8160c060405161113881612ec7565b8281528260208201528260408201528260608201528260808201528260a0820152015260018060a01b0316908181526016602052604081206112316040519361118085612ec7565b60ff835416151585526001830154936020860194855260028401549360408701948552600381015460608801908152600482015490608089019182526040600660058501549460a08c0195865201549460c08b01958652868152601760205260ff8282205416968152806020522054966111f98861329b565b986040519a5115158b525160208b01525160408a01525160608901525160808801525160a08701525160c086015260e0850190612e5f565b610100830152610120820152f35b50346103a757806003193601126103a7576040516335ea6a7560e01b81526001600160a01b037f0000000000000000000000000000000000000000000000000000000000000000811660048301529091906101e090839060249082907f0000000000000000000000000000000000000000000000000000000000000000165afa90811561105f5780916112ed575b60208269152d02c7e14af68000006001600160801b036040519216048152f35b90506101e0823d82116113de575b816113096101e09383612ee3565b810103126103a75761131d60208301613210565b5061132a60408301613210565b9061133760608401613210565b5061134460808401613210565b5061135160a08401613210565b5060c083015164ffffffffff8116036103a75760e083015161ffff8116036103a757506113d76101c08361138a61010060209601613224565b506113986101208201613224565b506113a66101408201613224565b506113b46101608201613224565b506113c26101808201613210565b506113d06101a08201613210565b5001613210565b505f6112cd565b3d91506112fb565b50346103a757806003193601126103a7576040519080600454908160011c916001811680156114ed575b6020841081146114d9578386529081156114b25750600114611455575b6114518461143d81860382612ee3565b604051918291602083526020830190612dcc565b0390f35b600481527f8a35acfbc15ff81a39ae7d344fd709f28e8600b4aa8c65c6b64bfe7fe36bd19b939250905b8082106114985750909150810160200161143d8261142d565b91926001816020925483858801015201910190929161147f565b60ff191660208087019190915292151560051b8501909201925061143d915083905061142d565b634e487b7160e01b83526022600452602483fd5b92607f1692611410565b50346103a75760403660031901126103a757600435611514612e24565b60ff60195460a01c1680611697575b6116885761152f613684565b6115376138a8565b8115610db5576001600160a01b0381161561167957611555826132c8565b918215610a5857600954831061166a57600a54831161165b5761157f8361157a613078565b61306b565b600b541061164c57600c546127100180612710116116385790836127106115a96115b194836131df565b0493336138c3565b8111610d4a576020916115c3826136e4565b6115cf8260115461306b565b6011557fe584f4c1a2f1624163a9abc184bf4b7a205d05032204ef46f06c0b1f6d659b87604080518481524286820152a16001600655338152601683526002604082200161161e83825461306b565b905533815260168352600460404292200155604051908152f35b634e487b7160e01b85526011600452602485fd5b63a84b0dcd60e01b8452600484fd5b63e4bac01b60e01b8452600484fd5b6325bb239560e21b8452600484fd5b63d92e233d60e01b8352600483fd5b63a95362b560e01b8352600483fd5b50338352601660205260ff60408420541615611523565b50346103a757806003193601126103a7576005546040516001600160a01b039091168152602090f35b50346103a757806003193601126103a7576020600c54604051908152f35b50346103a75760203660031901126103a757600435611712613351565b61271081116117555760407f5fc202872c5a7cd0b4e57b020c5f9b016b85ab3ca29cfb204fe46a9e3f391a8791600854908060085582519182526020820152a180f35b63648564d360e01b8252600482fd5b50346103a757806003193601126103a7576020600e54604051908152f35b50346103a757806003193601126103a75761179b613351565b6117a36138a8565b600160ff1960075416176007557f62e78cea01bee320cd4e420270b5ea74000d11b0c9f74754ebdbfc544b05a2586020604051338152a180f35b5034610a0f575f366003190112610a0f576019546001600160a01b031633148015611850575b61180c90613195565b303b15610a0f57604051631f5f0a8760e21b81525f8160048183305af1801561184557611837575080f35b61184391505f90612ee3565b005b6040513d5f823e3d90fd5b506005546001600160a01b03163314611803565b34610a0f575f366003190112610a0f5761187c613684565b61271061189361188a613078565b600854906131df565b6040516370a0823160e01b81523060048201527f00000000000000000000000000000000000000000000000000000000000000006001600160a01b03169290910490602081602481865afa908115611845575f91611b37575b5081811015611aea576118fe916131d2565b6040516370a0823160e01b81523060048201526020816024817f00000000000000000000000000000000000000000000000000000000000000006001600160a01b03165afa80156118455782915f91611ab5575b501015611aa6575b505b6040516370a0823160e01b8152306004820152906020826024817f00000000000000000000000000000000000000000000000000000000000000006001600160a01b03165afa918215611845575f92611a71575b50906020602492604051938480926370a0823160e01b82523060048301525afa8015611845575f90611a1f575b60408051928352602083019190915242908201527f83387a3342ff1ebc5e437dc9ae0f98274afda12a11cf547eebec05a3e0b8f8a79150606090a16001600655005b506020823d602011611a69575b81611a3960209383612ee3565b81010312610a0f577f83387a3342ff1ebc5e437dc9ae0f98274afda12a11cf547eebec05a3e0b8f8a791516119dd565b3d9150611a2c565b91506020823d602011611a9e575b81611a8c60209383612ee3565b81010312610a0f5790519060206119b0565b3d9150611a7f565b611aaf90613378565b8161195a565b9150506020813d602011611ae2575b81611ad160209383612ee3565b81010312610a0f5781905184611952565b3d9150611ac4565b8160011b82810460021483151715611b23578111611b0a575b505061195c565b611b1c91611b17916131d2565b6136e4565b8180611b03565b634e487b7160e01b5f52601160045260245ffd5b90506020813d602011611b61575b81611b5260209383612ee3565b81010312610a0f5751836118ec565b3d9150611b45565b34610a0f576020366003190112610a0f57600435801515809103610a0f5760207f9f42ac7abbb22320dbd485a80be571c9bbd146ce5441ef992e2b43013793ee0e91611bb3613351565b6019805460ff60a01b191660a083901b60ff60a01b16179055604051908152a1005b34610a0f576040366003190112610a0f5760043567ffffffffffffffff8111610a0f5736602382011215610a0f5780600401359067ffffffffffffffff8211610a0f573660248360051b83010111610a0f57611c2f612e24565b611c37613351565b60075460081c6001600160a01b0316908115611d7457600d546040516308d8c03760e21b815260806004820152608481018690529260a48401918491906001600160a01b0316602487015f895b808210611d375750505f1960248501525060448301526001600160a01b0390931660648201819052926020928290039082905f905af1908115611845575f91611d02575b602092507f16c3bcc96c5457e635fa03516bd0d9e0ac0dc9f66a71076c97f865793e44fe44604080518481524286820152a2604051908152f35b90506020823d602011611d2f575b81611d1d60209383612ee3565b81010312610a0f576020915190611cc8565b3d9150611d10565b9196939593945091928635906001600160a01b0382168203610a0f5760208091600193848060a01b03168152019701920187949695939291611c84565b63d92e233d60e01b5f5260045ffd5b34610a0f575f366003190112610a0f57611d9b613351565b600580546001600160a01b031981169091555f906001600160a01b03167f8be0079c531659141344cd1fd0a4f28419497f9722a3daafe3b4186f6b6457e08280a3005b34610a0f576020366003190112610a0f5760206103ce610578612e0e565b34610a0f576020366003190112610a0f57600435611e18613351565b6113888111611e5a5760407f607b1c943753982194530bf7133a5972ea2626e028005410efa54ab20035caf891600e549080600e5582519182526020820152a1005b6358d620b360e01b5f5260045ffd5b34610a0f575f366003190112610a0f576015546040516001600160a01b039091168152602090f35b34610a0f576020366003190112610a0f57611eaa612e0e565b611eb2613351565b601580546001600160a01b0319166001600160a01b0392909216919091179055005b34610a0f576020366003190112610a0f57611eed612e0e565b611ef5613351565b6001600160a01b03168015611d7457601980546001600160a01b0319811683179091556001600160a01b03167f0ac42006b88adb1efcf4e9c3898bf1f0ad6b79559ababbfdf9358497d5ccbac25f80a3005b34610a0f576040366003190112610a0f57600435611f63612e24565b60ff60195460a01c16806120d4575b6120c557611f7e613684565b611f866138a8565b81156120895760095482106120b657600a5482116120a7576001600160a01b03811615611d7457611fb98261157a613078565b600b541061209857611fca82613324565b90811561208957600c54612710036127108111611b235782846127106115a9611ff394846131df565b811061207a57816120056020936136e4565b6120118160115461306b565b6011557fe584f4c1a2f1624163a9abc184bf4b7a205d05032204ef46f06c0b1f6d659b87604080518381524286820152a16001600655335f5260168352612060600260405f200191825461306b565b9055335f526016825242600460405f200155604051908152f35b638199f5f360e01b5f5260045ffd5b631f2a200560e01b5f5260045ffd5b63a84b0dcd60e01b5f5260045ffd5b63e4bac01b60e01b5f5260045ffd5b6325bb239560e21b5f5260045ffd5b63a95362b560e01b5f5260045ffd5b50335f52601660205260ff60405f20541615611f72565b34610a0f575f366003190112610a0f5760075460405160089190911c6001600160a01b03168152602090f35b34610a0f576020366003190112610a0f576004356003811015610a0f5761214061216491612e80565b600161214b82612f05565b91015460ff60405193849360c0855260c0850190612dcc565b918181166020850152818160081c16604085015261ffff8160101c166060850152818160201c16608085015260281c16151560a08301520390f35b34610a0f575f366003190112610a0f57600d546040516001600160a01b039091168152602090f35b34610a0f575f366003190112610a0f57602060ff60195460a01c166040519015158152f35b34610a0f575f366003190112610a0f576020601454604051908152f35b34610a0f575f366003190112610a0f576020600a54604051908152f35b34610a0f575f366003190112610a0f57602060ff600754166040519015158152f35b34610a0f576020366003190112610a0f576001600160a01b03612269612e0e565b165f525f60205260405f205461227e8161329b565b60025490919080156122c85761271082028281046127101483151715611b2357611451916122ab916131f2565b604051938493846040919493926060820195825260208201520152565b506114515f6122ab565b34610a0f576060366003190112610a0f576122eb612e0e565b6044356001600160a01b0381169160243590838303610a0f5761230c613351565b60ff6007541615612361578315611d74576001600160a01b0316917f3ab9db27a4cdd8c603a752b62d5fbd93b4b3509fe2596708e9688e42bbac357691602091612358908290866136a4565b604051908152a3005b60405162461bcd60e51b815260206004820152600a602482015269139bdd081c185d5cd95960b21b6044820152606490fd5b612df0565b34610a0f575f366003190112610a0f576020601254604051908152f35b34610a0f575f366003190112610a0f576123cd613684565b5f5f906123df600f546010549061306b565b421061259f576123ed613078565b6123fc601154601254906131d2565b9081811161241a575b60408385600160065582519182526020820152f35b61242492506131d2565b600e54918215158061258b575b612498575b604092506124468260135461306b565b60135542600f557f46eee0760c564660379a99fd69bc8669b19dba864b3053d7dbb597d0cfbfb26683518061248e428587846040919493926060820195825260208201520152565b0390a19183612405565b50906124a761271091836131df565b0490816124b5575b81612436565b6040516370a0823160e01b8152306004820152917f00000000000000000000000000000000000000000000000000000000000000006001600160a01b0316602084602481845afa938415611845575f94612557575b508161252e91858260409710612544575b50600d546001600160a01b0316906136a4565b61253a8160145461306b565b60145591506124af565b6109d261255191846131d2565b8661251b565b93506020843d602011612583575b8161257260209383612ee3565b81010312610a0f579251928161250a565b3d9150612565565b50600d546001600160a01b03161515612431565b630cb562bd60e41b5f5260045ffd5b34610a0f576020366003190112610a0f576001600160a01b036125cf612e0e565b165f526017602052602060ff60405f2054166125ee6040518092612e5f565bf35b34610a0f576020366003190112610a0f5760043561260c613351565b6103e8811161261a57600c55005b63648564d360e01b5f5260045ffd5b34610a0f575f366003190112610a0f576020600954604051908152f35b34610a0f575f366003190112610a0f5761265e613351565b60075460ff81161561269d5760ff19166007557f5db9ee0a495bf2e6ff9c91a7834c1ba4fdd244a5e8aa4e537bd38aeae4b073aa6020604051338152a1005b638dfc202b60e01b5f5260045ffd5b34610a0f575f366003190112610a0f576019546001600160a01b03163314801561274a575b6126da90613195565b60408051634641257d60e01b815290816004815f305af18015611845575f905f90612710575b6040809350519182526020820152f35b50506040813d604011612742575b8161272b60409383612ee3565b81010312610a0f5780602060409251910151612700565b3d915061271e565b506005546001600160a01b031633146126d1565b34610a0f576020366003190112610a0f57612777613351565b600435601055005b34610a0f575f366003190112610a0f576040517f00000000000000000000000000000000000000000000000000000000000000006001600160a01b03168152602090f35b34610a0f575f366003190112610a0f5760ff7f00000000000000000000000000000000000000000000000000000000000000001660ff8111611b2357602090604051908152f35b34610a0f576060366003190112610a0f57610e75612826612e0e565b61282e612e24565b6044359161283d833383613524565b6135c7565b34610a0f575f366003190112610a0f576020601354604051908152f35b34610a0f575f366003190112610a0f57612877613351565b60ff6007541615612361576040516370a0823160e01b81523060048201526020816024817f00000000000000000000000000000000000000000000000000000000000000006001600160a01b03165afa908115611845575f916128e6575b50806128dd57005b61184390613378565b90506020813d602011612910575b8161290160209383612ee3565b81010312610a0f5751816128d5565b3d91506128f4565b34610a0f576020366003190112610a0f576004356003811015610a0f5761296e6129eb915f60a060405161294b81612e97565b606081528260208201528260408201528260608201528260808201520152612e80565b60016040519161297d83612e97565b61298681612f05565b83520154602082019060ff8116825260ff60408401818360081c16815261ffff60608601818560101c168152836080880193818760201c1685528160a08a019760281c1615158752816040519a8b9a60208c525160c060208d015260e08c0190612dcc565b98511660408a01525116606088015251166080860152511660a084015251151560c08301520390f35b34610a0f576060366003190112610a0f577faa2ef8ba434f2f6bdaad3fcc2d5c35f02b08a47173c94877259407614bc46b55602435600435612a83604435612a5a613351565b8260095583600a5580600b55604051938493846040919493926060820195825260208201520152565b0390a1005b34610a0f575f366003190112610a0f576020600254604051908152f35b34610a0f575f366003190112610a0f576020601054604051908152f35b34610a0f576020366003190112610a0f576004356003811015610a0f5760ff60195460a01c1680612b80575b6120c55760ff6001612aff83612e80565b015460281c1615612b7157335f9081526017602052604090819020805460ff84811660ff19831617909255915192612b49929091612b3f91859116612e5f565b6020830190612e5f565b7f7b849fd02893af4f5628708e216ebbf2d0f6929320cf7370d5cc08852202cf5a60403392a2005b632711b74d60e11b5f5260045ffd5b50335f52601660205260ff60405f20541615612aee565b34610a0f575f366003190112610a0f576020600854604051908152f35b34610a0f576020366003190112610a0f5760206103ce6004356132f6565b34610a0f576040366003190112610a0f57612beb612e0e565b602435903315612c67576001600160a01b0316908115612c5457335f52600160205260405f20825f526020528060405f20556040519081527f8c5be1e5ebec7d5bd14f71427d1e84f3dd0314c0f7b2291e5b200ac8c7c3b92560203392a3602060405160018152f35b634a1406b160e11b5f525f60045260245ffd5b63e602df0560e01b5f525f60045260245ffd5b34610a0f575f366003190112610a0f576040517f00000000000000000000000000000000000000000000000000000000000000006001600160a01b03168152602090f35b34610a0f575f366003190112610a0f576040515f6003548060011c90600181168015612da8575b602083108114612d9457828552908115612d705750600114612d12575b6114518361143d81850382612ee3565b60035f9081527fc2575a0e9e593c00f959f8c92f12db2869c3395a3b0502d05e2516446f71f85b939250905b808210612d565750909150810160200161143d612d02565b919260018160209254838588010152019101909291612d3e565b60ff191660208086019190915291151560051b8401909101915061143d9050612d02565b634e487b7160e01b5f52602260045260245ffd5b91607f1691612ce5565b34610a0f575f366003190112610a0f5760206103ce613078565b805180835260209291819084018484015e5f828201840152601f01601f1916010190565b34610a0f576020366003190112610a0f5760206103ce60043561329b565b600435906001600160a01b0382168203610a0f57565b602435906001600160a01b0382168203610a0f57565b34610a0f576020366003190112610a0f57612e53612e0e565b5060206040515f198152f35b906003821015612e6c5752565b634e487b7160e01b5f52602160045260245ffd5b6003811015612e6c575f52601860205260405f2090565b60c0810190811067ffffffffffffffff821117612eb357604052565b634e487b7160e01b5f52604160045260245ffd5b60e0810190811067ffffffffffffffff821117612eb357604052565b90601f8019910116810190811067ffffffffffffffff821117612eb357604052565b90604051915f8154908160011c9260018316928315612fb3575b602085108414612d94578487528693908115612f915750600114612f4d575b50612f4b92500383612ee3565b565b90505f9291925260205f20905f915b818310612f75575050906020612f4b928201015f612f3e565b6020919350806001915483858901015201910190918492612f5c565b905060209250612f4b94915060ff191682840152151560051b8201015f612f3e565b93607f1693612f1f565b6060906003190112610a0f57600435906024356001600160a01b0381168103610a0f57906044356001600160a01b0381168103610a0f5790565b34610a0f576020366003190112610a0f5760206103ce600435613324565b81601f82011215610a0f5780359067ffffffffffffffff8211612eb3576040519261304a601f8401601f191660200185612ee3565b82845260208383010111610a0f57815f926020809301838601378301015290565b91908201809211611b2357565b6040516370a0823160e01b81523060048201526020816024817f00000000000000000000000000000000000000000000000000000000000000006001600160a01b03165afa908115611845575f91613163575b506040516370a0823160e01b8152306004820152906020826024817f00000000000000000000000000000000000000000000000000000000000000006001600160a01b03165afa908115611845575f9161312d575b61312a925061306b565b90565b90506020823d60201161315b575b8161314860209383612ee3565b81010312610a0f5761312a915190613120565b3d915061313b565b90506020813d60201161318d575b8161317e60209383612ee3565b81010312610a0f57515f6130cb565b3d9150613171565b1561319c57565b60405162461bcd60e51b815260206004820152600e60248201526d139bdd08185d5d1a1bdc9a5e995960921b6044820152606490fd5b91908203918211611b2357565b81810292918115918404141715611b2357565b81156131fc570490565b634e487b7160e01b5f52601260045260245ffd5b51906001600160801b0382168203610a0f57565b51906001600160a01b0382168203610a0f57565b6001600160a01b03165f818152602081905260409020546132589061329b565b5f918252601660205260409091206002810154600390910154918161327d848361306b565b11613289575050505f90565b61312a926132969161306b565b6131d2565b6132a3613078565b9060018201809211611b235760025460018101809111611b235761312a925f92613806565b6132d0613078565b9060018201809211611b235760025460018101809111611b235761312a92600192613806565b6002549060018201809211611b235761330d613078565b60018101809111611b235761312a92600192613806565b6002549060018201809211611b235761333b613078565b60018101809111611b235761312a925f92613806565b6005546001600160a01b0316330361336557565b63118cdaa760e01b5f523360045260245ffd5b8015613521576040516370a0823160e01b81523060048201526020816024817f00000000000000000000000000000000000000000000000000000000000000006001600160a01b03165afa80156118455782915f916134ec575b50106134a957604051631a4ca37b60e21b81526001600160a01b037f00000000000000000000000000000000000000000000000000000000000000008116600483015260248201839052306044830152909190602090839060649082905f907f0000000000000000000000000000000000000000000000000000000000000000165af15f92816134b8575b506134715763522cc4ff60e11b5f5260045ffd5b81106134a95760407f57501c8e2164a8e257532432c793d9ee7bb35236acd0592a0b029a7f80a2eb5e918151908152426020820152a1565b63bb55fd2760e01b5f5260045ffd5b9092506020813d6020116134e4575b816134d460209383612ee3565b81010312610a0f5751915f61345d565b3d91506134c7565b9150506020813d602011613519575b8161350860209383612ee3565b81010312610a0f578190515f6133d2565b3d91506134fb565b50565b6001600160a01b039081165f818152600160209081526040808320948616835293905291909120549291905f19841061355e575b50505050565b8284106135a4578015612c67576001600160a01b03821615612c54575f52600160205260405f209060018060a01b03165f5260205260405f20910390555f808080613558565b508290637dc7a0d960e11b5f5260018060a01b031660045260245260445260645ffd5b6001600160a01b0316908115613671576001600160a01b031691821561365e57815f525f60205260405f205481811061364557817fddf252ad1be2c89b69c2b068fc378daa952ba7f163c4a11628f55a4df523b3ef92602092855f525f84520360405f2055845f525f825260405f20818154019055604051908152a3565b8263391434e360e21b5f5260045260245260445260645ffd5b63ec442f0560e01b5f525f60045260245ffd5b634b637e8f60e11b5f525f60045260245ffd5b600260065414613695576002600655565b633ee5aeb560e01b5f5260045ffd5b60405163a9059cbb60e01b60208201526001600160a01b039092166024830152604480830193909352918152612f4b916136df606483612ee3565b613850565b5f90801561380257613706906127106136ff600854836131df565b04906131d2565b8061370f575050565b7f00000000000000000000000000000000000000000000000000000000000000006001600160a01b0316803b15610a0f5760405163617ba03760e01b81527f00000000000000000000000000000000000000000000000000000000000000006001600160a01b03166004820152602481018390523060448201525f6064820181905290918290608490829084905af190816137ed575b506137b95763522cc4ff60e11b8252600482fd5b7fe584f4c1a2f1624163a9abc184bf4b7a205d05032204ef46f06c0b1f6d659b8791506040908151908152426020820152a1565b6137fa9193505f90612ee3565b5f915f6137a5565b5050565b9291613813818386613ad5565b926004811015612e6c576001809116149182613839575b505061312a925015159061306b565b90809250156131fc5761312a930915155f8061382a565b905f602091828151910182855af115611845575f513d61389f57506001600160a01b0381163b155b61387f5750565b635274afe760e01b5f9081526001600160a01b0391909116600452602490fd5b60011415613878565b60ff600754166138b457565b63d93c066560e01b5f5260045ffd5b6040516323b872dd60e01b60208201526001600160a01b03909116602482018190523060448301526064808301859052825292919061393690613907608482612ee3565b7f00000000000000000000000000000000000000000000000000000000000000006001600160a01b0316613850565b6001600160a01b031692831561365e577fdcbc1c05240f31ff3ad067ef1ee35ce4997762752e3a095284754544f4c709d7918161397760409360025461306b565b600255855f525f602052825f20818154019055855f7fddf252ad1be2c89b69c2b068fc378daa952ba7f163c4a11628f55a4df523b3ef60208651858152a382519182526020820152a3565b6001600160a01b03808416959082169390918290878603613ac4575b505050841561367157845f525f60205260405f2054818110613aab5791816040927ffbde797d201c681b91056529119e0b02407c7bb96a4a2c75c01fc9667232c8db94885f525f60205203835f205580600254036002555f877fddf252ad1be2c89b69c2b068fc378daa952ba7f163c4a11628f55a4df523b3ef60208651858152a3613a9486837f00000000000000000000000000000000000000000000000000000000000000006001600160a01b03166136a4565b825195865260208601526001600160a01b031693a4565b8563391434e360e21b5f5260045260245260445260645ffd5b613acd92613524565b5f81816139de565b90915f198383099280830292838086109503948086039514613b665784831115613b4e5790829109815f0382168092046002816003021880820260020302808202600203028082026002030280820260020302808202600203028091026002030293600183805f03040190848311900302920304170290565b82634e487b715f52156003026011186020526024601cfd5b50509061312a92506131f256fea26469706673582212209a466ea1d32dcbf5a11de542be8e0d84b656dc9dba1ac5b015440e68f3013b1664736f6c634300081c0033","linkReferences":{}},"methodIdentifiers":{"AAVE_POOL()":"08a01675","A_TOKEN()":"9ef0159f","aiAgent()":"a6d5b732","aiRebalance()":"83498fc5","allowance(address,address)":"dd62ed3e","approve(address,uint256)":"095ea7b3","asset()":"38d52e0f","balanceOf(address)":"70a08231","batchHarvest()":"3ae1040d","changeStrategy(uint8)":"0ffe355c","claimRewards(address[],address)":"77d5d857","convertToAssets(uint256)":"07a2d13a","convertToShares(uint256)":"c6e6f592","decimals()":"313ce567","deposit(uint256,address)":"6e553f65","emergencyWithdraw(address,uint256,address)":"551512de","emergencyWithdrawFromAave()":"20f7b66d","getCurrentAPY()":"962ca496","getStrategy(uint8)":"1cfed885","getUserEarnings(address)":"f42b8809","getUserPosition(address)":"5b7c2dad","getUserProfile(address)":"987ee156","getVaultStats()":"a59aa5a6","harvest()":"4641257d","harvestInterval()":"14dc0ce0","isUserVerified(address)":"ace417e0","lastHarvest()":"f1a392da","maxDeposit()":"6083e59a","maxDeposit(address)":"402d267d","maxMint(address)":"c63d75b6","maxRedeem(address)":"d905777e","maxSlippage()":"8c04166f","maxTvl()":"9a1815be","maxWithdraw(address)":"ce96cb77","minDeposit()":"41b3d185","mint(uint256,address)":"94bf804d","name()":"06fdde03","owner()":"8da5cb5b","pause()":"8456cb59","paused()":"5c975abb","performanceFee()":"87788782","previewDeposit(uint256)":"ef8b30f7","previewMint(uint256)":"b3d7f6b9","previewRedeem(uint256)":"4cdad506","previewWithdraw(uint256)":"0a28a477","rebalance()":"7d7c2a1c","redeem(uint256,address,address)":"ba087652","renounceOwnership()":"715018a6","reserveRatio()":"0c7d5cd8","rewardsController()":"6bb65f53","selfProtocol()":"705ed273","setAIAgent(address)":"6ebe941b","setHarvestInterval(uint256)":"38d7aae1","setLimits(uint256,uint256,uint256)":"189ae5f2","setMaxSlippage(uint256)":"43f68a49","setPerformanceFee(uint256)":"70897b23","setReserveRatio(uint256)":"8b4f3b2c","setRewardsController(address)":"bee36bb3","setSelfProtocol(address)":"6fa6fb5f","setTreasury(address)":"f0f44260","setVerificationRequired(bool)":"7b4d5523","strategies(uint8)":"667316e9","symbol()":"95d89b41","totalAssets()":"01e1d114","totalDeposited()":"ff50abdc","totalFeesCollected()":"60c6d8ae","totalSupply()":"18160ddd","totalWithdrawn()":"4b319713","totalYieldHarvested()":"22a6619e","transfer(address,uint256)":"a9059cbb","transferFrom(address,address,uint256)":"23b872dd","transferOwnership(address)":"f2fde38b","treasury()":"61d027b3","unpause()":"3f4ba83a","updateStrategy(uint8,uint8,uint8,uint16,uint8,bool)":"b74fd248","userStrategy(address)":"457cf68c","users(address)":"a87430ba","verificationRequired()":"61297ef5","verifySelfProof(bytes,bytes)":"d161802b","withdraw(uint256,address,address)":"b460af94"},"id":1}