{"abi":[{"type":"constructor","inputs":[],"stateMutability":"nonpayable"},{"type":"function","name":"APY_BASIS_POINTS","inputs":[],"outputs":[{"name":"","type":"uint256","internalType":"uint256"}],"stateMutability":"view"},{"type":"function","name":"BASIS_POINTS","inputs":[],"outputs":[{"name":"","type":"uint256","internalType":"uint256"}],"stateMutability":"view"},{"type":"function","name":"depositTimestamps","inputs":[{"name":"","type":"address","internalType":"address"}],"outputs":[{"name":"","type":"uint256","internalType":"uint256"}],"stateMutability":"view"},{"type":"function","name":"emergencyWithdraw","inputs":[{"name":"token","type":"address","internalType":"address"}],"outputs":[],"stateMutability":"nonpayable"},{"type":"function","name":"emergencyWithdraw","inputs":[{"name":"token","type":"address","internalType":"address"},{"name":"amount","type":"uint256","internalType":"uint256"}],"outputs":[],"stateMutability":"nonpayable"},{"type":"function","name":"getAPY","inputs":[],"outputs":[{"name":"","type":"uint256","internalType":"uint256"}],"stateMutability":"pure"},{"type":"function","name":"getReserveData","inputs":[{"name":"asset","type":"address","internalType":"address"}],"outputs":[{"name":"configuration","type":"uint256","internalType":"uint256"},{"name":"liquidityIndex","type":"uint128","internalType":"uint128"},{"name":"variableBorrowIndex","type":"uint128","internalType":"uint128"},{"name":"currentLiquidityRate","type":"uint128","internalType":"uint128"},{"name":"currentVariableBorrowRate","type":"uint128","internalType":"uint128"},{"name":"currentStableBorrowRate","type":"uint128","internalType":"uint128"},{"name":"lastUpdateTimestamp","type":"uint40","internalType":"uint40"},{"name":"aTokenAddress","type":"address","internalType":"address"},{"name":"stableDebtTokenAddress","type":"address","internalType":"address"},{"name":"variableDebtTokenAddress","type":"address","internalType":"address"},{"name":"interestRateStrategyAddress","type":"address","internalType":"address"},{"name":"id","type":"uint8","internalType":"uint8"}],"stateMutability":"view"},{"type":"function","name":"getUserAccountData","inputs":[{"name":"user","type":"address","internalType":"address"}],"outputs":[{"name":"totalCollateralETH","type":"uint256","internalType":"uint256"},{"name":"totalDebtETH","type":"uint256","internalType":"uint256"},{"name":"availableBorrowsETH","type":"uint256","internalType":"uint256"},{"name":"currentLiquidationThreshold","type":"uint256","internalType":"uint256"},{"name":"ltv","type":"uint256","internalType":"uint256"},{"name":"healthFactor","type":"uint256","internalType":"uint256"}],"stateMutability":"view"},{"type":"function","name":"getUserBalance","inputs":[{"name":"user","type":"address","internalType":"address"}],"outputs":[{"name":"","type":"uint256","internalType":"uint256"}],"stateMutability":"view"},{"type":"function","name":"owner","inputs":[],"outputs":[{"name":"","type":"address","internalType":"address"}],"stateMutability":"view"},{"type":"function","name":"renounceOwnership","inputs":[],"outputs":[],"stateMutability":"nonpayable"},{"type":"function","name":"supply","inputs":[{"name":"asset","type":"address","internalType":"address"},{"name":"amount","type":"uint256","internalType":"uint256"},{"name":"onBehalfOf","type":"address","internalType":"address"},{"name":"referralCode","type":"uint16","internalType":"uint16"}],"outputs":[],"stateMutability":"nonpayable"},{"type":"function","name":"totalAssets","inputs":[],"outputs":[{"name":"","type":"uint256","internalType":"uint256"}],"stateMutability":"view"},{"type":"function","name":"transferOwnership","inputs":[{"name":"newOwner","type":"address","internalType":"address"}],"outputs":[],"stateMutability":"nonpayable"},{"type":"function","name":"userDeposits","inputs":[{"name":"","type":"address","internalType":"address"}],"outputs":[{"name":"","type":"uint256","internalType":"uint256"}],"stateMutability":"view"},{"type":"function","name":"withdraw","inputs":[{"name":"asset","type":"address","internalType":"address"},{"name":"amount","type":"uint256","internalType":"uint256"},{"name":"to","type":"address","internalType":"address"}],"outputs":[{"name":"","type":"uint256","internalType":"uint256"}],"stateMutability":"nonpayable"},{"type":"event","name":"OwnershipTransferred","inputs":[{"name":"previousOwner","type":"address","indexed":true,"internalType":"address"},{"name":"newOwner","type":"address","indexed":true,"internalType":"address"}],"anonymous":false},{"type":"event","name":"Supplied","inputs":[{"name":"user","type":"address","indexed":true,"internalType":"address"},{"name":"asset","type":"address","indexed":true,"internalType":"address"},{"name":"amount","type":"uint256","indexed":false,"internalType":"uint256"},{"name":"referralCode","type":"uint16","indexed":false,"internalType":"uint16"}],"anonymous":false},{"type":"event","name":"Withdrawn","inputs":[{"name":"user","type":"address","indexed":true,"internalType":"address"},{"name":"asset","type":"address","indexed":true,"internalType":"address"},{"name":"amount","type":"uint256","indexed":false,"internalType":"uint256"},{"name":"to","type":"address","indexed":true,"internalType":"address"}],"anonymous":false},{"type":"error","name":"OwnableInvalidOwner","inputs":[{"name":"owner","type":"address","internalType":"address"}]},{"type":"error","name":"OwnableUnauthorizedAccount","inputs":[{"name":"account","type":"address","internalType":"address"}]}],"bytecode":{"object":"0x608080604052346071573315605e575f8054336001600160a01b0319821681178355916001600160a01b03909116907f8be0079c531659141344cd1fd0a4f28419497f9722a3daafe3b4186f6b6457e09080a361098190816100768239f35b631e4fbdf760e01b5f525f60045260245ffd5b5f80fdfe6080806040526004361015610012575f80fd5b5f3560e01c90816301e1d11414610774575080630ba36dcd1461073c578063240be9441461070457806335ea6a7514610681578063477348921461065b578063617ba0371461051a57806369328dec146103d65780636ff1c9bc14610301578063715018a6146102aa5780638da5cb5b1461028357806395ccea67146101d8578063b35f051714610171578063bf92857c1461018d578063d2cbf7ad14610171578063e1f1c4a7146101555763f2fde38b146100cc575f80fd5b34610151576020366003190112610151576100e561078c565b6100ed610925565b6001600160a01b0316801561013e575f80546001600160a01b03198116831782556001600160a01b0316907f8be0079c531659141344cd1fd0a4f28419497f9722a3daafe3b4186f6b6457e09080a3005b631e4fbdf760e01b5f525f60045260245ffd5b5f80fd5b34610151575f3660031901126101515760206040516127108152f35b34610151575f3660031901126101515760206040516101f48152f35b346101515760203660031901126101515760c06101b06101ab61078c565b610880565b6040519081525f60208201525f1960408201525f60608201525f60808201525f1960a0820152f35b34610151576040366003190112610151575f60206102356101f761078c565b6101ff610925565b835460405163a9059cbb60e01b81526001600160a01b039091166004820152602480359082015293849283919082906044820190565b03926001600160a01b03165af180156102785761024e57005b61026f9060203d602011610271575b6102678183610804565b81019061083a565b005b503d61025d565b6040513d5f823e3d90fd5b34610151575f366003190112610151575f546040516001600160a01b039091168152602090f35b34610151575f366003190112610151576102c2610925565b5f80546001600160a01b0319811682556001600160a01b03167f8be0079c531659141344cd1fd0a4f28419497f9722a3daafe3b4186f6b6457e08280a3005b346101515760203660031901126101515761031a61078c565b610322610925565b6040516370a0823160e01b81523060048201526001600160a01b039190911690602081602481855afa908115610278575f916103a2575b505f805460405163a9059cbb60e01b81526001600160a01b03909116600482015260248101929092529091602091839190829081604481015b03925af180156102785761024e57005b90506020813d6020116103ce575b816103bd60209383610804565b810103126101515751610392610359565b3d91506103b0565b34610151576060366003190112610151576103ef61078c565b6024356103fa6107a2565b916104068215156107b8565b61040f33610880565b8281106104de578261042091610873565b335f9081526001602090815260408083209390935560028152828220429055915163a9059cbb60e01b81526001600160a01b0386811660048301526024820186905290959316919085906044908290855af1938415610278576020946104c3575b506040518381526001600160a01b039092169133907f889d364b5102aee044ff370e2e6a836584e5618a16dce4f5b191459cf3903e58908690a4604051908152f35b6104d990853d8711610271576102678183610804565b610481565b60405162461bcd60e51b8152602060048201526014602482015273496e73756666696369656e742062616c616e636560601b6044820152606490fd5b346101515760803660031901126101515761053361078c565b60243561053e6107a2565b906064359261ffff84168094036101515761055a8215156107b8565b6040516323b872dd60e01b8152336004820152306024820152604481018390526001600160a01b03919091169390916020836064815f895af1918215610278577f3b9084505ac3c33d25de7ed0fecdd6e20c10514fadf13a205831d2864f6edc319360409361063e575b506001600160a01b0385165f818152600160205284902054909590610617575b50845f526001602052825f206105fb838254610852565b9055845f52600260205242835f205582519182526020820152a3005b610620906108ae565b855f526001602052610636845f20918254610852565b9055866105e4565b6106569060203d602011610271576102678183610804565b6105c4565b346101515760203660031901126101515760206106796101ab61078c565b604051908152f35b346101515760203660031901126101515761069a61078c565b506101806040515f81526b033b2e3c9fd0803ce800000060208201525f604082015264746a52880060608201525f60808201525f60a082015264ffffffffff421660c08201525f60e08201525f6101008201525f6101208201525f6101408201525f610160820152f35b34610151576020366003190112610151576001600160a01b0361072561078c565b165f526002602052602060405f2054604051908152f35b34610151576020366003190112610151576001600160a01b0361075d61078c565b165f526001602052602060405f2054604051908152f35b34610151575f36600319011261015157602090478152f35b600435906001600160a01b038216820361015157565b604435906001600160a01b038216820361015157565b156107bf57565b60405162461bcd60e51b815260206004820152601d60248201527f416d6f756e74206d7573742062652067726561746572207468616e20300000006044820152606490fd5b90601f8019910116810190811067ffffffffffffffff82111761082657604052565b634e487b7160e01b5f52604160045260245ffd5b90816020910312610151575180151581036101515790565b9190820180921161085f57565b634e487b7160e01b5f52601160045260245ffd5b9190820391821161085f57565b6001600160a01b0381165f908152600160205260409020546108ab916108a5906108ae565b90610852565b90565b6001600160a01b03165f818152600160205260409020541561092057805f5260026020526108e060405f205442610873565b905f52600160205260405f20546101f48102908082046101f4148115171561085f5782026101f40291811591830414171561085f5764496cebb800900490565b505f90565b5f546001600160a01b0316330361093857565b63118cdaa760e01b5f523360045260245ffdfea2646970667358221220c15790820a7bfbe54e62dd172e7821816e84d1c6d5874a41478a701017ab636964736f6c634300081c0033","linkReferences":{}},"methodIdentifiers":{"APY_BASIS_POINTS()":"b35f0517","BASIS_POINTS()":"e1f1c4a7","depositTimestamps(address)":"240be944","emergencyWithdraw(address)":"6ff1c9bc","emergencyWithdraw(address,uint256)":"95ccea67","getAPY()":"d2cbf7ad","getReserveData(address)":"35ea6a75","getUserAccountData(address)":"bf92857c","getUserBalance(address)":"47734892","owner()":"8da5cb5b","renounceOwnership()":"715018a6","supply(address,uint256,address,uint16)":"617ba037","totalAssets()":"01e1d114","transferOwnership(address)":"f2fde38b","userDeposits(address)":"0ba36dcd","withdraw(address,uint256,address)":"69328dec"},"id":7}