{"abi":[{"type":"constructor","inputs":[],"stateMutability":"nonpayable"},{"type":"function","name":"aTokens","inputs":[{"name":"","type":"address","internalType":"address"}],"outputs":[{"name":"","type":"address","internalType":"address"}],"stateMutability":"view"},{"type":"function","name":"getUserAccountData","inputs":[{"name":"","type":"address","internalType":"address"}],"outputs":[{"name":"totalCollateralBase","type":"uint256","internalType":"uint256"},{"name":"totalDebtBase","type":"uint256","internalType":"uint256"},{"name":"availableBorrowsBase","type":"uint256","internalType":"uint256"},{"name":"currentLiquidationThreshold","type":"uint256","internalType":"uint256"},{"name":"ltv","type":"uint256","internalType":"uint256"},{"name":"healthFactor","type":"uint256","internalType":"uint256"}],"stateMutability":"pure"},{"type":"function","name":"owner","inputs":[],"outputs":[{"name":"","type":"address","internalType":"address"}],"stateMutability":"view"},{"type":"function","name":"renounceOwnership","inputs":[],"outputs":[],"stateMutability":"nonpayable"},{"type":"function","name":"setAToken","inputs":[{"name":"asset","type":"address","internalType":"address"},{"name":"aToken","type":"address","internalType":"address"}],"outputs":[],"stateMutability":"nonpayable"},{"type":"function","name":"supply","inputs":[{"name":"asset","type":"address","internalType":"address"},{"name":"amount","type":"uint256","internalType":"uint256"},{"name":"onBehalfOf","type":"address","internalType":"address"},{"name":"","type":"uint16","internalType":"uint16"}],"outputs":[],"stateMutability":"nonpayable"},{"type":"function","name":"transferOwnership","inputs":[{"name":"newOwner","type":"address","internalType":"address"}],"outputs":[],"stateMutability":"nonpayable"},{"type":"function","name":"withdraw","inputs":[{"name":"asset","type":"address","internalType":"address"},{"name":"amount","type":"uint256","internalType":"uint256"},{"name":"to","type":"address","internalType":"address"}],"outputs":[{"name":"","type":"uint256","internalType":"uint256"}],"stateMutability":"nonpayable"},{"type":"event","name":"OwnershipTransferred","inputs":[{"name":"previousOwner","type":"address","indexed":true,"internalType":"address"},{"name":"newOwner","type":"address","indexed":true,"internalType":"address"}],"anonymous":false},{"type":"event","name":"Supply","inputs":[{"name":"asset","type":"address","indexed":true,"internalType":"address"},{"name":"user","type":"address","indexed":true,"internalType":"address"},{"name":"amount","type":"uint256","indexed":false,"internalType":"uint256"}],"anonymous":false},{"type":"event","name":"Withdraw","inputs":[{"name":"asset","type":"address","indexed":true,"internalType":"address"},{"name":"user","type":"address","indexed":true,"internalType":"address"},{"name":"amount","type":"uint256","indexed":false,"internalType":"uint256"}],"anonymous":false},{"type":"error","name":"OwnableInvalidOwner","inputs":[{"name":"owner","type":"address","internalType":"address"}]},{"type":"error","name":"OwnableUnauthorizedAccount","inputs":[{"name":"account","type":"address","internalType":"address"}]}],"bytecode":{"object":"0x608080604052346071573315605e575f8054336001600160a01b0319821681178355916001600160a01b03909116907f8be0079c531659141344cd1fd0a4f28419497f9722a3daafe3b4186f6b6457e09080a361066390816100768239f35b631e4fbdf760e01b5f525f60045260245ffd5b5f80fdfe6080806040526004361015610012575f80fd5b5f905f3560e01c9081633e108ad91461050c57508063617ba037146103a457806369328dec1461022c578063715018a6146101d25780638da5cb5b146101ab578063a1e26f4b14610147578063bf92857c146100fe5763f2fde38b14610076575f80fd5b346100fb5760203660031901126100fb5761008f61054b565b610097610607565b6001600160a01b031680156100e75781546001600160a01b03198116821783556001600160a01b03167f8be0079c531659141344cd1fd0a4f28419497f9722a3daafe3b4186f6b6457e08380a380f35b631e4fbdf760e01b82526004829052602482fd5b80fd5b50346100fb5760203660031901126100fb5760c09061011b61054b565b50604051908082528060208301526040820152611f406060820152611d4c60808201525f1960a0820152f35b50346100fb5760403660031901126100fb5761016161054b565b6024356001600160a01b03811691908290036101a75761017f610607565b6001600160a01b0316825260016020526040822080546001600160a01b031916909117905580f35b8280fd5b50346100fb57806003193601126100fb57546040516001600160a01b039091168152602090f35b50346100fb57806003193601126100fb576101eb610607565b80546001600160a01b03198116825581906001600160a01b03167f8be0079c531659141344cd1fd0a4f28419497f9722a3daafe3b4186f6b6457e08280a380f35b50346100fb5760603660031901126100fb5761024661054b565b60243590610252610561565b6001600160a01b0391821680855260016020526040852054909261027891161515610577565b818452600160205260408420546001600160a01b0316803b156103a057604051632770a7eb60e21b81523360048201526024810185905290859081908390604490829084905af1918215610393578592610376575b505060405163a9059cbb60e01b81526001600160a01b03929092166004830152602482015260208160448187865af1801561036b5760209450610340575b50604051908282527f9b1bfa7fa9ee420a16e124f794c35ac9f90472acc99140eb2f6447c714cad8eb843393a3604051908152f35b61035f90843d8611610364575b61035781836105b9565b8101906105ef565b61030b565b503d61034d565b6040513d86823e3d90fd5b81925090610383916105b9565b61038f5782845f6102cd565b8380fd5b50604051903d90823e3d90fd5b8480fd5b50346104eb5760803660031901126104eb576103be61054b565b602435906103ca610561565b9060643561ffff8116036104eb576001600160a01b039081165f8181526001602052604090205490929161040091161515610577565b6040516323b872dd60e01b8152336004820152306024820152604481018490526020816064815f875af180156104e0576104ef575b505f828152600160205260409020546001600160a01b0316803b156104eb576040516340c10f1960e01b81526001600160a01b038316600482015260248101859052905f908290604490829084905af180156104e0576104ca575b506040519283526001600160a01b0316917fd1cf3d156d5f8f0d50f6c122ed609cec09d35c9b9fb3fff6ea0959134dae424e90602090a380f35b6104d79194505f906105b9565b5f926020610490565b6040513d5f823e3d90fd5b5f80fd5b6105079060203d6020116103645761035781836105b9565b610435565b346104eb5760203660031901126104eb576020906001600160a01b0361053061054b565b165f9081526001835260409020546001600160a01b03168152f35b600435906001600160a01b03821682036104eb57565b604435906001600160a01b03821682036104eb57565b1561057e57565b60405162461bcd60e51b8152602060048201526013602482015272105cdcd95d081b9bdd081cdd5c1c1bdc9d1959606a1b6044820152606490fd5b90601f8019910116810190811067ffffffffffffffff8211176105db57604052565b634e487b7160e01b5f52604160045260245ffd5b908160209103126104eb575180151581036104eb5790565b5f546001600160a01b0316330361061a57565b63118cdaa760e01b5f523360045260245ffdfea26469706673582212201744802231362db8b4ed39fc455d21d8b1549af3468dfd380540594342cfd41464736f6c634300081c0033","linkReferences":{}},"methodIdentifiers":{"aTokens(address)":"3e108ad9","getUserAccountData(address)":"bf92857c","owner()":"8da5cb5b","renounceOwnership()":"715018a6","setAToken(address,address)":"a1e26f4b","supply(address,uint256,address,uint16)":"617ba037","transferOwnership(address)":"f2fde38b","withdraw(address,uint256,address)":"69328dec"},"id":6}