{"abi":[{"type":"constructor","inputs":[{"name":"_underlyingAsset","type":"address","internalType":"address"},{"name":"name","type":"string","internalType":"string"},{"name":"symbol","type":"string","internalType":"string"}],"stateMutability":"nonpayable"},{"type":"function","name":"UNDERLYING_ASSET_ADDRESS","inputs":[],"outputs":[{"name":"","type":"address","internalType":"address"}],"stateMutability":"view"},{"type":"function","name":"allowance","inputs":[{"name":"owner","type":"address","internalType":"address"},{"name":"spender","type":"address","internalType":"address"}],"outputs":[{"name":"","type":"uint256","internalType":"uint256"}],"stateMutability":"view"},{"type":"function","name":"approve","inputs":[{"name":"spender","type":"address","internalType":"address"},{"name":"value","type":"uint256","internalType":"uint256"}],"outputs":[{"name":"","type":"bool","internalType":"bool"}],"stateMutability":"nonpayable"},{"type":"function","name":"balanceOf","inputs":[{"name":"account","type":"address","internalType":"address"}],"outputs":[{"name":"","type":"uint256","internalType":"uint256"}],"stateMutability":"view"},{"type":"function","name":"burn","inputs":[{"name":"account","type":"address","internalType":"address"},{"name":"amount","type":"uint256","internalType":"uint256"}],"outputs":[],"stateMutability":"nonpayable"},{"type":"function","name":"decimals","inputs":[],"outputs":[{"name":"","type":"uint8","internalType":"uint8"}],"stateMutability":"view"},{"type":"function","name":"mint","inputs":[{"name":"account","type":"address","internalType":"address"},{"name":"amount","type":"uint256","internalType":"uint256"}],"outputs":[],"stateMutability":"nonpayable"},{"type":"function","name":"name","inputs":[],"outputs":[{"name":"","type":"string","internalType":"string"}],"stateMutability":"view"},{"type":"function","name":"owner","inputs":[],"outputs":[{"name":"","type":"address","internalType":"address"}],"stateMutability":"view"},{"type":"function","name":"pool","inputs":[],"outputs":[{"name":"","type":"address","internalType":"address"}],"stateMutability":"view"},{"type":"function","name":"renounceOwnership","inputs":[],"outputs":[],"stateMutability":"nonpayable"},{"type":"function","name":"scaledBalanceOf","inputs":[{"name":"user","type":"address","internalType":"address"}],"outputs":[{"name":"","type":"uint256","internalType":"uint256"}],"stateMutability":"view"},{"type":"function","name":"setPool","inputs":[{"name":"_pool","type":"address","internalType":"address"}],"outputs":[],"stateMutability":"nonpayable"},{"type":"function","name":"symbol","inputs":[],"outputs":[{"name":"","type":"string","internalType":"string"}],"stateMutability":"view"},{"type":"function","name":"totalSupply","inputs":[],"outputs":[{"name":"","type":"uint256","internalType":"uint256"}],"stateMutability":"view"},{"type":"function","name":"transfer","inputs":[{"name":"to","type":"address","internalType":"address"},{"name":"value","type":"uint256","internalType":"uint256"}],"outputs":[{"name":"","type":"bool","internalType":"bool"}],"stateMutability":"nonpayable"},{"type":"function","name":"transferFrom","inputs":[{"name":"from","type":"address","internalType":"address"},{"name":"to","type":"address","internalType":"address"},{"name":"value","type":"uint256","internalType":"uint256"}],"outputs":[{"name":"","type":"bool","internalType":"bool"}],"stateMutability":"nonpayable"},{"type":"function","name":"transferOwnership","inputs":[{"name":"newOwner","type":"address","internalType":"address"}],"outputs":[],"stateMutability":"nonpayable"},{"type":"event","name":"Approval","inputs":[{"name":"owner","type":"address","indexed":true,"internalType":"address"},{"name":"spender","type":"address","indexed":true,"internalType":"address"},{"name":"value","type":"uint256","indexed":false,"internalType":"uint256"}],"anonymous":false},{"type":"event","name":"OwnershipTransferred","inputs":[{"name":"previousOwner","type":"address","indexed":true,"internalType":"address"},{"name":"newOwner","type":"address","indexed":true,"internalType":"address"}],"anonymous":false},{"type":"event","name":"Transfer","inputs":[{"name":"from","type":"address","indexed":true,"internalType":"address"},{"name":"to","type":"address","indexed":true,"internalType":"address"},{"name":"value","type":"uint256","indexed":false,"internalType":"uint256"}],"anonymous":false},{"type":"error","name":"ERC20InsufficientAllowance","inputs":[{"name":"spender","type":"address","internalType":"address"},{"name":"allowance","type":"uint256","internalType":"uint256"},{"name":"needed","type":"uint256","internalType":"uint256"}]},{"type":"error","name":"ERC20InsufficientBalance","inputs":[{"name":"sender","type":"address","internalType":"address"},{"name":"balance","type":"uint256","internalType":"uint256"},{"name":"needed","type":"uint256","internalType":"uint256"}]},{"type":"error","name":"ERC20InvalidApprover","inputs":[{"name":"approver","type":"address","internalType":"address"}]},{"type":"error","name":"ERC20InvalidReceiver","inputs":[{"name":"receiver","type":"address","internalType":"address"}]},{"type":"error","name":"ERC20InvalidSender","inputs":[{"name":"sender","type":"address","internalType":"address"}]},{"type":"error","name":"ERC20InvalidSpender","inputs":[{"name":"spender","type":"address","internalType":"address"}]},{"type":"error","name":"OwnableInvalidOwner","inputs":[{"name":"owner","type":"address","internalType":"address"}]},{"type":"error","name":"OwnableUnauthorizedAccount","inputs":[{"name":"account","type":"address","internalType":"address"}]}],"bytecode":{"object":"0x60a06040523461039657610e2a803803806100198161039a565b928339810190606081830312610396578051906001600160a01b03821682036103965760208101516001600160401b038111610396578361005b9183016103bf565b60408201519093906001600160401b0381116103965761007b92016103bf565b82519091906001600160401b0381116102a757600354600181811c9116801561038c575b602082101461028957601f8111610329575b506020601f82116001146102c657819293945f926102bb575b50508160011b915f199060031b1c1916176003555b81516001600160401b0381116102a757600454600181811c9116801561029d575b602082101461028957601f8111610226575b50602092601f82116001146101c557928192935f926101ba575b50508160011b915f199060031b1c1916176004555b33156101a75760058054336001600160a01b0319821681179092556040519291906001600160a01b03167f8be0079c531659141344cd1fd0a4f28419497f9722a3daafe3b4186f6b6457e05f80a3608052610a1990816104118239608051816101d10152f35b631e4fbdf760e01b5f525f60045260245ffd5b015190505f8061012c565b601f1982169360045f52805f20915f5b86811061020e57508360019596106101f6575b505050811b01600455610141565b01515f1960f88460031b161c191690555f80806101e8565b919260206001819286850151815501940192016101d5565b60045f527f8a35acfbc15ff81a39ae7d344fd709f28e8600b4aa8c65c6b64bfe7fe36bd19b601f830160051c8101916020841061027f575b601f0160051c01905b8181106102745750610112565b5f8155600101610267565b909150819061025e565b634e487b7160e01b5f52602260045260245ffd5b90607f1690610100565b634e487b7160e01b5f52604160045260245ffd5b015190505f806100ca565b601f1982169060035f52805f20915f5b818110610311575095836001959697106102f9575b505050811b016003556100df565b01515f1960f88460031b161c191690555f80806102eb565b9192602060018192868b0151815501940192016102d6565b60035f527fc2575a0e9e593c00f959f8c92f12db2869c3395a3b0502d05e2516446f71f85b601f830160051c81019160208410610382575b601f0160051c01905b81811061037757506100b1565b5f815560010161036a565b9091508190610361565b90607f169061009f565b5f80fd5b6040519190601f01601f191682016001600160401b038111838210176102a757604052565b81601f82011215610396578051906001600160401b0382116102a7576103ee601f8301601f191660200161039a565b928284526020838301011161039657815f9260208093018386015e830101529056fe6080806040526004361015610012575f80fd5b5f3560e01c90816306fdde031461080057508063095ea7b31461077e57806316f0115b1461075657806318160ddd146107395780631da24f3e146104cb57806323b872dd1461065a578063313ce5671461063f57806340c10f191461054e5780634437152a1461050b57806370a08231146104cb578063715018a6146104705780638da5cb5b1461044857806395d89b411461032d5780639dc29fac14610231578063a9059cbb14610200578063b16a19de146101bc578063dd62ed3e1461016c5763f2fde38b146100e2575f80fd5b34610168576020366003190112610168576100fb6108f9565b6101036109bc565b6001600160a01b0316801561015557600580546001600160a01b0319811683179091556001600160a01b03167f8be0079c531659141344cd1fd0a4f28419497f9722a3daafe3b4186f6b6457e05f80a3005b631e4fbdf760e01b5f525f60045260245ffd5b5f80fd5b34610168576040366003190112610168576101856108f9565b61018d61090f565b6001600160a01b039182165f908152600160209081526040808320949093168252928352819020549051908152f35b34610168575f366003190112610168576040517f00000000000000000000000000000000000000000000000000000000000000006001600160a01b03168152602090f35b346101685760403660031901126101685761022661021c6108f9565b6024359033610925565b602060405160018152f35b346101685760403660031901126101685761024a6108f9565b60065460243591906001600160a01b031633036102f3576001600160a01b031680156102e057805f525f60205260405f20548281106102c7576020835f947fddf252ad1be2c89b69c2b068fc378daa952ba7f163c4a11628f55a4df523b3ef938587528684520360408620558060025403600255604051908152a3005b9063391434e360e21b5f5260045260245260445260645ffd5b634b637e8f60e11b5f525f60045260245ffd5b60405162461bcd60e51b815260206004820152601260248201527127b7363c903837b7b61031b0b710313ab93760711b6044820152606490fd5b34610168575f366003190112610168576040515f6004548060011c9060018116801561043e575b60208310811461042a5782855290811561040e57506001146103b9575b50819003601f01601f191681019067ffffffffffffffff8211818310176103a5576103a1829182604052826108cf565b0390f35b634e487b7160e01b5f52604160045260245ffd5b905060045f527f8a35acfbc15ff81a39ae7d344fd709f28e8600b4aa8c65c6b64bfe7fe36bd19b5f905b8282106103f857506020915082010182610371565b60018160209254838588010152019101906103e3565b90506020925060ff191682840152151560051b82010182610371565b634e487b7160e01b5f52602260045260245ffd5b91607f1691610354565b34610168575f366003190112610168576005546040516001600160a01b039091168152602090f35b34610168575f366003190112610168576104886109bc565b600580546001600160a01b031981169091555f906001600160a01b03167f8be0079c531659141344cd1fd0a4f28419497f9722a3daafe3b4186f6b6457e08280a3005b346101685760203660031901126101685760206105036104e96108f9565b6001600160a01b03165f9081526020819052604090205490565b604051908152f35b34610168576020366003190112610168576105246108f9565b61052c6109bc565b600680546001600160a01b0319166001600160a01b0392909216919091179055005b34610168576040366003190112610168576105676108f9565b60065460243591906001600160a01b03163303610605576001600160a01b03169081156105f257600254908082018092116105de5760207fddf252ad1be2c89b69c2b068fc378daa952ba7f163c4a11628f55a4df523b3ef915f9360025584845283825260408420818154019055604051908152a3005b634e487b7160e01b5f52601160045260245ffd5b63ec442f0560e01b5f525f60045260245ffd5b60405162461bcd60e51b815260206004820152601260248201527113db9b1e481c1bdbdb0818d85b881b5a5b9d60721b6044820152606490fd5b34610168575f36600319011261016857602060405160128152f35b34610168576060366003190112610168576106736108f9565b61067b61090f565b6001600160a01b0382165f818152600160209081526040808320338452909152902054909260443592915f1981106106b9575b506102269350610925565b83811061071e57841561070b5733156106f857610226945f52600160205260405f2060018060a01b0333165f526020528360405f2091039055846106ae565b634a1406b160e11b5f525f60045260245ffd5b63e602df0560e01b5f525f60045260245ffd5b8390637dc7a0d960e11b5f523360045260245260445260645ffd5b34610168575f366003190112610168576020600254604051908152f35b34610168575f366003190112610168576006546040516001600160a01b039091168152602090f35b34610168576040366003190112610168576107976108f9565b60243590331561070b576001600160a01b03169081156106f857335f52600160205260405f20825f526020528060405f20556040519081527f8c5be1e5ebec7d5bd14f71427d1e84f3dd0314c0f7b2291e5b200ac8c7c3b92560203392a3602060405160018152f35b34610168575f366003190112610168575f6003548060011c906001811680156108c5575b60208310811461042a5782855290811561040e57506001146108705750819003601f01601f191681019067ffffffffffffffff8211818310176103a5576103a1829182604052826108cf565b905060035f527fc2575a0e9e593c00f959f8c92f12db2869c3395a3b0502d05e2516446f71f85b5f905b8282106108af57506020915082010182610371565b600181602092548385880101520191019061089a565b91607f1691610824565b602060409281835280519182918282860152018484015e5f828201840152601f01601f1916010190565b600435906001600160a01b038216820361016857565b602435906001600160a01b038216820361016857565b6001600160a01b03169081156102e0576001600160a01b03169182156105f257815f525f60205260405f20548181106109a357817fddf252ad1be2c89b69c2b068fc378daa952ba7f163c4a11628f55a4df523b3ef92602092855f525f84520360405f2055845f525f825260405f20818154019055604051908152a3565b8263391434e360e21b5f5260045260245260445260645ffd5b6005546001600160a01b031633036109d057565b63118cdaa760e01b5f523360045260245ffdfea2646970667358221220a021ffbfece32cd495cff1c2eb2d19607525078f74686fdf575bb3ea494c5a2f64736f6c634300081c0033","linkReferences":{}},"methodIdentifiers":{"UNDERLYING_ASSET_ADDRESS()":"b16a19de","allowance(address,address)":"dd62ed3e","approve(address,uint256)":"095ea7b3","balanceOf(address)":"70a08231","burn(address,uint256)":"9dc29fac","decimals()":"313ce567","mint(address,uint256)":"40c10f19","name()":"06fdde03","owner()":"8da5cb5b","pool()":"16f0115b","renounceOwnership()":"715018a6","scaledBalanceOf(address)":"1da24f3e","setPool(address)":"4437152a","symbol()":"95d89b41","totalSupply()":"18160ddd","transfer(address,uint256)":"a9059cbb","transferFrom(address,address,uint256)":"23b872dd","transferOwnership(address)":"f2fde38b"},"id":6}