{"abi":[{"type":"constructor","inputs":[{"name":"hubV2Address","type":"address","internalType":"address"},{"name":"scopeSeed","type":"string","internalType":"string"}],"stateMutability":"nonpayable"},{"type":"function","name":"getConfigId","inputs":[{"name":"","type":"bytes32","internalType":"bytes32"},{"name":"","type":"bytes32","internalType":"bytes32"},{"name":"","type":"bytes","internalType":"bytes"}],"outputs":[{"name":"","type":"bytes32","internalType":"bytes32"}],"stateMutability":"view"},{"type":"function","name":"isVerified","inputs":[{"name":"","type":"address","internalType":"address"}],"outputs":[{"name":"","type":"bool","internalType":"bool"}],"stateMutability":"view"},{"type":"function","name":"onVerificationSuccess","inputs":[{"name":"output","type":"bytes","internalType":"bytes"},{"name":"userData","type":"bytes","internalType":"bytes"}],"outputs":[],"stateMutability":"nonpayable"},{"type":"function","name":"scope","inputs":[],"outputs":[{"name":"","type":"uint256","internalType":"uint256"}],"stateMutability":"view"},{"type":"function","name":"userNullifier","inputs":[{"name":"","type":"address","internalType":"address"}],"outputs":[{"name":"","type":"bytes32","internalType":"bytes32"}],"stateMutability":"view"},{"type":"function","name":"verificationConfig","inputs":[],"outputs":[{"name":"olderThanEnabled","type":"bool","internalType":"bool"},{"name":"olderThan","type":"uint256","internalType":"uint256"},{"name":"forbiddenCountriesEnabled","type":"bool","internalType":"bool"}],"stateMutability":"view"},{"type":"function","name":"verificationConfigId","inputs":[],"outputs":[{"name":"","type":"bytes32","internalType":"bytes32"}],"stateMutability":"view"},{"type":"function","name":"verificationTime","inputs":[{"name":"","type":"address","internalType":"address"}],"outputs":[{"name":"","type":"uint256","internalType":"uint256"}],"stateMutability":"view"},{"type":"function","name":"verify","inputs":[{"name":"proof","type":"bytes","internalType":"bytes"}],"outputs":[{"name":"","type":"bool","internalType":"bool"}],"stateMutability":"view"},{"type":"function","name":"verifySelfProof","inputs":[{"name":"proofPayload","type":"bytes","internalType":"bytes"},{"name":"userContextData","type":"bytes","internalType":"bytes"}],"outputs":[],"stateMutability":"nonpayable"},{"type":"function","name":"verifyUser","inputs":[{"name":"proofPayload","type":"bytes","internalType":"bytes"},{"name":"userContextData","type":"bytes","internalType":"bytes"}],"outputs":[],"stateMutability":"nonpayable"},{"type":"event","name":"UserVerified","inputs":[{"name":"user","type":"address","indexed":true,"internalType":"address"},{"name":"nullifier","type":"bytes32","indexed":false,"internalType":"bytes32"},{"name":"timestamp","type":"uint256","indexed":false,"internalType":"uint256"}],"anonymous":false},{"type":"error","name":"InvalidDataFormat","inputs":[]},{"type":"error","name":"UnauthorizedCaller","inputs":[]}],"bytecode":{"object":"0x60a0806040523461047857611321803803809161001c8285610532565b833981016040828203126104785781516001600160a01b0381169290839003610478576020810151906001600160401b03821161047857019080601f8301121561047857815161006b81610555565b916100796040519384610532565b81835260208285010111610478576020815f92826100ad96018386015e83010152826080526100a6610570565b90306105e4565b5f556040516020916100bf8383610532565b5f8252604051606081016001600160401b038111828210176104e85760405260128152838101928352604081019260018452604051906100fe826104fc565b5f82525f868301525f604083015260809260405161011c8582610532565b84368237606084015260609284604051916101378684610532565b8536843701526040519561014b8488610532565b833688378051151587528051151588880152511515604087015251948515159151938451151595604051926101808385610532565b823685375f97865b88518a1015610254578b8a60051b8a01015160038151036101e9576101e16001928e8080946040519584879551918291018487015e8401908282015f8152815193849201905e01015f815203601f198101835282610532565b990198610188565b60405162461bcd60e51b8152600481018e9052603760248201527f496e76616c696420636f756e74727920636f64653a206d75737420626520657860448201527f6163746c7920332063686172616374657273206c6f6e670000000000000000006064820152608490fd5b939290918b928b865198601f8a01808b116102b557601e8b019081116102b557601f90049a5f5b8c8110806104de575b15610340575f5f5b601f81106102dd575060048210156102c9578160051b8c01525f1981146102b55760010161027b565b634e487b7160e01b5f52601160045260245ffd5b634e487b7160e01b5f52603260045260245ffd5b9082601f02601f810484036102b5576102f88f918490610910565b90811061030a575b509060010161028c565b610314908d61091d565b5160f81c6001600160fd1b03831683036102b55760019161033a918460031b1b90610910565b90610300565b5090878a9493928560405191610355836104fc565b848352858b8401528660408401528201520194855260ff80196001541691161760015560025560ff8019600354169116176003555f5b600481106104cb575050515f905f5b84600382106104a8575050506008558160405180926309ddb09160e01b825260ff6001541615156004830152600254602483015260ff6003541615156044830152606482016004905f905b6004821061048e57505050815f6101449260ff600854818116151560e4860152818160081c16151561010486015260101c1615156101248401525af1918215610483575f92610451575b505060095560405161090c9182610a1583395181818161025501526108110152f35b90809250813d831161047c575b6104688183610532565b810103126104785751828061042f565b5f80fd5b503d61045e565b6040513d5f823e3d90fd5b8254815287958795506001938401939290920191016103e5565b8293600192935115159060ff808660031b9316831b921b1916179301910161039a565b815160048201559084019060010161038b565b5060048110610284565b634e487b7160e01b5f52604160045260245ffd5b60a081019081106001600160401b038211176104e857604052565b604081019081106001600160401b038211176104e857604052565b601f909101601f19168101906001600160401b038211908210176104e857604052565b6001600160401b0381116104e857601f01601f191660200190565b61a4ec461461059f5762aa044c4614610587575f90565b730a782f7f9f8aac6e0bacaf3cd4aa292c3275c6f290565b73f134707a4c4a3a76b8410fc0294d620a7c34158190565b919060408301925f905b600282106105ce57505050565b60208060019285518152019301910190916105c1565b90916001600160a01b031690811561090957604080519093916001600160a01b0316906106118582610532565b601081526f181899199a1a9b1b9c1cb0b131b232b360811b602082015284519161063c606084610532565b602a83526020830160403682378351156102c957603090538251600110156102c957607860218401535f5b6014811061086b57505050601f61067d81610555565b61068986519182610532565b818152601f1961069883610555565b013660208301375f5b82811061084057506106b29061092e565b916106bd600b610555565b916106ca87519384610532565b600b8352601f196106db600b610555565b013660208501375b602a811061080857505061072a92916106ff826020935061092e565b86519161070b83610517565b825282820152855180948192632b0aac7f60e11b8352600483016105b7565b0381865afa9182156107fe575f926107c8575b509061077a9261074e60209361092e565b85519261075a84610517565b83528383015284518080958194632b0aac7f60e11b8352600483016105b7565b03915afa9182156107bf57505f91610790575090565b90506020813d6020116107b7575b816107ab60209383610532565b81010312610478575190565b3d915061079e565b513d5f823e3d90fd5b91506020823d6020116107f6575b816107e360209383610532565b810103126104785790519061077a61073d565b3d91506107d6565b84513d5f823e3d90fd5b6001600160f81b031961081b828461091d565b511690601e1981018181116102b5576108396001935f1a918661091d565b53016106e3565b6001906001600160f81b0319610856828761091d565b51165f1a610864828561091d565b53016106a1565b600c81018082116102b55760208110156102c95782901a906001600160f81b031961089d600484901c600f168661091d565b5116918160011b92828404600214831517156102b5578360020190816002116102b5576108cd905f1a918861091d565b536001600160f81b0319906108e590600f168661091d565b511691600301806003116102b5576109026001935f1a918761091d565b5301610667565b5050505f90565b919082018092116102b557565b9081518110156102c9570160200190565b90601f8251116109c1575f805b83518210156109bc57607f610950838661091d565b5160f81c1161097757600190610966838661091d565b5160f81c9060081b1791019061093b565b60405162461bcd60e51b815260206004820152601c60248201527f4e6f6e2d415343494920636861726163746572206465746563746564000000006044820152606490fd5b925050565b60405162461bcd60e51b815260206004820152602560248201527f537472696e6720746f6f206c6f6e6720666f7220426967496e7420636f6e76656044820152643939b4b7b760d91b6064820152608490fdfe60806040526004361015610011575f80fd5b5f3560e01c80630369164f14610092578063037b410e146105df5780636e62d0a8146105c35780638d2d8d6a146102035780638e760afe146101c6578063ab5a0fd21461018a578063ada1b3191461014c578063b9209e331461010b578063bb443744146100ee578063d01a60d3146100b25763d161802b14610092575f80fd5b346100ae576100ac6100a336610644565b9291909161078e565b005b5f80fd5b346100ae5760203660031901126100ae576004356001600160a01b038116908190036100ae575f52600c602052602060405f2054604051908152f35b346100ae575f3660031901126100ae576020600954604051908152f35b346100ae5760203660031901126100ae576004356001600160a01b038116908190036100ae575f52600a602052602060ff60405f2054166040519015158152f35b346100ae5760603660031901126100ae576044356001600160401b0381116100ae5761017c903690600401610706565b506020600954604051908152f35b346100ae5760203660031901126100ae576004356001600160a01b038116908190036100ae575f52600b602052602060405f2054604051908152f35b346100ae5760203660031901126100ae576004356001600160401b0381116100ae576101f6903690600401610617565b5050602060405160018152f35b346100ae5760403660031901126100ae576004356001600160401b0381116100ae57610233903690600401610706565b6024356001600160401b0381116100ae57610252903690600401610706565b507f00000000000000000000000000000000000000000000000000000000000000006001600160a01b031633036105b457805181019060208201906020818403126100ae576020810151906001600160401b0382116100ae57019161024090839003126100ae576040516101a081018181106001600160401b038211176105905760405260208301518152604083015160208201526060830151926040820193845282609f820112156100ae5760405161030d608082610694565b806101008301918583116100ae5760808401905b8382106105a45750506060840152516001600160401b0381116100ae5783602061034d92840101610724565b60808301526101208101516001600160401b0381116100ae5760209082010183601f820112156100ae578051906001600160401b038211610590578160051b906040519261039e6020840185610694565b8352602080840192820101918683116100ae5760208201905b838210610563575050505060a08301526101408101516001600160401b0381116100ae578360206103ea92840101610724565b60c08301526101608101516001600160401b0381116100ae5783602061041292840101610724565b60e08301526101808101516001600160401b0381116100ae5783602061043a92840101610724565b6101008301526101a08101516001600160401b0381116100ae5783602061046392840101610724565b6101208301526101c08101516001600160401b0381116100ae5783602061048c92840101610724565b6101408301526101e08101516101608301528261021f820112156100ae57604051926104b9606085610694565b839161026081019182116100ae5761020001915b81831061054a5750505061018001527fe0e69c49b27b1b1b80e629e9a73825eda37650ef72da3117f8b27158e09abb66604060018060a01b0383511692835f52600a602052815f20600160ff19825416179055835f52600b60205242825f20558051845f52600c602052825f2055518151908152426020820152a2005b825180151581036100ae578152602092830192016104cd565b81516001600160401b0381116100ae576020916105858a848094880101610724565b8152019101906103b7565b634e487b7160e01b5f52604160045260245ffd5b8151815260209182019101610321565b635c427cd960e01b5f5260045ffd5b346100ae575f3660031901126100ae5760205f54604051908152f35b346100ae575f3660031901126100ae57606060ff6001541660025460ff60035416906040519215158352602083015215156040820152f35b9181601f840112156100ae578235916001600160401b0383116100ae57602083818601950101116100ae57565b60406003198201126100ae576004356001600160401b0381116100ae578161066e91600401610617565b92909291602435906001600160401b0382116100ae5761069091600401610617565b9091565b90601f801991011681019081106001600160401b0382111761059057604052565b6001600160401b03811161059057601f01601f191660200190565b9291926106dc826106b5565b916106ea6040519384610694565b8294818452818301116100ae578281602093845f960137010152565b9080601f830112156100ae57816020610721933591016106d0565b90565b81601f820112156100ae5780519061073b826106b5565b926107496040519485610694565b828452602083830101116100ae57815f9260208093018386015e8301015290565b805180835260209291819084018484015e5f828201840152601f01601f1916010190565b9190602081106108c757604084106108c757836020116100ae57836040116100ae576040610857916107c736603f1988018487016106d0565b506108086060600954925f5490808651998a93600160f91b60208601525f6021860152888501528484013781015f838201520301601f198101875286610694565b60018060a01b037f0000000000000000000000000000000000000000000000000000000000000000169580835195869360208501528484013781015f838201520301601f198101835282610694565b823b156100ae5761089f9261088d5f809460405196879586948593637bf41d7760e11b855260406004860152604485019061076a565b8381036003190160248501529061076a565b03925af180156108bc576108b05750565b5f6108ba91610694565b565b6040513d5f823e3d90fd5b63a512e2ff60e01b5f5260045ffdfea264697066735822122033f987df388144463fe695391163c4f1dcf7a49e1dcc82b65debac58c09c187264736f6c634300081c0033","linkReferences":{}},"methodIdentifiers":{"getConfigId(bytes32,bytes32,bytes)":"ada1b319","isVerified(address)":"b9209e33","onVerificationSuccess(bytes,bytes)":"8d2d8d6a","scope()":"6e62d0a8","userNullifier(address)":"d01a60d3","verificationConfig()":"037b410e","verificationConfigId()":"bb443744","verificationTime(address)":"ab5a0fd2","verify(bytes)":"8e760afe","verifySelfProof(bytes,bytes)":"d161802b","verifyUser(bytes,bytes)":"0369164f"},"id":3}