{"abi":[{"type":"constructor","inputs":[{"name":"_cUSD","type":"address","internalType":"address"}],"stateMutability":"nonpayable"},{"type":"function","name":"MAX_DEPOSIT","inputs":[],"outputs":[{"name":"","type":"uint256","internalType":"uint256"}],"stateMutability":"view"},{"type":"function","name":"MAX_TVL","inputs":[],"outputs":[{"name":"","type":"uint256","internalType":"uint256"}],"stateMutability":"view"},{"type":"function","name":"MIN_DEPOSIT","inputs":[],"outputs":[{"name":"","type":"uint256","internalType":"uint256"}],"stateMutability":"view"},{"type":"function","name":"aiAgent","inputs":[],"outputs":[{"name":"","type":"address","internalType":"address"}],"stateMutability":"view"},{"type":"function","name":"balanceOf","inputs":[{"name":"user","type":"address","internalType":"address"}],"outputs":[{"name":"","type":"uint256","internalType":"uint256"}],"stateMutability":"view"},{"type":"function","name":"cUSD","inputs":[],"outputs":[{"name":"","type":"address","internalType":"contract IERC20"}],"stateMutability":"view"},{"type":"function","name":"changeStrategy","inputs":[{"name":"newStrategy","type":"uint8","internalType":"enum AttestifyVaultSimple.StrategyType"}],"outputs":[],"stateMutability":"nonpayable"},{"type":"function","name":"deposit","inputs":[{"name":"assets","type":"uint256","internalType":"uint256"}],"outputs":[{"name":"sharesIssued","type":"uint256","internalType":"uint256"}],"stateMutability":"nonpayable"},{"type":"function","name":"emergencyWithdraw","inputs":[{"name":"token","type":"address","internalType":"address"},{"name":"amount","type":"uint256","internalType":"uint256"}],"outputs":[],"stateMutability":"nonpayable"},{"type":"function","name":"getCurrentAPY","inputs":[],"outputs":[{"name":"","type":"uint256","internalType":"uint256"}],"stateMutability":"view"},{"type":"function","name":"getEarnings","inputs":[{"name":"user","type":"address","internalType":"address"}],"outputs":[{"name":"","type":"uint256","internalType":"uint256"}],"stateMutability":"view"},{"type":"function","name":"getVaultStats","inputs":[],"outputs":[{"name":"_totalAssets","type":"uint256","internalType":"uint256"},{"name":"_totalShares","type":"uint256","internalType":"uint256"},{"name":"reserveBalance","type":"uint256","internalType":"uint256"},{"name":"_totalDeposited","type":"uint256","internalType":"uint256"},{"name":"_totalWithdrawn","type":"uint256","internalType":"uint256"}],"stateMutability":"view"},{"type":"function","name":"isVerified","inputs":[{"name":"user","type":"address","internalType":"address"}],"outputs":[{"name":"","type":"bool","internalType":"bool"}],"stateMutability":"view"},{"type":"function","name":"lastRebalance","inputs":[],"outputs":[{"name":"","type":"uint256","internalType":"uint256"}],"stateMutability":"view"},{"type":"function","name":"owner","inputs":[],"outputs":[{"name":"","type":"address","internalType":"address"}],"stateMutability":"view"},{"type":"function","name":"pause","inputs":[],"outputs":[],"stateMutability":"nonpayable"},{"type":"function","name":"paused","inputs":[],"outputs":[{"name":"","type":"bool","internalType":"bool"}],"stateMutability":"view"},{"type":"function","name":"renounceOwnership","inputs":[],"outputs":[],"stateMutability":"nonpayable"},{"type":"function","name":"setAIAgent","inputs":[{"name":"_aiAgent","type":"address","internalType":"address"}],"outputs":[],"stateMutability":"nonpayable"},{"type":"function","name":"setTreasury","inputs":[{"name":"_treasury","type":"address","internalType":"address"}],"outputs":[],"stateMutability":"nonpayable"},{"type":"function","name":"shares","inputs":[{"name":"","type":"address","internalType":"address"}],"outputs":[{"name":"","type":"uint256","internalType":"uint256"}],"stateMutability":"view"},{"type":"function","name":"strategies","inputs":[{"name":"","type":"uint8","internalType":"enum AttestifyVaultSimple.StrategyType"}],"outputs":[{"name":"name","type":"string","internalType":"string"},{"name":"reserveAllocation","type":"uint8","internalType":"uint8"},{"name":"targetAPY","type":"uint16","internalType":"uint16"},{"name":"riskLevel","type":"uint8","internalType":"uint8"},{"name":"isActive","type":"bool","internalType":"bool"}],"stateMutability":"view"},{"type":"function","name":"totalAssets","inputs":[],"outputs":[{"name":"","type":"uint256","internalType":"uint256"}],"stateMutability":"view"},{"type":"function","name":"totalDeposited","inputs":[],"outputs":[{"name":"","type":"uint256","internalType":"uint256"}],"stateMutability":"view"},{"type":"function","name":"totalShares","inputs":[],"outputs":[{"name":"","type":"uint256","internalType":"uint256"}],"stateMutability":"view"},{"type":"function","name":"totalWithdrawn","inputs":[],"outputs":[{"name":"","type":"uint256","internalType":"uint256"}],"stateMutability":"view"},{"type":"function","name":"transferOwnership","inputs":[{"name":"newOwner","type":"address","internalType":"address"}],"outputs":[],"stateMutability":"nonpayable"},{"type":"function","name":"treasury","inputs":[],"outputs":[{"name":"","type":"address","internalType":"address"}],"stateMutability":"view"},{"type":"function","name":"unpause","inputs":[],"outputs":[],"stateMutability":"nonpayable"},{"type":"function","name":"userStrategy","inputs":[{"name":"","type":"address","internalType":"address"}],"outputs":[{"name":"","type":"uint8","internalType":"enum AttestifyVaultSimple.StrategyType"}],"stateMutability":"view"},{"type":"function","name":"users","inputs":[{"name":"","type":"address","internalType":"address"}],"outputs":[{"name":"isVerified","type":"bool","internalType":"bool"},{"name":"verifiedAt","type":"uint256","internalType":"uint256"},{"name":"totalDeposited","type":"uint256","internalType":"uint256"},{"name":"totalWithdrawn","type":"uint256","internalType":"uint256"},{"name":"lastActionTime","type":"uint256","internalType":"uint256"},{"name":"userIdentifier","type":"uint256","internalType":"uint256"}],"stateMutability":"view"},{"type":"function","name":"verifySelfProof","inputs":[{"name":"","type":"bytes","internalType":"bytes"},{"name":"","type":"bytes","internalType":"bytes"}],"outputs":[],"stateMutability":"nonpayable"},{"type":"function","name":"withdraw","inputs":[{"name":"assets","type":"uint256","internalType":"uint256"}],"outputs":[{"name":"sharesBurned","type":"uint256","internalType":"uint256"}],"stateMutability":"nonpayable"},{"type":"event","name":"Deposited","inputs":[{"name":"user","type":"address","indexed":true,"internalType":"address"},{"name":"assets","type":"uint256","indexed":false,"internalType":"uint256"},{"name":"shares","type":"uint256","indexed":false,"internalType":"uint256"}],"anonymous":false},{"type":"event","name":"OwnershipTransferred","inputs":[{"name":"previousOwner","type":"address","indexed":true,"internalType":"address"},{"name":"newOwner","type":"address","indexed":true,"internalType":"address"}],"anonymous":false},{"type":"event","name":"Paused","inputs":[{"name":"account","type":"address","indexed":false,"internalType":"address"}],"anonymous":false},{"type":"event","name":"StrategyChanged","inputs":[{"name":"user","type":"address","indexed":true,"internalType":"address"},{"name":"oldStrategy","type":"uint8","indexed":false,"internalType":"enum AttestifyVaultSimple.StrategyType"},{"name":"newStrategy","type":"uint8","indexed":false,"internalType":"enum AttestifyVaultSimple.StrategyType"}],"anonymous":false},{"type":"event","name":"Unpaused","inputs":[{"name":"account","type":"address","indexed":false,"internalType":"address"}],"anonymous":false},{"type":"event","name":"UserVerified","inputs":[{"name":"user","type":"address","indexed":true,"internalType":"address"},{"name":"userIdentifier","type":"uint256","indexed":false,"internalType":"uint256"},{"name":"timestamp","type":"uint256","indexed":false,"internalType":"uint256"}],"anonymous":false},{"type":"event","name":"Withdrawn","inputs":[{"name":"user","type":"address","indexed":true,"internalType":"address"},{"name":"assets","type":"uint256","indexed":false,"internalType":"uint256"},{"name":"shares","type":"uint256","indexed":false,"internalType":"uint256"}],"anonymous":false},{"type":"error","name":"EnforcedPause","inputs":[]},{"type":"error","name":"ExceedsMaxDeposit","inputs":[]},{"type":"error","name":"ExceedsMaxTVL","inputs":[]},{"type":"error","name":"ExpectedPause","inputs":[]},{"type":"error","name":"InsufficientLiquidity","inputs":[]},{"type":"error","name":"InsufficientShares","inputs":[]},{"type":"error","name":"InvalidAmount","inputs":[]},{"type":"error","name":"NotVerified","inputs":[]},{"type":"error","name":"OwnableInvalidOwner","inputs":[{"name":"owner","type":"address","internalType":"address"}]},{"type":"error","name":"OwnableUnauthorizedAccount","inputs":[{"name":"account","type":"address","internalType":"address"}]},{"type":"error","name":"ReentrancyGuardReentrantCall","inputs":[]},{"type":"error","name":"SafeERC20FailedOperation","inputs":[{"name":"token","type":"address","internalType":"address"}]},{"type":"error","name":"ZeroAddress","inputs":[]}],"bytecode":{"object":"0x60a06040523461066d576118bd6020813803918261001c81610690565b93849283398101031261066d57516001600160a01b0381169081900361066d57331561065a575f8054336001600160a01b0319821681178355916001600160a01b03909116907f8be0079c531659141344cd1fd0a4f28419497f9722a3daafe3b4186f6b6457e09080a360018055801561064b57608052600980546001600160a01b031916331790556100ad610671565b6100b76040610690565b600c81526b436f6e73657276617469766560a01b60208201528152602081019060648252604081019061015e825260608101600181526080820191600183525f8052600760205260405f20905180519060018060401b0382116104b3578254600181811c91168015610641575b602082101461049557601f81116105fc575b50602090601f831160011461059457918060ff94926001945f92610589575b50505f19600383901b1c191690831b1781555b019451169264ff0000000063ff00000062ffff008754935160081b16935160181b169351151560201b169364ff00000000199163ffffffff1916171617171790556101b1610671565b6101bb6040610690565b600881526710985b185b98d95960c21b60208201528152602081019060648252604081019061015e8252606081016003815260808201916001835260015f52600760205260405f20905180519060018060401b0382116104b3578254600181811c9116801561057f575b602082101461049557601f811161053a575b50602090601f83116001146104d257918060ff94926001945f926104c7575b50505f19600383901b1c191690831b1781555b019451169264ff0000000063ff00000062ffff008754935160081b16935160181b169351151560201b169364ff00000000199163ffffffff1916171617171790556102b2610671565b6102bc6040610690565b600681526508ee4deeee8d60d31b60208201528152602081019060648252604081019061015e8252606081016005815260808201916001835260025f52600760205260405f20905180519060018060401b0382116104b3578254600181811c911680156104a9575b602082101461049557601f8111610450575b50602090601f83116001146103e857918060ff94926001945f926103dd575b50505f19600383901b1c191690831b1781555b019451169264ff0000000063ff00000062ffff008754935160081b16935160181b169351151560201b169364ff00000000199163ffffffff19161716171717905560405161120790816106b68239608051818181610546015281816106b701528181610c6001528181610ce50152610f4c0152f35b015190505f80610355565b90601f19831691845f52815f20925f5b818110610438575092600194919285938360ff989610610420575b505050811b018155610368565b01515f1960f88460031b161c191690555f8080610413565b929360206001819287860151815501950193016103f8565b835f5260205f20601f840160051c8101916020851061048b575b601f0160051c01905b8181106104805750610336565b5f8155600101610473565b909150819061046a565b634e487b7160e01b5f52602260045260245ffd5b90607f1690610324565b634e487b7160e01b5f52604160045260245ffd5b015190505f80610256565b90601f19831691845f52815f20925f5b818110610522575092600194919285938360ff98961061050a575b505050811b018155610269565b01515f1960f88460031b161c191690555f80806104fd565b929360206001819287860151815501950193016104e2565b835f5260205f20601f840160051c81019160208510610575575b601f0160051c01905b81811061056a5750610237565b5f815560010161055d565b9091508190610554565b90607f1690610225565b015190505f80610155565b90601f19831691845f52815f20925f5b8181106105e4575092600194919285938360ff9896106105cc575b505050811b018155610168565b01515f1960f88460031b161c191690555f80806105bf565b929360206001819287860151815501950193016105a4565b835f5260205f20601f840160051c81019160208510610637575b601f0160051c01905b81811061062c5750610136565b5f815560010161061f565b9091508190610616565b90607f1690610124565b63d92e233d60e01b5f5260045ffd5b631e4fbdf760e01b5f525f60045260245ffd5b5f80fd5b6040519060a082016001600160401b038111838210176104b357604052565b6040519190601f01601f191682016001600160401b038111838210176104b35760405256fe60806040526004361015610011575f80fd5b5f3560e01c806301e1d11414610e3d5780630ffe355c14610d54578063106b9ca114610d37578063131b9c0414610d145780631fccf67214610cd05780632e1a7d4d14610bbd5780633a98ef3914610ba05780633f4ba83a14610b3a578063457cf68c14610af85780634b31971314610adb5780635c975abb14610ab957806361d027b314610a91578063667316e91461094f5780636ebe941b1461090357806370a08231146108c3578063715018a61461086c5780638456cb59146108135780638da5cb5b146107ec57806395ccea6714610770578063962ca49614610754578063a59aa5a61461067f578063a6d5b73214610657578063a87430ba146105e3578063b6b55f2514610429578063b8127fac14610405578063b9209e33146103c8578063ce7c2ac214610390578063d161802b146102cb578063dd5967c3146102a7578063e1e158a514610285578063f0f442601461022a578063f2fde38b146101a55763ff50abdc14610184575f80fd5b346101a1575f3660031901126101a1576020600a54604051908152f35b5f80fd5b346101a15760203660031901126101a1576101be610e57565b6101c6611138565b6001600160a01b03168015610217575f80546001600160a01b03198116831782556001600160a01b0316907f8be0079c531659141344cd1fd0a4f28419497f9722a3daafe3b4186f6b6457e09080a3005b631e4fbdf760e01b5f525f60045260245ffd5b346101a15760203660031901126101a157610243610e57565b61024b611138565b6001600160a01b03168015610276576bffffffffffffffffffffffff60a01b60095416176009555f80f35b63d92e233d60e01b5f5260045ffd5b346101a1575f3660031901126101a1576020604051670de0b6b3a76400008152f35b346101a1575f3660031901126101a157602060405169021e19e0c9bab24000008152f35b346101a15760403660031901126101a15760043567ffffffffffffffff81116101a1576102fc903690600401610edb565b5060243567ffffffffffffffff81116101a15761031d903690600401610edb565b50335f8181526005602081815260408084208054600160ff19918216811783554290830181905591850187815560068552958390208054909116905592825292548351908152908101919091527f7e1c6d9e9f71f4c4f9c072bdd7a6eaa673772c6b1f94d93eb000abd65cdcba129190a2005b346101a15760203660031901126101a1576001600160a01b036103b1610e57565b165f526004602052602060405f2054604051908152f35b346101a15760203660031901126101a1576001600160a01b036103e9610e57565b165f526005602052602060ff60405f2054166040519015158152f35b346101a1575f3660031901126101a157602060405169152d02c7e14af68000008152f35b346101a15760203660031901126101a1576004356104456110a4565b61044d61115e565b335f52600560205260ff60405f205416156105d457670de0b6b3a764000081106105c55769021e19e0c9bab240000081116105b65769152d02c7e14af680000061049e82610499610f31565b610fb6565b116105a757806104af6020926110c4565b90335f526004835260405f206104c6838254610fb6565b90556104d482600354610fb6565b600355335f5260058352600260405f20016104f0828254610fb6565b9055335f526005835242600460405f20015561050e81600a54610fb6565b600a5561056a6040516323b872dd60e01b8582015233602482015230604482015282606482015260648152610544608482610ea5565b7f0000000000000000000000000000000000000000000000000000000000000000611179565b60405190815281838201527f73a19dd210f1a7f902193214c0ee91dd35ee5b4d920cba8d519eca65a7b488ca60403392a260018055604051908152f35b63a84b0dcd60e01b5f5260045ffd5b63e4bac01b60e01b5f5260045ffd5b63162908e360e11b5f5260045ffd5b63a95362b560e01b5f5260045ffd5b346101a15760203660031901126101a1576001600160a01b03610604610e57565b165f52600560205260c060405f2060ff81541690600181015490600281015460038201549060056004840154930154936040519515158652602086015260408501526060840152608083015260a0820152f35b346101a1575f3660031901126101a1576008546040516001600160a01b039091168152602090f35b346101a1575f3660031901126101a157610697610f31565b6003546040516370a0823160e01b815230600482015291906020836024817f00000000000000000000000000000000000000000000000000000000000000006001600160a01b03165afa8015610749575f90610716575b60a09350600a5490600b54926040519485526020850152604084015260608301526080820152f35b506020833d602011610741575b8161073060209383610ea5565b810103126101a15760a092516106ee565b3d9150610723565b6040513d5f823e3d90fd5b346101a1575f3660031901126101a157602060405161015e8152f35b346101a15760403660031901126101a157610789610e57565b610791611138565b60ff60025416156107ba575f546107b891602435916001600160a01b0390811691166110f6565b005b60405162461bcd60e51b815260206004820152600a602482015269139bdd081c185d5cd95960b21b6044820152606490fd5b346101a1575f3660031901126101a1575f546040516001600160a01b039091168152602090f35b346101a1575f3660031901126101a15761082b611138565b61083361115e565b600160ff1960025416176002557f62e78cea01bee320cd4e420270b5ea74000d11b0c9f74754ebdbfc544b05a2586020604051338152a1005b346101a1575f3660031901126101a157610884611138565b5f80546001600160a01b0319811682556001600160a01b03167f8be0079c531659141344cd1fd0a4f28419497f9722a3daafe3b4186f6b6457e08280a3005b346101a15760203660031901126101a1576001600160a01b036108e4610e57565b165f52600460205260206108fb60405f205461107b565b604051908152f35b346101a15760203660031901126101a15761091c610e57565b610924611138565b6001600160a01b03168015610276576bffffffffffffffffffffffff60a01b60085416176008555f80f35b346101a15760203660031901126101a15760043560038110156101a15761097590610e8e565b6040515f918054928360011c60018516948515610a87575b602082108614610a73578185526020850195908115610a595750600114610a1e575b5082916109c260c0946001930384610ea5565b01549260ff60405194859360a085525180938160a08701528686015e5f858486010152818116602085015261ffff8160081c166040850152818160181c16606085015260201c1615156080830152601f80199101168101030190f35b5f838152602081209092505b818310610a3f575050820160200160c06109af565b600181602092949394548385890101520191019190610a2a565b60ff1916865250151560051b8301602001905060c06109af565b634e487b7160e01b5f52602260045260245ffd5b90607f169061098d565b346101a1575f3660031901126101a1576009546040516001600160a01b039091168152602090f35b346101a1575f3660031901126101a157602060ff600254166040519015158152f35b346101a1575f3660031901126101a1576020600b54604051908152f35b346101a15760203660031901126101a1576001600160a01b03610b19610e57565b165f526006602052602060ff60405f205416610b386040518092610e6d565bf35b346101a1575f3660031901126101a157610b52611138565b60025460ff811615610b915760ff19166002557f5db9ee0a495bf2e6ff9c91a7834c1ba4fdd244a5e8aa4e537bd38aeae4b073aa6020604051338152a1005b638dfc202b60e01b5f5260045ffd5b346101a1575f3660031901126101a1576020600354604051908152f35b346101a15760203660031901126101a157600435610bd96110a4565b610be2816110c4565b335f5260046020528060405f205410610cc157602091335f526004835260405f20610c0e838254610fd7565b9055610c1c82600354610fd7565b600355335f5260058352600360405f2001610c38828254610fb6565b9055335f526005835242600460405f200155610c5681600b54610fb6565b600b55610c8481337f00000000000000000000000000000000000000000000000000000000000000006110f6565b60405190815281838201527f92ccf450a286a957af52509bc1c9939d1a6a481783e142e41e2499f0bb66ebc660403392a260018055604051908152f35b633999656760e01b5f5260045ffd5b346101a1575f3660031901126101a1576040517f00000000000000000000000000000000000000000000000000000000000000006001600160a01b03168152602090f35b346101a15760203660031901126101a15760206108fb610d32610e57565b610fe4565b346101a1575f3660031901126101a1576020600c54604051908152f35b346101a15760203660031901126101a15760043560038110156101a157335f52600560205260ff60405f205416156105d45760ff6001610d9383610e8e565b015460201c1615610e0557335f9081526006602052604090819020805460ff84811660ff19831617909255915192610ddd929091610dd391859116610e6d565b6020830190610e6d565b7f7b849fd02893af4f5628708e216ebbf2d0f6929320cf7370d5cc08852202cf5a60403392a2005b60405162461bcd60e51b815260206004820152601060248201526f496e76616c696420737472617465677960801b6044820152606490fd5b346101a1575f3660031901126101a15760206108fb610f31565b600435906001600160a01b03821682036101a157565b906003821015610e7a5752565b634e487b7160e01b5f52602160045260245ffd5b6003811015610e7a575f52600760205260405f2090565b90601f8019910116810190811067ffffffffffffffff821117610ec757604052565b634e487b7160e01b5f52604160045260245ffd5b81601f820112156101a15780359067ffffffffffffffff8211610ec75760405192610f10601f8401601f191660200185610ea5565b828452602083830101116101a157815f926020809301838601378301015290565b6040516370a0823160e01b81523060048201526020816024817f00000000000000000000000000000000000000000000000000000000000000006001600160a01b03165afa908115610749575f91610f87575090565b90506020813d602011610fae575b81610fa260209383610ea5565b810103126101a1575190565b3d9150610f95565b91908201809211610fc357565b634e487b7160e01b5f52601160045260245ffd5b91908203918211610fc357565b6001600160a01b03165f818152600460205260409020546110049061107b565b5f91825260056020526040909120600281015460039091015491816110298483610fb6565b11611035575050505f90565b6110479261104291610fb6565b610fd7565b90565b81810292918115918404141715610fc357565b8115611067570490565b634e487b7160e01b5f52601260045260245ffd5b600354801561109e5761109961104792611093610f31565b9061104a565b61105d565b50505f90565b6002600154146110b5576002600155565b633ee5aeb560e01b5f5260045ffd5b6110cc610f31565b600354801580156110ee575b6110e957611099906110479361104a565b505090565b5081156110d8565b60405163a9059cbb60e01b60208201526001600160a01b03909216602483015260448083019390935291815261113691611131606483610ea5565b611179565b565b5f546001600160a01b0316330361114b57565b63118cdaa760e01b5f523360045260245ffd5b60ff6002541661116a57565b63d93c066560e01b5f5260045ffd5b905f602091828151910182855af115610749575f513d6111c857506001600160a01b0381163b155b6111a85750565b635274afe760e01b5f9081526001600160a01b0391909116600452602490fd5b600114156111a156fea264697066735822122033a25ed0af866977f2c696778a919e3679c8cf554fca12c39b1fda13e2d2ecb164736f6c634300081c0033","linkReferences":{}},"methodIdentifiers":{"MAX_DEPOSIT()":"dd5967c3","MAX_TVL()":"b8127fac","MIN_DEPOSIT()":"e1e158a5","aiAgent()":"a6d5b732","balanceOf(address)":"70a08231","cUSD()":"1fccf672","changeStrategy(uint8)":"0ffe355c","deposit(uint256)":"b6b55f25","emergencyWithdraw(address,uint256)":"95ccea67","getCurrentAPY()":"962ca496","getEarnings(address)":"131b9c04","getVaultStats()":"a59aa5a6","isVerified(address)":"b9209e33","lastRebalance()":"106b9ca1","owner()":"8da5cb5b","pause()":"8456cb59","paused()":"5c975abb","renounceOwnership()":"715018a6","setAIAgent(address)":"6ebe941b","setTreasury(address)":"f0f44260","shares(address)":"ce7c2ac2","strategies(uint8)":"667316e9","totalAssets()":"01e1d114","totalDeposited()":"ff50abdc","totalShares()":"3a98ef39","totalWithdrawn()":"4b319713","transferOwnership(address)":"f2fde38b","treasury()":"61d027b3","unpause()":"3f4ba83a","userStrategy(address)":"457cf68c","users(address)":"a87430ba","verifySelfProof(bytes,bytes)":"d161802b","withdraw(uint256)":"2e1a7d4d"},"id":1}