{"abi":[{"type":"constructor","inputs":[{"name":"underlyingAsset","type":"address","internalType":"address"},{"name":"pool","type":"address","internalType":"address"},{"name":"name","type":"string","internalType":"string"},{"name":"symbol","type":"string","internalType":"string"}],"stateMutability":"nonpayable"},{"type":"function","name":"POOL","inputs":[],"outputs":[{"name":"","type":"address","internalType":"address"}],"stateMutability":"view"},{"type":"function","name":"POOL_ADDRESS","inputs":[],"outputs":[{"name":"","type":"address","internalType":"address"}],"stateMutability":"view"},{"type":"function","name":"UNDERLYING_ASSET","inputs":[],"outputs":[{"name":"","type":"address","internalType":"address"}],"stateMutability":"view"},{"type":"function","name":"UNDERLYING_ASSET_ADDRESS","inputs":[],"outputs":[{"name":"","type":"address","internalType":"address"}],"stateMutability":"view"},{"type":"function","name":"allowance","inputs":[{"name":"owner","type":"address","internalType":"address"},{"name":"spender","type":"address","internalType":"address"}],"outputs":[{"name":"","type":"uint256","internalType":"uint256"}],"stateMutability":"view"},{"type":"function","name":"approve","inputs":[{"name":"spender","type":"address","internalType":"address"},{"name":"value","type":"uint256","internalType":"uint256"}],"outputs":[{"name":"","type":"bool","internalType":"bool"}],"stateMutability":"nonpayable"},{"type":"function","name":"balanceOf","inputs":[{"name":"account","type":"address","internalType":"address"}],"outputs":[{"name":"","type":"uint256","internalType":"uint256"}],"stateMutability":"view"},{"type":"function","name":"burn","inputs":[{"name":"user","type":"address","internalType":"address"},{"name":"amount","type":"uint256","internalType":"uint256"}],"outputs":[],"stateMutability":"nonpayable"},{"type":"function","name":"decimals","inputs":[],"outputs":[{"name":"","type":"uint8","internalType":"uint8"}],"stateMutability":"view"},{"type":"function","name":"mint","inputs":[{"name":"user","type":"address","internalType":"address"},{"name":"amount","type":"uint256","internalType":"uint256"}],"outputs":[],"stateMutability":"nonpayable"},{"type":"function","name":"name","inputs":[],"outputs":[{"name":"","type":"string","internalType":"string"}],"stateMutability":"view"},{"type":"function","name":"owner","inputs":[],"outputs":[{"name":"","type":"address","internalType":"address"}],"stateMutability":"view"},{"type":"function","name":"renounceOwnership","inputs":[],"outputs":[],"stateMutability":"nonpayable"},{"type":"function","name":"symbol","inputs":[],"outputs":[{"name":"","type":"string","internalType":"string"}],"stateMutability":"view"},{"type":"function","name":"totalSupply","inputs":[],"outputs":[{"name":"","type":"uint256","internalType":"uint256"}],"stateMutability":"view"},{"type":"function","name":"transfer","inputs":[{"name":"to","type":"address","internalType":"address"},{"name":"value","type":"uint256","internalType":"uint256"}],"outputs":[{"name":"","type":"bool","internalType":"bool"}],"stateMutability":"nonpayable"},{"type":"function","name":"transferFrom","inputs":[{"name":"from","type":"address","internalType":"address"},{"name":"to","type":"address","internalType":"address"},{"name":"value","type":"uint256","internalType":"uint256"}],"outputs":[{"name":"","type":"bool","internalType":"bool"}],"stateMutability":"nonpayable"},{"type":"function","name":"transferOwnership","inputs":[{"name":"newOwner","type":"address","internalType":"address"}],"outputs":[],"stateMutability":"nonpayable"},{"type":"event","name":"Approval","inputs":[{"name":"owner","type":"address","indexed":true,"internalType":"address"},{"name":"spender","type":"address","indexed":true,"internalType":"address"},{"name":"value","type":"uint256","indexed":false,"internalType":"uint256"}],"anonymous":false},{"type":"event","name":"Burn","inputs":[{"name":"user","type":"address","indexed":true,"internalType":"address"},{"name":"amount","type":"uint256","indexed":false,"internalType":"uint256"},{"name":"index","type":"uint256","indexed":false,"internalType":"uint256"}],"anonymous":false},{"type":"event","name":"Mint","inputs":[{"name":"user","type":"address","indexed":true,"internalType":"address"},{"name":"amount","type":"uint256","indexed":false,"internalType":"uint256"},{"name":"index","type":"uint256","indexed":false,"internalType":"uint256"}],"anonymous":false},{"type":"event","name":"OwnershipTransferred","inputs":[{"name":"previousOwner","type":"address","indexed":true,"internalType":"address"},{"name":"newOwner","type":"address","indexed":true,"internalType":"address"}],"anonymous":false},{"type":"event","name":"Transfer","inputs":[{"name":"from","type":"address","indexed":true,"internalType":"address"},{"name":"to","type":"address","indexed":true,"internalType":"address"},{"name":"value","type":"uint256","indexed":false,"internalType":"uint256"}],"anonymous":false},{"type":"error","name":"ERC20InsufficientAllowance","inputs":[{"name":"spender","type":"address","internalType":"address"},{"name":"allowance","type":"uint256","internalType":"uint256"},{"name":"needed","type":"uint256","internalType":"uint256"}]},{"type":"error","name":"ERC20InsufficientBalance","inputs":[{"name":"sender","type":"address","internalType":"address"},{"name":"balance","type":"uint256","internalType":"uint256"},{"name":"needed","type":"uint256","internalType":"uint256"}]},{"type":"error","name":"ERC20InvalidApprover","inputs":[{"name":"approver","type":"address","internalType":"address"}]},{"type":"error","name":"ERC20InvalidReceiver","inputs":[{"name":"receiver","type":"address","internalType":"address"}]},{"type":"error","name":"ERC20InvalidSender","inputs":[{"name":"sender","type":"address","internalType":"address"}]},{"type":"error","name":"ERC20InvalidSpender","inputs":[{"name":"spender","type":"address","internalType":"address"}]},{"type":"error","name":"OwnableInvalidOwner","inputs":[{"name":"owner","type":"address","internalType":"address"}]},{"type":"error","name":"OwnableUnauthorizedAccount","inputs":[{"name":"account","type":"address","internalType":"address"}]}],"bytecode":{"object":"0x60c0604052346103b957610f6980380380610019816103bd565b9283398101906080818303126103b957610032816103e2565b61003e602083016103e2565b60408301519092906001600160401b0381116103b957846100609183016103f6565b60608201519094906001600160401b0381116103b95761008092016103f6565b83519092906001600160401b0381116102ca57600354600181811c911680156103af575b60208210146102ac57601f811161034c575b50602094601f82116001146102e9579481929394955f926102de575b50508160011b915f199060031b1c1916176003555b82516001600160401b0381116102ca57600454600181811c911680156102c0575b60208210146102ac57601f8111610249575b506020601f82116001146101e657819293945f926101db575b50508160011b915f199060031b1c1916176004555b33156101c85760058054336001600160a01b0319821681179092556040519391906001600160a01b03167f8be0079c531659141344cd1fd0a4f28419497f9722a3daafe3b4186f6b6457e05f80a360805260a052610b2190816104488239608051816109cb015260a0518181816102160152818161058c01526109870152f35b631e4fbdf760e01b5f525f60045260245ffd5b015190505f80610133565b601f1982169060045f52805f20915f5b81811061023157509583600195969710610219575b505050811b01600455610148565b01515f1960f88460031b161c191690555f808061020b565b9192602060018192868b0151815501940192016101f6565b60045f527f8a35acfbc15ff81a39ae7d344fd709f28e8600b4aa8c65c6b64bfe7fe36bd19b601f830160051c810191602084106102a2575b601f0160051c01905b818110610297575061011a565b5f815560010161028a565b9091508190610281565b634e487b7160e01b5f52602260045260245ffd5b90607f1690610108565b634e487b7160e01b5f52604160045260245ffd5b015190505f806100d2565b601f1982169560035f52805f20915f5b8881106103345750836001959697981061031c575b505050811b016003556100e7565b01515f1960f88460031b161c191690555f808061030e565b919260206001819286850151815501940192016102f9565b60035f527fc2575a0e9e593c00f959f8c92f12db2869c3395a3b0502d05e2516446f71f85b601f830160051c810191602084106103a5575b601f0160051c01905b81811061039a57506100b6565b5f815560010161038d565b9091508190610384565b90607f16906100a4565b5f80fd5b6040519190601f01601f191682016001600160401b038111838210176102ca57604052565b51906001600160a01b03821682036103b957565b81601f820112156103b9578051906001600160401b0382116102ca57610425601f8301601f19166020016103bd565b92828452602083830101116103b957815f9260208093018386015e830101529056fe6080806040526004361015610012575f80fd5b5f3560e01c90816306fdde031461084d57508063095ea7b3146107cb57806318160ddd146107ae57806323b872dd146106cf578063313ce567146106b457806340c10f191461056d57806370a0823114610536578063715018a6146104db5780637535d246146100e25780638da5cb5b146104b357806395d89b41146103985780639dc29fac146101f7578063a9059cbb146101c6578063b16a19de14610171578063dd62ed3e14610176578063e602539314610171578063f2fde38b146100e75763fe94df88146100e2575f80fd5b610972565b3461016d57602036600319011261016d57610100610946565b610108610ac4565b6001600160a01b0316801561015a57600580546001600160a01b0319811683179091556001600160a01b03167f8be0079c531659141344cd1fd0a4f28419497f9722a3daafe3b4186f6b6457e05f80a3005b631e4fbdf760e01b5f525f60045260245ffd5b5f80fd5b6109b6565b3461016d57604036600319011261016d5761018f610946565b61019761095c565b6001600160a01b039182165f908152600160209081526040808320949093168252928352819020549051908152f35b3461016d57604036600319011261016d576101ec6101e2610946565b6024359033610a46565b602060405160018152f35b3461016d57604036600319011261016d57610210610946565b602435907f00000000000000000000000000000000000000000000000000000000000000006001600160a01b0316330361035e5761024f8215156109fa565b60018060a01b031690815f525f6020528060405f20541061032257811561030f57815f525f60205260405f20548181106102f657817f49995e5dd6158cf69ad3e9777c46755a1a826a446c6416992167462dad033b2a92604092855f525f60205203825f205580600254036002555f847fddf252ad1be2c89b69c2b068fc378daa952ba7f163c4a11628f55a4df523b3ef60208551858152a381519081525f6020820152a2005b8263391434e360e21b5f5260045260245260445260645ffd5b634b637e8f60e11b5f525f60045260245ffd5b60405162461bcd60e51b8152602060048201526014602482015273496e73756666696369656e742062616c616e636560601b6044820152606490fd5b60405162461bcd60e51b815260206004820152601260248201527127b7363c903837b7b61031b0b710313ab93760711b6044820152606490fd5b3461016d575f36600319011261016d576040515f6004548060011c906001811680156104a9575b602083108114610495578285529081156104795750600114610424575b50819003601f01601f191681019067ffffffffffffffff8211818310176104105761040c8291826040528261091c565b0390f35b634e487b7160e01b5f52604160045260245ffd5b905060045f527f8a35acfbc15ff81a39ae7d344fd709f28e8600b4aa8c65c6b64bfe7fe36bd19b5f905b828210610463575060209150820101826103dc565b600181602092548385880101520191019061044e565b90506020925060ff191682840152151560051b820101826103dc565b634e487b7160e01b5f52602260045260245ffd5b91607f16916103bf565b3461016d575f36600319011261016d576005546040516001600160a01b039091168152602090f35b3461016d575f36600319011261016d576104f3610ac4565b600580546001600160a01b031981169091555f906001600160a01b03167f8be0079c531659141344cd1fd0a4f28419497f9722a3daafe3b4186f6b6457e08280a3005b3461016d57602036600319011261016d576001600160a01b03610557610946565b165f525f602052602060405f2054604051908152f35b3461016d57604036600319011261016d57610586610946565b602435907f00000000000000000000000000000000000000000000000000000000000000006001600160a01b0316330361067a576105c58215156109fa565b6001600160a01b031690811561066757600254818101809111610653577f4c209b5fc8ad50758f13e2e1088ba56a560dff690a1c6fef26394f4c03821c4f91604091600255835f525f602052815f20818154019055835f7fddf252ad1be2c89b69c2b068fc378daa952ba7f163c4a11628f55a4df523b3ef60208551858152a381519081525f6020820152a2005b634e487b7160e01b5f52601160045260245ffd5b63ec442f0560e01b5f525f60045260245ffd5b60405162461bcd60e51b815260206004820152601260248201527113db9b1e481c1bdbdb0818d85b881b5a5b9d60721b6044820152606490fd5b3461016d575f36600319011261016d57602060405160128152f35b3461016d57606036600319011261016d576106e8610946565b6106f061095c565b6001600160a01b0382165f818152600160209081526040808320338452909152902054909260443592915f19811061072e575b506101ec9350610a46565b83811061079357841561078057331561076d576101ec945f52600160205260405f2060018060a01b0333165f526020528360405f209103905584610723565b634a1406b160e11b5f525f60045260245ffd5b63e602df0560e01b5f525f60045260245ffd5b8390637dc7a0d960e11b5f523360045260245260445260645ffd5b3461016d575f36600319011261016d576020600254604051908152f35b3461016d57604036600319011261016d576107e4610946565b602435903315610780576001600160a01b031690811561076d57335f52600160205260405f20825f526020528060405f20556040519081527f8c5be1e5ebec7d5bd14f71427d1e84f3dd0314c0f7b2291e5b200ac8c7c3b92560203392a3602060405160018152f35b3461016d575f36600319011261016d575f6003548060011c90600181168015610912575b6020831081146104955782855290811561047957506001146108bd5750819003601f01601f191681019067ffffffffffffffff8211818310176104105761040c8291826040528261091c565b905060035f527fc2575a0e9e593c00f959f8c92f12db2869c3395a3b0502d05e2516446f71f85b5f905b8282106108fc575060209150820101826103dc565b60018160209254838588010152019101906108e7565b91607f1691610871565b602060409281835280519182918282860152018484015e5f828201840152601f01601f1916010190565b600435906001600160a01b038216820361016d57565b602435906001600160a01b038216820361016d57565b3461016d575f36600319011261016d576040517f00000000000000000000000000000000000000000000000000000000000000006001600160a01b03168152602090f35b3461016d575f36600319011261016d576040517f00000000000000000000000000000000000000000000000000000000000000006001600160a01b03168152602090f35b15610a0157565b60405162461bcd60e51b815260206004820152601d60248201527f416d6f756e74206d7573742062652067726561746572207468616e20300000006044820152606490fd5b6001600160a01b031690811561030f576001600160a01b031691821561066757815f525f60205260405f20548181106102f657817fddf252ad1be2c89b69c2b068fc378daa952ba7f163c4a11628f55a4df523b3ef92602092855f525f84520360405f2055845f525f825260405f20818154019055604051908152a3565b6005546001600160a01b03163303610ad857565b63118cdaa760e01b5f523360045260245ffdfea26469706673582212202f11455f59a7561558bd6b00a0eabcd4687748c25d915ca443170846d9225fbb64736f6c634300081c0033","linkReferences":{}},"methodIdentifiers":{"POOL()":"7535d246","POOL_ADDRESS()":"fe94df88","UNDERLYING_ASSET()":"e6025393","UNDERLYING_ASSET_ADDRESS()":"b16a19de","allowance(address,address)":"dd62ed3e","approve(address,uint256)":"095ea7b3","balanceOf(address)":"70a08231","burn(address,uint256)":"9dc29fac","decimals()":"313ce567","mint(address,uint256)":"40c10f19","name()":"06fdde03","owner()":"8da5cb5b","renounceOwnership()":"715018a6","symbol()":"95d89b41","totalSupply()":"18160ddd","transfer(address,uint256)":"a9059cbb","transferFrom(address,address,uint256)":"23b872dd","transferOwnership(address)":"f2fde38b"},"id":5}