{"abi":[{"type":"constructor","inputs":[{"name":"_asset","type":"address","internalType":"contract IERC20"},{"name":"_name","type":"string","internalType":"string"},{"name":"_symbol","type":"string","internalType":"string"},{"name":"_aavePool","type":"address","internalType":"address"},{"name":"_treasury","type":"address","internalType":"address"}],"stateMutability":"nonpayable"},{"type":"function","name":"AAVE_POOL","inputs":[],"outputs":[{"name":"","type":"address","internalType":"contract IPool"}],"stateMutability":"view"},{"type":"function","name":"A_TOKEN","inputs":[],"outputs":[{"name":"","type":"address","internalType":"contract IAToken"}],"stateMutability":"view"},{"type":"function","name":"allowance","inputs":[{"name":"owner","type":"address","internalType":"address"},{"name":"spender","type":"address","internalType":"address"}],"outputs":[{"name":"","type":"uint256","internalType":"uint256"}],"stateMutability":"view"},{"type":"function","name":"approve","inputs":[{"name":"spender","type":"address","internalType":"address"},{"name":"value","type":"uint256","internalType":"uint256"}],"outputs":[{"name":"","type":"bool","internalType":"bool"}],"stateMutability":"nonpayable"},{"type":"function","name":"asset","inputs":[],"outputs":[{"name":"","type":"address","internalType":"address"}],"stateMutability":"view"},{"type":"function","name":"balanceOf","inputs":[{"name":"account","type":"address","internalType":"address"}],"outputs":[{"name":"","type":"uint256","internalType":"uint256"}],"stateMutability":"view"},{"type":"function","name":"claimRewards","inputs":[{"name":"assets","type":"address[]","internalType":"address[]"},{"name":"reward","type":"address","internalType":"address"}],"outputs":[{"name":"rewardAmount","type":"uint256","internalType":"uint256"}],"stateMutability":"nonpayable"},{"type":"function","name":"convertToAssets","inputs":[{"name":"shares","type":"uint256","internalType":"uint256"}],"outputs":[{"name":"","type":"uint256","internalType":"uint256"}],"stateMutability":"view"},{"type":"function","name":"convertToShares","inputs":[{"name":"assets","type":"uint256","internalType":"uint256"}],"outputs":[{"name":"","type":"uint256","internalType":"uint256"}],"stateMutability":"view"},{"type":"function","name":"decimals","inputs":[],"outputs":[{"name":"","type":"uint8","internalType":"uint8"}],"stateMutability":"view"},{"type":"function","name":"deposit","inputs":[{"name":"assets","type":"uint256","internalType":"uint256"},{"name":"receiver","type":"address","internalType":"address"}],"outputs":[{"name":"shares","type":"uint256","internalType":"uint256"}],"stateMutability":"nonpayable"},{"type":"function","name":"emergencyWithdraw","inputs":[{"name":"token","type":"address","internalType":"address"},{"name":"amount","type":"uint256","internalType":"uint256"},{"name":"to","type":"address","internalType":"address"}],"outputs":[],"stateMutability":"nonpayable"},{"type":"function","name":"emergencyWithdrawFromAave","inputs":[],"outputs":[],"stateMutability":"nonpayable"},{"type":"function","name":"getCurrentAPY","inputs":[],"outputs":[{"name":"","type":"uint256","internalType":"uint256"}],"stateMutability":"view"},{"type":"function","name":"getUserPosition","inputs":[{"name":"user","type":"address","internalType":"address"}],"outputs":[{"name":"userShares","type":"uint256","internalType":"uint256"},{"name":"userAssets","type":"uint256","internalType":"uint256"},{"name":"shareOfPool","type":"uint256","internalType":"uint256"}],"stateMutability":"view"},{"type":"function","name":"getVaultStats","inputs":[],"outputs":[{"name":"_totalAssets","type":"uint256","internalType":"uint256"},{"name":"_totalShares","type":"uint256","internalType":"uint256"},{"name":"reserveBalance","type":"uint256","internalType":"uint256"},{"name":"aaveBalance","type":"uint256","internalType":"uint256"},{"name":"_totalDeposited","type":"uint256","internalType":"uint256"},{"name":"_totalWithdrawn","type":"uint256","internalType":"uint256"},{"name":"_totalYield","type":"uint256","internalType":"uint256"},{"name":"_totalFees","type":"uint256","internalType":"uint256"}],"stateMutability":"view"},{"type":"function","name":"harvest","inputs":[],"outputs":[{"name":"yieldAmount","type":"uint256","internalType":"uint256"},{"name":"feeAmount","type":"uint256","internalType":"uint256"}],"stateMutability":"nonpayable"},{"type":"function","name":"harvestInterval","inputs":[],"outputs":[{"name":"","type":"uint256","internalType":"uint256"}],"stateMutability":"view"},{"type":"function","name":"lastHarvest","inputs":[],"outputs":[{"name":"","type":"uint256","internalType":"uint256"}],"stateMutability":"view"},{"type":"function","name":"maxDeposit","inputs":[{"name":"","type":"address","internalType":"address"}],"outputs":[{"name":"","type":"uint256","internalType":"uint256"}],"stateMutability":"view"},{"type":"function","name":"maxDeposit","inputs":[],"outputs":[{"name":"","type":"uint256","internalType":"uint256"}],"stateMutability":"view"},{"type":"function","name":"maxMint","inputs":[{"name":"","type":"address","internalType":"address"}],"outputs":[{"name":"","type":"uint256","internalType":"uint256"}],"stateMutability":"view"},{"type":"function","name":"maxRedeem","inputs":[{"name":"owner","type":"address","internalType":"address"}],"outputs":[{"name":"","type":"uint256","internalType":"uint256"}],"stateMutability":"view"},{"type":"function","name":"maxSlippage","inputs":[],"outputs":[{"name":"","type":"uint256","internalType":"uint256"}],"stateMutability":"view"},{"type":"function","name":"maxTvl","inputs":[],"outputs":[{"name":"","type":"uint256","internalType":"uint256"}],"stateMutability":"view"},{"type":"function","name":"maxWithdraw","inputs":[{"name":"owner","type":"address","internalType":"address"}],"outputs":[{"name":"","type":"uint256","internalType":"uint256"}],"stateMutability":"view"},{"type":"function","name":"minDeposit","inputs":[],"outputs":[{"name":"","type":"uint256","internalType":"uint256"}],"stateMutability":"view"},{"type":"function","name":"mint","inputs":[{"name":"shares","type":"uint256","internalType":"uint256"},{"name":"receiver","type":"address","internalType":"address"}],"outputs":[{"name":"assets","type":"uint256","internalType":"uint256"}],"stateMutability":"nonpayable"},{"type":"function","name":"name","inputs":[],"outputs":[{"name":"","type":"string","internalType":"string"}],"stateMutability":"view"},{"type":"function","name":"owner","inputs":[],"outputs":[{"name":"","type":"address","internalType":"address"}],"stateMutability":"view"},{"type":"function","name":"pause","inputs":[],"outputs":[],"stateMutability":"nonpayable"},{"type":"function","name":"paused","inputs":[],"outputs":[{"name":"","type":"bool","internalType":"bool"}],"stateMutability":"view"},{"type":"function","name":"performanceFee","inputs":[],"outputs":[{"name":"","type":"uint256","internalType":"uint256"}],"stateMutability":"view"},{"type":"function","name":"previewDeposit","inputs":[{"name":"assets","type":"uint256","internalType":"uint256"}],"outputs":[{"name":"","type":"uint256","internalType":"uint256"}],"stateMutability":"view"},{"type":"function","name":"previewMint","inputs":[{"name":"shares","type":"uint256","internalType":"uint256"}],"outputs":[{"name":"","type":"uint256","internalType":"uint256"}],"stateMutability":"view"},{"type":"function","name":"previewRedeem","inputs":[{"name":"shares","type":"uint256","internalType":"uint256"}],"outputs":[{"name":"","type":"uint256","internalType":"uint256"}],"stateMutability":"view"},{"type":"function","name":"previewWithdraw","inputs":[{"name":"assets","type":"uint256","internalType":"uint256"}],"outputs":[{"name":"","type":"uint256","internalType":"uint256"}],"stateMutability":"view"},{"type":"function","name":"rebalance","inputs":[],"outputs":[],"stateMutability":"nonpayable"},{"type":"function","name":"redeem","inputs":[{"name":"shares","type":"uint256","internalType":"uint256"},{"name":"receiver","type":"address","internalType":"address"},{"name":"owner","type":"address","internalType":"address"}],"outputs":[{"name":"assets","type":"uint256","internalType":"uint256"}],"stateMutability":"nonpayable"},{"type":"function","name":"renounceOwnership","inputs":[],"outputs":[],"stateMutability":"nonpayable"},{"type":"function","name":"reserveRatio","inputs":[],"outputs":[{"name":"","type":"uint256","internalType":"uint256"}],"stateMutability":"view"},{"type":"function","name":"rewardsController","inputs":[],"outputs":[{"name":"","type":"address","internalType":"contract IRewardsController"}],"stateMutability":"view"},{"type":"function","name":"setHarvestInterval","inputs":[{"name":"newInterval","type":"uint256","internalType":"uint256"}],"outputs":[],"stateMutability":"nonpayable"},{"type":"function","name":"setLimits","inputs":[{"name":"_minDeposit","type":"uint256","internalType":"uint256"},{"name":"_maxDeposit","type":"uint256","internalType":"uint256"},{"name":"_maxTvl","type":"uint256","internalType":"uint256"}],"outputs":[],"stateMutability":"nonpayable"},{"type":"function","name":"setMaxSlippage","inputs":[{"name":"newSlippage","type":"uint256","internalType":"uint256"}],"outputs":[],"stateMutability":"nonpayable"},{"type":"function","name":"setPerformanceFee","inputs":[{"name":"newFee","type":"uint256","internalType":"uint256"}],"outputs":[],"stateMutability":"nonpayable"},{"type":"function","name":"setReserveRatio","inputs":[{"name":"newRatio","type":"uint256","internalType":"uint256"}],"outputs":[],"stateMutability":"nonpayable"},{"type":"function","name":"setRewardsController","inputs":[{"name":"_rewardsController","type":"address","internalType":"address"}],"outputs":[],"stateMutability":"nonpayable"},{"type":"function","name":"setTreasury","inputs":[{"name":"newTreasury","type":"address","internalType":"address"}],"outputs":[],"stateMutability":"nonpayable"},{"type":"function","name":"symbol","inputs":[],"outputs":[{"name":"","type":"string","internalType":"string"}],"stateMutability":"view"},{"type":"function","name":"totalAssets","inputs":[],"outputs":[{"name":"","type":"uint256","internalType":"uint256"}],"stateMutability":"view"},{"type":"function","name":"totalDeposited","inputs":[],"outputs":[{"name":"","type":"uint256","internalType":"uint256"}],"stateMutability":"view"},{"type":"function","name":"totalFeesCollected","inputs":[],"outputs":[{"name":"","type":"uint256","internalType":"uint256"}],"stateMutability":"view"},{"type":"function","name":"totalSupply","inputs":[],"outputs":[{"name":"","type":"uint256","internalType":"uint256"}],"stateMutability":"view"},{"type":"function","name":"totalWithdrawn","inputs":[],"outputs":[{"name":"","type":"uint256","internalType":"uint256"}],"stateMutability":"view"},{"type":"function","name":"totalYieldHarvested","inputs":[],"outputs":[{"name":"","type":"uint256","internalType":"uint256"}],"stateMutability":"view"},{"type":"function","name":"transfer","inputs":[{"name":"to","type":"address","internalType":"address"},{"name":"value","type":"uint256","internalType":"uint256"}],"outputs":[{"name":"","type":"bool","internalType":"bool"}],"stateMutability":"nonpayable"},{"type":"function","name":"transferFrom","inputs":[{"name":"from","type":"address","internalType":"address"},{"name":"to","type":"address","internalType":"address"},{"name":"value","type":"uint256","internalType":"uint256"}],"outputs":[{"name":"","type":"bool","internalType":"bool"}],"stateMutability":"nonpayable"},{"type":"function","name":"transferOwnership","inputs":[{"name":"newOwner","type":"address","internalType":"address"}],"outputs":[],"stateMutability":"nonpayable"},{"type":"function","name":"treasury","inputs":[],"outputs":[{"name":"","type":"address","internalType":"address"}],"stateMutability":"view"},{"type":"function","name":"unpause","inputs":[],"outputs":[],"stateMutability":"nonpayable"},{"type":"function","name":"withdraw","inputs":[{"name":"assets","type":"uint256","internalType":"uint256"},{"name":"receiver","type":"address","internalType":"address"},{"name":"owner","type":"address","internalType":"address"}],"outputs":[{"name":"shares","type":"uint256","internalType":"uint256"}],"stateMutability":"nonpayable"},{"type":"event","name":"Approval","inputs":[{"name":"owner","type":"address","indexed":true,"internalType":"address"},{"name":"spender","type":"address","indexed":true,"internalType":"address"},{"name":"value","type":"uint256","indexed":false,"internalType":"uint256"}],"anonymous":false},{"type":"event","name":"Deposit","inputs":[{"name":"sender","type":"address","indexed":true,"internalType":"address"},{"name":"owner","type":"address","indexed":true,"internalType":"address"},{"name":"assets","type":"uint256","indexed":false,"internalType":"uint256"},{"name":"shares","type":"uint256","indexed":false,"internalType":"uint256"}],"anonymous":false},{"type":"event","name":"DepositedToAave","inputs":[{"name":"amount","type":"uint256","indexed":false,"internalType":"uint256"},{"name":"timestamp","type":"uint256","indexed":false,"internalType":"uint256"}],"anonymous":false},{"type":"event","name":"EmergencyWithdrawal","inputs":[{"name":"token","type":"address","indexed":true,"internalType":"address"},{"name":"amount","type":"uint256","indexed":false,"internalType":"uint256"},{"name":"to","type":"address","indexed":true,"internalType":"address"}],"anonymous":false},{"type":"event","name":"LimitsUpdated","inputs":[{"name":"minDeposit","type":"uint256","indexed":false,"internalType":"uint256"},{"name":"maxDeposit","type":"uint256","indexed":false,"internalType":"uint256"},{"name":"maxTvl","type":"uint256","indexed":false,"internalType":"uint256"}],"anonymous":false},{"type":"event","name":"OwnershipTransferred","inputs":[{"name":"previousOwner","type":"address","indexed":true,"internalType":"address"},{"name":"newOwner","type":"address","indexed":true,"internalType":"address"}],"anonymous":false},{"type":"event","name":"Paused","inputs":[{"name":"account","type":"address","indexed":false,"internalType":"address"}],"anonymous":false},{"type":"event","name":"PerformanceFeeUpdated","inputs":[{"name":"oldFee","type":"uint256","indexed":false,"internalType":"uint256"},{"name":"newFee","type":"uint256","indexed":false,"internalType":"uint256"}],"anonymous":false},{"type":"event","name":"Rebalanced","inputs":[{"name":"aaveBalance","type":"uint256","indexed":false,"internalType":"uint256"},{"name":"reserveBalance","type":"uint256","indexed":false,"internalType":"uint256"},{"name":"timestamp","type":"uint256","indexed":false,"internalType":"uint256"}],"anonymous":false},{"type":"event","name":"ReserveRatioUpdated","inputs":[{"name":"oldRatio","type":"uint256","indexed":false,"internalType":"uint256"},{"name":"newRatio","type":"uint256","indexed":false,"internalType":"uint256"}],"anonymous":false},{"type":"event","name":"RewardsHarvested","inputs":[{"name":"reward","type":"address","indexed":true,"internalType":"address"},{"name":"amount","type":"uint256","indexed":false,"internalType":"uint256"},{"name":"timestamp","type":"uint256","indexed":false,"internalType":"uint256"}],"anonymous":false},{"type":"event","name":"Transfer","inputs":[{"name":"from","type":"address","indexed":true,"internalType":"address"},{"name":"to","type":"address","indexed":true,"internalType":"address"},{"name":"value","type":"uint256","indexed":false,"internalType":"uint256"}],"anonymous":false},{"type":"event","name":"TreasuryUpdated","inputs":[{"name":"oldTreasury","type":"address","indexed":true,"internalType":"address"},{"name":"newTreasury","type":"address","indexed":true,"internalType":"address"}],"anonymous":false},{"type":"event","name":"Unpaused","inputs":[{"name":"account","type":"address","indexed":false,"internalType":"address"}],"anonymous":false},{"type":"event","name":"Withdraw","inputs":[{"name":"sender","type":"address","indexed":true,"internalType":"address"},{"name":"receiver","type":"address","indexed":true,"internalType":"address"},{"name":"owner","type":"address","indexed":true,"internalType":"address"},{"name":"assets","type":"uint256","indexed":false,"internalType":"uint256"},{"name":"shares","type":"uint256","indexed":false,"internalType":"uint256"}],"anonymous":false},{"type":"event","name":"WithdrawnFromAave","inputs":[{"name":"amount","type":"uint256","indexed":false,"internalType":"uint256"},{"name":"timestamp","type":"uint256","indexed":false,"internalType":"uint256"}],"anonymous":false},{"type":"event","name":"YieldHarvested","inputs":[{"name":"amount","type":"uint256","indexed":false,"internalType":"uint256"},{"name":"fee","type":"uint256","indexed":false,"internalType":"uint256"},{"name":"timestamp","type":"uint256","indexed":false,"internalType":"uint256"}],"anonymous":false},{"type":"error","name":"AaveOperationFailed","inputs":[]},{"type":"error","name":"BelowMinDeposit","inputs":[]},{"type":"error","name":"ERC20InsufficientAllowance","inputs":[{"name":"spender","type":"address","internalType":"address"},{"name":"allowance","type":"uint256","internalType":"uint256"},{"name":"needed","type":"uint256","internalType":"uint256"}]},{"type":"error","name":"ERC20InsufficientBalance","inputs":[{"name":"sender","type":"address","internalType":"address"},{"name":"balance","type":"uint256","internalType":"uint256"},{"name":"needed","type":"uint256","internalType":"uint256"}]},{"type":"error","name":"ERC20InvalidApprover","inputs":[{"name":"approver","type":"address","internalType":"address"}]},{"type":"error","name":"ERC20InvalidReceiver","inputs":[{"name":"receiver","type":"address","internalType":"address"}]},{"type":"error","name":"ERC20InvalidSender","inputs":[{"name":"sender","type":"address","internalType":"address"}]},{"type":"error","name":"ERC20InvalidSpender","inputs":[{"name":"spender","type":"address","internalType":"address"}]},{"type":"error","name":"ERC4626ExceededMaxDeposit","inputs":[{"name":"receiver","type":"address","internalType":"address"},{"name":"assets","type":"uint256","internalType":"uint256"},{"name":"max","type":"uint256","internalType":"uint256"}]},{"type":"error","name":"ERC4626ExceededMaxMint","inputs":[{"name":"receiver","type":"address","internalType":"address"},{"name":"shares","type":"uint256","internalType":"uint256"},{"name":"max","type":"uint256","internalType":"uint256"}]},{"type":"error","name":"ERC4626ExceededMaxRedeem","inputs":[{"name":"owner","type":"address","internalType":"address"},{"name":"shares","type":"uint256","internalType":"uint256"},{"name":"max","type":"uint256","internalType":"uint256"}]},{"type":"error","name":"ERC4626ExceededMaxWithdraw","inputs":[{"name":"owner","type":"address","internalType":"address"},{"name":"assets","type":"uint256","internalType":"uint256"},{"name":"max","type":"uint256","internalType":"uint256"}]},{"type":"error","name":"EnforcedPause","inputs":[]},{"type":"error","name":"ExceedsMaxDeposit","inputs":[]},{"type":"error","name":"ExceedsMaxTVL","inputs":[]},{"type":"error","name":"ExpectedPause","inputs":[]},{"type":"error","name":"HarvestTooSoon","inputs":[]},{"type":"error","name":"InsufficientLiquidity","inputs":[]},{"type":"error","name":"InvalidFee","inputs":[]},{"type":"error","name":"InvalidRatio","inputs":[]},{"type":"error","name":"OwnableInvalidOwner","inputs":[{"name":"owner","type":"address","internalType":"address"}]},{"type":"error","name":"OwnableUnauthorizedAccount","inputs":[{"name":"account","type":"address","internalType":"address"}]},{"type":"error","name":"ReentrancyGuardReentrantCall","inputs":[]},{"type":"error","name":"SafeERC20FailedOperation","inputs":[{"name":"token","type":"address","internalType":"address"}]},{"type":"error","name":"SlippageExceeded","inputs":[]},{"type":"error","name":"ZeroAddress","inputs":[]},{"type":"error","name":"ZeroAmount","inputs":[]}],"bytecode":{"object":"0x61010080604052346104ec5761337a803803809161001d8285610738565b833981019060a0818303126104ec5780516001600160a01b038116918282036104ec5760208101516001600160401b0381116104ec578461005f918301610776565b604082015190946001600160401b0382116104ec5761007f918301610776565b6100976080610090606085016107bc565b93016107bc565b855190956001600160401b03821161063b5760035490600182811c9216801561072e575b602083101461061d5781601f8493116106c0575b50602090601f831160011461065a575f9261064f575b50508160011b915f199060031b1c1916176003555b8051906001600160401b03821161063b5760045490600182811c92168015610631575b602083101461061d5781601f8493116105af575b50602090601f8311600114610549575f9261053e575b50508160011b915f199060031b1c1916176004555b610165826107e4565b9015610536575b60a0528160805233156105235760058054336001600160a01b0319821681179092556040519291906001600160a01b03167f8be0079c531659141344cd1fd0a4f28419497f9722a3daafe3b4186f6b6457e05f80a360016006556001600160a01b03169384158015610512575b6105035760c0859052600d80546001600160a01b0319166001600160a01b03929092169190911790556335ea6a7560e01b8152600481018390526101e081602481875afa9081156104f8575f916103ff575b506001600160a01b031680156103f05760e0526103e86008556064600c556103e8600e5562015180601055670de0b6b3a764000060095569021e19e0c9bab2400000600a5569d3c21bcecceda1000000600b5542600f556040519160205f81850163095ea7b360e01b815286602487015281196044870152604486526102b2606487610738565b85519082865af1903d5f5190836103d1575b5050501561038c575b604051612a9a90816108e0823960805181818161059a01528181610742015281816108bc01528181610a7701528181610f8d015281816118c901528181611a8f0152818161200e015281816122ca015281816126220152818161274601526128a2015260a05181611ad2015260c051818181610aaa01528181611dbb0152818161230e0152612708015260e05181818161091101528181610a0401528181610ffe0152818161105d01528181611b980152818161206301526122740152f35b6103c46103c9936040519063095ea7b360e01b602083015260248201525f6044820152604481526103be606482610738565b82610887565b610887565b5f80806102cd565b919250906103e657503b15155b5f80806102c4565b60019150146103de565b63522cc4ff60e11b5f5260045ffd5b90506101e0813d82116104f0575b8161041b6101e09383610738565b810103126104ec5761042f602082016107d0565b5061043c604082016107d0565b50610449606082016107d0565b50610456608082016107d0565b5061046360a082016107d0565b5060c081015164ffffffffff8116036104ec5760e081015161ffff8116036104ec576104e56101c061049861010084016107bc565b926104a661012082016107bc565b506104b461014082016107bc565b506104c261016082016107bc565b506104d061018082016107d0565b506104de6101a082016107d0565b50016107d0565b505f61022b565b5f80fd5b3d915061040d565b6040513d5f823e3d90fd5b63d92e233d60e01b5f5260045ffd5b506001600160a01b038116156101d9565b631e4fbdf760e01b5f525f60045260245ffd5b50601261016c565b015190505f80610147565b60045f9081528281209350601f198516905b818110610597575090846001959493921061057f575b505050811b0160045561015c565b01515f1960f88460031b161c191690555f8080610571565b9293602060018192878601518155019501930161055b565b60045f529091507f8a35acfbc15ff81a39ae7d344fd709f28e8600b4aa8c65c6b64bfe7fe36bd19b601f840160051c81019160208510610613575b90601f859493920160051c01905b8181106106055750610131565b5f81558493506001016105f8565b90915081906105ea565b634e487b7160e01b5f52602260045260245ffd5b91607f169161011d565b634e487b7160e01b5f52604160045260245ffd5b015190505f806100e5565b60035f9081528281209350601f198516905b8181106106a85750908460019594939210610690575b505050811b016003556100fa565b01515f1960f88460031b161c191690555f8080610682565b9293602060018192878601518155019501930161066c565b60035f529091507fc2575a0e9e593c00f959f8c92f12db2869c3395a3b0502d05e2516446f71f85b601f840160051c81019160208510610724575b90601f859493920160051c01905b81811061071657506100cf565b5f8155849350600101610709565b90915081906106fb565b91607f16916100bb565b601f909101601f19168101906001600160401b0382119082101761063b57604052565b6001600160401b03811161063b57601f01601f191660200190565b81601f820112156104ec5780519061078d8261075b565b9261079b6040519485610738565b828452602083830101116104ec57815f9260208093018386015e8301015290565b51906001600160a01b03821682036104ec57565b51906001600160801b03821682036104ec57565b5f8091604051602081019063313ce56760e01b825260048152610808602482610738565b51916001600160a01b03165afa3d1561087f573d906108268261075b565b916108346040519384610738565b82523d5f602084013e5b80610873575b610850575b505f905f90565b6020818051810103126104ec576020015160ff8111610849579060ff6001921690565b50602081511015610844565b60609061083e565b905f602091828151910182855af1156104f8575f513d6108d657506001600160a01b0381163b155b6108b65750565b635274afe760e01b5f9081526001600160a01b0391909116600452602490fd5b600114156108af56fe60806040526004361015610011575f80fd5b5f3560e01c806301e1d11414611ea557806306fdde0314611dea57806307a2d13a1461179157806308a0167514611da6578063095ea7b314611cfe5780630a28a47714611ce05780630c7d5cd814611cc357806314dc0ce014611ca657806318160ddd14611c89578063189ae5f214611c1557806320f7b66d14611b5a57806322a6619e14611b3d57806323b872dd14611b05578063313ce56714611abe57806338d52e0f14611a7a57806338d7aae114611a595780633f4ba83a146119f3578063402d267d146104d557806341b3d185146119d657806343f68a49146119ac5780634641257d146117b35780634b319713146117965780634cdad50614611791578063551512de146116d05780635b7c2dad146116465780635c975abb146116245780636083e59a1461160757806360c6d8ae146115ea57806361d027b3146115c25780636bb65f53146115965780636e553f65146114a157806370897b231461143457806370a082311461045e578063715018a6146113d957806377d5d8571461123a5780637d7c2a1c14610f495780638456cb5914610ef05780638778878214610ed35780638b4f3b2c14610e665780638c04166f14610e495780638da5cb5b14610e2157806394bf804d14610cf257806395d89b4114610bee578063962ca49614610a505780639a1815be14610a335780639ef0159f146109ef578063a59aa5a614610884578063a9059cbb14610853578063b3d7f6b914610835578063b460af94146106c9578063ba08765214610522578063bee36bb3146104da578063c63d75b6146104d5578063c6e6f59214610409578063ce96cb771461049e578063d905777e1461045e578063dd62ed3e1461040e578063ef8b30f714610409578063f0f4426014610387578063f1a392da1461036a578063f2fde38b146102e45763ff50abdc146102c3575f80fd5b346102e0575f3660031901126102e0576020601154604051908152f35b5f80fd5b346102e05760203660031901126102e0576102fd611f07565b61030561222c565b6001600160a01b0316801561035757600580546001600160a01b0319811683179091556001600160a01b03167f8be0079c531659141344cd1fd0a4f28419497f9722a3daafe3b4186f6b6457e05f80a3005b631e4fbdf760e01b5f525f60045260245ffd5b346102e0575f3660031901126102e0576020600f54604051908152f35b346102e05760203660031901126102e0576103a0611f07565b6103a861222c565b6001600160a01b031680156103fa57600d80546001600160a01b0319811683179091556001600160a01b03167f4ab5be82436d353e61ca18726e984e561f5c1cc7c6d38b29d2553c790434705a5f80a3005b63d92e233d60e01b5f5260045ffd5b611f92565b346102e05760403660031901126102e057610427611f07565b61042f611f1d565b6001600160a01b039182165f908152600160209081526040808320949093168252928352819020549051908152f35b346102e05760203660031901126102e057602061049661047c611f07565b6001600160a01b03165f9081526020819052604090205490565b604051908152f35b346102e05760203660031901126102e0576001600160a01b036104bf611f07565b165f525f602052602061049660405f2054612176565b611f33565b346102e05760203660031901126102e0576104f3611f07565b6104fb61222c565b60078054610100600160a81b03191660089290921b610100600160a81b0316919091179055005b346102e05761053036611f58565b9061053961255f565b82156106ba576001600160a01b038116156103fa5761055783612176565b9283156106ba57600c546127100361271081116106a65761057b612710918661211d565b6040516370a0823160e01b8152306004820152919004936020826024817f00000000000000000000000000000000000000000000000000000000000000006001600160a01b03165afa801561069b5786925f91610662575b509384836105e8961061064a575b50336127fd565b811061063b57806105fd602092601254611fe6565b6012557f57501c8e2164a8e257532432c793d9ee7bb35236acd0592a0b029a7f80a2eb5e604080518381524285820152a16001600655604051908152f35b638199f5f360e01b5f5260045ffd5b61065761065c9185612110565b612253565b876105e1565b9250506020823d602011610693575b8161067e60209383611fb0565b810103126102e05790518591906105e86105d3565b3d9150610671565b6040513d5f823e3d90fd5b634e487b7160e01b5f52601160045260245ffd5b631f2a200560e01b5f5260045ffd5b346102e0576106d736611f58565b906106e061255f565b82156106ba576001600160a01b038116156103fa576106fe836121d1565b9182156106ba57600c546127100180612710116106a657610722612710918561211d565b6040516370a0823160e01b815230600482015291900492906020816024817f00000000000000000000000000000000000000000000000000000000000000006001600160a01b03165afa92831561069b57859287925f956107f7575b50848361079196106107e45750336127fd565b811161063b577f57501c8e2164a8e257532432c793d9ee7bb35236acd0592a0b029a7f80a2eb5e6040836107c9602095601254611fe6565b60125581519081524285820152a16001600655604051908152f35b6106576107f19185612110565b886105e1565b9250925092506020813d60201161082d575b8161081660209383611fb0565b810103126102e0576107919285928792519461077e565b3d9150610809565b346102e05760203660031901126102e05760206104966004356121a3565b346102e05760403660031901126102e05761087961086f611f07565b60243590336124a2565b602060405160018152f35b346102e0575f3660031901126102e05761089c611ff3565b6002546040516370a0823160e01b815230600482015291906020836024817f00000000000000000000000000000000000000000000000000000000000000006001600160a01b03165afa92831561069b575f936109bb575b506040516370a0823160e01b8152306004820152926020846024817f00000000000000000000000000000000000000000000000000000000000000006001600160a01b03165afa801561069b575f90610987575b6101009450601154601254916013549360145495604051978852602088015260408701526060860152608085015260a084015260c083015260e0820152f35b506020843d6020116109b3575b816109a160209383611fb0565b810103126102e0576101009351610948565b3d9150610994565b9092506020813d6020116109e7575b816109d760209383611fb0565b810103126102e0575191836108f4565b3d91506109ca565b346102e0575f3660031901126102e0576040517f00000000000000000000000000000000000000000000000000000000000000006001600160a01b03168152602090f35b346102e0575f3660031901126102e0576020600b54604051908152f35b346102e0575f3660031901126102e0576040516335ea6a7560e01b81526001600160a01b037f0000000000000000000000000000000000000000000000000000000000000000811660048301526101e090829060249082907f0000000000000000000000000000000000000000000000000000000000000000165afa801561069b575f90610af9575b60209069152d02c7e14af68000006001600160801b036040519216048152f35b506101e0813d8211610be6575b81610b146101e09383611fb0565b810103126102e057610b286020820161214e565b50610b356040820161214e565b610b416060830161214e565b50610b4e6080830161214e565b50610b5b60a0830161214e565b5060c082015164ffffffffff8116036102e05760e082015161ffff8116036102e057610be06101c083610b9361010060209601612162565b50610ba16101208201612162565b50610baf6101408201612162565b50610bbd6101608201612162565b50610bcb610180820161214e565b50610bd96101a0820161214e565b500161214e565b50610ad9565b3d9150610b06565b346102e0575f3660031901126102e0576040515f6004548060011c90600181168015610ce8575b602083108114610cd457828552908115610cb05750600114610c52575b610c4e83610c4281850382611fb0565b60405191829182611ebf565b0390f35b91905060045f527f8a35acfbc15ff81a39ae7d344fd709f28e8600b4aa8c65c6b64bfe7fe36bd19b915f905b808210610c9657509091508101602001610c42610c32565b919260018160209254838588010152019101909291610c7e565b60ff191660208086019190915291151560051b84019091019150610c429050610c32565b634e487b7160e01b5f52602260045260245ffd5b91607f1691610c15565b346102e05760403660031901126102e057600435610d0e611f1d565b610d1661255f565b610d1e6125c1565b81156106ba576001600160a01b038116156103fa57610d3c826121a3565b9182156106ba576009548310610e1257600a548311610e0357610d6683610d61611ff3565b611fe6565b600b5410610df457600c54612710019081612710116106a65783612710610d90610d98948361211d565b0493336125dc565b811161063b5780610daa6020926126db565b610db681601154611fe6565b6011557fe584f4c1a2f1624163a9abc184bf4b7a205d05032204ef46f06c0b1f6d659b87604080518381524285820152a16001600655604051908152f35b63a84b0dcd60e01b5f5260045ffd5b63e4bac01b60e01b5f5260045ffd5b6325bb239560e21b5f5260045ffd5b346102e0575f3660031901126102e0576005546040516001600160a01b039091168152602090f35b346102e0575f3660031901126102e0576020600c54604051908152f35b346102e05760203660031901126102e057600435610e8261222c565b6127108111610ec45760407f5fc202872c5a7cd0b4e57b020c5f9b016b85ab3ca29cfb204fe46a9e3f391a8791600854908060085582519182526020820152a1005b63648564d360e01b5f5260045ffd5b346102e0575f3660031901126102e0576020600e54604051908152f35b346102e0575f3660031901126102e057610f0861222c565b610f106125c1565b600160ff1960075416176007557f62e78cea01bee320cd4e420270b5ea74000d11b0c9f74754ebdbfc544b05a2586020604051338152a1005b346102e0575f3660031901126102e057610f6161255f565b612710610f78610f6f611ff3565b6008549061211d565b6040516370a0823160e01b81523060048201527f00000000000000000000000000000000000000000000000000000000000000006001600160a01b03169290910490602081602481865afa90811561069b575f91611208575b50818110156111cf57610fe391612110565b6040516370a0823160e01b81523060048201526020816024817f00000000000000000000000000000000000000000000000000000000000000006001600160a01b03165afa801561069b5782915f9161119a575b50101561118b575b505b6040516370a0823160e01b8152306004820152906020826024817f00000000000000000000000000000000000000000000000000000000000000006001600160a01b03165afa91821561069b575f92611156575b50906020602492604051938480926370a0823160e01b82523060048301525afa801561069b575f90611104575b60408051928352602083019190915242908201527f83387a3342ff1ebc5e437dc9ae0f98274afda12a11cf547eebec05a3e0b8f8a79150606090a16001600655005b506020823d60201161114e575b8161111e60209383611fb0565b810103126102e0577f83387a3342ff1ebc5e437dc9ae0f98274afda12a11cf547eebec05a3e0b8f8a791516110c2565b3d9150611111565b91506020823d602011611183575b8161117160209383611fb0565b810103126102e0579051906020611095565b3d9150611164565b61119490612253565b8161103f565b9150506020813d6020116111c7575b816111b660209383611fb0565b810103126102e05781905184611037565b3d91506111a9565b8160011b828104600214831517156106a65781116111ef575b5050611041565b611201916111fc91612110565b6126db565b81806111e8565b90506020813d602011611232575b8161122360209383611fb0565b810103126102e0575183610fd1565b3d9150611216565b346102e05760403660031901126102e05760043567ffffffffffffffff81116102e057366023820112156102e05780600401359067ffffffffffffffff82116102e0573660248360051b830101116102e057611294611f1d565b61129c61222c565b60075460081c6001600160a01b03169081156103fa57600d546040516308d8c03760e21b815260806004820152608481018690529260a48401918491906001600160a01b0316602487015f895b80821061139c5750505f1960248501525060448301526001600160a01b0390931660648201819052926020928290039082905f905af190811561069b575f91611367575b602092507f16c3bcc96c5457e635fa03516bd0d9e0ac0dc9f66a71076c97f865793e44fe44604080518481524286820152a2604051908152f35b90506020823d602011611394575b8161138260209383611fb0565b810103126102e057602091519061132d565b3d9150611375565b9196939593945091928635906001600160a01b03821682036102e05760208091600193848060a01b031681520197019201879496959392916112e9565b346102e0575f3660031901126102e0576113f161222c565b600580546001600160a01b031981169091555f906001600160a01b03167f8be0079c531659141344cd1fd0a4f28419497f9722a3daafe3b4186f6b6457e08280a3005b346102e05760203660031901126102e05760043561145061222c565b61138881116114925760407f607b1c943753982194530bf7133a5972ea2626e028005410efa54ab20035caf891600e549080600e5582519182526020820152a1005b6358d620b360e01b5f5260045ffd5b346102e05760403660031901126102e0576004356114bd611f1d565b6114c561255f565b6114cd6125c1565b81156106ba576009548210610e1257600a548211610e03576001600160a01b038116156103fa5761150082610d61611ff3565b600b5410610df457611511826121ff565b9081156106ba57600c546127100361271081116106a6578284612710610d9061153a948461211d565b811061063b577fe584f4c1a2f1624163a9abc184bf4b7a205d05032204ef46f06c0b1f6d659b8760408361156f6020956126db565b61157b81601154611fe6565b60115581519081524285820152a16001600655604051908152f35b346102e0575f3660031901126102e05760075460405160089190911c6001600160a01b03168152602090f35b346102e0575f3660031901126102e057600d546040516001600160a01b039091168152602090f35b346102e0575f3660031901126102e0576020601454604051908152f35b346102e0575f3660031901126102e0576020600a54604051908152f35b346102e0575f3660031901126102e057602060ff600754166040519015158152f35b346102e05760203660031901126102e0576001600160a01b03611667611f07565b165f525f60205260405f205461167c81612176565b60025490919080156116c657612710820282810461271014831517156106a657610c4e916116a991612130565b604051938493846040919493926060820195825260208201520152565b50610c4e5f6116a9565b346102e05760603660031901126102e0576116e9611f07565b6044356001600160a01b03811691602435908383036102e05761170a61222c565b60ff600754161561175f5783156103fa576001600160a01b0316917f3ab9db27a4cdd8c603a752b62d5fbd93b4b3509fe2596708e9688e42bbac3576916020916117569082908661257f565b604051908152a3005b60405162461bcd60e51b815260206004820152600a602482015269139bdd081c185d5cd95960b21b6044820152606490fd5b611ee9565b346102e0575f3660031901126102e0576020601254604051908152f35b346102e0575f3660031901126102e0576117cb61255f565b5f5f906117dd600f5460105490611fe6565b421061199d576117eb611ff3565b6117fa60115460125490612110565b90818111611818575b60408385600160065582519182526020820152f35b6118229250612110565b600e549182151580611989575b611896575b6040925061184482601354611fe6565b60135542600f557f46eee0760c564660379a99fd69bc8669b19dba864b3053d7dbb597d0cfbfb26683518061188c428587846040919493926060820195825260208201520152565b0390a19183611803565b50906118a5612710918361211d565b0490816118b3575b81611834565b6040516370a0823160e01b8152306004820152917f00000000000000000000000000000000000000000000000000000000000000006001600160a01b0316602084602481845afa93841561069b575f94611955575b508161192c91858260409710611942575b50600d546001600160a01b03169061257f565b61193881601454611fe6565b60145591506118ad565b61065761194f9184612110565b86611919565b93506020843d602011611981575b8161197060209383611fb0565b810103126102e05792519281611908565b3d9150611963565b50600d546001600160a01b0316151561182f565b630cb562bd60e41b5f5260045ffd5b346102e05760203660031901126102e0576004356119c861222c565b6103e88111610ec457600c55005b346102e0575f3660031901126102e0576020600954604051908152f35b346102e0575f3660031901126102e057611a0b61222c565b60075460ff811615611a4a5760ff19166007557f5db9ee0a495bf2e6ff9c91a7834c1ba4fdd244a5e8aa4e537bd38aeae4b073aa6020604051338152a1005b638dfc202b60e01b5f5260045ffd5b346102e05760203660031901126102e057611a7261222c565b600435601055005b346102e0575f3660031901126102e0576040517f00000000000000000000000000000000000000000000000000000000000000006001600160a01b03168152602090f35b346102e0575f3660031901126102e05760ff7f00000000000000000000000000000000000000000000000000000000000000001660ff81116106a657602090604051908152f35b346102e05760603660031901126102e057610879611b21611f07565b611b29611f1d565b60443591611b388333836123ff565b6124a2565b346102e0575f3660031901126102e0576020601354604051908152f35b346102e0575f3660031901126102e057611b7261222c565b60ff600754161561175f576040516370a0823160e01b81523060048201526020816024817f00000000000000000000000000000000000000000000000000000000000000006001600160a01b03165afa90811561069b575f91611be3575b5080611bd857005b611be190612253565b005b90506020813d602011611c0d575b81611bfe60209383611fb0565b810103126102e0575181611bd0565b3d9150611bf1565b346102e05760603660031901126102e0577faa2ef8ba434f2f6bdaad3fcc2d5c35f02b08a47173c94877259407614bc46b55602435600435611c84604435611c5b61222c565b8260095583600a5580600b55604051938493846040919493926060820195825260208201520152565b0390a1005b346102e0575f3660031901126102e0576020600254604051908152f35b346102e0575f3660031901126102e0576020601054604051908152f35b346102e0575f3660031901126102e0576020600854604051908152f35b346102e05760203660031901126102e05760206104966004356121d1565b346102e05760403660031901126102e057611d17611f07565b602435903315611d93576001600160a01b0316908115611d8057335f52600160205260405f20825f526020528060405f20556040519081527f8c5be1e5ebec7d5bd14f71427d1e84f3dd0314c0f7b2291e5b200ac8c7c3b92560203392a3602060405160018152f35b634a1406b160e11b5f525f60045260245ffd5b63e602df0560e01b5f525f60045260245ffd5b346102e0575f3660031901126102e0576040517f00000000000000000000000000000000000000000000000000000000000000006001600160a01b03168152602090f35b346102e0575f3660031901126102e0576040515f6003548060011c90600181168015611e9b575b602083108114610cd457828552908115610cb05750600114611e3d57610c4e83610c4281850382611fb0565b91905060035f527fc2575a0e9e593c00f959f8c92f12db2869c3395a3b0502d05e2516446f71f85b915f905b808210611e8157509091508101602001610c42610c32565b919260018160209254838588010152019101909291611e69565b91607f1691611e11565b346102e0575f3660031901126102e0576020610496611ff3565b602060409281835280519182918282860152018484015e5f828201840152601f01601f1916010190565b346102e05760203660031901126102e0576020610496600435612176565b600435906001600160a01b03821682036102e057565b602435906001600160a01b03821682036102e057565b346102e05760203660031901126102e057611f4c611f07565b5060206040515f198152f35b60609060031901126102e057600435906024356001600160a01b03811681036102e057906044356001600160a01b03811681036102e05790565b346102e05760203660031901126102e05760206104966004356121ff565b90601f8019910116810190811067ffffffffffffffff821117611fd257604052565b634e487b7160e01b5f52604160045260245ffd5b919082018092116106a657565b6040516370a0823160e01b81523060048201526020816024817f00000000000000000000000000000000000000000000000000000000000000006001600160a01b03165afa90811561069b575f916120de575b506040516370a0823160e01b8152306004820152906020826024817f00000000000000000000000000000000000000000000000000000000000000006001600160a01b03165afa90811561069b575f916120a8575b6120a59250611fe6565b90565b90506020823d6020116120d6575b816120c360209383611fb0565b810103126102e0576120a591519061209b565b3d91506120b6565b90506020813d602011612108575b816120f960209383611fb0565b810103126102e057515f612046565b3d91506120ec565b919082039182116106a657565b818102929181159184041417156106a657565b811561213a570490565b634e487b7160e01b5f52601260045260245ffd5b51906001600160801b03821682036102e057565b51906001600160a01b03821682036102e057565b61217e611ff3565b90600182018092116106a657600254600181018091116106a6576120a5925f92612910565b6121ab611ff3565b90600182018092116106a657600254600181018091116106a6576120a592600192612910565b60025490600182018092116106a6576121e8611ff3565b600181018091116106a6576120a592600192612910565b60025490600182018092116106a657612216611ff3565b600181018091116106a6576120a5925f92612910565b6005546001600160a01b0316330361224057565b63118cdaa760e01b5f523360045260245ffd5b80156123fc576040516370a0823160e01b81523060048201526020816024817f00000000000000000000000000000000000000000000000000000000000000006001600160a01b03165afa801561069b5782915f916123c7575b501061238457604051631a4ca37b60e21b81526001600160a01b037f00000000000000000000000000000000000000000000000000000000000000008116600483015260248201839052306044830152909190602090839060649082905f907f0000000000000000000000000000000000000000000000000000000000000000165af15f9281612393575b5061234c5763522cc4ff60e11b5f5260045ffd5b81106123845760407f57501c8e2164a8e257532432c793d9ee7bb35236acd0592a0b029a7f80a2eb5e918151908152426020820152a1565b63bb55fd2760e01b5f5260045ffd5b9092506020813d6020116123bf575b816123af60209383611fb0565b810103126102e05751915f612338565b3d91506123a2565b9150506020813d6020116123f4575b816123e360209383611fb0565b810103126102e0578190515f6122ad565b3d91506123d6565b50565b6001600160a01b039081165f818152600160209081526040808320948616835293905291909120549291905f198410612439575b50505050565b82841061247f578015611d93576001600160a01b03821615611d80575f52600160205260405f209060018060a01b03165f5260205260405f20910390555f808080612433565b508290637dc7a0d960e11b5f5260018060a01b031660045260245260445260645ffd5b6001600160a01b031690811561254c576001600160a01b031691821561253957815f525f60205260405f205481811061252057817fddf252ad1be2c89b69c2b068fc378daa952ba7f163c4a11628f55a4df523b3ef92602092855f525f84520360405f2055845f525f825260405f20818154019055604051908152a3565b8263391434e360e21b5f5260045260245260445260645ffd5b63ec442f0560e01b5f525f60045260245ffd5b634b637e8f60e11b5f525f60045260245ffd5b600260065414612570576002600655565b633ee5aeb560e01b5f5260045ffd5b60405163a9059cbb60e01b60208201526001600160a01b0390921660248301526044808301939093529181526125bf916125ba606483611fb0565b61296e565b565b60ff600754166125cd57565b63d93c066560e01b5f5260045ffd5b6040516323b872dd60e01b60208201526001600160a01b03909116602482018190523060448301526064808301859052825292919061264f90612620608482611fb0565b7f00000000000000000000000000000000000000000000000000000000000000006001600160a01b031661296e565b6001600160a01b0316928315612539577fdcbc1c05240f31ff3ad067ef1ee35ce4997762752e3a095284754544f4c709d79181612690604093600254611fe6565b600255855f525f602052825f20818154019055855f7fddf252ad1be2c89b69c2b068fc378daa952ba7f163c4a11628f55a4df523b3ef60208651858152a382519182526020820152a3565b5f9080156127f9576126fd906127106126f66008548361211d565b0490612110565b80612706575050565b7f00000000000000000000000000000000000000000000000000000000000000006001600160a01b0316803b156102e05760405163617ba03760e01b81527f00000000000000000000000000000000000000000000000000000000000000006001600160a01b03166004820152602481018390523060448201525f6064820181905290918290608490829084905af190816127e4575b506127b05763522cc4ff60e11b8252600482fd5b7fe584f4c1a2f1624163a9abc184bf4b7a205d05032204ef46f06c0b1f6d659b8791506040908151908152426020820152a1565b6127f19193505f90611fb0565b5f915f61279c565b5050565b6001600160a01b038084169590821693909182908786036128ff575b505050841561254c57845f525f60205260405f20548181106128e65791816040927ffbde797d201c681b91056529119e0b02407c7bb96a4a2c75c01fc9667232c8db94885f525f60205203835f205580600254036002555f877fddf252ad1be2c89b69c2b068fc378daa952ba7f163c4a11628f55a4df523b3ef60208651858152a36128cf86837f00000000000000000000000000000000000000000000000000000000000000006001600160a01b031661257f565b825195865260208601526001600160a01b031693a4565b8563391434e360e21b5f5260045260245260445260645ffd5b612908926123ff565b5f8181612819565b929161291d8183866129c6565b92600481101561295a576001809116149182612943575b50506120a59250151590611fe6565b908092501561213a576120a5930915155f80612934565b634e487b7160e01b5f52602160045260245ffd5b905f602091828151910182855af11561069b575f513d6129bd57506001600160a01b0381163b155b61299d5750565b635274afe760e01b5f9081526001600160a01b0391909116600452602490fd5b60011415612996565b90915f198383099280830292838086109503948086039514612a575784831115612a3f5790829109815f0382168092046002816003021880820260020302808202600203028082026002030280820260020302808202600203028091026002030293600183805f03040190848311900302920304170290565b82634e487b715f52156003026011186020526024601cfd5b5050906120a5925061213056fea2646970667358221220c88a064e2ead026610bb36a8266e9b3d8222b4ef224ecdfddd16ad62159eb09764736f6c634300081c0033","linkReferences":{}},"methodIdentifiers":{"AAVE_POOL()":"08a01675","A_TOKEN()":"9ef0159f","allowance(address,address)":"dd62ed3e","approve(address,uint256)":"095ea7b3","asset()":"38d52e0f","balanceOf(address)":"70a08231","claimRewards(address[],address)":"77d5d857","convertToAssets(uint256)":"07a2d13a","convertToShares(uint256)":"c6e6f592","decimals()":"313ce567","deposit(uint256,address)":"6e553f65","emergencyWithdraw(address,uint256,address)":"551512de","emergencyWithdrawFromAave()":"20f7b66d","getCurrentAPY()":"962ca496","getUserPosition(address)":"5b7c2dad","getVaultStats()":"a59aa5a6","harvest()":"4641257d","harvestInterval()":"14dc0ce0","lastHarvest()":"f1a392da","maxDeposit()":"6083e59a","maxDeposit(address)":"402d267d","maxMint(address)":"c63d75b6","maxRedeem(address)":"d905777e","maxSlippage()":"8c04166f","maxTvl()":"9a1815be","maxWithdraw(address)":"ce96cb77","minDeposit()":"41b3d185","mint(uint256,address)":"94bf804d","name()":"06fdde03","owner()":"8da5cb5b","pause()":"8456cb59","paused()":"5c975abb","performanceFee()":"87788782","previewDeposit(uint256)":"ef8b30f7","previewMint(uint256)":"b3d7f6b9","previewRedeem(uint256)":"4cdad506","previewWithdraw(uint256)":"0a28a477","rebalance()":"7d7c2a1c","redeem(uint256,address,address)":"ba087652","renounceOwnership()":"715018a6","reserveRatio()":"0c7d5cd8","rewardsController()":"6bb65f53","setHarvestInterval(uint256)":"38d7aae1","setLimits(uint256,uint256,uint256)":"189ae5f2","setMaxSlippage(uint256)":"43f68a49","setPerformanceFee(uint256)":"70897b23","setReserveRatio(uint256)":"8b4f3b2c","setRewardsController(address)":"bee36bb3","setTreasury(address)":"f0f44260","symbol()":"95d89b41","totalAssets()":"01e1d114","totalDeposited()":"ff50abdc","totalFeesCollected()":"60c6d8ae","totalSupply()":"18160ddd","totalWithdrawn()":"4b319713","totalYieldHarvested()":"22a6619e","transfer(address,uint256)":"a9059cbb","transferFrom(address,address,uint256)":"23b872dd","transferOwnership(address)":"f2fde38b","treasury()":"61d027b3","unpause()":"3f4ba83a","withdraw(uint256,address,address)":"b460af94"},"id":0}