{"abi":[{"type":"constructor","inputs":[{"name":"_baseVault","type":"address","internalType":"address"},{"name":"_selfProtocol","type":"address","internalType":"address"}],"stateMutability":"nonpayable"},{"type":"function","name":"MAX_DEPOSIT","inputs":[],"outputs":[{"name":"","type":"uint256","internalType":"uint256"}],"stateMutability":"view"},{"type":"function","name":"MAX_TVL","inputs":[],"outputs":[{"name":"","type":"uint256","internalType":"uint256"}],"stateMutability":"view"},{"type":"function","name":"MIN_DEPOSIT","inputs":[],"outputs":[{"name":"","type":"uint256","internalType":"uint256"}],"stateMutability":"view"},{"type":"function","name":"aiAgent","inputs":[],"outputs":[{"name":"","type":"address","internalType":"address"}],"stateMutability":"view"},{"type":"function","name":"asset","inputs":[],"outputs":[{"name":"","type":"address","internalType":"contract IERC20"}],"stateMutability":"view"},{"type":"function","name":"balanceOf","inputs":[{"name":"user","type":"address","internalType":"address"}],"outputs":[{"name":"","type":"uint256","internalType":"uint256"}],"stateMutability":"view"},{"type":"function","name":"baseVault","inputs":[],"outputs":[{"name":"","type":"address","internalType":"contract IERC4626"}],"stateMutability":"view"},{"type":"function","name":"changeStrategy","inputs":[{"name":"newStrategy","type":"uint8","internalType":"enum AttestifyVaultWrapper.StrategyType"}],"outputs":[],"stateMutability":"nonpayable"},{"type":"function","name":"deposit","inputs":[{"name":"assets","type":"uint256","internalType":"uint256"},{"name":"receiver","type":"address","internalType":"address"}],"outputs":[{"name":"shares","type":"uint256","internalType":"uint256"}],"stateMutability":"nonpayable"},{"type":"function","name":"deposit","inputs":[{"name":"assets","type":"uint256","internalType":"uint256"}],"outputs":[{"name":"shares","type":"uint256","internalType":"uint256"}],"stateMutability":"nonpayable"},{"type":"function","name":"emergencyWithdraw","inputs":[{"name":"token","type":"address","internalType":"address"},{"name":"amount","type":"uint256","internalType":"uint256"}],"outputs":[],"stateMutability":"nonpayable"},{"type":"function","name":"getCurrentAPY","inputs":[],"outputs":[{"name":"","type":"uint256","internalType":"uint256"}],"stateMutability":"view"},{"type":"function","name":"getEarnings","inputs":[{"name":"user","type":"address","internalType":"address"}],"outputs":[{"name":"","type":"uint256","internalType":"uint256"}],"stateMutability":"view"},{"type":"function","name":"getStrategy","inputs":[{"name":"strategyType","type":"uint8","internalType":"enum AttestifyVaultWrapper.StrategyType"}],"outputs":[{"name":"","type":"tuple","internalType":"struct AttestifyVaultWrapper.Strategy","components":[{"name":"name","type":"string","internalType":"string"},{"name":"description","type":"string","internalType":"string"},{"name":"aaveAllocation","type":"uint8","internalType":"uint8"},{"name":"reserveAllocation","type":"uint8","internalType":"uint8"},{"name":"targetAPY","type":"uint16","internalType":"uint16"},{"name":"riskLevel","type":"uint8","internalType":"uint8"},{"name":"isActive","type":"bool","internalType":"bool"}]}],"stateMutability":"view"},{"type":"function","name":"getUserProfile","inputs":[{"name":"user","type":"address","internalType":"address"}],"outputs":[{"name":"","type":"tuple","internalType":"struct AttestifyVaultWrapper.UserProfile","components":[{"name":"isVerified","type":"bool","internalType":"bool"},{"name":"verifiedAt","type":"uint256","internalType":"uint256"},{"name":"totalDeposited","type":"uint256","internalType":"uint256"},{"name":"totalWithdrawn","type":"uint256","internalType":"uint256"},{"name":"lastActionTime","type":"uint256","internalType":"uint256"},{"name":"userIdentifier","type":"uint256","internalType":"uint256"},{"name":"vaultShares","type":"uint256","internalType":"uint256"}]}],"stateMutability":"view"},{"type":"function","name":"getUserStrategy","inputs":[{"name":"user","type":"address","internalType":"address"}],"outputs":[{"name":"","type":"uint8","internalType":"enum AttestifyVaultWrapper.StrategyType"}],"stateMutability":"view"},{"type":"function","name":"getWrapperStats","inputs":[],"outputs":[{"name":"_totalUsers","type":"uint256","internalType":"uint256"},{"name":"_totalDeposited","type":"uint256","internalType":"uint256"},{"name":"_totalWithdrawn","type":"uint256","internalType":"uint256"},{"name":"vaultTotalAssets","type":"uint256","internalType":"uint256"},{"name":"wrapperShares","type":"uint256","internalType":"uint256"}],"stateMutability":"view"},{"type":"function","name":"isVerified","inputs":[{"name":"user","type":"address","internalType":"address"}],"outputs":[{"name":"","type":"bool","internalType":"bool"}],"stateMutability":"view"},{"type":"function","name":"owner","inputs":[],"outputs":[{"name":"","type":"address","internalType":"address"}],"stateMutability":"view"},{"type":"function","name":"pause","inputs":[],"outputs":[],"stateMutability":"nonpayable"},{"type":"function","name":"paused","inputs":[],"outputs":[{"name":"","type":"bool","internalType":"bool"}],"stateMutability":"view"},{"type":"function","name":"previewDeposit","inputs":[{"name":"assets","type":"uint256","internalType":"uint256"}],"outputs":[{"name":"","type":"uint256","internalType":"uint256"}],"stateMutability":"view"},{"type":"function","name":"previewWithdraw","inputs":[{"name":"assets","type":"uint256","internalType":"uint256"}],"outputs":[{"name":"","type":"uint256","internalType":"uint256"}],"stateMutability":"view"},{"type":"function","name":"redeem","inputs":[{"name":"shares","type":"uint256","internalType":"uint256"}],"outputs":[{"name":"assets","type":"uint256","internalType":"uint256"}],"stateMutability":"nonpayable"},{"type":"function","name":"renounceOwnership","inputs":[],"outputs":[],"stateMutability":"nonpayable"},{"type":"function","name":"selfProtocol","inputs":[],"outputs":[{"name":"","type":"address","internalType":"address"}],"stateMutability":"view"},{"type":"function","name":"setAIAgent","inputs":[{"name":"_aiAgent","type":"address","internalType":"address"}],"outputs":[],"stateMutability":"nonpayable"},{"type":"function","name":"setSelfProtocol","inputs":[{"name":"_selfProtocol","type":"address","internalType":"address"}],"outputs":[],"stateMutability":"nonpayable"},{"type":"function","name":"setTreasury","inputs":[{"name":"_treasury","type":"address","internalType":"address"}],"outputs":[],"stateMutability":"nonpayable"},{"type":"function","name":"strategies","inputs":[{"name":"","type":"uint8","internalType":"enum AttestifyVaultWrapper.StrategyType"}],"outputs":[{"name":"name","type":"string","internalType":"string"},{"name":"description","type":"string","internalType":"string"},{"name":"aaveAllocation","type":"uint8","internalType":"uint8"},{"name":"reserveAllocation","type":"uint8","internalType":"uint8"},{"name":"targetAPY","type":"uint16","internalType":"uint16"},{"name":"riskLevel","type":"uint8","internalType":"uint8"},{"name":"isActive","type":"bool","internalType":"bool"}],"stateMutability":"view"},{"type":"function","name":"totalDeposited","inputs":[],"outputs":[{"name":"","type":"uint256","internalType":"uint256"}],"stateMutability":"view"},{"type":"function","name":"totalUsers","inputs":[],"outputs":[{"name":"","type":"uint256","internalType":"uint256"}],"stateMutability":"view"},{"type":"function","name":"totalWithdrawn","inputs":[],"outputs":[{"name":"","type":"uint256","internalType":"uint256"}],"stateMutability":"view"},{"type":"function","name":"transferOwnership","inputs":[{"name":"newOwner","type":"address","internalType":"address"}],"outputs":[],"stateMutability":"nonpayable"},{"type":"function","name":"treasury","inputs":[],"outputs":[{"name":"","type":"address","internalType":"address"}],"stateMutability":"view"},{"type":"function","name":"unpause","inputs":[],"outputs":[],"stateMutability":"nonpayable"},{"type":"function","name":"updateStrategy","inputs":[{"name":"strategyType","type":"uint8","internalType":"enum AttestifyVaultWrapper.StrategyType"},{"name":"strategy","type":"tuple","internalType":"struct AttestifyVaultWrapper.Strategy","components":[{"name":"name","type":"string","internalType":"string"},{"name":"description","type":"string","internalType":"string"},{"name":"aaveAllocation","type":"uint8","internalType":"uint8"},{"name":"reserveAllocation","type":"uint8","internalType":"uint8"},{"name":"targetAPY","type":"uint16","internalType":"uint16"},{"name":"riskLevel","type":"uint8","internalType":"uint8"},{"name":"isActive","type":"bool","internalType":"bool"}]}],"outputs":[],"stateMutability":"nonpayable"},{"type":"function","name":"userStrategy","inputs":[{"name":"","type":"address","internalType":"address"}],"outputs":[{"name":"","type":"uint8","internalType":"enum AttestifyVaultWrapper.StrategyType"}],"stateMutability":"view"},{"type":"function","name":"users","inputs":[{"name":"","type":"address","internalType":"address"}],"outputs":[{"name":"isVerified","type":"bool","internalType":"bool"},{"name":"verifiedAt","type":"uint256","internalType":"uint256"},{"name":"totalDeposited","type":"uint256","internalType":"uint256"},{"name":"totalWithdrawn","type":"uint256","internalType":"uint256"},{"name":"lastActionTime","type":"uint256","internalType":"uint256"},{"name":"userIdentifier","type":"uint256","internalType":"uint256"},{"name":"vaultShares","type":"uint256","internalType":"uint256"}],"stateMutability":"view"},{"type":"function","name":"verifySelfProof","inputs":[{"name":"proofPayload","type":"bytes","internalType":"bytes"},{"name":"userContextData","type":"bytes","internalType":"bytes"}],"outputs":[],"stateMutability":"nonpayable"},{"type":"function","name":"withdraw","inputs":[{"name":"assets","type":"uint256","internalType":"uint256"}],"outputs":[{"name":"shares","type":"uint256","internalType":"uint256"}],"stateMutability":"nonpayable"},{"type":"event","name":"AIAgentUpdated","inputs":[{"name":"oldAgent","type":"address","indexed":true,"internalType":"address"},{"name":"newAgent","type":"address","indexed":true,"internalType":"address"}],"anonymous":false},{"type":"event","name":"Deposited","inputs":[{"name":"user","type":"address","indexed":true,"internalType":"address"},{"name":"assets","type":"uint256","indexed":false,"internalType":"uint256"},{"name":"shares","type":"uint256","indexed":false,"internalType":"uint256"},{"name":"strategy","type":"uint8","indexed":false,"internalType":"enum AttestifyVaultWrapper.StrategyType"}],"anonymous":false},{"type":"event","name":"OwnershipTransferred","inputs":[{"name":"previousOwner","type":"address","indexed":true,"internalType":"address"},{"name":"newOwner","type":"address","indexed":true,"internalType":"address"}],"anonymous":false},{"type":"event","name":"Paused","inputs":[{"name":"account","type":"address","indexed":false,"internalType":"address"}],"anonymous":false},{"type":"event","name":"SelfProtocolUpdated","inputs":[{"name":"oldProtocol","type":"address","indexed":true,"internalType":"address"},{"name":"newProtocol","type":"address","indexed":true,"internalType":"address"}],"anonymous":false},{"type":"event","name":"StrategyChanged","inputs":[{"name":"user","type":"address","indexed":true,"internalType":"address"},{"name":"oldStrategy","type":"uint8","indexed":false,"internalType":"enum AttestifyVaultWrapper.StrategyType"},{"name":"newStrategy","type":"uint8","indexed":false,"internalType":"enum AttestifyVaultWrapper.StrategyType"}],"anonymous":false},{"type":"event","name":"Unpaused","inputs":[{"name":"account","type":"address","indexed":false,"internalType":"address"}],"anonymous":false},{"type":"event","name":"UserVerified","inputs":[{"name":"user","type":"address","indexed":true,"internalType":"address"},{"name":"userIdentifier","type":"uint256","indexed":false,"internalType":"uint256"},{"name":"timestamp","type":"uint256","indexed":false,"internalType":"uint256"}],"anonymous":false},{"type":"event","name":"Withdrawn","inputs":[{"name":"user","type":"address","indexed":true,"internalType":"address"},{"name":"assets","type":"uint256","indexed":false,"internalType":"uint256"},{"name":"shares","type":"uint256","indexed":false,"internalType":"uint256"}],"anonymous":false},{"type":"error","name":"AlreadyVerified","inputs":[]},{"type":"error","name":"EnforcedPause","inputs":[]},{"type":"error","name":"ExceedsMaxDeposit","inputs":[]},{"type":"error","name":"ExceedsMaxTVL","inputs":[]},{"type":"error","name":"ExpectedPause","inputs":[]},{"type":"error","name":"InsufficientShares","inputs":[]},{"type":"error","name":"InvalidAmount","inputs":[]},{"type":"error","name":"InvalidStrategy","inputs":[]},{"type":"error","name":"NotVerified","inputs":[]},{"type":"error","name":"OwnableInvalidOwner","inputs":[{"name":"owner","type":"address","internalType":"address"}]},{"type":"error","name":"OwnableUnauthorizedAccount","inputs":[{"name":"account","type":"address","internalType":"address"}]},{"type":"error","name":"ReentrancyGuardReentrantCall","inputs":[]},{"type":"error","name":"SafeERC20FailedOperation","inputs":[{"name":"token","type":"address","internalType":"address"}]},{"type":"error","name":"VerificationFailed","inputs":[]},{"type":"error","name":"ZeroAddress","inputs":[]}],"bytecode":{"object":"0x60c08060405234610ce557604081612e57803803809161001f8285610d39565b833981010312610ce55761003e602061003783610d5c565b9201610d5c565b3315610d0b575f8054336001600160a01b0319821681178355604051949290916001600160a01b0316907f8be0079c531659141344cd1fd0a4f28419497f9722a3daafe3b4186f6b6457e09080a3600180556001600160a01b0316918215610cfc5760808390526338d52e0f60e01b8152602081600481865afa908115610cf1575f91610cb3575b506001600160a01b031660a05260028054610100600160a81b03191660089290921b610100600160a81b0316919091179055600480546001600160a01b0319163317905560405161011681610d1e565b604051610124604082610d39565b600c81526b436f6e73657276617469766560a01b602082015281526040519061014e606083610d39565b603682527f31303025204161766520616c6c6f636174696f6e202d20536166657374206f7060208301527f74696f6e207769746820737461626c65207969656c640000000000000000000060408301526020810191825260408101916064835260608201915f83526080810161015e815260a08201916001835260c0810193600185525f8052600760205260405f20915180519060018060401b0382116108c157835490600182811c92168015610ca9575b60208310146108a35781601f849311610c59575b50602090601f8311600114610bf6575f92610beb575b50508160011b915f199060031b1c19161782555b51805160018301916001600160401b0382116108c1578254600181811c91168015610be1575b60208210146108a357601f8111610b9c575b50602090601f8311600114610b335791806002949260ff96945f92610b28575b50508160011b915f199060031b1c19161790555b019551169065ff000000000064ff0000000063ffff000061ff008954985160081b16935160101b16945160201b169451151560281b169465ff0000000000199264ff00000000199163ffffffff191617161716171717905560405161030e81610d1e565b60405161031c604082610d39565b600881526710985b185b98d95960c21b6020820152815260405190610342606083610d39565b602982527f39302520416176652c203130252072657365727665202d2042616c616e636564602083015268040c2e0e0e4dec2c6d60bb1b6040830152602081019182526040810191605a83526060820191600a83526080810161015e815260a08201916003835260c08101936001855260015f52600760205260405f20915180519060018060401b0382116108c157835490600182811c92168015610b1e575b60208310146108a35781601f849311610ace575b50602090601f8311600114610a6b575f92610a60575b50508160011b915f199060031b1c19161782555b51805160018301916001600160401b0382116108c1578254600181811c91168015610a56575b60208210146108a357601f8111610a11575b50602090601f83116001146109a85791806002949260ff96945f9261099d575b50508160011b915f199060031b1c19161790555b019551169065ff000000000064ff0000000063ffff000061ff008954985160081b16935160101b16945160201b169451151560281b169465ff0000000000199264ff00000000199163ffffffff19161716171617171790556040516104f081610d1e565b6040516104fe604082610d39565b600681526508ee4deeee8d60d31b6020820152815260405190610522606083610d39565b602682527f38302520416176652c203230252072657365727665202d2047726f77746820666020830152651bd8dd5cd95960d21b6040830152602081019182526040810191605083526060820191601483526080810161015e815260a08201916005835260c08101936001855260025f52600760205260405f20915180519060018060401b0382116108c157835490600182811c92168015610993575b60208310146108a35781601f849311610943575b50602090601f83116001146108e0575f926108d5575b50508160011b915f199060031b1c19161782555b51805160018301916001600160401b0382116108c1578254600181811c911680156108b7575b60208210146108a357601f811161085e575b50602090601f83116001146107f55791806002949260ff96945f926107ea575b50508160011b915f199060031b1c19161790555b019551169065ff000000000064ff0000000063ffff000061ff008954985160081b16935160101b16945160201b169451151560281b169465ff0000000000199264ff00000000199163ffffffff191617161716171717905560018060a01b0360a051166040519060205f81840163095ea7b360e01b815285602486015281196044860152604485526106fc606486610d39565b84519082855af15f513d826107ce575b505015610789575b60405161208e9081610dc9823960805181818161030e015281816107640152818161095201528181610d22015281816112b901528181611702015281816118d101528181611b3d01528181611df90152611ef9015260a0518181816109e201528181610db80152818161169a01526117f60152f35b6107c16107c6936040519063095ea7b360e01b602083015260248201525f6044820152604481526107bb606482610d39565b82610d70565b610d70565b5f8080610714565b9091506107e25750803b15155b5f8061070c565b6001146107db565b015190505f80610655565b90601f19831691845f52815f20925f5b818110610846575092600192859260ff9896600298961061082e575b505050811b019055610669565b01515f1960f88460031b161c191690555f8080610821565b92936020600181928786015181550195019301610805565b835f5260205f20601f840160051c81019160208510610899575b601f0160051c01905b81811061088e5750610635565b5f8155600101610881565b9091508190610878565b634e487b7160e01b5f52602260045260245ffd5b90607f1690610623565b634e487b7160e01b5f52604160045260245ffd5b015190505f806105e9565b5f8681528281209350601f198516905b81811061092b5750908460019594939210610913575b505050811b0182556105fd565b01515f1960f88460031b161c191690555f8080610906565b929360206001819287860151815501950193016108f0565b909150845f5260205f20601f840160051c81019160208510610989575b90601f859493920160051c01905b81811061097b57506105d3565b5f815584935060010161096e565b9091508190610960565b91607f16916105bf565b015190505f80610478565b90601f19831691845f52815f20925f5b8181106109f9575092600192859260ff989660029896106109e1575b505050811b01905561048c565b01515f1960f88460031b161c191690555f80806109d4565b929360206001819287860151815501950193016109b8565b835f5260205f20601f840160051c81019160208510610a4c575b601f0160051c01905b818110610a415750610458565b5f8155600101610a34565b9091508190610a2b565b90607f1690610446565b015190505f8061040c565b5f8681528281209350601f198516905b818110610ab65750908460019594939210610a9e575b505050811b018255610420565b01515f1960f88460031b161c191690555f8080610a91565b92936020600181928786015181550195019301610a7b565b909150845f5260205f20601f840160051c81019160208510610b14575b90601f859493920160051c01905b818110610b0657506103f6565b5f8155849350600101610af9565b9091508190610aeb565b91607f16916103e2565b015190505f80610296565b90601f19831691845f52815f20925f5b818110610b84575092600192859260ff98966002989610610b6c575b505050811b0190556102aa565b01515f1960f88460031b161c191690555f8080610b5f565b92936020600181928786015181550195019301610b43565b835f5260205f20601f840160051c81019160208510610bd7575b601f0160051c01905b818110610bcc5750610276565b5f8155600101610bbf565b9091508190610bb6565b90607f1690610264565b015190505f8061022a565b5f8681528281209350601f198516905b818110610c415750908460019594939210610c29575b505050811b01825561023e565b01515f1960f88460031b161c191690555f8080610c1c565b92936020600181928786015181550195019301610c06565b909150845f5260205f20601f840160051c81019160208510610c9f575b90601f859493920160051c01905b818110610c915750610214565b5f8155849350600101610c84565b9091508190610c76565b91607f1691610200565b90506020813d602011610ce9575b81610cce60209383610d39565b81010312610ce557610cdf90610d5c565b5f6100c6565b5f80fd5b3d9150610cc1565b6040513d5f823e3d90fd5b63d92e233d60e01b5f5260045ffd5b631e4fbdf760e01b5f525f60045260245ffd5b60e081019081106001600160401b038211176108c157604052565b601f909101601f19168101906001600160401b038211908210176108c157604052565b51906001600160a01b0382168203610ce557565b905f602091828151910182855af115610cf1575f513d610dbf57506001600160a01b0381163b155b610d9f5750565b635274afe760e01b5f9081526001600160a01b0391909116600452602490fd5b60011415610d9856fe6080806040526004361015610012575f80fd5b5f3560e01c9081630a28a47714611b12575080630ffe355c14611a52578063131b9c0414611a2f5780631cfed8851461190057806324fbe226146118bc5780632e1a7d4d146116c957806338d52e0f146116855780633f4ba83a1461161f578063457cf68c146108a55780634b319713146116025780635c975abb146115e057806361d027b3146115b8578063667316e9146115115780636e553f651461140d5780636ebe941b1461139a5780636fa6fb5f1461131e578063705ed273146112f257806370a0823114611266578063715018a61461120f5780638456cb59146111b65780638da5cb5b1461118f57806395ccea6714611113578063962ca496146110f1578063987ee15614611004578063a6d5b73214610fdc578063a87430ba14610f5e578063b6b55f2514610cbb578063b8127fac14610c97578063b9209e3314610c5a578063bff1f9e114610c3d578063d161802b14610a96578063db006a75146108e7578063dc5c7d31146108a5578063dd5967c314610881578063e1e158a51461085f578063e30543b11461073d578063e3fb0eb91461038e578063ef8b30f7146102e0578063f0f4426014610285578063f2fde38b146102005763ff50abdc146101df575f80fd5b346101fc575f3660031901126101fc576020600954604051908152f35b5f80fd5b346101fc5760203660031901126101fc57610219611b7e565b610221611fbf565b6001600160a01b03168015610272575f80546001600160a01b03198116831782556001600160a01b0316907f8be0079c531659141344cd1fd0a4f28419497f9722a3daafe3b4186f6b6457e09080a3005b631e4fbdf760e01b5f525f60045260245ffd5b346101fc5760203660031901126101fc5761029e611b7e565b6102a6611fbf565b6001600160a01b031680156102d1576bffffffffffffffffffffffff60a01b60045416176004555f80f35b63d92e233d60e01b5f5260045ffd5b346101fc5760203660031901126101fc5760405163ef8b30f760e01b815260048035908201526020816024817f00000000000000000000000000000000000000000000000000000000000000006001600160a01b03165afa8015610383575f90610350575b602090604051908152f35b506020813d60201161037b575b8161036a60209383611c44565b810103126101fc5760209051610345565b3d915061035d565b6040513d5f823e3d90fd5b346101fc5760403660031901126101fc5760043560038110156101fc576024359067ffffffffffffffff82116101fc5760e060031983360301126101fc57604051906103d982611c28565b826004013567ffffffffffffffff81116101fc576103fd9060043691860101611d50565b8252602483013567ffffffffffffffff81116101fc576104239060043691860101611d50565b926020830193845261043760448201611d96565b936040840194855261044b60648301611d96565b936060810194855260848301359161ffff831683036101fc576080820192835260c461047960a48601611d96565b9460a0840195865201359485151586036101fc576104a59060c084019687526104a0611fbf565b611bd9565b915180519067ffffffffffffffff821161066b5781906104c58554611bf0565b601f81116106ed575b50602090601f831160011461068a575f9261067f575b50508160011b915f199060031b1c19161782555b518051600183019167ffffffffffffffff821161066b576105198354611bf0565b601f8111610626575b50602090601f83116001146105bd5791806002949260ff96945f926105b2575b50508160011b915f199060031b1c19161790555b019551169065ff000000000064ff0000000063ffff000061ff008954985160081b16935160101b16945160201b169451151560281b169465ff0000000000199264ff00000000199163ffffffff19161716171617171790555f80f35b015190508b80610542565b90601f19831691845f52815f20925f5b81811061060e575092600192859260ff989660029896106105f6575b505050811b019055610556565b01515f1960f88460031b161c191690558b80806105e9565b929360206001819287860151815501950193016105cd565b835f5260205f20601f840160051c81019160208510610661575b601f0160051c01905b8181106106565750610522565b5f8155600101610649565b9091508190610640565b634e487b7160e01b5f52604160045260245ffd5b0151905089806104e4565b5f8681528281209350601f198516905b8181106106d557509084600195949392106106bd575b505050811b0182556104f8565b01515f1960f88460031b161c191690558980806106b0565b9293602060018192878601518155019501930161069a565b909150845f5260205f20601f840160051c81019160208510610733575b90601f859493920160051c01905b81811061072557506104ce565b5f8155849350600101610718565b909150819061070a565b346101fc575f3660031901126101fc57600854600954600a546040516278744560e21b81527f00000000000000000000000000000000000000000000000000000000000000006001600160a01b0316939291602082600481885afa918215610383575f92610828575b506020602495604051968780926370a0823160e01b82523060048301525afa928315610383575f936107f3575b60a095506040519485526020850152604084015260608301526080820152f35b92506020853d602011610820575b8161080e60209383611c44565b810103126101fc5760a09451926107d3565b3d9150610801565b9491506020853d602011610857575b8161084460209383611c44565b810103126101fc579351909360206107a6565b3d9150610837565b346101fc575f3660031901126101fc576020604051670de0b6b3a76400008152f35b346101fc575f3660031901126101fc57602060405169021e19e0c9bab24000008152f35b346101fc5760203660031901126101fc576001600160a01b036108c6611b7e565b165f526006602052602060ff60405f2054166108e56040518092611bb8565bf35b346101fc5760203660031901126101fc57600435610903611f5f565b8015610a8757335f52600560205280600660405f20015410610a7857604051635d043b2960e11b81526004810182905230602482018190526044820152906020826064815f6001600160a01b037f0000000000000000000000000000000000000000000000000000000000000000165af1908115610383575f91610a43575b60209250335f5260058352600660405f200161099f828254611db1565b9055335f5260058352600360405f20016109ba838254611da4565b9055335f526005835242600460405f2001556109d882600a54611da4565b600a55610a0682337f0000000000000000000000000000000000000000000000000000000000000000611f7f565b60405190828252838201527f92ccf450a286a957af52509bc1c9939d1a6a481783e142e41e2499f0bb66ebc660403392a260018055604051908152f35b90506020823d602011610a70575b81610a5e60209383611c44565b810103126101fc576020915190610982565b3d9150610a51565b633999656760e01b5f5260045ffd5b63162908e360e11b5f5260045ffd5b346101fc5760403660031901126101fc5760043567ffffffffffffffff81116101fc57610ac7903690600401611d06565b60243567ffffffffffffffff81116101fc57610ae7903690600401611d06565b5050335f52600560205260ff60405f205416610c2e5760025460081c6001600160a01b031680610bb6575b5050335f8181526005602081815260408084208054600160ff199182168117835542908301559301949094556006905291902080549091169055506008545f198114610ba257600101600855335f526005602052600560405f2001546040519081524260208201527f7e1c6d9e9f71f4c4f9c072bdd7a6eaa673772c6b1f94d93eb000abd65cdcba1260403392a2005b634e487b7160e01b5f52601160045260245ffd5b5f92838093610c056064604051838194602083019763473b057f60e11b8952602060248501528160448501528484013785838284010152601f801991011681010301601f198101835282611c44565b51925af1610c11611ea3565b5015610c1f57808080610b12565b63439cc0cd60e01b5f5260045ffd5b630231faf760e31b5f5260045ffd5b346101fc575f3660031901126101fc576020600854604051908152f35b346101fc5760203660031901126101fc576001600160a01b03610c7b611b7e565b165f526005602052602060ff60405f2054166040519015158152f35b346101fc575f3660031901126101fc57602060405169d3c21bcecceda10000008152f35b346101fc5760203660031901126101fc57600435610cd7611f5f565b610cdf611fe5565b335f52600560205260ff60405f20541615610f4f57670de0b6b3a76400008110610a875769021e19e0c9bab24000008111610f40576040516278744560e21b81527f00000000000000000000000000000000000000000000000000000000000000006001600160a01b03169190602081600481865afa80156103835782915f91610f01575b5069d3c21bcecceda100000091610d7a91611da4565b11610ef25760205f92610ddc6040516323b872dd60e01b8482015233602482015230604482015284606482015260648152610db6608482611c44565b7f0000000000000000000000000000000000000000000000000000000000000000612000565b604460405180958193636e553f6560e01b83528660048401523060248401525af1908115610383575f91610ebd575b60209250335f5260058352600660405f2001610e28838254611da4565b9055335f5260058352600260405f2001610e43828254611da4565b9055335f526005835242600460405f200155610e6181600954611da4565b600955335f5260068352610e8b60ff60405f20541660405192835283858401526040830190611bb8565b7f5df5d723cf2b779a4bc7bbd4fa1082ab1a37397e0d8c408d7b2546c69585ee1560603392a260018055604051908152f35b90506020823d602011610eea575b81610ed860209383611c44565b810103126101fc576020915190610e0b565b3d9150610ecb565b63a84b0dcd60e01b5f5260045ffd5b9150506020813d602011610f38575b81610f1d60209383611c44565b810103126101fc5751819069d3c21bcecceda1000000610d64565b3d9150610f10565b63e4bac01b60e01b5f5260045ffd5b63a95362b560e01b5f5260045ffd5b346101fc5760203660031901126101fc576001600160a01b03610f7f611b7e565b165f52600560205260e060405f2060ff815416906001810154906002810154600382015460048301549160066005850154940154946040519615158752602087015260408601526060850152608084015260a083015260c0820152f35b346101fc575f3660031901126101fc576003546040516001600160a01b039091168152602090f35b346101fc5760203660031901126101fc5761101d611b7e565b5f60c060405161102c81611c28565b8281528260208201528260408201528260608201528260808201528260a0820152015260018060a01b03165f52600560205260e060405f2060405161107081611c28565b60ff825416151591828252600181015460208301908152600282015460408401908152600383015490606085019182526004840154926080860193845260c0600660058701549660a08901978852015496019586526040519687525160208701525160408601525160608501525160808401525160a08301525160c0820152f35b346101fc575f3660031901126101fc57602061110b611ed2565b604051908152f35b346101fc5760403660031901126101fc5761112c611b7e565b611134611fbf565b60ff600254161561115d575f5461115b91602435916001600160a01b039081169116611f7f565b005b60405162461bcd60e51b815260206004820152600a602482015269139bdd081c185d5cd95960b21b6044820152606490fd5b346101fc575f3660031901126101fc575f546040516001600160a01b039091168152602090f35b346101fc575f3660031901126101fc576111ce611fbf565b6111d6611fe5565b600160ff1960025416176002557f62e78cea01bee320cd4e420270b5ea74000d11b0c9f74754ebdbfc544b05a2586020604051338152a1005b346101fc575f3660031901126101fc57611227611fbf565b5f80546001600160a01b0319811682556001600160a01b03167f8be0079c531659141344cd1fd0a4f28419497f9722a3daafe3b4186f6b6457e08280a3005b346101fc5760203660031901126101fc576001600160a01b03611287611b7e565b165f526005602052600660405f200154604051906303d1689d60e11b8252600482015260208160248160018060a01b037f0000000000000000000000000000000000000000000000000000000000000000165afa8015610383575f9061035057602090604051908152f35b346101fc575f3660031901126101fc5760025460405160089190911c6001600160a01b03168152602090f35b346101fc5760203660031901126101fc57611337611b7e565b61133f611fbf565b60028054610100600160a81b03198116600884811b610100600160a81b0316919091179092556001600160a01b0392831692911c167f6420728fd94a75b670c54677bafcd26c016b817fa1b79964d7425dfdbffde01c5f80a3005b346101fc5760203660031901126101fc576113b3611b7e565b6113bb611fbf565b6001600160a01b031680156102d157600380546001600160a01b0319811683179091556001600160a01b03167f0ac42006b88adb1efcf4e9c3898bf1f0ad6b79559ababbfdf9358497d5ccbac25f80a3005b346101fc5760403660031901126101fc576024356001600160a01b038116908190036101fc5761143b611f5f565b611443611fe5565b335f52600560205260ff60405f20541615610f4f5733036114cc5760405163b6b55f2560e01b815260048035908201526020816024815f305af18015610383575f90611499575b60209060018055604051908152f35b506020813d6020116114c4575b816114b360209383611c44565b810103126101fc576020905161148a565b3d91506114a6565b60405162461bcd60e51b815260206004820152601760248201527f5265636569766572206d7573742062652073656e6465720000000000000000006044820152606490fd5b346101fc5760203660031901126101fc5760043560038110156101fc5761153a61156f91611bd9565b61154381611c66565b9060ff61157d600261155760018501611c66565b9301549260405195869560e0875260e0870190611b94565b908582036020870152611b94565b918181166040850152818160081c16606085015261ffff8160101c166080850152818160201c1660a085015260281c16151560c08301520390f35b346101fc575f3660031901126101fc576004546040516001600160a01b039091168152602090f35b346101fc575f3660031901126101fc57602060ff600254166040519015158152f35b346101fc575f3660031901126101fc576020600a54604051908152f35b346101fc575f3660031901126101fc57611637611fbf565b60025460ff8116156116765760ff19166002557f5db9ee0a495bf2e6ff9c91a7834c1ba4fdd244a5e8aa4e537bd38aeae4b073aa6020604051338152a1005b638dfc202b60e01b5f5260045ffd5b346101fc575f3660031901126101fc576040517f00000000000000000000000000000000000000000000000000000000000000006001600160a01b03168152602090f35b346101fc5760203660031901126101fc576004356116e5611f5f565b8015610a8757604051630a28a47760e01b815260048101919091527f00000000000000000000000000000000000000000000000000000000000000006001600160a01b031690602081602481855afa908115610383575f9161188a575b50335f52600560205280600660405f20015410610a7857604051635d043b2960e11b8152600481018290523060248201819052604482015291602090839060649082905f905af18015610383575f90611857575b60209250335f5260058352600660405f20016117b3838254611db1565b9055335f5260058352600360405f20016117ce828254611da4565b9055335f526005835242600460405f2001556117ec81600a54611da4565b600a5561181a81337f0000000000000000000000000000000000000000000000000000000000000000611f7f565b60405190815281838201527f92ccf450a286a957af52509bc1c9939d1a6a481783e142e41e2499f0bb66ebc660403392a260018055604051908152f35b506020823d602011611882575b8161187160209383611c44565b810103126101fc5760209151611796565b3d9150611864565b90506020813d6020116118b4575b816118a560209383611c44565b810103126101fc575182611742565b3d9150611898565b346101fc575f3660031901126101fc576040517f00000000000000000000000000000000000000000000000000000000000000006001600160a01b03168152602090f35b346101fc5760203660031901126101fc5760043560038110156101fc5761195d610100915f60c060405161193381611c28565b60608152606060208201528260408201528260608201528260808201528260a08201520152611bd9565b6040519061196a82611c28565b61197381611c66565b8252600261198360018301611c66565b9160208401928352015460ff6040840192818316845261ffff60608601838560081c168152836080880191838760101c16835281611a0660a08b0196828a60201c1688528260c08d019a60281c1615158a526119f3604051809e819e60208352519160e060208201520190611b94565b90518c8203601f190160408e0152611b94565b98511660608a015251166080880152511660a0860152511660c084015251151560e08301520390f35b346101fc5760203660031901126101fc57602061110b611a4d611b7e565b611dbe565b346101fc5760203660031901126101fc5760043560038110156101fc57335f52600560205260ff60405f20541615610f4f5760ff6002611a9183611bd9565b015460281c1615611b0357335f9081526006602052604090819020805460ff84811660ff19831617909255915192611adb929091611ad191859116611bb8565b6020830190611bb8565b7f7b849fd02893af4f5628708e216ebbf2d0f6929320cf7370d5cc08852202cf5a60403392a2005b632711b74d60e11b5f5260045ffd5b346101fc5760203660031901126101fc57630a28a47760e01b815260048035908201526020816024817f00000000000000000000000000000000000000000000000000000000000000006001600160a01b03165afa8015610383575f9061035057602090604051908152f35b600435906001600160a01b03821682036101fc57565b805180835260209291819084018484015e5f828201840152601f01601f1916010190565b906003821015611bc55752565b634e487b7160e01b5f52602160045260245ffd5b6003811015611bc5575f52600760205260405f2090565b90600182811c92168015611c1e575b6020831014611c0a57565b634e487b7160e01b5f52602260045260245ffd5b91607f1691611bff565b60e0810190811067ffffffffffffffff82111761066b57604052565b90601f8019910116810190811067ffffffffffffffff82111761066b57604052565b9060405191825f825492611c7984611bf0565b8084529360018116908115611ce45750600114611ca0575b50611c9e92500383611c44565b565b90505f9291925260205f20905f915b818310611cc8575050906020611c9e928201015f611c91565b6020919350806001915483858901015201910190918492611caf565b905060209250611c9e94915060ff191682840152151560051b8201015f611c91565b9181601f840112156101fc5782359167ffffffffffffffff83116101fc57602083818601950101116101fc57565b67ffffffffffffffff811161066b57601f01601f191660200190565b81601f820112156101fc57803590611d6782611d34565b92611d756040519485611c44565b828452602083830101116101fc57815f926020809301838601378301015290565b359060ff821682036101fc57565b91908201809211610ba257565b91908203918211610ba257565b60018060a01b0316805f526005602052600660405f20015490604051916303d1689d60e11b8352600483015260208260248160018060a01b037f0000000000000000000000000000000000000000000000000000000000000000165afa918215610383575f92611e6f575b505f90815260056020526040902060028101546003909101549181611e4e8483611da4565b11611e5a575050505f90565b611e6c92611e6791611da4565b611db1565b90565b9091506020813d602011611e9b575b81611e8b60209383611c44565b810103126101fc5751905f611e29565b3d9150611e7e565b3d15611ecd573d90611eb482611d34565b91611ec26040519384611c44565b82523d5f602084013e565b606090565b5f806040516020810190634b16524b60e11b825260048152611ef5602482611c44565b51907f00000000000000000000000000000000000000000000000000000000000000006001600160a01b03165afa611f2b611ea3565b9080611f55575b611f3d575061015e90565b602081519181808201938492010103126101fc575190565b5080511515611f32565b600260015414611f70576002600155565b633ee5aeb560e01b5f5260045ffd5b60405163a9059cbb60e01b60208201526001600160a01b039092166024830152604480830193909352918152611c9e91611fba606483611c44565b612000565b5f546001600160a01b03163303611fd257565b63118cdaa760e01b5f523360045260245ffd5b60ff60025416611ff157565b63d93c066560e01b5f5260045ffd5b905f602091828151910182855af115610383575f513d61204f57506001600160a01b0381163b155b61202f5750565b635274afe760e01b5f9081526001600160a01b0391909116600452602490fd5b6001141561202856fea264697066735822122084e294b2cd8d62b4d330f716d5a9544e80a57dc78baa8a870434ae7579dc629964736f6c634300081c0033","linkReferences":{}},"methodIdentifiers":{"MAX_DEPOSIT()":"dd5967c3","MAX_TVL()":"b8127fac","MIN_DEPOSIT()":"e1e158a5","aiAgent()":"a6d5b732","asset()":"38d52e0f","balanceOf(address)":"70a08231","baseVault()":"24fbe226","changeStrategy(uint8)":"0ffe355c","deposit(uint256)":"b6b55f25","deposit(uint256,address)":"6e553f65","emergencyWithdraw(address,uint256)":"95ccea67","getCurrentAPY()":"962ca496","getEarnings(address)":"131b9c04","getStrategy(uint8)":"1cfed885","getUserProfile(address)":"987ee156","getUserStrategy(address)":"dc5c7d31","getWrapperStats()":"e30543b1","isVerified(address)":"b9209e33","owner()":"8da5cb5b","pause()":"8456cb59","paused()":"5c975abb","previewDeposit(uint256)":"ef8b30f7","previewWithdraw(uint256)":"0a28a477","redeem(uint256)":"db006a75","renounceOwnership()":"715018a6","selfProtocol()":"705ed273","setAIAgent(address)":"6ebe941b","setSelfProtocol(address)":"6fa6fb5f","setTreasury(address)":"f0f44260","strategies(uint8)":"667316e9","totalDeposited()":"ff50abdc","totalUsers()":"bff1f9e1","totalWithdrawn()":"4b319713","transferOwnership(address)":"f2fde38b","treasury()":"61d027b3","unpause()":"3f4ba83a","updateStrategy(uint8,(string,string,uint8,uint8,uint16,uint8,bool))":"e3fb0eb9","userStrategy(address)":"457cf68c","users(address)":"a87430ba","verifySelfProof(bytes,bytes)":"d161802b","withdraw(uint256)":"2e1a7d4d"},"id":1}