{
  "_format": "hh3-artifact-1",
  "contractName": "AttestifyAaveVault",
  "sourceName": "contracts/AttestifyVault.sol",
  "abi": [
    {
      "inputs": [
        {
          "internalType": "contract IERC20",
          "name": "_asset",
          "type": "address"
        },
        {
          "internalType": "address",
          "name": "_aToken",
          "type": "address"
        },
        {
          "internalType": "address",
          "name": "_aavePool",
          "type": "address"
        }
      ],
      "stateMutability": "nonpayable",
      "type": "constructor"
    },
    {
      "inputs": [
        {
          "internalType": "address",
          "name": "spender",
          "type": "address"
        },
        {
          "internalType": "uint256",
          "name": "allowance",
          "type": "uint256"
        },
        {
          "internalType": "uint256",
          "name": "needed",
          "type": "uint256"
        }
      ],
      "name": "ERC20InsufficientAllowance",
      "type": "error"
    },
    {
      "inputs": [
        {
          "internalType": "address",
          "name": "sender",
          "type": "address"
        },
        {
          "internalType": "uint256",
          "name": "balance",
          "type": "uint256"
        },
        {
          "internalType": "uint256",
          "name": "needed",
          "type": "uint256"
        }
      ],
      "name": "ERC20InsufficientBalance",
      "type": "error"
    },
    {
      "inputs": [
        {
          "internalType": "address",
          "name": "approver",
          "type": "address"
        }
      ],
      "name": "ERC20InvalidApprover",
      "type": "error"
    },
    {
      "inputs": [
        {
          "internalType": "address",
          "name": "receiver",
          "type": "address"
        }
      ],
      "name": "ERC20InvalidReceiver",
      "type": "error"
    },
    {
      "inputs": [
        {
          "internalType": "address",
          "name": "sender",
          "type": "address"
        }
      ],
      "name": "ERC20InvalidSender",
      "type": "error"
    },
    {
      "inputs": [
        {
          "internalType": "address",
          "name": "spender",
          "type": "address"
        }
      ],
      "name": "ERC20InvalidSpender",
      "type": "error"
    },
    {
      "inputs": [
        {
          "internalType": "address",
          "name": "receiver",
          "type": "address"
        },
        {
          "internalType": "uint256",
          "name": "assets",
          "type": "uint256"
        },
        {
          "internalType": "uint256",
          "name": "max",
          "type": "uint256"
        }
      ],
      "name": "ERC4626ExceededMaxDeposit",
      "type": "error"
    },
    {
      "inputs": [
        {
          "internalType": "address",
          "name": "receiver",
          "type": "address"
        },
        {
          "internalType": "uint256",
          "name": "shares",
          "type": "uint256"
        },
        {
          "internalType": "uint256",
          "name": "max",
          "type": "uint256"
        }
      ],
      "name": "ERC4626ExceededMaxMint",
      "type": "error"
    },
    {
      "inputs": [
        {
          "internalType": "address",
          "name": "owner",
          "type": "address"
        },
        {
          "internalType": "uint256",
          "name": "shares",
          "type": "uint256"
        },
        {
          "internalType": "uint256",
          "name": "max",
          "type": "uint256"
        }
      ],
      "name": "ERC4626ExceededMaxRedeem",
      "type": "error"
    },
    {
      "inputs": [
        {
          "internalType": "address",
          "name": "owner",
          "type": "address"
        },
        {
          "internalType": "uint256",
          "name": "assets",
          "type": "uint256"
        },
        {
          "internalType": "uint256",
          "name": "max",
          "type": "uint256"
        }
      ],
      "name": "ERC4626ExceededMaxWithdraw",
      "type": "error"
    },
    {
      "inputs": [],
      "name": "EnforcedPause",
      "type": "error"
    },
    {
      "inputs": [],
      "name": "ExceedsTVLLimit",
      "type": "error"
    },
    {
      "inputs": [],
      "name": "ExceedsUserLimit",
      "type": "error"
    },
    {
      "inputs": [],
      "name": "ExpectedPause",
      "type": "error"
    },
    {
      "inputs": [],
      "name": "InsufficientLiquidity",
      "type": "error"
    },
    {
      "inputs": [],
      "name": "InvalidAmount",
      "type": "error"
    },
    {
      "inputs": [],
      "name": "NotVerified",
      "type": "error"
    },
    {
      "inputs": [
        {
          "internalType": "address",
          "name": "owner",
          "type": "address"
        }
      ],
      "name": "OwnableInvalidOwner",
      "type": "error"
    },
    {
      "inputs": [
        {
          "internalType": "address",
          "name": "account",
          "type": "address"
        }
      ],
      "name": "OwnableUnauthorizedAccount",
      "type": "error"
    },
    {
      "inputs": [],
      "name": "ReentrancyGuardReentrantCall",
      "type": "error"
    },
    {
      "inputs": [
        {
          "internalType": "address",
          "name": "token",
          "type": "address"
        }
      ],
      "name": "SafeERC20FailedOperation",
      "type": "error"
    },
    {
      "inputs": [],
      "name": "ZeroAddress",
      "type": "error"
    },
    {
      "inputs": [],
      "name": "ZeroAssets",
      "type": "error"
    },
    {
      "inputs": [],
      "name": "ZeroShares",
      "type": "error"
    },
    {
      "anonymous": false,
      "inputs": [
        {
          "indexed": true,
          "internalType": "address",
          "name": "owner",
          "type": "address"
        },
        {
          "indexed": true,
          "internalType": "address",
          "name": "spender",
          "type": "address"
        },
        {
          "indexed": false,
          "internalType": "uint256",
          "name": "value",
          "type": "uint256"
        }
      ],
      "name": "Approval",
      "type": "event"
    },
    {
      "anonymous": false,
      "inputs": [
        {
          "indexed": true,
          "internalType": "address",
          "name": "sender",
          "type": "address"
        },
        {
          "indexed": true,
          "internalType": "address",
          "name": "owner",
          "type": "address"
        },
        {
          "indexed": false,
          "internalType": "uint256",
          "name": "assets",
          "type": "uint256"
        },
        {
          "indexed": false,
          "internalType": "uint256",
          "name": "shares",
          "type": "uint256"
        }
      ],
      "name": "Deposit",
      "type": "event"
    },
    {
      "anonymous": false,
      "inputs": [
        {
          "indexed": true,
          "internalType": "address",
          "name": "previousOwner",
          "type": "address"
        },
        {
          "indexed": true,
          "internalType": "address",
          "name": "newOwner",
          "type": "address"
        }
      ],
      "name": "OwnershipTransferred",
      "type": "event"
    },
    {
      "anonymous": false,
      "inputs": [
        {
          "indexed": false,
          "internalType": "address",
          "name": "account",
          "type": "address"
        }
      ],
      "name": "Paused",
      "type": "event"
    },
    {
      "anonymous": false,
      "inputs": [
        {
          "indexed": true,
          "internalType": "address",
          "name": "user",
          "type": "address"
        },
        {
          "indexed": false,
          "internalType": "enum AttestifyAaveVault.StrategyType",
          "name": "oldStrategy",
          "type": "uint8"
        },
        {
          "indexed": false,
          "internalType": "enum AttestifyAaveVault.StrategyType",
          "name": "newStrategy",
          "type": "uint8"
        }
      ],
      "name": "StrategyChanged",
      "type": "event"
    },
    {
      "anonymous": false,
      "inputs": [
        {
          "indexed": false,
          "internalType": "uint256",
          "name": "amount",
          "type": "uint256"
        },
        {
          "indexed": false,
          "internalType": "uint256",
          "name": "timestamp",
          "type": "uint256"
        }
      ],
      "name": "SuppliedToAave",
      "type": "event"
    },
    {
      "anonymous": false,
      "inputs": [
        {
          "indexed": true,
          "internalType": "address",
          "name": "from",
          "type": "address"
        },
        {
          "indexed": true,
          "internalType": "address",
          "name": "to",
          "type": "address"
        },
        {
          "indexed": false,
          "internalType": "uint256",
          "name": "value",
          "type": "uint256"
        }
      ],
      "name": "Transfer",
      "type": "event"
    },
    {
      "anonymous": false,
      "inputs": [
        {
          "indexed": false,
          "internalType": "address",
          "name": "account",
          "type": "address"
        }
      ],
      "name": "Unpaused",
      "type": "event"
    },
    {
      "anonymous": false,
      "inputs": [
        {
          "indexed": true,
          "internalType": "address",
          "name": "user",
          "type": "address"
        },
        {
          "indexed": false,
          "internalType": "uint256",
          "name": "userIdentifier",
          "type": "uint256"
        },
        {
          "indexed": false,
          "internalType": "uint256",
          "name": "timestamp",
          "type": "uint256"
        }
      ],
      "name": "UserVerified",
      "type": "event"
    },
    {
      "anonymous": false,
      "inputs": [
        {
          "indexed": false,
          "internalType": "uint256",
          "name": "aaveBalance",
          "type": "uint256"
        },
        {
          "indexed": false,
          "internalType": "uint256",
          "name": "reserveBalance",
          "type": "uint256"
        },
        {
          "indexed": false,
          "internalType": "uint256",
          "name": "timestamp",
          "type": "uint256"
        }
      ],
      "name": "VaultRebalanced",
      "type": "event"
    },
    {
      "anonymous": false,
      "inputs": [
        {
          "indexed": true,
          "internalType": "address",
          "name": "sender",
          "type": "address"
        },
        {
          "indexed": true,
          "internalType": "address",
          "name": "receiver",
          "type": "address"
        },
        {
          "indexed": true,
          "internalType": "address",
          "name": "owner",
          "type": "address"
        },
        {
          "indexed": false,
          "internalType": "uint256",
          "name": "assets",
          "type": "uint256"
        },
        {
          "indexed": false,
          "internalType": "uint256",
          "name": "shares",
          "type": "uint256"
        }
      ],
      "name": "Withdraw",
      "type": "event"
    },
    {
      "anonymous": false,
      "inputs": [
        {
          "indexed": false,
          "internalType": "uint256",
          "name": "amount",
          "type": "uint256"
        },
        {
          "indexed": false,
          "internalType": "uint256",
          "name": "timestamp",
          "type": "uint256"
        }
      ],
      "name": "WithdrawnFromAave",
      "type": "event"
    },
    {
      "inputs": [],
      "name": "MAX_DEPOSIT_PER_USER",
      "outputs": [
        {
          "internalType": "uint256",
          "name": "",
          "type": "uint256"
        }
      ],
      "stateMutability": "view",
      "type": "function"
    },
    {
      "inputs": [],
      "name": "MAX_TOTAL_ASSETS",
      "outputs": [
        {
          "internalType": "uint256",
          "name": "",
          "type": "uint256"
        }
      ],
      "stateMutability": "view",
      "type": "function"
    },
    {
      "inputs": [],
      "name": "MIN_DEPOSIT",
      "outputs": [
        {
          "internalType": "uint256",
          "name": "",
          "type": "uint256"
        }
      ],
      "stateMutability": "view",
      "type": "function"
    },
    {
      "inputs": [],
      "name": "aToken",
      "outputs": [
        {
          "internalType": "contract IAToken",
          "name": "",
          "type": "address"
        }
      ],
      "stateMutability": "view",
      "type": "function"
    },
    {
      "inputs": [],
      "name": "aavePool",
      "outputs": [
        {
          "internalType": "contract IPool",
          "name": "",
          "type": "address"
        }
      ],
      "stateMutability": "view",
      "type": "function"
    },
    {
      "inputs": [],
      "name": "aiAgent",
      "outputs": [
        {
          "internalType": "address",
          "name": "",
          "type": "address"
        }
      ],
      "stateMutability": "view",
      "type": "function"
    },
    {
      "inputs": [
        {
          "internalType": "address",
          "name": "owner",
          "type": "address"
        },
        {
          "internalType": "address",
          "name": "spender",
          "type": "address"
        }
      ],
      "name": "allowance",
      "outputs": [
        {
          "internalType": "uint256",
          "name": "",
          "type": "uint256"
        }
      ],
      "stateMutability": "view",
      "type": "function"
    },
    {
      "inputs": [
        {
          "internalType": "address",
          "name": "spender",
          "type": "address"
        },
        {
          "internalType": "uint256",
          "name": "value",
          "type": "uint256"
        }
      ],
      "name": "approve",
      "outputs": [
        {
          "internalType": "bool",
          "name": "",
          "type": "bool"
        }
      ],
      "stateMutability": "nonpayable",
      "type": "function"
    },
    {
      "inputs": [],
      "name": "asset",
      "outputs": [
        {
          "internalType": "address",
          "name": "",
          "type": "address"
        }
      ],
      "stateMutability": "view",
      "type": "function"
    },
    {
      "inputs": [
        {
          "internalType": "address",
          "name": "account",
          "type": "address"
        }
      ],
      "name": "balanceOf",
      "outputs": [
        {
          "internalType": "uint256",
          "name": "",
          "type": "uint256"
        }
      ],
      "stateMutability": "view",
      "type": "function"
    },
    {
      "inputs": [
        {
          "internalType": "enum AttestifyAaveVault.StrategyType",
          "name": "newStrategy",
          "type": "uint8"
        }
      ],
      "name": "changeStrategy",
      "outputs": [],
      "stateMutability": "nonpayable",
      "type": "function"
    },
    {
      "inputs": [
        {
          "internalType": "uint256",
          "name": "shares",
          "type": "uint256"
        }
      ],
      "name": "convertToAssets",
      "outputs": [
        {
          "internalType": "uint256",
          "name": "",
          "type": "uint256"
        }
      ],
      "stateMutability": "view",
      "type": "function"
    },
    {
      "inputs": [
        {
          "internalType": "uint256",
          "name": "assets",
          "type": "uint256"
        }
      ],
      "name": "convertToShares",
      "outputs": [
        {
          "internalType": "uint256",
          "name": "",
          "type": "uint256"
        }
      ],
      "stateMutability": "view",
      "type": "function"
    },
    {
      "inputs": [],
      "name": "decimals",
      "outputs": [
        {
          "internalType": "uint8",
          "name": "",
          "type": "uint8"
        }
      ],
      "stateMutability": "view",
      "type": "function"
    },
    {
      "inputs": [
        {
          "internalType": "uint256",
          "name": "assets",
          "type": "uint256"
        },
        {
          "internalType": "address",
          "name": "receiver",
          "type": "address"
        }
      ],
      "name": "deposit",
      "outputs": [
        {
          "internalType": "uint256",
          "name": "shares",
          "type": "uint256"
        }
      ],
      "stateMutability": "nonpayable",
      "type": "function"
    },
    {
      "inputs": [
        {
          "internalType": "address",
          "name": "token",
          "type": "address"
        },
        {
          "internalType": "uint256",
          "name": "amount",
          "type": "uint256"
        }
      ],
      "name": "emergencyWithdraw",
      "outputs": [],
      "stateMutability": "nonpayable",
      "type": "function"
    },
    {
      "inputs": [],
      "name": "getCurrentAPY",
      "outputs": [
        {
          "internalType": "uint256",
          "name": "",
          "type": "uint256"
        }
      ],
      "stateMutability": "pure",
      "type": "function"
    },
    {
      "inputs": [
        {
          "internalType": "address",
          "name": "user",
          "type": "address"
        }
      ],
      "name": "getUserEarnings",
      "outputs": [
        {
          "internalType": "uint256",
          "name": "",
          "type": "uint256"
        }
      ],
      "stateMutability": "view",
      "type": "function"
    },
    {
      "inputs": [],
      "name": "getVaultStats",
      "outputs": [
        {
          "internalType": "uint256",
          "name": "_totalAssets",
          "type": "uint256"
        },
        {
          "internalType": "uint256",
          "name": "_totalSupply",
          "type": "uint256"
        },
        {
          "internalType": "uint256",
          "name": "reserveBalance",
          "type": "uint256"
        },
        {
          "internalType": "uint256",
          "name": "aaveBalance",
          "type": "uint256"
        },
        {
          "internalType": "uint256",
          "name": "_totalDeposited",
          "type": "uint256"
        },
        {
          "internalType": "uint256",
          "name": "_totalWithdrawn",
          "type": "uint256"
        },
        {
          "internalType": "uint256",
          "name": "sharePrice",
          "type": "uint256"
        }
      ],
      "stateMutability": "view",
      "type": "function"
    },
    {
      "inputs": [
        {
          "internalType": "address",
          "name": "user",
          "type": "address"
        }
      ],
      "name": "isVerified",
      "outputs": [
        {
          "internalType": "bool",
          "name": "",
          "type": "bool"
        }
      ],
      "stateMutability": "view",
      "type": "function"
    },
    {
      "inputs": [],
      "name": "lastRebalanceTime",
      "outputs": [
        {
          "internalType": "uint256",
          "name": "",
          "type": "uint256"
        }
      ],
      "stateMutability": "view",
      "type": "function"
    },
    {
      "inputs": [
        {
          "internalType": "address",
          "name": "receiver",
          "type": "address"
        }
      ],
      "name": "maxDeposit",
      "outputs": [
        {
          "internalType": "uint256",
          "name": "",
          "type": "uint256"
        }
      ],
      "stateMutability": "view",
      "type": "function"
    },
    {
      "inputs": [
        {
          "internalType": "address",
          "name": "receiver",
          "type": "address"
        }
      ],
      "name": "maxMint",
      "outputs": [
        {
          "internalType": "uint256",
          "name": "",
          "type": "uint256"
        }
      ],
      "stateMutability": "view",
      "type": "function"
    },
    {
      "inputs": [
        {
          "internalType": "address",
          "name": "owner",
          "type": "address"
        }
      ],
      "name": "maxRedeem",
      "outputs": [
        {
          "internalType": "uint256",
          "name": "",
          "type": "uint256"
        }
      ],
      "stateMutability": "view",
      "type": "function"
    },
    {
      "inputs": [
        {
          "internalType": "address",
          "name": "owner",
          "type": "address"
        }
      ],
      "name": "maxWithdraw",
      "outputs": [
        {
          "internalType": "uint256",
          "name": "",
          "type": "uint256"
        }
      ],
      "stateMutability": "view",
      "type": "function"
    },
    {
      "inputs": [
        {
          "internalType": "uint256",
          "name": "shares",
          "type": "uint256"
        },
        {
          "internalType": "address",
          "name": "receiver",
          "type": "address"
        }
      ],
      "name": "mint",
      "outputs": [
        {
          "internalType": "uint256",
          "name": "assets",
          "type": "uint256"
        }
      ],
      "stateMutability": "nonpayable",
      "type": "function"
    },
    {
      "inputs": [],
      "name": "name",
      "outputs": [
        {
          "internalType": "string",
          "name": "",
          "type": "string"
        }
      ],
      "stateMutability": "view",
      "type": "function"
    },
    {
      "inputs": [],
      "name": "owner",
      "outputs": [
        {
          "internalType": "address",
          "name": "",
          "type": "address"
        }
      ],
      "stateMutability": "view",
      "type": "function"
    },
    {
      "inputs": [],
      "name": "pause",
      "outputs": [],
      "stateMutability": "nonpayable",
      "type": "function"
    },
    {
      "inputs": [],
      "name": "paused",
      "outputs": [
        {
          "internalType": "bool",
          "name": "",
          "type": "bool"
        }
      ],
      "stateMutability": "view",
      "type": "function"
    },
    {
      "inputs": [
        {
          "internalType": "uint256",
          "name": "assets",
          "type": "uint256"
        }
      ],
      "name": "previewDeposit",
      "outputs": [
        {
          "internalType": "uint256",
          "name": "",
          "type": "uint256"
        }
      ],
      "stateMutability": "view",
      "type": "function"
    },
    {
      "inputs": [
        {
          "internalType": "uint256",
          "name": "shares",
          "type": "uint256"
        }
      ],
      "name": "previewMint",
      "outputs": [
        {
          "internalType": "uint256",
          "name": "",
          "type": "uint256"
        }
      ],
      "stateMutability": "view",
      "type": "function"
    },
    {
      "inputs": [
        {
          "internalType": "uint256",
          "name": "shares",
          "type": "uint256"
        }
      ],
      "name": "previewRedeem",
      "outputs": [
        {
          "internalType": "uint256",
          "name": "",
          "type": "uint256"
        }
      ],
      "stateMutability": "view",
      "type": "function"
    },
    {
      "inputs": [
        {
          "internalType": "uint256",
          "name": "assets",
          "type": "uint256"
        }
      ],
      "name": "previewWithdraw",
      "outputs": [
        {
          "internalType": "uint256",
          "name": "",
          "type": "uint256"
        }
      ],
      "stateMutability": "view",
      "type": "function"
    },
    {
      "inputs": [],
      "name": "rebalance",
      "outputs": [],
      "stateMutability": "nonpayable",
      "type": "function"
    },
    {
      "inputs": [
        {
          "internalType": "uint256",
          "name": "shares",
          "type": "uint256"
        },
        {
          "internalType": "address",
          "name": "receiver",
          "type": "address"
        },
        {
          "internalType": "address",
          "name": "owner",
          "type": "address"
        }
      ],
      "name": "redeem",
      "outputs": [
        {
          "internalType": "uint256",
          "name": "assets",
          "type": "uint256"
        }
      ],
      "stateMutability": "nonpayable",
      "type": "function"
    },
    {
      "inputs": [],
      "name": "renounceOwnership",
      "outputs": [],
      "stateMutability": "nonpayable",
      "type": "function"
    },
    {
      "inputs": [
        {
          "internalType": "address",
          "name": "_aiAgent",
          "type": "address"
        }
      ],
      "name": "setAIAgent",
      "outputs": [],
      "stateMutability": "nonpayable",
      "type": "function"
    },
    {
      "inputs": [
        {
          "internalType": "address",
          "name": "_treasury",
          "type": "address"
        }
      ],
      "name": "setTreasury",
      "outputs": [],
      "stateMutability": "nonpayable",
      "type": "function"
    },
    {
      "inputs": [
        {
          "internalType": "enum AttestifyAaveVault.StrategyType",
          "name": "",
          "type": "uint8"
        }
      ],
      "name": "strategies",
      "outputs": [
        {
          "internalType": "string",
          "name": "name",
          "type": "string"
        },
        {
          "internalType": "uint8",
          "name": "aaveAllocation",
          "type": "uint8"
        },
        {
          "internalType": "uint8",
          "name": "reserveAllocation",
          "type": "uint8"
        },
        {
          "internalType": "uint16",
          "name": "targetAPY",
          "type": "uint16"
        },
        {
          "internalType": "uint8",
          "name": "riskLevel",
          "type": "uint8"
        },
        {
          "internalType": "bool",
          "name": "isActive",
          "type": "bool"
        }
      ],
      "stateMutability": "view",
      "type": "function"
    },
    {
      "inputs": [],
      "name": "symbol",
      "outputs": [
        {
          "internalType": "string",
          "name": "",
          "type": "string"
        }
      ],
      "stateMutability": "view",
      "type": "function"
    },
    {
      "inputs": [],
      "name": "totalAssets",
      "outputs": [
        {
          "internalType": "uint256",
          "name": "",
          "type": "uint256"
        }
      ],
      "stateMutability": "view",
      "type": "function"
    },
    {
      "inputs": [],
      "name": "totalDeposited",
      "outputs": [
        {
          "internalType": "uint256",
          "name": "",
          "type": "uint256"
        }
      ],
      "stateMutability": "view",
      "type": "function"
    },
    {
      "inputs": [],
      "name": "totalSupply",
      "outputs": [
        {
          "internalType": "uint256",
          "name": "",
          "type": "uint256"
        }
      ],
      "stateMutability": "view",
      "type": "function"
    },
    {
      "inputs": [],
      "name": "totalWithdrawn",
      "outputs": [
        {
          "internalType": "uint256",
          "name": "",
          "type": "uint256"
        }
      ],
      "stateMutability": "view",
      "type": "function"
    },
    {
      "inputs": [
        {
          "internalType": "address",
          "name": "to",
          "type": "address"
        },
        {
          "internalType": "uint256",
          "name": "value",
          "type": "uint256"
        }
      ],
      "name": "transfer",
      "outputs": [
        {
          "internalType": "bool",
          "name": "",
          "type": "bool"
        }
      ],
      "stateMutability": "nonpayable",
      "type": "function"
    },
    {
      "inputs": [
        {
          "internalType": "address",
          "name": "from",
          "type": "address"
        },
        {
          "internalType": "address",
          "name": "to",
          "type": "address"
        },
        {
          "internalType": "uint256",
          "name": "value",
          "type": "uint256"
        }
      ],
      "name": "transferFrom",
      "outputs": [
        {
          "internalType": "bool",
          "name": "",
          "type": "bool"
        }
      ],
      "stateMutability": "nonpayable",
      "type": "function"
    },
    {
      "inputs": [
        {
          "internalType": "address",
          "name": "newOwner",
          "type": "address"
        }
      ],
      "name": "transferOwnership",
      "outputs": [],
      "stateMutability": "nonpayable",
      "type": "function"
    },
    {
      "inputs": [],
      "name": "treasury",
      "outputs": [
        {
          "internalType": "address",
          "name": "",
          "type": "address"
        }
      ],
      "stateMutability": "view",
      "type": "function"
    },
    {
      "inputs": [],
      "name": "unpause",
      "outputs": [],
      "stateMutability": "nonpayable",
      "type": "function"
    },
    {
      "inputs": [
        {
          "internalType": "address",
          "name": "",
          "type": "address"
        }
      ],
      "name": "userStrategy",
      "outputs": [
        {
          "internalType": "enum AttestifyAaveVault.StrategyType",
          "name": "",
          "type": "uint8"
        }
      ],
      "stateMutability": "view",
      "type": "function"
    },
    {
      "inputs": [
        {
          "internalType": "address",
          "name": "",
          "type": "address"
        }
      ],
      "name": "users",
      "outputs": [
        {
          "internalType": "bool",
          "name": "isVerified",
          "type": "bool"
        },
        {
          "internalType": "uint256",
          "name": "verifiedAt",
          "type": "uint256"
        },
        {
          "internalType": "uint256",
          "name": "totalDeposited",
          "type": "uint256"
        },
        {
          "internalType": "uint256",
          "name": "totalWithdrawn",
          "type": "uint256"
        },
        {
          "internalType": "uint256",
          "name": "lastActionTime",
          "type": "uint256"
        },
        {
          "internalType": "uint256",
          "name": "userIdentifier",
          "type": "uint256"
        }
      ],
      "stateMutability": "view",
      "type": "function"
    },
    {
      "inputs": [
        {
          "internalType": "bytes",
          "name": "",
          "type": "bytes"
        },
        {
          "internalType": "bytes",
          "name": "",
          "type": "bytes"
        }
      ],
      "name": "verifySelfProof",
      "outputs": [],
      "stateMutability": "nonpayable",
      "type": "function"
    },
    {
      "inputs": [
        {
          "internalType": "uint256",
          "name": "assets",
          "type": "uint256"
        },
        {
          "internalType": "address",
          "name": "receiver",
          "type": "address"
        },
        {
          "internalType": "address",
          "name": "owner",
          "type": "address"
        }
      ],
      "name": "withdraw",
      "outputs": [
        {
          "internalType": "uint256",
          "name": "shares",
          "type": "uint256"
        }
      ],
      "stateMutability": "nonpayable",
      "type": "function"
    }
  ],
  "bytecode": "0x610100604052348015610010575f5ffd5b5060405161340838038061340883398101604081905261002f916105e5565b33836040518060400160405280601481526020017f4174746573746966792041617665205661756c74000000000000000000000000815250604051806040016040528060078152602001666174664161766560c81b815250816003908161009691906106c7565b5060046100a382826106c7565b5050505f5f6100b78361018360201b60201c565b91509150816100c75760126100c9565b805b60ff1660a05250506001600160a01b03908116608052811661010457604051631e4fbdf760e01b81525f600482015260240160405180910390fd5b61010d81610259565b5060016006556001600160a01b038216158061013057506001600160a01b038116155b1561014e5760405163d92e233d60e01b815260040160405180910390fd5b6001600160a01b0380831660e052811660c052600c80546001600160a01b0319163317905561017b6102aa565b5050506107ae565b60408051600481526024810182526020810180516001600160e01b031663313ce56760e01b17905290515f918291829182916001600160a01b038716916101c991610781565b5f60405180830381855afa9150503d805f8114610201576040519150601f19603f3d011682016040523d82523d5f602084013e610206565b606091505b509150915081801561021a57506020815110155b1561024d575f818060200190518101906102349190610797565b905060ff811161024b576001969095509350505050565b505b505f9485945092505050565b600580546001600160a01b038381166001600160a01b0319831681179093556040519116919082907f8be0079c531659141344cd1fd0a4f28419497f9722a3daafe3b4186f6b6457e0905f90a35050565b6040805161010081018252600c60c082019081526b436f6e73657276617469766560a01b60e08301528152605a602080830191909152600a92820183905261015e606083015260016080830181905260a08301525f80529190915280517f13da86008ba1c6922daee3e07db95305ef49ebced9f5467a0b8613fcc6b343e390819061033590826106c7565b50602082810151600192830180546040808701516060808901516080808b015160a09b8c015160ff998a1661ffff1990981697909717610100958a1686021764ffffff000019166201000061ffff9094169390930260ff60201b19169290921764010000000098909216979097021760ff60281b191665010000000000941515949094029390931790935580519283018152600860c084019081526710985b185b98d95960c21b60e08501528352605583860152600f9083015261015e908201526003918101919091529283018290525f91909152600a905280517fbbc70db1b6c7afd11e79c0fb0051300458f1a3acb8ee9789d9b6b26c61ad9bc790819061043e90826106c7565b50602082810151600192830180546040808701516060808901516080808b015160a09b8c015160ff998a1661ffff1990981697909717610100958a1686021764ffffff000019166201000061ffff9094169390930260ff60201b19169290921764010000000098909216979097021760ff60281b191665010000000000941515949094029390931790935580519283018152600660c084019081526508ee4deeee8d60d31b60e0850152835260508386015260149083015261015e908201526005918101919091529283019190915260025f52600a905280517fbff4442b8ed600beeb8e26b1279a0f0d14c6edfaec26d968ee13c86f7d4c2ba890819061054590826106c7565b5060208201516001909101805460408401516060850151608086015160a0909601511515650100000000000260ff60281b1960ff9788166401000000000260ff60201b1961ffff90941662010000029390931664ffffff0000199489166101000261ffff1990961698909716979097179390931791909116939093179290921792909216179055565b6001600160a01b03811681146105e2575f5ffd5b50565b5f5f5f606084860312156105f7575f5ffd5b8351610602816105ce565b6020850151909350610613816105ce565b6040850151909250610624816105ce565b809150509250925092565b634e487b7160e01b5f52604160045260245ffd5b600181811c9082168061065757607f821691505b60208210810361067557634e487b7160e01b5f52602260045260245ffd5b50919050565b601f8211156106c257805f5260205f20601f840160051c810160208510156106a05750805b601f840160051c820191505b818110156106bf575f81556001016106ac565b50505b505050565b81516001600160401b038111156106e0576106e061062f565b6106f4816106ee8454610643565b8461067b565b6020601f821160018114610726575f831561070f5750848201515b5f19600385901b1c1916600184901b1784556106bf565b5f84815260208120601f198516915b828110156107555787850151825560209485019460019092019101610735565b508482101561077257868401515f19600387901b60f8161c191681555b50505050600190811b01905550565b5f82518060208501845e5f920191825250919050565b5f602082840312156107a7575f5ffd5b5051919050565b60805160a05160c05160e051612bb06108585f395f81816105b40152818161082b0152818161108301528181611529015261209a01525f818161058d01528181611e0501528181611e8b015261215601525f610ad301525f81816103fc01528181610e6001528181610fb0015281816110f60152818161137c0152818161148a015281816116fa0152818161187601528181611dcf01528181611eb2015261217d0152612bb05ff3fe608060405234801561000f575f5ffd5b5060043610610333575f3560e01c806395d89b41116101af578063ba087652116100fe578063dd62ed3e1161009e578063f0f4426011610079578063f0f44260146107d2578063f2fde38b146107e5578063f42b8809146107f8578063ff50abdc1461080b575f5ffd5b8063dd62ed3e1461078b578063e1e158a5146107c3578063ef8b30f714610736575f5ffd5b8063ce96cb77116100d9578063ce96cb7714610749578063d161802b1461075c578063d905777e1461076f578063d9ca21d514610782575f5ffd5b8063ba08765214610710578063c63d75b614610723578063c6e6f59214610736575f5ffd5b8063a6d5b73211610169578063ada7b08d11610144578063ada7b08d146106ae578063b3d7f6b9146106bf578063b460af94146106d2578063b9209e33146106e5575f5ffd5b8063a6d5b73214610613578063a87430ba14610626578063a9059cbb1461069b575f5ffd5b806395d89b4114610567578063962ca4961461056f5780639f48056c14610577578063a03e4bc314610588578063a0c1f15e146105af578063a59aa5a6146105d6575f5ffd5b80634b3197131161028557806370a08231116102255780638456cb59116102005780638456cb59146105285780638da5cb5b1461053057806394bf804d1461054157806395ccea6714610554575f5ffd5b806370a08231146104f0578063715018a6146105185780637d7c2a1c14610520575f5ffd5b806361d027b31161026057806361d027b314610492578063667316e9146104a55780636e553f65146104ca5780636ebe941b146104dd575f5ffd5b80634b3197131461047e5780634cdad506146103675780635c975abb14610487575f5ffd5b806318160ddd116102f057806338d52e0f116102cb57806338d52e0f146103fa5780633f4ba83a14610434578063402d267d1461043c578063457cf68c1461044f575f5ffd5b806318160ddd146103c557806323b872dd146103cd578063313ce567146103e0575f5ffd5b806301e1d1141461033757806306fdde031461035257806307a2d13a14610367578063095ea7b31461037a5780630a28a4771461039d5780630ffe355c146103b0575b5f5ffd5b61033f610814565b6040519081526020015b60405180910390f35b61035a6108b0565b6040516103499190612657565b61033f610375366004612669565b610940565b61038d61038836600461269b565b610951565b6040519015158152602001610349565b61033f6103ab366004612669565b610968565b6103c36103be3660046126c3565b610974565b005b60025461033f565b61038d6103db3660046126e1565b610aa7565b6103e8610acc565b60405160ff9091168152602001610349565b7f00000000000000000000000000000000000000000000000000000000000000005b6040516001600160a01b039091168152602001610349565b6103c3610af7565b61033f61044a36600461271b565b610b09565b61047161045d36600461271b565b60096020525f908152604090205460ff1681565b6040516103499190612768565b61033f600e5481565b60075460ff1661038d565b600c5461041c906001600160a01b031681565b6104b86104b33660046126c3565b610bc3565b60405161034996959493929190612776565b61033f6104d83660046127bf565b610c93565b6103c36104eb36600461271b565b610eed565b61033f6104fe36600461271b565b6001600160a01b03165f9081526020819052604090205490565b6103c3610f3e565b6103c3610f4f565b6103c361119f565b6005546001600160a01b031661041c565b61033f61054f3660046127bf565b6111af565b6103c361056236600461269b565b6113f6565b61035a61145d565b61015e61033f565b61033f69021e19e0c9bab240000081565b61041c7f000000000000000000000000000000000000000000000000000000000000000081565b61041c7f000000000000000000000000000000000000000000000000000000000000000081565b6105de61146c565b604080519788526020880196909652948601939093526060850191909152608084015260a083015260c082015260e001610349565b600b5461041c906001600160a01b031681565b61066c61063436600461271b565b60086020525f908152604090208054600182015460028301546003840154600485015460059095015460ff9094169492939192909186565b6040805196151587526020870195909552938501929092526060840152608083015260a082015260c001610349565b61038d6106a936600461269b565b6115e3565b61033f69152d02c7e14af680000081565b61033f6106cd366004612669565b6115f0565b61033f6106e03660046127e9565b6115fc565b61038d6106f336600461271b565b6001600160a01b03165f9081526008602052604090205460ff1690565b61033f61071e3660046127e9565b611778565b61033f61073136600461271b565b6118e2565b61033f610744366004612669565b61190b565b61033f61075736600461271b565b611916565b6103c361076a3660046128c1565b611950565b61033f61077d36600461271b565b6119c6565b61033f600f5481565b61033f610799366004612926565b6001600160a01b039182165f90815260016020908152604080832093909416825291909152205490565b61033f670de0b6b3a764000081565b6103c36107e036600461271b565b6119fc565b6103c36107f336600461271b565b611a4d565b61033f61080636600461271b565b611a8a565b61033f600d5481565b6040516370a0823160e01b81523060048201525f907f00000000000000000000000000000000000000000000000000000000000000006001600160a01b0316906370a0823190602401602060405180830381865afa158015610878573d5f5f3e3d5ffd5b505050506040513d601f19601f8201168201806040525081019061089c919061294e565b6108ab9064e8d4a51000612979565b905090565b6060600380546108bf90612990565b80601f01602080910402602001604051908101604052809291908181526020018280546108eb90612990565b80156109365780601f1061090d57610100808354040283529160200191610936565b820191905f5260205f20905b81548152906001019060200180831161091957829003601f168201915b5050505050905090565b5f61094b825f611af7565b92915050565b5f3361095e818585611b2f565b5060019392505050565b5f61094b826001611b41565b335f9081526008602052604090205460ff166109a35760405163a95362b560e01b815260040160405180910390fd5b600a5f8260028111156109b8576109b8612734565b60028111156109c9576109c9612734565b815260208101919091526040015f206001015465010000000000900460ff16610a2c5760405162461bcd60e51b815260206004820152601060248201526f496e76616c696420737472617465677960801b60448201526064015b60405180910390fd5b335f908152600960205260409020805460ff811691839160ff19166001836002811115610a5b57610a5b612734565b0217905550336001600160a01b03167f7b849fd02893af4f5628708e216ebbf2d0f6929320cf7370d5cc08852202cf5a8284604051610a9b9291906129c8565b60405180910390a25050565b5f33610ab4858285611b70565b610abf858585611bec565b60019150505b9392505050565b5f6108ab817f00000000000000000000000000000000000000000000000000000000000000006129e3565b610aff611c49565b610b07611c76565b565b6001600160a01b0381165f9081526008602052604081205460ff161580610b32575060075460ff165b15610b3e57505f919050565b6001600160a01b0382165f90815260086020526040812060020154610b6d9069021e19e0c9bab24000006129fc565b90505f610b78610814565b69152d02c7e14af680000011610b8e575f610baa565b610b96610814565b610baa9069152d02c7e14af68000006129fc565b9050808210610bb95780610bbb565b815b949350505050565b600a6020525f9081526040902080548190610bdd90612990565b80601f0160208091040260200160405190810160405280929190818152602001828054610c0990612990565b8015610c545780601f10610c2b57610100808354040283529160200191610c54565b820191905f5260205f20905b815481529060010190602001808311610c3757829003601f168201915b5050506001909301549192505060ff80821691610100810482169161ffff62010000830416916401000000008104821691650100000000009091041686565b5f610c9c611cc8565b610ca4611cf2565b6001600160a01b0382165f9081526008602052604090205460ff16610d02576001600160a01b0382165f9081526008602090815260408083208054600160ff1991821681178355429201919091556009909252909120805490911690555b670de0b6b3a7640000831015610d2b5760405163162908e360e11b815260040160405180910390fd5b6001600160a01b0382165f9081526008602052604090206002015469021e19e0c9bab240000090610d5d908590612a0f565b1115610d7c57604051632046b41b60e21b815260040160405180910390fd5b69152d02c7e14af680000083610d90610814565b610d9a9190612a0f565b1115610db957604051631064b02d60e11b815260040160405180910390fd5b610dc28361190b565b9050805f03610de457604051639811e0c760e01b815260040160405180910390fd5b6001600160a01b0382165f9081526008602052604081206002018054859290610e0e908490612a0f565b90915550506001600160a01b0382165f90815260086020526040812042600490910155600d8054859290610e43908490612a0f565b909155505f9050610e5964e8d4a5100085612a36565b9050610e887f00000000000000000000000000000000000000000000000000000000000000005b333084611d16565b610e928383611d7d565b610e9b84611db1565b60408051858152602081018490526001600160a01b0385169133917fdcbc1c05240f31ff3ad067ef1ee35ce4997762752e3a095284754544f4c709d791015b60405180910390a35061094b6001600655565b610ef5611c49565b6001600160a01b038116610f1c5760405163d92e233d60e01b815260040160405180910390fd5b600b80546001600160a01b0319166001600160a01b0392909216919091179055565b610f46611c49565b610b075f611f75565b6005546001600160a01b0316331480610f725750600b546001600160a01b031633145b610fad5760405162461bcd60e51b815260206004820152600c60248201526b155b985d5d1a1bdc9a5e995960a21b6044820152606401610a23565b5f7f00000000000000000000000000000000000000000000000000000000000000006040516370a0823160e01b81523060048201526001600160a01b0391909116906370a0823190602401602060405180830381865afa158015611013573d5f5f3e3d5ffd5b505050506040513d601f19601f82011682018060405250810190611037919061294e565b905080156110485761104881611db1565b42600f556040516370a0823160e01b81523060048201527fd2a95ca940100b9ee7ca9dba990076a2305ff6224a7cad162abc267821f2aee7907f00000000000000000000000000000000000000000000000000000000000000006001600160a01b0316906370a0823190602401602060405180830381865afa1580156110d0573d5f5f3e3d5ffd5b505050506040513d601f19601f820116820180604052508101906110f4919061294e565b7f00000000000000000000000000000000000000000000000000000000000000006040516370a0823160e01b81523060048201526001600160a01b0391909116906370a0823190602401602060405180830381865afa158015611159573d5f5f3e3d5ffd5b505050506040513d601f19601f8201168201806040525081019061117d919061294e565b604080519283526020830191909152429082015260600160405180910390a150565b6111a7611c49565b610b07611fc6565b5f6111b8611cc8565b6111c0611cf2565b6001600160a01b0382165f9081526008602052604090205460ff1661121e576001600160a01b0382165f9081526008602090815260408083208054600160ff1991821681178355429201919091556009909252909120805490911690555b825f0361123e57604051639811e0c760e01b815260040160405180910390fd5b611247836115f0565b9050670de0b6b3a76400008110156112725760405163162908e360e11b815260040160405180910390fd5b6001600160a01b0382165f9081526008602052604090206002015469021e19e0c9bab2400000906112a4908390612a0f565b11156112c357604051632046b41b60e21b815260040160405180910390fd5b69152d02c7e14af6800000816112d7610814565b6112e19190612a0f565b111561130057604051631064b02d60e11b815260040160405180910390fd5b6001600160a01b0382165f908152600860205260408120600201805483929061132a908490612a0f565b90915550506001600160a01b0382165f90815260086020526040812042600490910155600d805483929061135f908490612a0f565b909155505f905061137564e8d4a5100083612a36565b90506113a07f0000000000000000000000000000000000000000000000000000000000000000610e80565b6113aa8385611d7d565b6113b382611db1565b60408051838152602081018690526001600160a01b0385169133917fdcbc1c05240f31ff3ad067ef1ee35ce4997762752e3a095284754544f4c709d79101610eda565b6113fe611c49565b60075460ff1661143d5760405162461bcd60e51b815260206004820152600a602482015269139bdd081c185d5cd95960b21b6044820152606401610a23565b611459826114536005546001600160a01b031690565b83612003565b5050565b6060600480546108bf90612990565b5f5f5f5f5f5f5f61147b610814565b965061148660025490565b95507f00000000000000000000000000000000000000000000000000000000000000006040516370a0823160e01b81523060048201526001600160a01b0391909116906370a0823190602401602060405180830381865afa1580156114ed573d5f5f3e3d5ffd5b505050506040513d601f19601f82011682018060405250810190611511919061294e565b6040516370a0823160e01b81523060048201529095507f00000000000000000000000000000000000000000000000000000000000000006001600160a01b0316906370a0823190602401602060405180830381865afa158015611576573d5f5f3e3d5ffd5b505050506040513d601f19601f8201168201806040525081019061159a919061294e565b9350600d549250600e5491505f86116115bb57670de0b6b3a76400006115d8565b856115ce88670de0b6b3a7640000612979565b6115d89190612a36565b905090919293949596565b5f3361095e818585611bec565b5f61094b826001611af7565b5f611605611cc8565b835f0361162557604051630cb65c7760e21b815260040160405180910390fd5b61162e84610968565b9050805f0361165057604051639811e0c760e01b815260040160405180910390fd5b336001600160a01b0383161461166b5761166b823383611b70565b6001600160a01b0382165f9081526008602052604081206003018054869290611695908490612a0f565b90915550506001600160a01b0382165f90815260086020526040812042600490910155600e80548692906116ca908490612a0f565b909155506116da90508282612034565b6116e384612068565b5f6116f364e8d4a5100086612a36565b90506117217f00000000000000000000000000000000000000000000000000000000000000005b8583612003565b60408051868152602081018490526001600160a01b03808616929087169133917ffbde797d201c681b91056529119e0b02407c7bb96a4a2c75c01fc9667232c8db91015b60405180910390a450610ac56001600655565b5f611781611cc8565b835f036117a157604051639811e0c760e01b815260040160405180910390fd5b6117aa84610940565b9050805f036117cc57604051630cb65c7760e21b815260040160405180910390fd5b336001600160a01b038316146117e7576117e7823386611b70565b6001600160a01b0382165f9081526008602052604081206003018054839290611811908490612a0f565b90915550506001600160a01b0382165f90815260086020526040812042600490910155600e8054839290611846908490612a0f565b9091555061185690508285612034565b61185f81612068565b5f61186f64e8d4a5100083612a36565b905061189a7f000000000000000000000000000000000000000000000000000000000000000061171a565b60408051838152602081018790526001600160a01b03808616929087169133917ffbde797d201c681b91056529119e0b02407c7bb96a4a2c75c01fc9667232c8db9101611765565b5f5f6118ed83610b09565b90508015611903576118fe8161190b565b610ac5565b5f9392505050565b5f61094b825f611b41565b5f61192360075460ff1690565b1561192f57505f919050565b61094b610375836001600160a01b03165f9081526020819052604090205490565b335f8181526008602081815260408084208054600160ff199182168117835542908301819055600590920187815560098552958390208054909116905592825292548351908152908101919091527f7e1c6d9e9f71f4c4f9c072bdd7a6eaa673772c6b1f94d93eb000abd65cdcba129101610a9b565b5f6119d360075460ff1690565b156119df57505f919050565b6001600160a01b0382165f9081526020819052604090205461094b565b611a04611c49565b6001600160a01b038116611a2b5760405163d92e233d60e01b815260040160405180910390fd5b600c80546001600160a01b0319166001600160a01b0392909216919091179055565b611a55611c49565b6001600160a01b038116611a7e57604051631e4fbdf760e01b81525f6004820152602401610a23565b611a8781611f75565b50565b5f5f611aad610375846001600160a01b03165f9081526020819052604090205490565b6001600160a01b0384165f90815260086020526040812060038101546002909101549293509091611ade91906129fc565b9050808211611aed575f610bbb565b610bbb81836129fc565b5f610ac5611b03610814565b611b0e906001612a0f565b611b195f600a612b2c565b600254611b269190612a0f565b8591908561224e565b611b3c8383836001612299565b505050565b5f610ac5611b5082600a612b2c565b600254611b5d9190612a0f565b611b65610814565b611b26906001612a0f565b6001600160a01b038381165f908152600160209081526040808320938616835292905220545f19811015611be65781811015611bd857604051637dc7a0d960e11b81526001600160a01b03841660048201526024810182905260448101839052606401610a23565b611be684848484035f612299565b50505050565b6001600160a01b038316611c1557604051634b637e8f60e11b81525f6004820152602401610a23565b6001600160a01b038216611c3e5760405163ec442f0560e01b81525f6004820152602401610a23565b611b3c83838361236b565b6005546001600160a01b03163314610b075760405163118cdaa760e01b8152336004820152602401610a23565b611c7e612491565b6007805460ff191690557f5db9ee0a495bf2e6ff9c91a7834c1ba4fdd244a5e8aa4e537bd38aeae4b073aa335b6040516001600160a01b03909116815260200160405180910390a1565b600260065403611ceb57604051633ee5aeb560e01b815260040160405180910390fd5b6002600655565b60075460ff1615610b075760405163d93c066560e01b815260040160405180910390fd5b6040516001600160a01b038481166024830152838116604483015260648201839052611be69186918216906323b872dd906084015b604051602081830303815290604052915060e01b6020820180516001600160e01b0383818316178352505050506124b4565b6001600160a01b038216611da65760405163ec442f0560e01b81525f6004820152602401610a23565b6114595f838361236b565b805f03611dbb5750565b5f611dcb64e8d4a5100083612a36565b90507f000000000000000000000000000000000000000000000000000000000000000060405163095ea7b360e01b81526001600160a01b037f0000000000000000000000000000000000000000000000000000000000000000811660048301525f196024830152919091169063095ea7b3906044016020604051808303815f875af1158015611e5c573d5f5f3e3d5ffd5b505050506040513d601f19601f82011682018060405250810190611e809190612b3a565b506001600160a01b037f00000000000000000000000000000000000000000000000000000000000000001663617ba0377f00000000000000000000000000000000000000000000000000000000000000006040516001600160e01b031960e084901b1681526001600160a01b039091166004820152602481018490523060448201525f60648201526084015f604051808303815f87803b158015611f22575f5ffd5b505af1158015611f34573d5f5f3e3d5ffd5b5050604080518481524260208201527fd110a0642f48dec36861dc74f33422ee792b6f91f54283e4b3ecb00f4895c2f1935001905060405180910390a15050565b600580546001600160a01b038381166001600160a01b0319831681179093556040519116919082907f8be0079c531659141344cd1fd0a4f28419497f9722a3daafe3b4186f6b6457e0905f90a35050565b611fce611cf2565b6007805460ff191660011790557f62e78cea01bee320cd4e420270b5ea74000d11b0c9f74754ebdbfc544b05a258611cab3390565b6040516001600160a01b03838116602483015260448201839052611b3c91859182169063a9059cbb90606401611d4b565b6001600160a01b03821661205d57604051634b637e8f60e11b81525f6004820152602401610a23565b611459825f8361236b565b5f61207864e8d4a5100083612a36565b6040516370a0823160e01b81523060048201529091505f906001600160a01b037f000000000000000000000000000000000000000000000000000000000000000016906370a0823190602401602060405180830381865afa1580156120df573d5f5f3e3d5ffd5b505050506040513d601f19601f82011682018060405250810190612103919061294e565b90508181101561214c5760405162461bcd60e51b8152602060048201526014602482015273496e73756666696369656e742061546f6b656e7360601b6044820152606401610a23565b6001600160a01b037f0000000000000000000000000000000000000000000000000000000000000000166369328dec7f00000000000000000000000000000000000000000000000000000000000000006040516001600160e01b031960e084901b1681526001600160a01b039091166004820152602481018590523060448201526064016020604051808303815f875af11580156121ec573d5f5f3e3d5ffd5b505050506040513d601f19601f82011682018060405250810190612210919061294e565b50604080518381524260208201527f57501c8e2164a8e257532432c793d9ee7bb35236acd0592a0b029a7f80a2eb5e910160405180910390a1505050565b5f61227b61225b83612520565b801561227657505f848061227157612271612a22565b868809115b151590565b61228686868661254c565b6122909190612a0f565b95945050505050565b6001600160a01b0384166122c25760405163e602df0560e01b81525f6004820152602401610a23565b6001600160a01b0383166122eb57604051634a1406b160e11b81525f6004820152602401610a23565b6001600160a01b038085165f9081526001602090815260408083209387168352929052208290558015611be657826001600160a01b0316846001600160a01b03167f8c5be1e5ebec7d5bd14f71427d1e84f3dd0314c0f7b2291e5b200ac8c7c3b9258460405161235d91815260200190565b60405180910390a350505050565b6001600160a01b038316612395578060025f82825461238a9190612a0f565b909155506124059050565b6001600160a01b0383165f90815260208190526040902054818110156123e75760405163391434e360e21b81526001600160a01b03851660048201526024810182905260448101839052606401610a23565b6001600160a01b0384165f9081526020819052604090209082900390555b6001600160a01b0382166124215760028054829003905561243f565b6001600160a01b0382165f9081526020819052604090208054820190555b816001600160a01b0316836001600160a01b03167fddf252ad1be2c89b69c2b068fc378daa952ba7f163c4a11628f55a4df523b3ef8360405161248491815260200190565b60405180910390a3505050565b60075460ff16610b0757604051638dfc202b60e01b815260040160405180910390fd5b5f5f60205f8451602086015f885af1806124d3576040513d5f823e3d81fd5b50505f513d915081156124ea5780600114156124f7565b6001600160a01b0384163b155b15611be657604051635274afe760e01b81526001600160a01b0385166004820152602401610a23565b5f600282600381111561253557612535612734565b61253f9190612b59565b60ff166001149050919050565b5f5f5f61255986866125fc565b91509150815f0361257d5783818161257357612573612a22565b0492505050610ac5565b818411612594576125946003851502601118612618565b5f848688095f868103871696879004966002600389028118808a02820302808a02820302808a02820302808a02820302808a02820302808a02909103029181900381900460010185841190960395909502919093039390930492909217029150509392505050565b5f805f1983850993909202808410938190039390930393915050565b634e487b715f52806020526024601cfd5b5f81518084528060208401602086015e5f602082860101526020601f19601f83011685010191505092915050565b602081525f610ac56020830184612629565b5f60208284031215612679575f5ffd5b5035919050565b80356001600160a01b0381168114612696575f5ffd5b919050565b5f5f604083850312156126ac575f5ffd5b6126b583612680565b946020939093013593505050565b5f602082840312156126d3575f5ffd5b813560038110610ac5575f5ffd5b5f5f5f606084860312156126f3575f5ffd5b6126fc84612680565b925061270a60208501612680565b929592945050506040919091013590565b5f6020828403121561272b575f5ffd5b610ac582612680565b634e487b7160e01b5f52602160045260245ffd5b6003811061276457634e487b7160e01b5f52602160045260245ffd5b9052565b6020810161094b8284612748565b60c081525f61278860c0830189612629565b60ff978816602084015295871660408301525061ffff9390931660608401529316608082015291151560a090920191909152919050565b5f5f604083850312156127d0575f5ffd5b823591506127e060208401612680565b90509250929050565b5f5f5f606084860312156127fb575f5ffd5b8335925061280b60208501612680565b915061281960408501612680565b90509250925092565b634e487b7160e01b5f52604160045260245ffd5b5f82601f830112612845575f5ffd5b813567ffffffffffffffff81111561285f5761285f612822565b604051601f8201601f19908116603f0116810167ffffffffffffffff8111828210171561288e5761288e612822565b6040528181528382016020018510156128a5575f5ffd5b816020850160208301375f918101602001919091529392505050565b5f5f604083850312156128d2575f5ffd5b823567ffffffffffffffff8111156128e8575f5ffd5b6128f485828601612836565b925050602083013567ffffffffffffffff811115612910575f5ffd5b61291c85828601612836565b9150509250929050565b5f5f60408385031215612937575f5ffd5b61294083612680565b91506127e060208401612680565b5f6020828403121561295e575f5ffd5b5051919050565b634e487b7160e01b5f52601160045260245ffd5b808202811582820484141761094b5761094b612965565b600181811c908216806129a457607f821691505b6020821081036129c257634e487b7160e01b5f52602260045260245ffd5b50919050565b604081016129d68285612748565b610ac56020830184612748565b60ff818116838216019081111561094b5761094b612965565b8181038181111561094b5761094b612965565b8082018082111561094b5761094b612965565b634e487b7160e01b5f52601260045260245ffd5b5f82612a4457612a44612a22565b500490565b6001815b6001841115612a8457808504811115612a6857612a68612965565b6001841615612a7657908102905b60019390931c928002612a4d565b935093915050565b5f82612a9a5750600161094b565b81612aa657505f61094b565b8160018114612abc5760028114612ac657612ae2565b600191505061094b565b60ff841115612ad757612ad7612965565b50506001821b61094b565b5060208310610133831016604e8410600b8410161715612b05575081810a61094b565b612b115f198484612a49565b805f1904821115612b2457612b24612965565b029392505050565b5f610ac560ff841683612a8c565b5f60208284031215612b4a575f5ffd5b81518015158114610ac5575f5ffd5b5f60ff831680612b6b57612b6b612a22565b8060ff8416069150509291505056fea2646970667358221220ae46904eb43ef53be1804512df567532dc785ab163f190b9f81b20588137a97764736f6c634300081c0033",
  "linkReferences": {},
  "deployedLinkReferences": {},
  "immutableReferences": {
    "1160": [
      {
        "length": 32,
        "start": 1020
      },
      {
        "length": 32,
        "start": 3680
      },
      {
        "length": 32,
        "start": 4016
      },
      {
        "length": 32,
        "start": 4342
      },
      {
        "length": 32,
        "start": 4988
      },
      {
        "length": 32,
        "start": 5258
      },
      {
        "length": 32,
        "start": 5882
      },
      {
        "length": 32,
        "start": 6262
      },
      {
        "length": 32,
        "start": 7631
      },
      {
        "length": 32,
        "start": 7858
      },
      {
        "length": 32,
        "start": 8573
      }
    ],
    "1162": [
      {
        "length": 32,
        "start": 2771
      }
    ],
    "6058": [
      {
        "length": 32,
        "start": 1421
      },
      {
        "length": 32,
        "start": 7685
      },
      {
        "length": 32,
        "start": 7819
      },
      {
        "length": 32,
        "start": 8534
      }
    ],
    "6061": [
      {
        "length": 32,
        "start": 1460
      },
      {
        "length": 32,
        "start": 2091
      },
      {
        "length": 32,
        "start": 4227
      },
      {
        "length": 32,
        "start": 5417
      },
      {
        "length": 32,
        "start": 8346
      }
    ]
  },
  "inputSourceName": "project/contracts/AttestifyVault.sol",
  "buildInfoId": "solc-0_8_28-d39e522556408b8a0f4399a59d204a5b8241f58a"
}