{"abi":[{"type":"constructor","inputs":[{"name":"_lendingPool","type":"address","internalType":"address"}],"stateMutability":"nonpayable"},{"type":"function","name":"getReserveData","inputs":[{"name":"asset","type":"address","internalType":"address"}],"outputs":[{"name":"aTokenAddress","type":"address","internalType":"address"},{"name":"currentLiquidityRate","type":"uint128","internalType":"uint128"}],"stateMutability":"view"},{"type":"function","name":"lendingPool","inputs":[],"outputs":[{"name":"","type":"address","internalType":"address"}],"stateMutability":"view"},{"type":"function","name":"supply","inputs":[{"name":"asset","type":"address","internalType":"address"},{"name":"amount","type":"uint256","internalType":"uint256"},{"name":"onBehalfOf","type":"address","internalType":"address"}],"outputs":[],"stateMutability":"nonpayable"},{"type":"function","name":"version","inputs":[],"outputs":[{"name":"","type":"uint8","internalType":"uint8"}],"stateMutability":"view"},{"type":"function","name":"withdraw","inputs":[{"name":"asset","type":"address","internalType":"address"},{"name":"amount","type":"uint256","internalType":"uint256"},{"name":"to","type":"address","internalType":"address"}],"outputs":[{"name":"","type":"uint256","internalType":"uint256"}],"stateMutability":"nonpayable"},{"type":"error","name":"SafeERC20FailedOperation","inputs":[{"name":"token","type":"address","internalType":"address"}]},{"type":"error","name":"SupplyFailed","inputs":[]},{"type":"error","name":"UnsupportedVersion","inputs":[]},{"type":"error","name":"WithdrawFailed","inputs":[]}],"bytecode":{"object":"0x60c0346100a857601f61095338819003918201601f19168301916001600160401b038311848410176100ac578084926020946040528339810103126100a857516001600160a01b03811681036100a857608052600260a05260405161089290816100c18239608051818181606601528181610106015281816104a6015281816105fb015261075a015260a05181818161016b0152818161032f0152818161045001526106f50152f35b5f80fd5b634e487b7160e01b5f52604160045260245ffdfe60806040526004361015610011575f80fd5b5f5f3560e01c806335ea6a751461035357806354fd4d501461031657806369328dec146102f55780638b2a4df5146100985763a59a997314610051575f80fd5b346100955780600319360112610095576040517f00000000000000000000000000000000000000000000000000000000000000006001600160a01b03168152602090f35b80fd5b503461028857806100a8366103a3565b6040516323b872dd60e01b6020820152336024820152306044820152606480820184905281529192916001600160a01b038316906100f1906100eb6084826103dd565b82610804565b60405163095ea7b360e01b60208083019182527f00000000000000000000000000000000000000000000000000000000000000006001600160a01b031660248401819052604480850189905284529392915f9061014f6064856103dd565b83519082865af15f513d826102d9575b50501561029b575b50507f000000000000000000000000000000000000000000000000000000000000000060ff166003810361020b5750803b156102075760405163617ba03760e01b81526001600160a01b0393841660048201526024810194909452911660448301525f606483015282908290608490829084905af180156101fc576101eb57505080f35b816101f5916103dd565b6100955780f35b6040513d84823e3d90fd5b8480fd5b6002919293949550145f1461028c57803b156102885760405163e8eda9df60e01b81526001600160a01b0393841660048201526024810194909452911660448301525f60648301819052908290608490829084905af1801561027d5761026f575080f35b61027b91505f906103dd565b005b6040513d5f823e3d90fd5b5f80fd5b63b01318a560e01b5f5260045ffd5b6102d2916102cd60405163095ea7b360e01b60208201528560248201525f6044820152604481526100eb6064826103dd565b610804565b5f80610167565b9091506102ed5750813b15155b5f8061015f565b6001146102e6565b3461028857602061030e610308366103a3565b916106f2565b604051908152f35b34610288575f36600319011261028857602060405160ff7f0000000000000000000000000000000000000000000000000000000000000000168152f35b34610288576020366003190112610288576004356001600160a01b0381168103610288576001600160801b0361038a60409261044d565b83516001600160a01b0390921682529091166020820152f35b6060906003190112610288576004356001600160a01b03811681036102885790602435906044356001600160a01b03811681036102885790565b90601f8019910116810190811067ffffffffffffffff8211176103ff57604052565b634e487b7160e01b5f52604160045260245ffd5b51906001600160801b038216820361028857565b519064ffffffffff8216820361028857565b51906001600160a01b038216820361028857565b907f000000000000000000000000000000000000000000000000000000000000000060ff16600381036105c957506040516335ea6a7560e01b81526001600160a01b039283166004820152916101e090839060249082907f0000000000000000000000000000000000000000000000000000000000000000165afa91821561027d575f905f936104dc57509190565b9250506101e0823d82116105c1575b816104f96101e093836103dd565b810103126102885761050d60208301610413565b5061051a60408301610413565b5061052760608301610413565b5061053460808301610413565b5061054160a08301610413565b5061054e60c08301610427565b5060e082015161ffff811603610288576105be6101c06105716101008501610439565b9361057f6101208201610439565b5061058d6101408201610439565b5061059b6101608201610439565b506105a96101808201610413565b506105b76101a08201610413565b5001610413565b90565b3d91506104eb565b60020361028c576040516335ea6a7560e01b81526001600160a01b0392831660048201529161018090839060249082907f0000000000000000000000000000000000000000000000000000000000000000165afa801561027d575f925f9161063057509190565b925050610180823d82116106ea575b8161064d61018093836103dd565b810103126102885761066160208301610413565b5061066e60408301610413565b5061067b60608301610413565b61068760808401610413565b5061069460a08401610413565b506106a160c08401610427565b506101606106b160e08501610439565b936106bf6101008201610439565b506106cd6101208201610439565b506106db6101408201610439565b50015160ff8116036102885790565b3d915061063f565b907f000000000000000000000000000000000000000000000000000000000000000060ff16600381036107c45750604051631a4ca37b60e21b81526001600160a01b03928316600482015260248101919091529116604482015260208180606481015b03815f7f00000000000000000000000000000000000000000000000000000000000000006001600160a01b03165af190811561027d575f91610795575090565b90506020813d6020116107bc575b816107b0602093836103dd565b81010312610288575190565b3d91506107a3565b60020361028c57604051631a4ca37b60e21b81526001600160a01b0392831660048201526024810191909152911660448201526020818060648101610755565b905f602091828151910182855af11561027d575f513d61085357506001600160a01b0381163b155b6108335750565b635274afe760e01b5f9081526001600160a01b0391909116600452602490fd5b6001141561082c56fea2646970667358221220939fa0fa420f6079517156945a77cb4eca5f01e0404c3c9653eaa36f3edf85c864736f6c634300081c0033","linkReferences":{}},"methodIdentifiers":{"getReserveData(address)":"35ea6a75","lendingPool()":"a59a9973","supply(address,uint256,address)":"8b2a4df5","version()":"54fd4d50","withdraw(address,uint256,address)":"69328dec"},"id":0}