{"abi":[{"type":"constructor","inputs":[{"name":"_asset","type":"address","internalType":"contract IERC20"},{"name":"_name","type":"string","internalType":"string"},{"name":"_symbol","type":"string","internalType":"string"},{"name":"_treasury","type":"address","internalType":"address"}],"stateMutability":"nonpayable"},{"type":"function","name":"BASIS_POINTS","inputs":[],"outputs":[{"name":"","type":"uint256","internalType":"uint256"}],"stateMutability":"view"},{"type":"function","name":"allowance","inputs":[{"name":"owner","type":"address","internalType":"address"},{"name":"spender","type":"address","internalType":"address"}],"outputs":[{"name":"","type":"uint256","internalType":"uint256"}],"stateMutability":"view"},{"type":"function","name":"approve","inputs":[{"name":"spender","type":"address","internalType":"address"},{"name":"value","type":"uint256","internalType":"uint256"}],"outputs":[{"name":"","type":"bool","internalType":"bool"}],"stateMutability":"nonpayable"},{"type":"function","name":"asset","inputs":[],"outputs":[{"name":"","type":"address","internalType":"address"}],"stateMutability":"view"},{"type":"function","name":"balanceOf","inputs":[{"name":"account","type":"address","internalType":"address"}],"outputs":[{"name":"","type":"uint256","internalType":"uint256"}],"stateMutability":"view"},{"type":"function","name":"convertToAssets","inputs":[{"name":"shares","type":"uint256","internalType":"uint256"}],"outputs":[{"name":"","type":"uint256","internalType":"uint256"}],"stateMutability":"view"},{"type":"function","name":"convertToShares","inputs":[{"name":"assets","type":"uint256","internalType":"uint256"}],"outputs":[{"name":"","type":"uint256","internalType":"uint256"}],"stateMutability":"view"},{"type":"function","name":"decimals","inputs":[],"outputs":[{"name":"","type":"uint8","internalType":"uint8"}],"stateMutability":"view"},{"type":"function","name":"deposit","inputs":[{"name":"assets","type":"uint256","internalType":"uint256"},{"name":"receiver","type":"address","internalType":"address"}],"outputs":[{"name":"shares","type":"uint256","internalType":"uint256"}],"stateMutability":"nonpayable"},{"type":"function","name":"getCurrentAPY","inputs":[],"outputs":[{"name":"","type":"uint256","internalType":"uint256"}],"stateMutability":"pure"},{"type":"function","name":"maxDeposit","inputs":[{"name":"","type":"address","internalType":"address"}],"outputs":[{"name":"","type":"uint256","internalType":"uint256"}],"stateMutability":"view"},{"type":"function","name":"maxMint","inputs":[{"name":"","type":"address","internalType":"address"}],"outputs":[{"name":"","type":"uint256","internalType":"uint256"}],"stateMutability":"view"},{"type":"function","name":"maxRedeem","inputs":[{"name":"owner","type":"address","internalType":"address"}],"outputs":[{"name":"","type":"uint256","internalType":"uint256"}],"stateMutability":"view"},{"type":"function","name":"maxWithdraw","inputs":[{"name":"owner","type":"address","internalType":"address"}],"outputs":[{"name":"","type":"uint256","internalType":"uint256"}],"stateMutability":"view"},{"type":"function","name":"mint","inputs":[{"name":"shares","type":"uint256","internalType":"uint256"},{"name":"receiver","type":"address","internalType":"address"}],"outputs":[{"name":"","type":"uint256","internalType":"uint256"}],"stateMutability":"nonpayable"},{"type":"function","name":"name","inputs":[],"outputs":[{"name":"","type":"string","internalType":"string"}],"stateMutability":"view"},{"type":"function","name":"owner","inputs":[],"outputs":[{"name":"","type":"address","internalType":"address"}],"stateMutability":"view"},{"type":"function","name":"pause","inputs":[],"outputs":[],"stateMutability":"nonpayable"},{"type":"function","name":"paused","inputs":[],"outputs":[{"name":"","type":"bool","internalType":"bool"}],"stateMutability":"view"},{"type":"function","name":"performanceFee","inputs":[],"outputs":[{"name":"","type":"uint256","internalType":"uint256"}],"stateMutability":"view"},{"type":"function","name":"previewDeposit","inputs":[{"name":"assets","type":"uint256","internalType":"uint256"}],"outputs":[{"name":"","type":"uint256","internalType":"uint256"}],"stateMutability":"view"},{"type":"function","name":"previewMint","inputs":[{"name":"shares","type":"uint256","internalType":"uint256"}],"outputs":[{"name":"","type":"uint256","internalType":"uint256"}],"stateMutability":"view"},{"type":"function","name":"previewRedeem","inputs":[{"name":"shares","type":"uint256","internalType":"uint256"}],"outputs":[{"name":"","type":"uint256","internalType":"uint256"}],"stateMutability":"view"},{"type":"function","name":"previewWithdraw","inputs":[{"name":"assets","type":"uint256","internalType":"uint256"}],"outputs":[{"name":"","type":"uint256","internalType":"uint256"}],"stateMutability":"view"},{"type":"function","name":"redeem","inputs":[{"name":"shares","type":"uint256","internalType":"uint256"},{"name":"receiver","type":"address","internalType":"address"},{"name":"owner","type":"address","internalType":"address"}],"outputs":[{"name":"","type":"uint256","internalType":"uint256"}],"stateMutability":"nonpayable"},{"type":"function","name":"renounceOwnership","inputs":[],"outputs":[],"stateMutability":"nonpayable"},{"type":"function","name":"setPerformanceFee","inputs":[{"name":"_performanceFee","type":"uint256","internalType":"uint256"}],"outputs":[],"stateMutability":"nonpayable"},{"type":"function","name":"setTreasury","inputs":[{"name":"_treasury","type":"address","internalType":"address"}],"outputs":[],"stateMutability":"nonpayable"},{"type":"function","name":"symbol","inputs":[],"outputs":[{"name":"","type":"string","internalType":"string"}],"stateMutability":"view"},{"type":"function","name":"totalAssets","inputs":[],"outputs":[{"name":"","type":"uint256","internalType":"uint256"}],"stateMutability":"view"},{"type":"function","name":"totalSupply","inputs":[],"outputs":[{"name":"","type":"uint256","internalType":"uint256"}],"stateMutability":"view"},{"type":"function","name":"transfer","inputs":[{"name":"to","type":"address","internalType":"address"},{"name":"value","type":"uint256","internalType":"uint256"}],"outputs":[{"name":"","type":"bool","internalType":"bool"}],"stateMutability":"nonpayable"},{"type":"function","name":"transferFrom","inputs":[{"name":"from","type":"address","internalType":"address"},{"name":"to","type":"address","internalType":"address"},{"name":"value","type":"uint256","internalType":"uint256"}],"outputs":[{"name":"","type":"bool","internalType":"bool"}],"stateMutability":"nonpayable"},{"type":"function","name":"transferOwnership","inputs":[{"name":"newOwner","type":"address","internalType":"address"}],"outputs":[],"stateMutability":"nonpayable"},{"type":"function","name":"treasury","inputs":[],"outputs":[{"name":"","type":"address","internalType":"address"}],"stateMutability":"view"},{"type":"function","name":"unpause","inputs":[],"outputs":[],"stateMutability":"nonpayable"},{"type":"function","name":"withdraw","inputs":[{"name":"assets","type":"uint256","internalType":"uint256"},{"name":"receiver","type":"address","internalType":"address"},{"name":"owner","type":"address","internalType":"address"}],"outputs":[{"name":"shares","type":"uint256","internalType":"uint256"}],"stateMutability":"nonpayable"},{"type":"event","name":"Approval","inputs":[{"name":"owner","type":"address","indexed":true,"internalType":"address"},{"name":"spender","type":"address","indexed":true,"internalType":"address"},{"name":"value","type":"uint256","indexed":false,"internalType":"uint256"}],"anonymous":false},{"type":"event","name":"Deposit","inputs":[{"name":"sender","type":"address","indexed":true,"internalType":"address"},{"name":"owner","type":"address","indexed":true,"internalType":"address"},{"name":"assets","type":"uint256","indexed":false,"internalType":"uint256"},{"name":"shares","type":"uint256","indexed":false,"internalType":"uint256"}],"anonymous":false},{"type":"event","name":"Deposited","inputs":[{"name":"user","type":"address","indexed":true,"internalType":"address"},{"name":"assets","type":"uint256","indexed":false,"internalType":"uint256"},{"name":"shares","type":"uint256","indexed":false,"internalType":"uint256"}],"anonymous":false},{"type":"event","name":"OwnershipTransferred","inputs":[{"name":"previousOwner","type":"address","indexed":true,"internalType":"address"},{"name":"newOwner","type":"address","indexed":true,"internalType":"address"}],"anonymous":false},{"type":"event","name":"Paused","inputs":[{"name":"account","type":"address","indexed":false,"internalType":"address"}],"anonymous":false},{"type":"event","name":"PerformanceFeeUpdated","inputs":[{"name":"newFee","type":"uint256","indexed":false,"internalType":"uint256"}],"anonymous":false},{"type":"event","name":"Transfer","inputs":[{"name":"from","type":"address","indexed":true,"internalType":"address"},{"name":"to","type":"address","indexed":true,"internalType":"address"},{"name":"value","type":"uint256","indexed":false,"internalType":"uint256"}],"anonymous":false},{"type":"event","name":"Unpaused","inputs":[{"name":"account","type":"address","indexed":false,"internalType":"address"}],"anonymous":false},{"type":"event","name":"Withdraw","inputs":[{"name":"sender","type":"address","indexed":true,"internalType":"address"},{"name":"receiver","type":"address","indexed":true,"internalType":"address"},{"name":"owner","type":"address","indexed":true,"internalType":"address"},{"name":"assets","type":"uint256","indexed":false,"internalType":"uint256"},{"name":"shares","type":"uint256","indexed":false,"internalType":"uint256"}],"anonymous":false},{"type":"event","name":"Withdrawn","inputs":[{"name":"user","type":"address","indexed":true,"internalType":"address"},{"name":"assets","type":"uint256","indexed":false,"internalType":"uint256"},{"name":"shares","type":"uint256","indexed":false,"internalType":"uint256"}],"anonymous":false},{"type":"error","name":"ERC20InsufficientAllowance","inputs":[{"name":"spender","type":"address","internalType":"address"},{"name":"allowance","type":"uint256","internalType":"uint256"},{"name":"needed","type":"uint256","internalType":"uint256"}]},{"type":"error","name":"ERC20InsufficientBalance","inputs":[{"name":"sender","type":"address","internalType":"address"},{"name":"balance","type":"uint256","internalType":"uint256"},{"name":"needed","type":"uint256","internalType":"uint256"}]},{"type":"error","name":"ERC20InvalidApprover","inputs":[{"name":"approver","type":"address","internalType":"address"}]},{"type":"error","name":"ERC20InvalidReceiver","inputs":[{"name":"receiver","type":"address","internalType":"address"}]},{"type":"error","name":"ERC20InvalidSender","inputs":[{"name":"sender","type":"address","internalType":"address"}]},{"type":"error","name":"ERC20InvalidSpender","inputs":[{"name":"spender","type":"address","internalType":"address"}]},{"type":"error","name":"ERC4626ExceededMaxDeposit","inputs":[{"name":"receiver","type":"address","internalType":"address"},{"name":"assets","type":"uint256","internalType":"uint256"},{"name":"max","type":"uint256","internalType":"uint256"}]},{"type":"error","name":"ERC4626ExceededMaxMint","inputs":[{"name":"receiver","type":"address","internalType":"address"},{"name":"shares","type":"uint256","internalType":"uint256"},{"name":"max","type":"uint256","internalType":"uint256"}]},{"type":"error","name":"ERC4626ExceededMaxRedeem","inputs":[{"name":"owner","type":"address","internalType":"address"},{"name":"shares","type":"uint256","internalType":"uint256"},{"name":"max","type":"uint256","internalType":"uint256"}]},{"type":"error","name":"ERC4626ExceededMaxWithdraw","inputs":[{"name":"owner","type":"address","internalType":"address"},{"name":"assets","type":"uint256","internalType":"uint256"},{"name":"max","type":"uint256","internalType":"uint256"}]},{"type":"error","name":"EnforcedPause","inputs":[]},{"type":"error","name":"ExpectedPause","inputs":[]},{"type":"error","name":"InvalidAddress","inputs":[]},{"type":"error","name":"InvalidAmount","inputs":[]},{"type":"error","name":"OwnableInvalidOwner","inputs":[{"name":"owner","type":"address","internalType":"address"}]},{"type":"error","name":"OwnableUnauthorizedAccount","inputs":[{"name":"account","type":"address","internalType":"address"}]},{"type":"error","name":"ReentrancyGuardReentrantCall","inputs":[]},{"type":"error","name":"SafeERC20FailedOperation","inputs":[{"name":"token","type":"address","internalType":"address"}]}],"bytecode":{"object":"0x60c0806040523461043357611884803803809161001c8285610437565b833981016080828203126104335781516001600160a01b03811681036104335760208301516001600160401b038111610433578261005b918501610475565b60408401519092906001600160401b0381116104335760609161007f918601610475565b9301516001600160a01b03811692909190838303610433578051906001600160401b0382116103365760035490600182811c92168015610429575b60208310146103185781601f8493116103bb575b50602090601f8311600114610355575f9261034a575b50508160011b915f199060031b1c1916176003555b83516001600160401b03811161033657600454600181811c9116801561032c575b602082101461031857601f81116102b5575b50602094601f8211600114610252579481929394955f92610247575b50508160011b915f199060031b1c1916176004555b610166816104bb565b901561023f575b60a052608052331561022c5760058054336001600160a01b0319821681179092556040519391906001600160a01b03167f8be0079c531659141344cd1fd0a4f28419497f9722a3daafe3b4186f6b6457e05f80a360016006551561021d5760078054610100600160a81b031916600892831b610100600160a81b03161790556103e89055611325908161055f82396080518181816108bb01528181610c770152610fba015260a051816108fe0152f35b63e6c4247b60e01b5f5260045ffd5b631e4fbdf760e01b5f525f60045260245ffd5b50601261016d565b015190505f80610148565b601f1982169560045f52805f20915f5b88811061029d57508360019596979810610285575b505050811b0160045561015d565b01515f1960f88460031b161c191690555f8080610277565b91926020600181928685015181550194019201610262565b60045f527f8a35acfbc15ff81a39ae7d344fd709f28e8600b4aa8c65c6b64bfe7fe36bd19b601f830160051c8101916020841061030e575b601f0160051c01905b818110610303575061012c565b5f81556001016102f6565b90915081906102ed565b634e487b7160e01b5f52602260045260245ffd5b90607f169061011a565b634e487b7160e01b5f52604160045260245ffd5b015190505f806100e4565b60035f9081528281209350601f198516905b8181106103a3575090846001959493921061038b575b505050811b016003556100f9565b01515f1960f88460031b161c191690555f808061037d565b92936020600181928786015181550195019301610367565b60035f529091507fc2575a0e9e593c00f959f8c92f12db2869c3395a3b0502d05e2516446f71f85b601f840160051c8101916020851061041f575b90601f859493920160051c01905b81811061041157506100ce565b5f8155849350600101610404565b90915081906103f6565b91607f16916100ba565b5f80fd5b601f909101601f19168101906001600160401b0382119082101761033657604052565b6001600160401b03811161033657601f01601f191660200190565b81601f820112156104335780519061048c8261045a565b9261049a6040519485610437565b8284526020838301011161043357815f9260208093018386015e8301015290565b5f8091604051602081019063313ce56760e01b8252600481526104df602482610437565b51916001600160a01b03165afa3d15610556573d906104fd8261045a565b9161050b6040519384610437565b82523d5f602084013e5b8061054a575b610527575b505f905f90565b602081805181010312610433576020015160ff8111610520579060ff6001921690565b5060208151101561051b565b60609061051556fe60806040526004361015610011575f80fd5b5f3560e01c806301e1d11414610b1b57806306fdde0314610a6057806307a2d13a1461083b578063095ea7b3146109b85780630a28a4771461099a57806318160ddd1461097d57806323b872dd14610945578063313ce567146108ea57806338d52e0f146108a65780633f4ba83a14610840578063402d267d146103885780634cdad5061461083b5780635c975abb1461081957806361d027b3146107ed5780636e553f651461077f57806370897b231461072957806370a0823114610311578063715018a6146106ce5780638456cb591461067557806387788782146106585780638da5cb5b1461063057806394bf804d146105fd57806395d89b41146104f9578063962ca496146104df578063a9059cbb146104ae578063b3d7f6b914610490578063b460af94146103f9578063ba0876521461038d578063c63d75b614610388578063c6e6f592146102a0578063ce96cb7714610351578063d905777e14610311578063dd62ed3e146102c1578063e1f1c4a7146102a5578063ef8b30f7146102a0578063f0f442601461023a5763f2fde38b146101b0575f80fd5b34610236576020366003190112610236576101c9610b7d565b6101d1610f12565b6001600160a01b0316801561022357600580546001600160a01b0319811683179091556001600160a01b03167f8be0079c531659141344cd1fd0a4f28419497f9722a3daafe3b4186f6b6457e05f80a3005b631e4fbdf760e01b5f525f60045260245ffd5b5f80fd5b3461023657602036600319011261023657610253610b7d565b61025b610f12565b6001600160a01b038116156102915760078054610100600160a81b03191660089290921b610100600160a81b0316919091179055005b63e6c4247b60e01b5f5260045ffd5b610c08565b34610236575f3660031901126102365760206040516127108152f35b34610236576040366003190112610236576102da610b7d565b6102e2610b93565b6001600160a01b039182165f908152600160209081526040808320949093168252928352819020549051908152f35b3461023657602036600319011261023657602061034961032f610b7d565b6001600160a01b03165f9081526020819052604090205490565b604051908152f35b34610236576020366003190112610236576001600160a01b03610372610b7d565b165f525f602052602061034960405f2054610d2a565b610ba9565b346102365761039b36610bce565b90916103b78260018060a01b03165f525f60205260405f205490565b8082116103d85750806020936103cf61034993610d2a565b93849133611073565b91632e52afbb60e21b5f5260018060a01b031660045260245260445260645ffd5b346102365761040736610bce565b610412929192610f39565b61041a610f59565b8115610481577f92ccf450a286a957af52509bc1c9939d1a6a481783e142e41e2499f0bb66ebc6604060209461045e859461045486610d57565b9687918433611073565b81519384528584018590526001600160a01b031692a26001600655604051908152f35b63162908e360e11b5f5260045ffd5b34610236576020366003190112610236576020610349600435610cf9565b34610236576040366003190112610236576104d46104ca610b7d565b6024359033610e55565b602060405160018152f35b34610236575f3660031901126102365760206040515f8152f35b34610236575f366003190112610236576040515f6004548060011c906001811680156105f3575b6020831081146105df578285529081156105bb575060011461055d575b6105598361054d81850382610c26565b60405191829182610b35565b0390f35b91905060045f527f8a35acfbc15ff81a39ae7d344fd709f28e8600b4aa8c65c6b64bfe7fe36bd19b915f905b8082106105a15750909150810160200161054d61053d565b919260018160209254838588010152019101909291610589565b60ff191660208086019190915291151560051b8401909101915061054d905061053d565b634e487b7160e01b5f52602260045260245ffd5b91607f1691610520565b3461023657604036600319011261023657602060043561034961061e610b93565b9161062881610cf9565b809333610f74565b34610236575f366003190112610236576005546040516001600160a01b039091168152602090f35b34610236575f366003190112610236576020600854604051908152f35b34610236575f3660031901126102365761068d610f12565b610695610f59565b600160ff1960075416176007557f62e78cea01bee320cd4e420270b5ea74000d11b0c9f74754ebdbfc544b05a2586020604051338152a1005b34610236575f366003190112610236576106e6610f12565b600580546001600160a01b031981169091555f906001600160a01b03167f8be0079c531659141344cd1fd0a4f28419497f9722a3daafe3b4186f6b6457e08280a3005b3461023657602036600319011261023657600435610745610f12565b6127108111610481576020817f9b49d0cd76012d9c67241c2f68f836efbaf50ea29901a250040671402d5263f592600855604051908152a1005b346102365760403660031901126102365760043561079b610b93565b6107a3610f39565b6107ab610f59565b811561048157817f73a19dd210f1a7f902193214c0ee91dd35ee5b4d920cba8d519eca65a7b488ca60406107e0602095610d85565b9361045e85858333610f74565b34610236575f3660031901126102365760075460405160089190911c6001600160a01b03168152602090f35b34610236575f36600319011261023657602060ff600754166040519015158152f35b610b5f565b34610236575f36600319011261023657610858610f12565b60075460ff8116156108975760ff19166007557f5db9ee0a495bf2e6ff9c91a7834c1ba4fdd244a5e8aa4e537bd38aeae4b073aa6020604051338152a1005b638dfc202b60e01b5f5260045ffd5b34610236575f366003190112610236576040517f00000000000000000000000000000000000000000000000000000000000000006001600160a01b03168152602090f35b34610236575f3660031901126102365760ff7f00000000000000000000000000000000000000000000000000000000000000001660ff811161093157602090604051908152f35b634e487b7160e01b5f52601160045260245ffd5b34610236576060366003190112610236576104d4610961610b7d565b610969610b93565b60443591610978833383610db2565b610e55565b34610236575f366003190112610236576020600254604051908152f35b34610236576020366003190112610236576020610349600435610d57565b34610236576040366003190112610236576109d1610b7d565b602435903315610a4d576001600160a01b0316908115610a3a57335f52600160205260405f20825f526020528060405f20556040519081527f8c5be1e5ebec7d5bd14f71427d1e84f3dd0314c0f7b2291e5b200ac8c7c3b92560203392a3602060405160018152f35b634a1406b160e11b5f525f60045260245ffd5b63e602df0560e01b5f525f60045260245ffd5b34610236575f366003190112610236576040515f6003548060011c90600181168015610b11575b6020831081146105df578285529081156105bb5750600114610ab3576105598361054d81850382610c26565b91905060035f527fc2575a0e9e593c00f959f8c92f12db2869c3395a3b0502d05e2516446f71f85b915f905b808210610af75750909150810160200161054d61053d565b919260018160209254838588010152019101909291610adf565b91607f1691610a87565b34610236575f366003190112610236576020610349610c5c565b602060409281835280519182918282860152018484015e5f828201840152601f01601f1916010190565b34610236576020366003190112610236576020610349600435610d2a565b600435906001600160a01b038216820361023657565b602435906001600160a01b038216820361023657565b3461023657602036600319011261023657610bc2610b7d565b5060206040515f198152f35b606090600319011261023657600435906024356001600160a01b038116810361023657906044356001600160a01b03811681036102365790565b34610236576020366003190112610236576020610349600435610d85565b90601f8019910116810190811067ffffffffffffffff821117610c4857604052565b634e487b7160e01b5f52604160045260245ffd5b6040516370a0823160e01b81523060048201526020816024817f00000000000000000000000000000000000000000000000000000000000000006001600160a01b03165afa908115610ce1575f91610cb2575090565b90506020813d602011610cd9575b81610ccd60209383610c26565b81010312610236575190565b3d9150610cc0565b6040513d5f823e3d90fd5b9190820180921161093157565b610d01610c5c565b9060018201809211610931576002546001810180911161093157610d2792600192611186565b90565b610d32610c5c565b9060018201809211610931576002546001810180911161093157610d27925f92611186565b600254906001820180921161093157610d6e610c5c565b6001810180911161093157610d2792600192611186565b600254906001820180921161093157610d9c610c5c565b6001810180911161093157610d27925f92611186565b6001600160a01b039081165f818152600160209081526040808320948616835293905291909120549291905f198410610dec575b50505050565b828410610e32578015610a4d576001600160a01b03821615610a3a575f52600160205260405f209060018060a01b03165f5260205260405f20910390555f808080610de6565b508290637dc7a0d960e11b5f5260018060a01b031660045260245260445260645ffd5b6001600160a01b0316908115610eff576001600160a01b0316918215610eec57815f525f60205260405f2054818110610ed357817fddf252ad1be2c89b69c2b068fc378daa952ba7f163c4a11628f55a4df523b3ef92602092855f525f84520360405f2055845f525f825260405f20818154019055604051908152a3565b8263391434e360e21b5f5260045260245260445260645ffd5b63ec442f0560e01b5f525f60045260245ffd5b634b637e8f60e11b5f525f60045260245ffd5b6005546001600160a01b03163303610f2657565b63118cdaa760e01b5f523360045260245ffd5b600260065414610f4a576002600655565b633ee5aeb560e01b5f5260045ffd5b60ff60075416610f6557565b63d93c066560e01b5f5260045ffd5b6040516323b872dd60e01b60208201526001600160a01b039091166024820181905230604483015260648083018590528252929190610fe790610fb8608482610c26565b7f00000000000000000000000000000000000000000000000000000000000000006001600160a01b0316611297565b6001600160a01b0316928315610eec577fdcbc1c05240f31ff3ad067ef1ee35ce4997762752e3a095284754544f4c709d79181611028604093600254610cec565b600255855f525f602052825f20818154019055855f7fddf252ad1be2c89b69c2b068fc378daa952ba7f163c4a11628f55a4df523b3ef60208651858152a382519182526020820152a3565b6001600160a01b03808416959294908216939092918290878603611175575b5050508415610eff57845f525f60205260405f205481811061115c5791816040927ffbde797d201c681b91056529119e0b02407c7bb96a4a2c75c01fc9667232c8db94885f525f60205203835f205580600254036002555f877fddf252ad1be2c89b69c2b068fc378daa952ba7f163c4a11628f55a4df523b3ef60208651858152a3825163a9059cbb60e01b60208201526001600160a01b0390961660248701819052604480880184905287529561114f90610fb8606482610c26565b82519182526020820152a4565b8563391434e360e21b5f5260045260245260445260645ffd5b61117e92610db2565b5f8181611092565b92916111938183866111f8565b9260048110156111e45760018091161491826111b9575b5050610d279250151590610cec565b90809250156111d057610d27930915155f806111aa565b634e487b7160e01b5f52601260045260245ffd5b634e487b7160e01b5f52602160045260245ffd5b90915f19838309928083029283808610950394808603951461128957848311156112715790829109815f0382168092046002816003021880820260020302808202600203028082026002030280820260020302808202600203028091026002030293600183805f03040190848311900302920304170290565b82634e487b715f52156003026011186020526024601cfd5b5050809250156111d0570490565b905f602091828151910182855af115610ce1575f513d6112e657506001600160a01b0381163b155b6112c65750565b635274afe760e01b5f9081526001600160a01b0391909116600452602490fd5b600114156112bf56fea26469706673582212203cd4cfd7ca4a647107d61953fb08f961162d679d51677a4c0df2ff9dc4b79b9d64736f6c634300081c0033","linkReferences":{}},"methodIdentifiers":{"BASIS_POINTS()":"e1f1c4a7","allowance(address,address)":"dd62ed3e","approve(address,uint256)":"095ea7b3","asset()":"38d52e0f","balanceOf(address)":"70a08231","convertToAssets(uint256)":"07a2d13a","convertToShares(uint256)":"c6e6f592","decimals()":"313ce567","deposit(uint256,address)":"6e553f65","getCurrentAPY()":"962ca496","maxDeposit(address)":"402d267d","maxMint(address)":"c63d75b6","maxRedeem(address)":"d905777e","maxWithdraw(address)":"ce96cb77","mint(uint256,address)":"94bf804d","name()":"06fdde03","owner()":"8da5cb5b","pause()":"8456cb59","paused()":"5c975abb","performanceFee()":"87788782","previewDeposit(uint256)":"ef8b30f7","previewMint(uint256)":"b3d7f6b9","previewRedeem(uint256)":"4cdad506","previewWithdraw(uint256)":"0a28a477","redeem(uint256,address,address)":"ba087652","renounceOwnership()":"715018a6","setPerformanceFee(uint256)":"70897b23","setTreasury(address)":"f0f44260","symbol()":"95d89b41","totalAssets()":"01e1d114","totalSupply()":"18160ddd","transfer(address,uint256)":"a9059cbb","transferFrom(address,address,uint256)":"23b872dd","transferOwnership(address)":"f2fde38b","treasury()":"61d027b3","unpause()":"3f4ba83a","withdraw(uint256,address,address)":"b460af94"},"id":0}